:1000000007C1000036C1000034C1000032C1000049
:1000100030C100002EC100002CC100002AC1000028
:1000200028C100000C94D5090C94D5090C94D5096D
:1000300020C100001EC100001CC100001AC1000048
:1000400018C1000016C1000014C1000012C1000058
:1000500010C100000EC100000CC100000C94310959
:1000600008C100000C94BA0B0C94900B02C1000064
:1000700000C10000FEC00000FCC00000FAC000008B
:10008000F8C00000F6C00000F4C00000F2C000009C
:100090000C94670B0C943D0BECC00000EAC0000010
:1000A000E8C00000E6C00000E4C00000E2C00000BC
:1000B000E0C00000DEC00000DCC00000DAC00000CC
:1000C000D8C00000D6C00000D4C000000C94140BAF
:1000D0000C94EA0ACEC000000C94C10A0C94980A51
:1000E000C8C00000D301D601C501C901CD010D0270
:1000F000DA01DE01E401E801EC01F201F601FA01A6
:100100000D0200020402080200000A0B02090C0D95
:100110000E080703040100000000000000000000BA
:1001200000000000000000000000000000000000CF
:10013000000000001211100000000000000000008C
:1001400000000000000000000000000000000000AF
:100150002200250028002B002E003100340002016F
:100160000000050108010B01000021002400270008
:100170002A002D00300033000101000004010701B6
:100180000A0105050505070508080808020202021C
:100190000A0A080804040404010101010101010123
:1001A0000303030303030303040707070C0C0C0CEE
:1001B0000C0C0C0C020202020606060606060606D7
:1001C0000B0B0B0B0B0B0B0B010210202008081064
:1001D00020401020408002010201080402010102B7
:1001E0000408102040808040201008040201800490
:1001F00002018040201008040201080402010102EB
:1002000004081020408001020408102040801512CC
:1002100011241FBECFEFD1E2DEBFCDBF00E00CBF87
:1002200012E0A0E0B2E0E0E3FBE200E00BBF02C0BE
:1002300007900D92A238B107D9F729E0A2E8B2E001
:1002400001C01D92AA3EB207E1F711E0C8E0D1E07B
:1002500000E006C021970109802FFE010E9469136A
:10026000C730D10780E00807A9F70E94150F0C944A
:100270009615C6CEFC01538D448D252F30E0842F7A
:1002800090E0821B930B541710F0CF9608950197BE
:100290000895FC01918D828D981761F0828DDF01A8
:1002A000A80FB11D5D968C91928D9F5F9F73928F69
:1002B00090E008958FEF9FEF0895FC01918D828D5E
:1002C000981731F0828DE80FF11D858D90E008952B
:1002D0008FEF9FEF0895FC01918D228D892F90E083
:1002E000805C9F4F821B91098F739927089580E04E
:1002F00090E0892B21F00E94790A811119C080E0D9
:1003000090E0892B21F00E946F0A811114C080E0D7
:1003100090E0892B21F00E94650A81110FC080E0D6
:1003200090E0892B81F00E945B0A81110AC0089538
:100330000E940000E4CF0E940000E9CF0E9400006C
:10034000EECF0C9400000895362F90E0FC01E85F9A
:10035000FE4F4491FC01E853FE4F2491FC01EE57FF
:10036000FE4F9491992309F46BC0442309F455C0BE
:1003700050E0FA013197E231F10508F04EC08827CC
:10038000EE58FF4F8F4F0C946913809180008F7748
:1003900007C0809180008F7D03C080918000877F9F
:1003A000809380003AC084B58F7702C084B58F7D7A
:1003B00084BD33C08091B0008F7703C08091B000BE
:1003C0008F7D8093B00029C0809190008F7707C007
:1003D000809190008F7D03C080919000877F8093F3
:1003E00090001BC08091A0008F7707C08091A00073
:1003F0008F7D03C08091A000877F8093A0000DC0F7
:10040000809120018F7707C0809120018F7D03C0EC
:1004100080912001877F80932001E92FF0E0EE0F8B
:10042000FF1FE25BFE4FA591B4918FB7F894EC915A
:10043000311103C020952E2301C02E2B2C938FBF8A
:10044000089561E0FC0184817FDF80918402811145
:100450001092840208958EBD00000DB407FEFDCFFA
:100460008EB508958FEFF7CFCF93DF93EC018E8198
:10047000882379F08F8198859C012F5F3F4F3887C3
:100480002F838230924010F4EDDFF4CFCE01D9DF1C
:100490001E82DF91CF910895089580E090E0089545
:1004A00060E089E251DF60E089E24ECF61E089E2FD
:1004B0004BDF61E089E248CF0E948215CF92DF9244
:1004C000EF92FF921F93CF93DF93EC016A017B01C0
:1004D000122FE889F98982E080834115514E610528
:1004E0007105B1F060E079E08DE390E0A70196013D
:1004F0000E944713DA01C9010197A109B109B69514
:10050000A79597958795AC01411580E15807A8F00C
:10051000E889F989108260E874E88EE190E0A7012B
:1005200096010E944713BA01A9014150510961097E
:1005300071097695679557954795EC85FD855083AC
:10054000EE85FF854083188EEC89FD891083EA894A
:10055000FB89808180618083EA89FB898081886052
:100560008083EA89FB89808180688083EA89FB89AE
:1005700080818F7D8083DF91CF911F91FF90EF90DD
:10058000DF90CF900895FC01848DDF01A80FB11D8D
:10059000A35ABF4F2C91848D90E001968F739927B9
:1005A000848FA689B7892C93A089B1898C918064A6
:1005B0008C93938D848D981306C00288F389E02D67
:1005C00080818F7D80830895EF92FF920F931F9318
:1005D000CF93DF93EC0181E0888F9B8D8C8D9813F6
:1005E00005C0E889F989808185FD23C0F62E0B8D31
:1005F00010E00F5F1F4F0F731127E02E8C8DE81254
:100600000BC00FB607FCFACFE889F989808185FF16
:10061000F5CFCE01B8DFF2CF8B8DFE01E80FF11DD3
:10062000E35AFF4FF0820B8FEA89FB898081806259
:1006300007C0EE89FF896083E889F9898081806439
:10064000808381E090E0DF91CF911F910F91FF9027
:10065000EF900895CF93DF93EC01888D8823C1F04C
:10066000EA89FB89808185FD05C0A889B9898C91BB
:1006700086FD0EC00FB607FCF5CF808185FFF2CF57
:10068000A889B9898C9185FFEDCFCE017CDFE8CFB9
:10069000DF91CF9108953FB7F894809191049091A4
:1006A0009204A0919304B091940426B5A89B05C030
:1006B0002F3F19F00196A11DB11D3FBFBA2FA92FE1
:1006C000982F8827820F911DA11DB11DBC01CD015E
:1006D00042E0660F771F881F991F4A95D1F708954A
:1006E0002FB7F89460918D0470918E0480918F04DF
:1006F000909190042FBF08950F931F93CF93DF9392
:10070000EB01EEDF8B01AEDE8F3F41F0E9DF601BD6
:10071000710B6C177D07B8F380E001C081E0DF91B9
:10072000CF911F910F910895CF92DF92FF920F9377
:100730001F93CF93DF9300D01F92CDB7DEB76C012C
:10074000F62E29833A834B835C838EDE809184026C
:1007500029813A814B815C81811109C081E08093BC
:10076000840290915B0780915C079CBD8DBD60E029
:10077000F601848129833A834B835C83E5DD6CE257
:1007800071E0C601B9DF8F2D806465DE08E110E0FD
:100790005C814B813A812981DA01C901002E04C0B4
:1007A000B695A795979587950A94D2F729833A83AA
:1007B0004B835C8350DE0850110929813A814B81BB
:1007C0005C81083FFFEF1F0739F7FF2029F088E021
:1007D000F81204C087E803C085E901C08FEF3BDE53
:1007E00010E040DEF601828787FF04C01F3F11F052
:1007F0001F5FF7CF0F900F900F900F90DF91CF9169
:100800001F910F91FF90DF90CF900895EF92FF928C
:100810000F931F93CF93DF93EC017901411551059D
:100820006105710511F482E134C08B85833039F0A4
:1008300089E0440F551F661F771F8A95D1F79A01EB
:10084000AB0168E1CE0170DF882311F084E021C0A4
:100850008EEF01DE87018EEFF81AF80181918F018A
:10086000FADD0E151F05C9F78FEFF5DD8FEFF3DD0C
:10087000F9DD8A878F71853029F081E18D83CE0182
:10088000E0DD08C068E572E0CE0136DF811106C008
:1008900085E18D83CE01D5DD80E010C020E030E021
:1008A000A9016DE0CE0140DF811103C0DBDD8823AB
:1008B00011F084E1EECFCE01C4DD81E0DF91CF9174
:1008C0001F910F91FF90EF900895CF93DF93809148
:1008D0008702882389F1C0918502D09186024091D8
:1008E00000025091010260910202709103022CE813
:1008F00032E0CE018BDF811102C080E01EC040914A
:1009000088025091890260918A0270918B02411590
:1009100051056105710571F02CE832E0CE0176DFFA
:10092000882359F3109288021092890210928A0249
:1009300010928B021092870281E0DF91CF9108958F
:10094000BF92CF92DF92EF92FF920F931F93CF93BC
:10095000DF936B017C01B42E809100029091010223
:10096000A0910202B09103028C159D05AE05BF0552
:1009700009F46DC0AADF882309F470C0C091850214
:10098000D09186028E81882369F088819981AA811D
:10099000BB81C816D906EA06FB0621F48F8198852B
:1009A000892B89F1C882D982EA82FB828B85A701D3
:1009B0009601833039F089E0220F331F441F551F01
:1009C0008A95D1F761E1CE01AFDE882319F083E08B
:1009D0008D8331C085DE8B0145DD8A878F3F41F4F1
:1009E0007FDE601B710B6D327140B0F38FE003C08E
:1009F0008E3F29F08DE08D83CE0123DD1CC018864B
:100A00001F8281E08E830CE812E02CDDF8018193D7
:100A10008F01F4E00C381F07C1F78F8198859E5F26
:100A200098878F832985222319F08115924038F009
:100A3000CE011ADD04C0CE0104DD80E00FC0C092FB
:100A40000002D0920102E0920202F0920302809131
:100A50008702482F4B294093870281E0DF91CF9195
:100A60001F910F91FF90EF90DF90CF90BF9008956E
:100A70004F925F926F927F928F929F92AF92BF92AE
:100A8000CF92DF92EF92FF920F931F93CF93DF935A
:100A9000EC016A017B0128013901423051056105F1
:100AA000710510F480E072C089859A85AB85BC859C
:100AB0000196A11DB11D84179507A607B70790F3EE
:100AC0008B889C88AD88BE888F89803129F4BB27AC
:100AD000AF2D9E2D8D2D09C0DB01CA0147E0B695D3
:100AE000A795979587954A95D1F7880E991EAA1EC6
:100AF000BB1E8091000290910102A0910202B09170
:100B0000030288169906AA06BB0679F48F898031FC
:100B100099F4DD24EE24FF24C601880F991FFC01FF
:100B2000E457FD4F5182408218C040E0C501B40136
:100B300007DF8111EBCFB6CFE894C7F8DD24EE24B0
:100B4000FF24C601880F991F880F991FFC01E457E5
:100B5000FD4F408251826282738280918702816060
:100B6000809387028A89823080F08D819E81AF8157
:100B7000B885880E991EAA1EBB1E8092880290928C
:100B80008902A0928A02B0928B0281E0DF91CF911C
:100B90001F910F91FF90EF90DF90CF90BF90AF909B
:100BA0009F908F907F906F905F904F9008958F925D
:100BB0009F92AF92BF92CF92DF92EF92FF920F93EC
:100BC0001F93CF93DF93FC0181859285A385B48524
:100BD0000196A11DB11D84179507A607B70710F44C
:100BE00080E05BC083899489A589B689C789C031B3
:100BF00029F4852E962EA72EBB2409C04A015B013D
:100C0000C7E0B694A79497948794CA95D1F7E90161
:100C10006A017B018F01BC01CD01680D791D8A1D20
:100C20009B1D8090000290900102A0900202B09063
:100C30000302681579058A059B0599F4F8018789EF
:100C40008031A1F4B701A601552766277727440F05
:100C5000551FFA01E457FD4F80819181A0E0B0E07B
:100C600017C040E06DDE8111E9CFBACFB701A60110
:100C70004F77552766277727440F551F440F551F79
:100C8000FA01E457FD4F80819181A281B381BF7049
:100C900088839983AA83BB8381E0DF91CF911F91E1
:100CA0000F91FF90EF90DF90CF90BF90AF909F900B
:100CB0008F9008953F924F925F926F927F928F92A2
:100CC0009F92AF92BF92CF92DF92EF92FF920F93DB
:100CD0001F93CF93DF93CDB7DEB72C970FB6F89461
:100CE000DEBF0FBECDBF5C01DC015B968D909C909A
:100CF0005C971696CD90DD90ED90FC901997C114FD
:100D0000D104E104F10439F0BFEFCB1ADB0AEB0A9E
:100D1000FB0A312C07C0F401C080D180E280F3804F
:100D200033243394F40181859285A385B4859C0195
:100D3000AD012F5F3F4F4F4F5F4F29873A874B875A
:100D40005C87260137011D821E821F821886F401EE
:100D500081859285A385B4852D813E814F815885FB
:100D6000281739074A075B0708F060C089859A850C
:100D7000AB85BC858C159D05AE05BF0550F482E0A2
:100D8000C82ED12CE12CF12C92E0492E512C612C53
:100D9000712C9E012F5F3F4FB701A601C40107DFF1
:100DA000882309F443C089819A81AB81BC81892B56
:100DB0008A2B8B2B41F0260137019FEF491A590AE4
:100DC000690A790A05C0C414D504E604F70491F051
:100DD0002D813E814F8158852F5F3F4F4F4F5F4F91
:100DE0002D833E834F8358873FEFC31AD30AE30A0C
:100DF000F30AADCF0FEF1FEF2FEF3FE0B301A201DA
:100E0000C40136DE882391F0D50116964D915D918F
:100E10006D917C911997411551056105710541F05E
:100E200093018201C40124DE811102C080E02AC046
:100E3000D50116964D925D926D927C921997332052
:100E400051F0D301C2010196A11DB11DF4018083AF
:100E50009183A283B383F5018789908DA18DB28D93
:100E6000892B8A2B8B2B69F4D50157964D925D9275
:100E70006D927C925A9714968C9114978068149670
:100E80008C9381E02C960FB6F894DEBF0FBECDBFD9
:100E9000DF91CF911F910F91FF90EF90DF90CF9056
:100EA000BF90AF909F908F907F906F905F904F908A
:100EB0003F9008954F925F926F927F928F929F9290
:100EC000AF92BF92EF92FF920F931F93CF93DF9356
:100ED00000D01F921F92CDB7DEB78C016D83DC016D
:100EE00015968C911597813009F056C014968C9107
:100EF00081FF52C059C0038CF48DE02D258530E070
:100F0000275F3F4F2A013B01B1E04B1A51086108AE
:100F10007108022E04C076946794579447940A94FB
:100F2000D2F7D501C4010197A109B10904C0B69552
:100F3000A795979587952A95D2F784159505A605C7
:100F4000B70508F06FC0F8014789508D618D728D2B
:100F500046835783608771872C013D017801E6E065
:100F6000EE0EF11CD801411451046104710409F41E
:100F700063C016964D915D916D917C911997970183
:100F80005B968D919C915C9712DEB1E04B1A5108F3
:100F9000610871088111E6CF81E090E0F801938348
:100FA000828380E090E049C182FF0EC0F801428553
:100FB00053856485758583889488A588B688481587
:100FC00059056A057B05F1F4D8011A964D915D919A
:100FD0006D917C911D975B968D919C915C97FC0126
:100FE00074807A944A015B0129E0B694A79497949F
:100FF00087942A95D1F778207A01F1E0FF227720B3
:1010000011F162C081149104A104B10409F073CFFD
:101010001682178210861186F801128613861486AE
:101020001586D2CF452B462B472B09F48CCF84193C
:101030009509A609B70990CF1A968D929D92AD9207
:10104000BC921D97C1CFE114F10409F03DC0F80135
:10105000468157816085718541155105610571058E
:1010600049F48789908DA18DB28D0097A105B105B6
:1010700031F520C09E012F5F3F4F99DD882309F491
:1010800090CF89819A81AB81BC81F801238D348D09
:10109000F9012789203129F048EF5FEF6FEF7FE0FA
:1010A00004C048EF5FEF60E070E084179507A60783
:1010B000B70728F0C801FEDD811106C06DCFF80129
:1010C00086839783A087B187D8015B96ED91FC91C9
:1010D0005C9716968D909D90AD90BC901997B2E05C
:1010E0008B1A9108A108B108058404C0880C991CCA
:1010F000AA1CBB1C0A94D2F786859785A089B18962
:10110000880E991EAA1EBB1E870C911CA11CB11C27
:10111000E114F10401F5F801428553856485758574
:1011200083899489A589B689481759076A077B0777
:1011300090F0CBDB882309F42FCF809200029092AD
:101140000102A0920202B0920302809187028160A4
:101150008093870207C041E0C501B401F1DB882319
:1011600009F41ACFF701E457FD4F8D818083F80110
:1011700082859385A485B5850196A11DB11D8287C1
:101180009387A487B58743895489658976894817E9
:1011900059076A077B0738F4838B948BA58BB68B32
:1011A000848180688483D80114968C9183FD03C068
:1011B00081E090E042C0F8019581992309F4ECCEDA
:1011C00087FF37C0668577858089918941E0B8DBE4
:1011D000882309F4E1CED8015296EC91B0E2EB9F5E
:1011E00090011124D901A457BD4F109709F4D4CE12
:1011F000F8018581823050F4438954896589768964
:101200005C964D935D936D937C935F97F80187890E
:10121000908DA18DB28DF901E457FD4F938F828F90
:10122000B58BA48BD80114968C9114978F77149654
:101230008C934BDB8111BCCFAFCE0F900F900F90F2
:101240000F900F90DF91CF911F910F91FF90EF9032
:10125000BF90AF909F908F907F906F905F904F90D6
:1012600008951F920F920FB60F9211242F933F9360
:101270008F939F93AF93BF9380918D0490918E0431
:10128000A0918F04B091900430918C0423E0230F3F
:101290002D3720F40196A11DB11D05C026E8230FAE
:1012A0000296A11DB11D20938C0480938D04909310
:1012B0008E04A0938F04B093900480919104909138
:1012C0009204A0919304B09194040196A11DB11DC4
:1012D0008093910490939204A0939304B093940408
:1012E000BF91AF919F918F913F912F910F900FBE22
:1012F0000F901F901895CF93DF93EC018FE994E046
:101300000E946B01892B29F08FE994E00E9449012A
:10131000F5CFBE018FE994E0F6D06FEF8FE994E04E
:1013200053D96FEF8FE994E04FD96FEF8FE994E0D5
:10133000DF91CF9149C9CF93DF9300D000D0CDB7D3
:10134000DEB71A8219821C821B821E821D8240E037
:1013500050E063E472E0CE01019602D560915F0730
:1013600070916007CE010196DCD468E272E0CE0194
:101370000196D7D46FE272E0CE010196D2D46DE22D
:1013800072E0CE010196CDD489819A81B4DF42D238
:1013900089819A810E94061426960FB6F894DEBFC2
:1013A0000FBECDBFDF91CF9108951F920F920FB660
:1013B0000F9211240F900FBE0F901F901895CF928F
:1013C000DF92EF92FF920F931F93CF93DF936C0105
:1013D0007A018B01C0E0D0E0CE15DF0589F0D8019D
:1013E0006D918D01D601ED91FC910190F081E02D80
:1013F000C6011995892B11F47E0102C02196ECCF0C
:10140000C701DF91CF911F910F91FF90EF90DF9077
:10141000CF900895FC01A089B1898C91A689B789E4
:1014200082FD0FC09C91818D8F5F8F73228D8217FB
:1014300049F0218DDF01A20FB11D5D969C93818F34
:1014400008958C910895EF92FF920F931F93CF937D
:10145000DF93CDB7DEB729970FB6F894DEBF0FBE86
:10146000CDBF8C01862FF801118210821382128267
:101470001582148250E09E012F5F3F4F7901B90120
:1014800090E00E941413F70101900020E9F73197D2
:10149000AF014E195F09B701C80162D429960FB692
:1014A000F894DEBF0FBECDBFDF91CF911F910F919A
:1014B000FF90EF9008958FE994E00E946B0121E086
:1014C000892B09F420E0822F08958CE395E00E9497
:1014D0006B0121E0892B09F420E0822F089589ED2A
:1014E00095E00E946B0121E0892B09F420E0822F16
:1014F000089586E796E00E946B0121E0892B09F4AC
:1015000020E0822F08956115710579F0FB010190AB
:101510000020E9F73197AF01461B570BDC01ED9135
:10152000FC910280F381E02D199480E090E0089511
:101530001F920F920FB60F9211240BB60F922F939A
:101540003F934F935F936F937F938F939F93AF934B
:10155000BF93EF93FF938FE994E015D8FF91EF913C
:10156000BF91AF919F918F917F916F915F914F91BB
:101570003F912F910F900BBE0F900FBE0F901F90B9
:1015800018951F920F920FB60F9211240BB60F925F
:101590002F933F934F935F936F937F938F939F937B
:1015A000AF93BF93EF93FF938FE994E033DFFF9105
:1015B000EF91BF91AF919F918F917F916F915F91CB
:1015C0004F913F912F910F900BBE0F900FBE0F9038
:1015D0001F9018951F920F920FB60F9211240BB601
:1015E0000F922F933F934F935F936F937F938F93BC
:1015F0009F93AF93BF93EF93FF938CE395E00E948B
:10160000C302FF91EF91BF91AF919F918F917F9115
:101610006F915F914F913F912F910F900BBE0F9063
:101620000FBE0F901F9018951F920F920FB60F923A
:1016300011240BB60F922F933F934F935F936F93A9
:101640007F938F939F93AF93BF93EF93FF938CE31D
:1016500095E0E0DEFF91EF91BF91AF919F918F9167
:101660007F916F915F914F913F912F910F900BBEA2
:101670000F900FBE0F901F9018951F920F920FB6EC
:101680000F9211240BB60F922F933F934F935F93BA
:101690006F937F938F939F93AF93BF93EF93FF933A
:1016A00089ED95E00E94C302FF91EF91BF91AF9148
:1016B0009F918F917F916F915F914F913F912F916A
:1016C0000F900BBE0F900FBE0F901F9018951F929A
:1016D0000F920FB60F9211240BB60F922F933F93D8
:1016E0004F935F936F937F938F939F93AF93BF932A
:1016F000EF93FF9389ED95E08DDEFF91EF91BF9120
:10170000AF919F918F917F916F915F914F913F9199
:101710002F910F900BBE0F900FBE0F901F9018953A
:101720001F920F920FB60F9211240BB60F922F93A8
:101730003F934F935F936F937F938F939F93AF9359
:10174000BF93EF93FF9386E796E00E94C302FF9159
:10175000EF91BF91AF919F918F917F916F915F9129
:101760004F913F912F910F900BBE0F900FBE0F9096
:101770001F9018951F920F920FB60F9211240BB65F
:101780000F922F933F934F935F936F937F938F931A
:101790009F93AF93BF93EF93FF9386E796E03ADE74
:1017A000FF91EF91BF91AF919F918F917F916F9139
:1017B0005F914F913F912F910F900BBE0F900FBEF5
:1017C0000F901F9018950F931F93CF93DF93EC0109
:1017D00088819981009729F02A813B812617370754
:1017E00088F48B016F5F7F4F0E949E14009761F019
:1017F000998388831B830A832C813D81232B11F4D9
:10180000FC01108281E001C080E0DF91CF911F9147
:101810000F9108958F929F92AF92BF92EF92FF9295
:101820000F931F93CF93DF9300D01F92CDB7DEB7F6
:1018300019821A821B821C8284E690E0A0E0B0E04C
:101840008093A3049093A404A093A504B093A6044A
:101850008E010F5F1F4F7E0185E0E80EF11C0E9494
:1018600070036093A7047093A8048093A9049093D5
:10187000AA04E0919F04F091A0040284F385E02D76
:101880008FE994E0199597FD0AC0F80181938F01C3
:10189000EE15FF0521F78981813049F51EC00E94B0
:1018A00070038090A7049090A804A090A904B09021
:1018B000AA04DC01CB0188199909AA09BB09809007
:1018C000A3049090A404A090A504B090A604881549
:1018D0009905AA05BB0568F2DECF8A818F3F39F4EE
:1018E0008B818F3F21F481E09C819F3F09F080E054
:1018F0000F900F900F900F90DF91CF911F910F914C
:10190000FF90EF90BF90AF909F908F9008958F922F
:101910009F92AF92BF92DF92EF92FF920F931F932D
:10192000CF93DF93CDB7DEB7DA950FB6F894DEBF6D
:101930000FBECDBF80916B07898386E08A8380913B
:10194000F0079091F1079B838C838091F40790912D
:10195000F5079D838E83CE0101967C01FC018FEFFC
:101960009FEF8701BE2C66E06E0D2191822728E053
:1019700030E0AC015695479580FF06C0CA01A1E052
:101980008A27A0EA9A2701C0CA012150310989F7A4
:101990006E13EBCF8F83988719868091690790919A
:1019A0006A07DC01ED91FC910284F385E02D199525
:1019B000019699F7E0917F08F0918008309709F03F
:1019C0001995E8E0BE0E8091690790916A07D701EA
:1019D0006D917D01DC01ED91FC910190F081E02D94
:1019E0001995BE10F0CF8091690790916A07DC01CC
:1019F000ED91FC910680F781E02D1995E091810829
:101A0000F0918208309709F019950E9470034B01FC
:101A10005C0188E0F82EE12C8091690790916A07BB
:101A2000DC01ED91FC910084F185E02D1995892B65
:101A3000A9F0DD24D394DE0C8091690790916A07A8
:101A4000DC01ED91FC910284F385E02D1995F801FC
:101A5000EE0DF11D8083FA94ED2C07C0E0917D0816
:101A6000F0917E08309709F01995B5E0EB1224C08B
:101A7000998180916B079813ABC08A81982F9F77CB
:101A8000963009F0A7C087FF04C08B81882349F1F5
:101A900085C0813130F48F3050F48550823060F44D
:101AA00006C0863139F0873139F4FB8005C0B3E0D8
:101AB000FB2E02C0A5E0FA2E0E947003DC01CB01D0
:101AC00088199909AA09BB09813D9740A105B1056B
:101AD00010F082EE63C0F1109FCFF4E0FE1508F025
:101AE0007BC02FEF3FEFE0E08E2D90E0AC01425045
:101AF00051096E2F70E064177507C4F4D801A60F62
:101B0000B71F6C91262768E070E0D901B695A795BC
:101B100020FF06C09D01F1E02F27F0EA3F2701C01A
:101B20009D016150710989F7EF5FE3CFF801E40F80
:101B3000F51F40814213A0C0FE01E80FF91F80810C
:101B400083139AC049C02034E8F4880F991FDC0140
:101B5000A759B84FE5E0F0E0EC0FFD1FE80FF91FC3
:101B6000408150E0542F4427E4E0F0E0EC0FFD1FEB
:101B7000E80FF91F8081FA01E82BCF0118969C939A
:101B80008E931797322F2F5F822F90E0861797073B
:101B9000D4F230937C08F0FC53C080E010927608B9
:101BA000109278081092770810927B08D3950FB6A0
:101BB000F894DEBF0FBECDBFDF91CF911F910F9183
:101BC000FF90EF90DF90BF90AF909F908F9008951F
:101BD00080EEE4CF81EEE2CF8A81853030F483302D
:101BE00030F4813008F03FC0D8CF8731B1F66B8137
:101BF00070E07595679520917C0840E0842F90E017
:101C0000861797076CF54034C0F49C012E5F3F4F58
:101C1000220F331F880F991FFC01E759F84FDE018F
:101C2000A20FB31F8C9190E0982F8827D801A20FA4
:101C3000B31F2C91822B90878783242F4F5FDECF99
:101C4000203468F4880F991FFC01E759F84FD80138
:101C5000A80FB91F13968C9190E0908787832F5F10
:101C600020937C089ACFFB806F2D70E07595679567
:101C700030917C0820E088CF83EE90CF8F929F92A6
:101C8000AF92BF92CF92DF92EF92FF926B017C01F5
:101C90000E9470034B015C01C60ED71EE81EF91EA0
:101CA0000E947003681579058A059B0528F0C61601
:101CB000D706E806F906A0F7FF90EF90DF90CF90E7
:101CC000BF90AF909F908F900895EF92FF920F93E7
:101CD0001F93CF93DF93FC0124813581611571053A
:101CE00011F480E017C04115510599F07B01EC011A
:101CF0008A01020F131FB80166DD882391F3288142
:101D000039818C819D81B701820F931F08D71D8374
:101D10000C8381E0DF91CF911F910F91FF90EF90A5
:101D200008956115710549F0FB0101900020E9F764
:101D30003197AF01461B570BC8CF80E00895CF9372
:101D4000DF93EC0188819981009709F05FD51982B2
:101D500018821D821C821B821A82DF91CF91089506
:101D6000EF92FF920F931F93CF93DF93EC017B01D0
:101D70008A01BA0128DD811103C0CE01E0DF06C06F
:101D80001D830C83B70188819981C9D6CE01DF916B
:101D9000CF911F910F91FF90EF9008954F925F9216
:101DA0006F927F92EF92FF920F931F93CF93DF93E7
:101DB000CDB7DEB7A1970FB6F894DEBF0FBECDBF8B
:101DC0007C01FA01CB0119A2223008F42AE08E012D
:101DD0000F5D1F4F422E512C612C712CBF01A301AE
:101DE000920155D4F901CA01015011096A3014F465
:101DF000605D01C0695CD8016C93232B242B252BDB
:101E000069F7B801C7017FDBA1960FB6F894DEBF72
:101E10000FBECDBFDF91CF911F910F91FF90EF903B
:101E20007F906F905F904F900895CF93DF93CDB7E1
:101E3000DEB7A2970FB6F894DEBF0FBECDBF789481
:101E400084B5826084BD84B5816084BD85B58260BF
:101E500085BD85B5816085BD80916E008160809370
:101E60006E001092810080918100826080938100D9
:101E700080918100816080938100809180008160E9
:101E8000809380008091B10084608093B100809144
:101E9000B00081608093B000809191008260809357
:101EA00091008091910081608093910080919000D9
:101EB0008160809390008091A10082608093A10056
:101EC0008091A10081608093A1008091A000816039
:101ED0008093A000809121018260809321018091F4
:101EE0002101816080932101809120018160809394
:101EF000200180917A00846080937A0080917A003A
:101F0000826080937A0080917A00816080937A0069
:101F100080917A00806880937A001092C1001092BC
:101F20005707109258071092590710925A071092AB
:101F3000150710921607109217071092180768EBF2
:101F40007BE080E090E09ADE86E796E0909356078B
:101F50008093550726E040E052EC61E070E00E947B
:101F60005E020E94700360931507709316078093BA
:101F700017079093180762E372E0809155079091DC
:101F80005607C1DA6AE070E080E090E077DE81E039
:101F90008093290726E040E855E260E070E08FE991
:101FA00094E00E945E0264E472E08FE994E0ABDAB0
:101FB00061E472E08FE994E0A6DA26E040E855E2B9
:101FC00060E070E08FE994E00E945E0283E492E0BA
:101FD00092D98BE592E08FD91DDC83E692E08BD914
:101FE00019DC8BE999E0909366078093650710925E
:101FF0006807109267070E947003672B682B692B94
:1020000041F40E947003623071058105910508F466
:1020100001C10E94700360939B0470939C048093A1
:102020009D0490939E040091970410919804209130
:10203000990430919A04601771078207930740F45E
:1020400060939704709398048093990490939A04F2
:1020500000919704109198042091990430919A046A
:102060006B017C01C01AD10AE20AF30A97018601CA
:102070000A3F11052105310508F4CCC0609397048F
:10208000709398048093990490939A0484EF91E05C
:10209000A0E0B0E08093210790932207A09323074C
:1020A000B093240710922507109226071092270755
:1020B000109228078091190790911A07A0911B0789
:1020C000B0911C0780931D0790931E07A0931F07D4
:1020D000B09320070E9470036093190770931A074A
:1020E00080931B0790931C070E9470036093150751
:1020F0007093160780931707909318070E94700338
:102100006B017C016AE672E0809155079091560759
:10211000FAD92AE041E050E060E070E08091550794
:10212000909156073BDE61E772E0809155079091F0
:102130005607E9D92AE0B701A60180915507909189
:1021400056072CDE63E772E08091550790915607A1
:10215000DAD98091190790911A07A0911B07B091C5
:102160001C07B701A601481B590B6A0B7B0B2AE021
:10217000809155079091560711DE63E772E08091D8
:10218000550790915607BFD94091190750911A07EA
:1021900060911B0770911C0780911D0790911E078D
:1021A000A0911F07B0912007481B590B6A0B7B0BAE
:1021B0002AE08091550790915607F0DD65E772E0BF
:1021C00080915507909156079ED90E947003AB01EC
:1021D000BC012AE08091550790915607DFDD009100
:1021E00055071091560767E772E0C8018CD961E482
:1021F00072E0C80188D965E070E080E090E03EDDE3
:102200000E9470036093190770931A0780931B074D
:1022100090931C078AE08093960481E08093950454
:1022200031EF232E31E0332E4BEAC42E41E0D42E81
:1022300052E0E52EF12C8E01015E1F4F7090960446
:10224000F1014491F6018491882399F090E0880F80
:10225000991FFC01E859FE4FA591B491FC01E25B86
:10226000FE4F259134918FB7F8949C91492B4C9354
:102270008FBF2EE040E05BE460E070E089ED95E028
:102280000E945E0270926B0789ED95E090936A0759
:102290008093690710927608109278081092770858
:1022A00086E592E09093800880937F08E0E5F2E075
:1022B000F0938208E09381081A8E198E1C8E1B8E73
:1022C0001E8E1D8E40E050E063E472E0CE01499620
:1022D00047DDF092F107E092F0071092F3071092B9
:1022E000F207F092F507E092F40711DB60907007B7
:1022F000709071074AE060E0CE010196A4D84AE0F0
:10230000662DCE0107969FD84AE0672DCE014396F1
:102310009AD81E861D86188A1F861A8A198A6B8982
:102320007C896115710531F04F89588DCE010D966C
:1023300017DD03C0CE010D9602DD4B855C856F81F4
:102340007885CE010D96C1DC811103C0CE010D96BA
:10235000F6DC4AE0B80180E090E05CD1F801019041
:102360000020E9F73197AF01401B510BB801CE01B6
:102370000D96ABDC811103C0CE010D96E0DC4D81E2
:102380005E8169817A81CE010D969FDC811103C047
:10239000CE010D96D4DC6D857E856115710531F019
:1023A00049895A89CE014996DBDC03C0CE014996A2
:1023B000C6DC8D859E852AD28B899C8927D28F8108
:1023C000988524D289819A8121D2898D9A8D1ED2B5
:1023D0000E944B034B015C0188EE482E83E0582E8F
:1023E000612C712C0E944B03DC01CB0188199909E7
:1023F000AA09BB09883E9340A105B10580F0F1E030
:102400004F1A51086108710828EE820E23E0921ECF
:10241000A11CB11C411451046104710419F7411449
:10242000510461047104F1F609CFEFE9F4E013827D
:10243000128248EE53E060E070E044835583668387
:1024400077838EE092E09183808325E331E03587C6
:10245000248724E331E03787268720E331E0318B7E
:10246000208B21E331E0338B228B22E331E0358B6B
:10247000248B26E331E0378B268B118E128E138E40
:10248000148EECE3F5E01382128244835583668355
:1024900077839183808325ED30E03587248724ED91
:1024A00030E03787268720ED30E0318B208B21ED1F
:1024B00030E0338B228B22ED30E0358B248B26ED00
:1024C00030E0378B268B118E128E138E148EE9ED31
:1024D000F5E0138212824483558366837783918368
:1024E00080832DEC30E0358724872CEC30E0378773
:1024F000268728EC30E0318B208B29EC30E0338BC1
:10250000228B2AEC30E0358B248B2EEC30E0378B9D
:10251000268B118E128E138E148EE6E7F6E0138250
:10252000128244835583668377839183808385EC0D
:1025300090E09587848784EC90E09787868780EC8D
:1025400090E0918B808B81EC90E0938B828B82EC7E
:1025500090E0958B848B86EC90E0978B868B118E28
:10256000128E138E148EE3E1F7E016821782108626
:102570001186128613861486158616861786108A8B
:10258000118A128A138A148A158AEBE5F7E080E52E
:1025900080831182E3E8F8E01582168211861386A3
:1025A00082E090E0A0E0B0E084879587A687B787B7
:1025B00013A215A614A680E292E093A782A717A6FD
:1025C00010927E0810927D081092800810927F0869
:1025D00010928208109281081092E1091092E0098D
:1025E0001092E3091092E2091092E5091092E409B1
:1025F000EDE5F7E010828DE081838EE792E0938332
:1026000082831582148211861086138612861782A1
:1026100016820895BB274A3031F4992322F4BDE293
:10262000909581959F4F0BC04532510518F442306B
:1026300008F004C0FB011082CB010895BB27FB0109
:102640005527AA27880F991FAA1FA41710F0A41BAB
:1026500083955051B9F7A05DAA3308F0A95DA19305
:10266000009779F7B111B1931192CB0100C0DC0151
:10267000FC01672F71917723E1F7329704C07C91B9
:102680006D9370836291AE17BF07C8F30895A1E2FE
:102690001A2EAA1BBB1BFD010DC0AA1FBB1FEE1FDC
:1026A000FF1FA217B307E407F50720F0A21BB30B27
:1026B000E40BF50B661F771F881F991F1A9469F7A3
:1026C00060957095809590959B01AC01BD01CF01FF
:1026D0000895EE0FFF1F881F8BBF0790F691E02D26
:1026E0001994CF93DF938230910510F482E090E04B
:1026F000E091E809F091E90920E030E0C0E0D0E0A5
:10270000309711F14081518148175907C0F048179F
:10271000590761F482819381209719F09B838A8302
:102720002BC09093E9098093E80926C02115310553
:1027300019F04217530718F49A01BE01DF01EF01A7
:102740000280F381E02DDCCF2115310509F1281B32
:10275000390B2430310590F412968D919C9113978A
:102760006115710521F0FB019383828304C090936E
:10277000E9098093E809FD01329644C0FD01E20FAA
:10278000F31F81939193225031092D933C933AC0CA
:102790002091E6093091E709232B41F420910602AC
:1027A000309107023093E7092093E6092091040253
:1027B000309105022115310541F42DB73EB7409106
:1027C000080250910902241B350BE091E609F091B3
:1027D000E709E217F307A0F42E1B3F0B2817390770
:1027E00078F0AC014E5F5F4F2417350748F04E0F6D
:1027F0005F1F5093E7094093E6098193919302C0CC
:10280000E0E0F0E0CF01DF91CF9108950F931F93A7
:10281000CF93DF93009709F48CC0FC0132971382A9
:1028200012820091E8091091E9090115110581F45E
:1028300020813181820F931F2091E6093091E709B1
:102840002817390779F5F093E709E093E60971C095
:10285000D80140E050E0AE17BF0750F412962D911A
:102860003C911397AD012115310509F1D901F3CF41
:102870009D01DA013383228360817181860F971F66
:102880008217930769F4EC0128813981260F371FDD
:102890002E5F3F4F318320838A819B819383828384
:1028A000452B29F4F093E909E093E80942C0139617
:1028B000FC93EE931297ED01499159919E01240FDB
:1028C000351FE217F30771F480819181840F951F02
:1028D000029611969C938E938281938113969C937A
:1028E0008E931297E0E0F0E0D80112968D919C91C2
:1028F0001397009719F0F8018C01F6CF8D919C91F8
:1029000098012E5F3F4F820F931F2091E60930916F
:10291000E7092817390769F4309729F41092E90973
:102920001092E80902C0138212821093E709009303
:10293000E609DF91CF911F910F9108956F927F92D9
:102940008F929F92AF92BF92CF92DF92EF92FF92BF
:102950000F931F93CF93DF93EC01009781F4CB018A
:10296000DF91CF911F910F91FF90EF90DF90CF906B
:10297000BF90AF909F908F907F906F90B2CEFC01F0
:10298000E60FF71F9C0122503109E217F30708F404
:10299000A8C0D9010D911C91119706171707A8F02F
:1029A0000530110508F49BC0C801049786179707E6
:1029B00008F495C002501109061B170B01931193DF
:1029C0006D937C93CF0122DF8AC05B01A01AB10A0C
:1029D0004C01800E911EA091E809B091E90940E0F8
:1029E00050E0E12CF12C109709F44AC0A815B90564
:1029F000D1F56D907C901197630182E0C80ED11CD7
:102A0000CA14DB0480F1A3014A195B096A0182E060
:102A1000C80ED11C1296BC9012971396AC91B5E0DB
:102A2000CB16D10440F0B282A38351834083D901F5
:102A30006D937C930AC00E5F1F4FC301800F911FDF
:102A4000F90191838083EB2DFA2FE114F10431F029
:102A5000D7011396FC93EE93129741C0F093E909C6
:102A6000E093E8093CC08D919C9111974817590754
:102A700008F4AC017D0112960D90BC91A02DB3CF4E
:102A80008091E6099091E70988159905E1F44617C8
:102A90005707C8F48091040290910502009741F411
:102AA0008DB79EB74091080250910902841B950B87
:102AB000E817F907B0F4F093E709E093E609F901A4
:102AC000718360830CC0CB010CDE7C01009749F060
:102AD000A801BE011BD0CE0199DEC70104C0CE0102
:102AE00002C080E090E0DF91CF911F910F91FF90A5
:102AF000EF90DF90CF90BF90AF909F908F907F909E
:102B00006F90089581E090E0F89410C0FB01DC0123
:102B100002C001900D9241505040D8F70895FB013A
:102B2000DC0101900D920020E1F70895F894FFCFA9
:102B3000FFFFFFFF0000EA09800000000000E40240
:102B4000DF093A012A036B0149015D010000000021
:102B50005A07DF094D024C022E7478743D2200356D
:102B60003000564D4450565F317C315F564D4450D5
:102B7000560D0A0052533233325F54544C20436F87
:102B80006E666967757261646F2100626B636D6464
:102B90003D310070616765203000564D4450455FFF
:102BA000003A323A007C005F564D44504500743183
:022BB0003300F0
:020000023000CC
:10E000000D9489F10D94B2F10D94B2F10D94B2F129
:10E010000D94B2F10D94B2F10D94B2F10D94B2F1F0
:10E020000D94B2F10D94B2F10D94B2F10D94B2F1E0
:10E030000D94B2F10D94B2F10D94B2F10D94B2F1D0
:10E040000D94B2F10D94B2F10D94B2F10D94B2F1C0
:10E050000D94B2F10D94B2F10D94B2F10D94B2F1B0
:10E060000D94B2F10D94B2F10D94B2F10D94B2F1A0
:10E070000D94B2F10D94B2F10D94B2F10D94B2F190
:10E080000D94B2F10D94B2F10D94B2F10D94B2F180
:10E090000D94B2F10D94B2F10D94B2F10D94B2F170
:10E0A0000D94B2F10D94B2F10D94B2F10D94B2F160
:10E0B0000D94B2F10D94B2F10D94B2F10D94B2F150
:10E0C0000D94B2F10D94B2F10D94B2F10D94B2F140
:10E0D0000D94B2F10D94B2F10D94B2F10D94B2F130
:10E0E0000D94B2F141546D656761323536300041AF
:10E0F000726475696E6F206578706C6F72657220DE
:10E1000073746B3530305632206279204D4C530099
:10E11000426F6F746C6F616465723E004875683F52
:10E1200000436F6D70696C6564206F6E203D200048
:10E130004350552054797065202020203D20005FF9
:10E140005F4156525F415243485F5F3D2000415658
:10E1500052204C696243205665723D20004743437C
:10E160002056657273696F6E203D20004350552024
:10E1700049442020202020203D20004C6F7720663D
:10E18000757365202020203D20004869676820665F
:10E190007573652020203D200045787420667573D6
:10E1A00065202020203D20004C6F636B2066757336
:10E1B000652020203D20004D617220203720323024
:10E1C000313300312E362E3800342E332E350056A2
:10E1D00023202020414444522020206F7020636F70
:10E1E00064652020202020696E73747275637469E1
:10E1F0006F6E2061646472202020496E74657272B3
:10E20000757074006E6F20766563746F7200726A49
:10E210006D702020006A6D70200057686174207056
:10E220006F72743A00506F7274206E6F7420737541
:10E2300070706F72746564004D7573742062652030
:10E2400061206C6574746572002000577269747483
:10E25000696E672045450052656164696E672045B7
:10E26000450045452065727220636E743D00504F35
:10E27000525400303D5A65726F2061646472003FF1
:10E280003D43505520737461747300403D454550C3
:10E29000524F4D207465737400423D426C696E6B41
:10E2A000204C454400453D44756D70204545505215
:10E2B0004F4D00463D44756D7020464C415348001B
:10E2C000483D48656C70004C3D4C69737420492F83
:10E2D0004F20506F72747300513D51756974005234
:10E2E0003D44756D702052414D00563D73686F7707
:10E2F00020696E7465727275707420566563746FF0
:10E30000727300593D506F727420626C696E6B00BD
:10E310002A0011241FBECFEFD1E2DEBFCDBF01E046
:10E320000CBF12E0A0E0B2E0EEE1FDEF03E00BBFB6
:10E3300002C007900D92A030B107D9F712E0A0E01B
:10E34000B2E001C01D92AE30B107E1F70F9460F367
:10E350000D948DFE01E20EBF0FEF0DBF11241FBE05
:10E360000D9460F30D9400F020E030E040ED57E0B4
:10E3700005C0FA013197F1F72F5F3F4F2817390792
:10E38000C0F308959C01260F311DC901A0E0B0E043
:10E390002F5F3F4FABBFFC018791882361F08093D3
:10E3A000C6008091C00086FFFCCF8091C0008064D1
:10E3B0008093C000EACF08958DE08093C6008091DD
:10E3C000C00086FFFCCF8091C00080648093C000B5
:10E3D0008AE08093C6008091C00086FFFCCF8091C8
:10E3E000C00080648093C00008950F94C2F10F9420
:10E3F000DCF10895FC019081992359F09093C600B7
:10E400008091C00086FFFCCF8091C0008064809323
:10E41000C0003196992379F70895282F982F929567
:10E420009F70892F805D8A3308F0895F8093C600D2
:10E430008091C00086FFFCCF8091C00080648093F3
:10E44000C000822F8F70982F905D9A3308F0995FEB
:10E450009093C6008091C00086FFFCCF8091C000E1
:10E4600080648093C00008959C01FB01853691056E
:10E470001CF46330710594F0C90164E670E00F94F8
:10E480002EFE605D7F4F6093C6008091C00086FFC6
:10E49000FCCF8091C00080648093C0002B30310598
:10E4A00014F43297B4F0C90164E670E00F942EFEC4
:10E4B0006AE070E00F942EFE605D7F4F6093C600AF
:10E4C0008091C00086FFFCCF8091C0008064809363
:10E4D000C000C9016AE070E00F942EFEC0968093E0
:10E4E000C6008091C00086FFFCCF8091C000806490
:10E4F0008093C00008951F93182F8EE692EE60E07F
:10E500000F94C2F11093C6008091C00086FFFCCF2B
:10E510008091C00080648093C0000F94DCF11F9153
:10E5200008952F923F924F925F926F927F928F92B7
:10E530009F92AF92BF92CF92DF92EF92FF920F9392
:10E540001F93DF93CF93CDB7DEB762970FB6F894E2
:10E55000DEBF0FBECDBF382E622ECA01DB015C01CB
:10E560006D01772420E2222E2E010894411C511CBB
:10E570008BC081E0A81680E0B80681E0C80680E084
:10E58000D80628F0C601AA27BB270F940DF2BB2797
:10E59000AD2D9C2D8B2D0F940DF28A2D0F940DF225
:10E5A0002092C6008091C00086FFFCCF8091C00001
:10E5B00080648093C0009DE29093C6008091C0006B
:10E5C00086FFFCCF8091C00080648093C0002092C1
:10E5D000C6008091C00086FFFCCF8091C00080649F
:10E5E0008093C00019828601750188249924A1E0D6
:10E5F0003A1651F03A1620F0B2E03B1661F409C029
:10E600000BBFF701779007C0C7010F9477FE782EF4
:10E6100002C0F7017080872D0F940DF22092C60082
:10E620008091C00086FFFCCF8091C0008064809301
:10E63000C000872D8052F401EF70F0708F3520F408
:10E64000E40DF51D708204C0E40DF51D8EE280839B
:10E650000894E11CF11C011D111D0894811C911CE2
:10E6600090E18916910409F0C2CF80E190E0A0E02A
:10E67000B0E0A80EB91ECA1EDB1E198AC2010F9493
:10E68000FAF10F94DCF16A94662009F072CF629679
:10E690000FB6F894DEBF0FBECDBFCF91DF911F91B3
:10E6A0000F91FF90EF90DF90CF90BF90AF909F9031
:10E6B0008F907F906F905F904F903F902F90089534
:10E6C0002F923F924F925F926F927F928F929F9282
:10E6D000AF92BF92CF92DF92EF92FF920F931F9370
:10E6E000DF93CF93CDB7DEB7CD53D1400FB6F894BB
:10E6F000DEBF0FBECDBF01E20EBF0FEF0DBF94B75F
:10E70000F894A89514BE80916000886180936000A1
:10E7100010926000789493FF05C0E0910002F091A0
:10E7200001021995279A2F9A8091C00082608093E8
:10E73000C00080E18093C40088E18093C1000000A4
:10E74000EE24FF24870144E0A42EB12CCC24DD2448
:10E7500024C0C5010197F1F70894E11CF11C011DCB
:10E76000111D21E2E2162EE4F20620E0020720E06D
:10E77000120718F031E0C32ED12CC801B70127ECE5
:10E780003BE140E050E00F9441FE611571058105C9
:10E79000910519F485B1805885B98091C00087FD35
:10E7A00003C0C114D104A9F2A6014F5F5F4FC25E3E
:10E7B000DE4F59834883CE51D140C25EDE4F8881FF
:10E7C0009981CE51D140019711F00D9410FEC05D9A
:10E7D000DE4F19821882C053D14060E0C15DDE4F28
:10E7E0001882CF52D14088249924C35DDE4F19820C
:10E7F0001882CD52D140C05EDE4F188219821A8233
:10E800001B82C052D140CE5CDE4F188219821A8220
:10E810001B82C253D140EE24FF2487010BBFF701B6
:10E8200007911691C45CDE4F19830883CC53D14005
:10E830000D940BFEC25EDE4F28813981CE51D1404E
:10E840002130310509F52091C600C25EDE4F1982E4
:10E850001882CE51D14022C02F5F3F4F4F4F5F4FA4
:10E86000213082E138078AE7480780E0580780F0C6
:10E87000C45CDE4FE881F981CC53D140EF5FFF4F9C
:10E8800019F0EE27FF27099420E030E040E050E047
:10E890008091C00087FFE0CF2091C600C35DDE4FAE
:10E8A00048815981CD52D1404F5F5F4FC35DDE4FEC
:10E8B00059834883CD52D140213209F063C64A3092
:10E8C000510508F05FC60894811C911C53E0851621
:10E8D000910409F059C600E010E018C081E280936D
:10E8E000C6008091C00086FFFCCF8091C00080648C
:10E8F0008093C0002F5F3F4F2931310579F70F9486
:10E90000DCF10F5F1F4F0530110519F020E030E0FA
:10E91000E5CF10920A0210920B0210920C02109294
:10E920000D02109206021092070210920802109235
:10E930000902109202021092030210920402109235
:10E9400005028FEE90EE60E00F94F5F180E191EE1C
:10E9500060E00F94C2F18091C00087FFFCCF9091DE
:10E96000C600903608F09F759032B8F09093C600BC
:10E970008091C00086FFFCCF8091C00080648093AE
:10E98000C000A0E2A093C6008091C00086FFFCCF2B
:10E990008091C00080648093C000983409F4D7C18E
:10E9A0009934B8F4923409F459C1933458F490333B
:10E9B00019F1903308F4E3C59F33A1F1903409F0C5
:10E9C000DEC5BDC0953409F470C1963409F0D7C5D1
:10E9D00098C1923509F42BC2933538F49C3409F46C
:10E9E000F5C1913509F0CBC518C2963509F445C279
:10E9F000993509F0C4C567C483E792EE62E00F94CD
:10EA0000F5F110920602109207021092080210927D
:10EA1000090210920A0210920B0210920C0210923C
:10EA20000D0213C18FE792EE62E00F94F5F18FEEC5
:10EA300090EE60E00F94F5F181E291EE60E00F94CA
:10EA4000C2F187EB91EE60E00F94F5F180E391EE77
:10EA500060E00F94C2F184EE90EE60E00F94F5F167
:10EA60008FE391EE60E00F94C2F186E090E061E008
:10EA700070E00F9434F20F94DCF18DE591EE60E0DC
:10EA80000F94C2F189EC91EE60E00F94F5F18EE401
:10EA900091EE60E00F94C2F183EC91EE60E00F9490
:10EAA000F5F18CE691EE60E00F94C2F18EE10F94E7
:10EAB0000DF288E90F940DF281E00F940DF20F949E
:10EAC000DCF18BE791EE60E00F94C2F119E0E0E039
:10EAD000F0E010935700E4918E2F0F940DF20F94F5
:10EAE000DCF18AE891EE60E00F94C2F1E3E0F0E03F
:10EAF00010935700E4918E2F0F940DF20F94DCF1D8
:10EB000089E991EE60E00F94C2F1E2E0F0E0109349
:10EB10005700E4918E2F0F940DF20F94DCF188EAE8
:10EB200091EE60E00F94C2F1E1E0F0E01093570045
:10EB30001491812F0F940DF20F94DCF107CF8BE825
:10EB400092EE62E00F94F5F18BE492EE60E00F94A8
:10EB5000F5F10F94DCF100E010E019C0C8016F2D51
:10EB60000F947FFEFF2031F489E492EE60E00F9471
:10EB7000C2F10BC0F092C6008091C00086FFFCCFAE
:10EB80008091C00080648093C0000F5F1F4FC80158
:10EB900081519F41A0E0B0E0ABBFFC01F790BAE229
:10EBA000FB1621F0E2E000301E07C1F60F94DCF105
:10EBB0000F94DCF187E592EE60E00F94F5F10F948D
:10EBC000DCF1CC24DD2400E010E01EC0C8010F946D
:10EBD00077FEF82E882331F489E492EE60E00F94FA
:10EBE000C2F10BC08093C6008091C00086FFFCCFAD
:10EBF0008091C00080648093C000FE1419F00894D6
:10EC0000C11CD11C0F5F1F4FC80181519F41A0E063
:10EC1000B0E0ABBFFC01E790FAE2EF1621F022E092
:10EC20000030120799F60F94DCF10F94DCF182E6C4
:10EC300092EE60E00F94C2F1C60161E070E00F94C3
:10EC400034F20F94DCF10F94DCF110920202109276
:10EC50000302109204021092050278CE89E992EE26
:10EC600062E00F94F5F1279A2F9A16C02F9880E052
:10EC700090E0E0EDF7E03197F1F7019684369105E9
:10EC8000C1F72F9A80E090E0E0EDF7E03197F1F7DF
:10EC9000019684369105C1F78091C00087FFE6CFC9
:10ECA0008091C00087FFFCCF64C485EA92EE62E0E9
:10ECB0000F94F5F140910202509103026091040219
:10ECC0007091050281E020E10F9491F2809102029F
:10ECD00090910302A0910402B091050280509F4FD1
:10ECE000AF4FBF4F8093020290930302A0930402A0
:10ECF000B093050280509041A040B04008F426CE69
:10ED0000A4CF83EB92EE62E00F94F5F140910602FE
:10ED100050910702609108027091090280E020E1A1
:10ED20000F9491F28091060290910702A09108023F
:10ED3000B091090280509F4FAF4FBF4F80930602A2
:10ED400090930702A0930802B0930902FFCD80ECD4
:10ED500092EE62E00F94F5F183E792EE60E00F949B
:10ED6000F5F18FE792EE60E00F94F5F18BE892EE0B
:10ED700060E00F94F5F189E992EE60E00F94F5F10F
:10ED800085EA92EE60E00F94F5F183EB92EE60E09D
:10ED90000F94F5F180EC92EE60E00F94F5F187ECC2
:10EDA00092EE60E00F94F5F188ED92EE60E00F9442
:10EDB000F5F18FED92EE60E00F94F5F18AEE92EEB0
:10EDC00060E00F94F5F183E093EEBDCD87EC92EE19
:10EDD00062E00F94F5F181E40F947BF282E40F94EA
:10EDE0007BF283E40F947BF284E40F947BF285E45E
:10EDF0000F947BF286E40F947BF287E40F947BF20E
:10EE000088E40F947BF28AE40F947BF28BE40F94F6
:10EE10007BF28CE40F947BF299CD88ED92EE62E068
:10EE20000F94F5F1772473948824992409C48FED05
:10EE300092EE62E00F94F5F140910A0250910B02BC
:10EE400060910C0270910D0282E020E10F9491F22A
:10EE500080910A0290910B02A0910C02B0910D02D8
:10EE600080509F4FAF4FBF4F80930A0290930B0289
:10EE7000A0930C02B0930D0269CD8AEE92EE62E08F
:10EE80000F94F5F184EE90EE60E00F94F5F18FECC5
:10EE900091EE60E00F94F5F1662477244301CC5D98
:10EEA000DE4F19821882C452D140D401C301B695F5
:10EEB000A79597958795CA5DDE4F88839983AA8326
:10EEC000BB83C652D140CC5DDE4FA881B981C4520C
:10EED000D1401196CC5DDE4FB983A883C452D14096
:10EEE000CD0162E070E00F9434F2B0E2B093C6005E
:10EEF0008091C00086FFFCCF8091C0008064809329
:10EF0000C000EDE2E093C6008091C00086FFFCCF18
:10EF10008091C00080648093C000F0E2F093C6004E
:10EF20008091C00086FFFCCF8091C00080648093F8
:10EF3000C000CA5DDE4FE880F9800A811B81C6529D
:10EF4000D140BB27A12F902F8F2D0F940DF2CA5DBA
:10EF5000DE4F8881C652D1400F940DF2B0E2FB2EF5
:10EF6000F092C6008091C00086FFFCCF8091C00067
:10EF700080648093C0000DE30093C6008091C000C0
:10EF800086FFFCCF8091C00080648093C00010E2B7
:10EF90001093C6008091C00086FFFCCF8091C00016
:10EFA00080648093C0008BBEF3012791C65DDE4F65
:10EFB0002883CA52D140A22EBB24CC24DD2408943D
:10EFC000611C711C811C911C8BBEF3018791282E42
:10EFD0003324442455240894611C711C811C911C09
:10EFE0008BBEF3013791C55DDE4F3883CB52D140E4
:10EFF0000894611C711C811C911C8BBEF30147910C
:10F00000C45DDE4F4883CC52D140ADEFEA2EAFEF66
:10F01000FA2EAFEF0A2FAFEF1A2F6E0C7F1C801E57
:10F02000911E142D032DF22CEE24EA0CFB1C0C1D5A
:10F030001D1D0F940DF220E22093C6008091C000A8
:10F0400086FFFCCF8091C00080648093C000C65DC5
:10F05000DE4F8881CA52D1400F940DF230E23093D6
:10F06000C6008091C00086FFFCCF8091C000806404
:10F070008093C000C45DDE4F8881CC52D1400F9494
:10F080000DF240E24093C6008091C00086FFFCCFA5
:10F090008091C00080648093C000C55DDE4F888190
:10F0A000CB52D1400F940DF250E25093C6008091A4
:10F0B000C00086FFFCCF8091C00080648093C000B8
:10F0C0008FEFE8168FEFF80680E0080780E018075A
:10F0D00031F484E092EE60E00F94C2F1DFC0D80119
:10F0E000C7018070907CA070B0708050904CA040A0
:10F0F000B040D1F52FEF3FE340E050E0E222F322B1
:10F1000004231523CA5DDE4FA880B980CA80DB8046
:10F11000C652D140AE0CBF1CC01ED11EAA0CBB1CD7
:10F12000CC1CDD1C8EE092EE60E00F94C2F1BB2798
:10F13000A12F902F8F2D0F940DF28E2D0F940DF285
:10F1400030E23093C6008091C00086FFFCCF8091F2
:10F15000C00080648093C0004EE34093C60080915D
:10F16000C00086FFFCCF87C08EE09EEFA0E0B0E03D
:10F17000E822F9220A231B239CE0E91694E9F90608
:10F1800090E0090790E0190709F088C0C45DDE4FE0
:10F19000A881CC52D140EA2EFF2400E010E0102FCD
:10F1A0000F2DFE2CEE24C55DDE4FB881CB52D14031
:10F1B000EB0EF11C011D111DD601C501817090706F
:10F1C000A070B070DC0199278827E80EF91E0A1F8D
:10F1D0001B1F20EF30E040E050E0A222B322C42207
:10F1E000D52241E1AA0CBB1CCC1CDD1C4A95D1F7F1
:10F1F000EA0CFB1C0C1D1D1D81E090E0A0E0B0E0BE
:10F20000282239224A225B2235E1220C331C441C7D
:10F21000551C3A95D1F7E20CF31C041D151D57013E
:10F220006801AA0CBB1CCC1CDD1C85E192EE60E0E1
:10F230000F94C2F1C801AA27BB270F940DF2BB2778
:10F24000A12F902F8F2D0F940DF28E2D0F940DF274
:10F2500090E29093C6008091C00086FFFCCF809121
:10F26000C00080648093C000AEE3A093C60080918C
:10F27000C00086FFFCCF8091C00080648093C000F6
:10F28000C601AA27BB270F940DF2BB27AD2D9C2DDD
:10F290008B2D0F940DF28A2D0F940DF20F94DCF14B
:10F2A000CC5DDE4FE881F981C452D140F99709F471
:10F2B0004DCBF4E0EF2EF12C012D112D6E0C7F1CA7
:10F2C000801E911EF2CD83E093EE62E00F94F5F183
:10F2D0008AE192EE60E00F94C2F18091C00087FF56
:10F2E000FCCF1091C6001F751093C6008091C0001E
:10F2F00086FFFCCF8091C00080648093C0000F9493
:10F30000DCF1812F81548A3108F036C1163409F4BA
:10F3100095C0173490F4133409F44EC0143430F40B
:10F320001134F1F0123409F01DC130C0143409F465
:10F3300059C0153409F016C16BC01A3409F4C4C0A1
:10F340001B3438F4173409F48FC0183409F00AC19B
:10F35000A1C01B3409F4D2C01C3409F003C1E8C0B9
:10F360008FEF81B90DC082B1809582B980E090E0C5
:10F37000E0EDF7E03197F1F70196883C9105C1F790
:10F380008091C00087FFEFCF12B8EFC08FEF84B934
:10F390000DC085B1809585B980E090E0E0EDF7E0A3
:10F3A0003197F1F70196883C9105C1F78091C00033
:10F3B00087FFEFCF15B8D9C08FEF87B90DC088B1DF
:10F3C000809588B980E090E0E0EDF7E03197F1F7C3
:10F3D0000196883C9105C1F78091C00087FFEFCF6F
:10F3E00018B8C3C08FEF8AB90DC08BB180958BB9A7
:10F3F00080E090E0E0EDF7E03197F1F70196883C8E
:10F400009105C1F78091C00087FFEFCF1BB8ADC059
:10F410008FEF8DB90DC08EB180958EB980E090E0F0
:10F42000E0EDF7E03197F1F70196883C9105C1F7DF
:10F430008091C00087FFEFCF1EB897C08FEF80BBD1
:10F440000DC081B3809581BB80E090E0E0EDF7E0F6
:10F450003197F1F70196883C9105C1F78091C00082
:10F4600087FFEFCF11BA81C08FEF83BB0DC084B38C
:10F47000809584BB80E090E0E0EDF7E03197F1F714
:10F480000196883C9105C1F78091C00087FFEFCFBE
:10F4900014BA6BC08FEF809301010FC080910201FD
:10F4A00080958093020180E090E0E0EDF7E03197F5
:10F4B000F1F70196883C9105C1F78091C00087FF64
:10F4C000EDCF1092020151C08FEF809304010FC065
:10F4D0008091050180958093050180E090E0E0ED4A
:10F4E000F7E03197F1F70196883C9105C1F78091DB
:10F4F000C00087FFEDCF1092050137C08FEF8093DA
:10F5000007010FC08091080180958093080180E079
:10F5100090E0E0EDF7E03197F1F70196883C910536
:10F52000C1F78091C00087FFEDCF109208011DC088
:10F530008FEF80930A010FC080910B01809580931B
:10F540000B0180E090E0E0EDF7E03197F1F70196F4
:10F55000883C9105C1F78091C00087FFEDCF1092E4
:10F560000B0103C085E292EEEEC98091C00087FFD7
:10F57000FCCF8091C600EAC988E392EEE4C98CE131
:10F5800091EEE1C988249924933011F1943028F444
:10F59000913089F09230B8F408C0953061F195301F
:10F5A000F0F0963009F048C043C02B3109F042C951
:10F5B00091E06BE13FC96227C15DDE4F2883CF52E6
:10F5C000D14092E037C9B22FA0E0622793E032C960
:10F5D000822F90E0A82BB92B622794E02BC92E3004
:10F5E00009F039C3622795E0C05DDE4F19821882A9
:10F5F000C053D1401FC9E1E0F0E0EC0FFD1FC05D3A
:10F60000DE4F08811981C053D140E00FF11F2083E4
:10F610000F5F1F4FC05DDE4F19830883C053D14079
:10F6200062270A171B0709F005C9D80196E002C92D
:10F63000261709F010C303C0973009F0FBC87724E0
:10F640009981933109F412C19431C8F4963009F4C8
:10F65000D8C0973050F4923009F406C1933009F4C1
:10F660006DC0913009F059C253C0913109F477C08F
:10F67000923108F0BBC0903109F04FC2F5C098310B
:10F6800009F487C0993150F4953109F4EFC09531F0
:10F6900008F4C6C1963109F040C2C2C19A3109F4DA
:10F6A0006CC09A3108F491C09B3109F45BC09D3164
:10F6B00009F033C29D81903359F48F81882311F46E
:10F6C0009EE11CC0813011F091E018C098E916C08D
:10F6D000892F807591F0903539F4E0E0F0E089E011
:10F6E0008093570094910AC0983539F4E3E0F0E034
:10F6F00089E080935700949101C090E01A821B82A8
:10F700008D818C831D829E831F8227E030E009C299
:10F710001A8288E08B8381E48C8386E58D8382E581
:10F720008E8389E48F8383E5888780E589878FE5E9
:10F730008A8782E38B872BE030E0F3C18A818139AD
:10F7400041F0823941F0803911F48FE005C080E04A
:10F7500003C082E001C08AE01A828B8344C0772410
:10F76000739482C08D81882311F48EE12CC0813086
:10F7700011F081E028C088E926C01A82E1E0F0E0BB
:10F7800089E08093570084918B831C8224E030E0D1
:10F79000C8C18B81803589F48C81883039F4E2E0EE
:10F7A000F0E089E08093570084910DC0E0E0F0E044
:10F7B00089E080935700849106C0E3E0F0E089E09F
:10F7C0008093570084911A82DFCF8D81836C99E0FA
:10F7D000E1E0F0E0082E90935700E89507B600FCB2
:10F7E000FDCF1A821B8223E030E09BC180EC8A832C
:10F7F000CE5CDE4F188219821A821B82C253D1401E
:10F800008EC18A8190E0A0E0B0E0582F44273327D2
:10F8100022278B8190E0A0E0B0E0DC0199278827C7
:10F82000282B392B4A2B5B2B8D8190E0A0E0B0E098
:10F83000282B392B4A2B5B2B8C8190E0A0E0B0E089
:10F84000BA2FA92F982F8827282B392B4A2B5B2BCF
:10F85000220F331F441F551FC05EDE4F288339839C
:10F860004A835B83C052D1401A8259C13A81C95C34
:10F87000DE4F3883C753D140CA5CDE4F1882C6536F
:10F88000D1408B81C82EDD24CA5CDE4F488159816E
:10F89000C653D140C42AD52A933109F082C0CE5C28
:10F8A000DE4F88819981AA81BB81C253D1408050AB
:10F8B000904CA340B04030F583E0CE5CDE4FE88052
:10F8C000F9800A811B81C253D140F70100935B008C
:10F8D00080935700E89507B600FCFDCFCE5CDE4F65
:10F8E000088119812A813B81C253D14000501F4FAA
:10F8F0002F4F3F4FCE5CDE4F088319832A833B8313
:10F90000C253D140C05EDE4F488159816A817B81FC
:10F91000C052D140DE011B9631E08C9111962C91A2
:10F9200011971296C75CDE4F2883C953D140C85C3B
:10F93000DE4F1882C853D14090E0C85CDE4FE881AA
:10F94000F981C853D1408E2B9F2B0C01FA01609393
:10F950005B0030935700E89511244E5F5F4F6F4F67
:10F960007F4F0EEFE02E0FEFF02ECE0CDF1CC114F8
:10F97000D10499F685E0C05EDE4F088119812A81A5
:10F980003B81C052D140F80120935B008093570027
:10F99000E89507B600FCFDCF81E180935700E8951C
:10F9A00035C0C05EDE4F88819981AA81BB81C0527B
:10F9B000D140B695A795979587957C018601ABE0D8
:10F9C000AA2EB12CAC0EBD1E0BC0D5016D915D01F0
:10F9D000C7010F947FFE0894E11CF11C01501040F8
:10F9E0000115110591F7A60160E070E0440F551F65
:10F9F000661F771FC05EDE4FE880F9800A811B8199
:10FA0000C052D1404E0D5F1D601F711F1A82C05E33
:10FA1000DE4F488359836A837B83C052D1407FC0C5
:10FA2000FA80C55CDE4FF882CB53D140C65CDE4F16
:10FA30001882CA53D1408B81C82EDD24C65CDE4FAC
:10FA400008811981CA53D140C02AD12A1A828981DA
:10FA5000BE016D5F7F4F843121F59601C05EDE4FA0
:10FA6000E880F9800A811B81C052D1400BBFF701A9
:10FA700087919691DB018C9311969C936E5F7F4FDB
:10FA8000D801C7010296A11DB11DC05EDE4F88835B
:10FA90009983AA83BB83C052D14022503040F1F6F3
:10FAA00036C0C05EDE4F288139814A815B81C052F9
:10FAB000D1400894C108D108760100E010E0089414
:10FAC000C11CD11C0894E11CF11C011D111DE20E8A
:10FAD000F31E041F151F21BDBB27A52F942F832FB5
:10FAE00082BD2F5F3F4F4F4F5F4FF89A80B5DB01CC
:10FAF0008D93BD012E153F054007510761F7C05E8C
:10FB0000DE4F288339834A835B83C052D1409601FC
:10FB10002D5F3F4FFB01108204C080EC8A8322E0FE
:10FB200030E08BE18093C6008091C00086FFFCCF5F
:10FB30008091C00080648093C000C15DDE4FF88179
:10FB4000CF52D140F093C6008091C00086FFFCCF19
:10FB50008091C00080648093C000432F3093C60022
:10FB60008091C00086FFFCCF8091C00080648093AC
:10FB7000C000922F2093C6008091C00086FFFCCF6A
:10FB80008091C00080648093C0008EE08093C600A6
:10FB90008091C00086FFFCCF8091C000806480937C
:10FBA000C00065E1C15DDE4FE880CF52D1406E25D7
:10FBB00069276427FE01319610C090819093C6009A
:10FBC0008091C00086FFFCCF31968091C000806498
:10FBD0008093C0006927215030402115310569F715
:10FBE0006093C6008091C00086FFFCCF8091C0006A
:10FBF00080648093C00085B1805885B9772081F4F6
:10FC0000C15DDE4F0881CF52D1400F5FC15DDE4F35
:10FC10000883CF52D14090E0A0E0B0E00D941AF4F8
:10FC200027982F9880E090E020ED37E0F901319798
:10FC3000F1F7019684369105C9F700008091C00064
:10FC40008D7F8093C00081E180935700E895EE2777
:10FC5000FF270994FFCF90E00D941AF497FB092E2B
:10FC600007260AD077FD04D02ED006D000201AF443
:10FC7000709561957F4F0895F6F7909581959F4F08
:10FC80000895A1E21A2EAA1BBB1BFD010DC0AA1FDD
:10FC9000BB1FEE1FFF1FA217B307E407F50720F0F5
:10FCA000A21BB30BE40BF50B661F771F881F991F70
:10FCB0001A9469F760957095809590959B01AC01B9
:10FCC000BD01CF010895AA1BBB1B51E107C0AA1FAC
:10FCD000BB1FA617B70710F0A61BB70B881F991FED
:10FCE0005A95A9F780959095BC01CD010895F99991
:10FCF000FECF92BD81BDF89A992780B50895262F31
:10FD0000F999FECF1FBA92BD81BD20BD0FB6F89400
:0EFD1000FA9AF99A0FBE01960895F894FFCF63
:040000033000E000E9
:00000001FF