:1000000007C1000036C1000034C1000032C1000049
:1000100030C100002EC100002CC100002AC1000028
:1000200028C100000C94D5090C94D5090C94D5096D
:1000300020C100001EC100001CC100001AC1000048
:1000400018C1000016C1000014C1000012C1000058
:1000500010C100000EC100000CC100000C94310959
:1000600008C100000C94BA0B0C94900B02C1000064
:1000700000C10000FEC00000FCC00000FAC000008B
:10008000F8C00000F6C00000F4C00000F2C000009C
:100090000C94670B0C943D0BECC00000EAC0000010
:1000A000E8C00000E6C00000E4C00000E2C00000BC
:1000B000E0C00000DEC00000DCC00000DAC00000CC
:1000C000D8C00000D6C00000D4C000000C94140BAF
:1000D0000C94EA0ACEC000000C94C10A0C94980A51
:1000E000C8C00000D301D601C501C901CD010D0270
:1000F000DA01DE01E401E801EC01F201F601FA01A6
:100100000D0200020402080200000A0B02090C0D95
:100110000E080703040100000000000000000000BA
:1001200000000000000000000000000000000000CF
:10013000000000001211100000000000000000008C
:1001400000000000000000000000000000000000AF
:100150002200250028002B002E003100340002016F
:100160000000050108010B01000021002400270008
:100170002A002D00300033000101000004010701B6
:100180000A0105050505070508080808020202021C
:100190000A0A080804040404010101010101010123
:1001A0000303030303030303040707070C0C0C0CEE
:1001B0000C0C0C0C020202020606060606060606D7
:1001C0000B0B0B0B0B0B0B0B010210202008081064
:1001D00020401020408002010201080402010102B7
:1001E0000408102040808040201008040201800490
:1001F00002018040201008040201080402010102EB
:1002000004081020408001020408102040801512CC
:1002100011241FBECFEFD1E2DEBFCDBF00E00CBF87
:1002200012E0A0E0B2E0E0E3FBE200E00BBF02C0BE
:1002300007900D92A238B107D9F729E0A2E8B2E001
:1002400001C01D92AA3EB207E1F711E0C8E0D1E07B
:1002500000E006C021970109802FFE010E9469136A
:10026000C730D10780E00807A9F70E94150F0C944A
:100270009615C6CEFC01538D448D252F30E0842F7A
:1002800090E0821B930B541710F0CF9608950197BE
:100290000895FC01918D828D981761F0828DDF01A8
:1002A000A80FB11D5D968C91928D9F5F9F73928F69
:1002B00090E008958FEF9FEF0895FC01918D828D5E
:1002C000981731F0828DE80FF11D858D90E008952B
:1002D0008FEF9FEF0895FC01918D228D892F90E083
:1002E000805C9F4F821B91098F739927089580E04E
:1002F00090E0892B21F00E94790A811119C080E0D9
:1003000090E0892B21F00E946F0A811114C080E0D7
:1003100090E0892B21F00E94650A81110FC080E0D6
:1003200090E0892B81F00E945B0A81110AC0089538
:100330000E940000E4CF0E940000E9CF0E9400006C
:10034000EECF0C9400000895362F90E0FC01E85F9A
:10035000FE4F4491FC01E853FE4F2491FC01EE57FF
:10036000FE4F9491992309F46BC0442309F455C0BE
:1003700050E0FA013197E231F10508F04EC08827CC
:10038000EE58FF4F8F4F0C946913809180008F7748
:1003900007C0809180008F7D03C080918000877F9F
:1003A000809380003AC084B58F7702C084B58F7D7A
:1003B00084BD33C08091B0008F7703C08091B000BE
:1003C0008F7D8093B00029C0809190008F7707C007
:1003D000809190008F7D03C080919000877F8093F3
:1003E00090001BC08091A0008F7707C08091A00073
:1003F0008F7D03C08091A000877F8093A0000DC0F7
:10040000809120018F7707C0809120018F7D03C0EC
:1004100080912001877F80932001E92FF0E0EE0F8B
:10042000FF1FE25BFE4FA591B4918FB7F894EC915A
:10043000311103C020952E2301C02E2B2C938FBF8A
:10044000089561E0FC0184817FDF80918402811145
:100450001092840208958EBD00000DB407FEFDCFFA
:100460008EB508958FEFF7CFCF93DF93EC018E8198
:10047000882379F08F8198859C012F5F3F4F3887C3
:100480002F838230924010F4EDDFF4CFCE01D9DF1C
:100490001E82DF91CF910895089580E090E0089545
:1004A00060E089E251DF60E089E24ECF61E089E2FD
:1004B0004BDF61E089E248CF0E948215CF92DF9244
:1004C000EF92FF921F93CF93DF93EC016A017B01C0
:1004D000122FE889F98982E080834115514E610528
:1004E0007105B1F060E079E08DE390E0A70196013D
:1004F0000E944713DA01C9010197A109B109B69514
:10050000A79597958795AC01411580E15807A8F00C
:10051000E889F989108260E874E88EE190E0A7012B
:1005200096010E944713BA01A9014150510961097E
:1005300071097695679557954795EC85FD855083AC
:10054000EE85FF854083188EEC89FD891083EA894A
:10055000FB89808180618083EA89FB898081886052
:100560008083EA89FB89808180688083EA89FB89AE
:1005700080818F7D8083DF91CF911F91FF90EF90DD
:10058000DF90CF900895FC01848DDF01A80FB11D8D
:10059000A35ABF4F2C91848D90E001968F739927B9
:1005A000848FA689B7892C93A089B1898C918064A6
:1005B0008C93938D848D981306C00288F389E02D67
:1005C00080818F7D80830895EF92FF920F931F9318
:1005D000CF93DF93EC0181E0888F9B8D8C8D9813F6
:1005E00005C0E889F989808185FD23C0F62E0B8D31
:1005F00010E00F5F1F4F0F731127E02E8C8DE81254
:100600000BC00FB607FCFACFE889F989808185FF16
:10061000F5CFCE01B8DFF2CF8B8DFE01E80FF11DD3
:10062000E35AFF4FF0820B8FEA89FB898081806259
:1006300007C0EE89FF896083E889F9898081806439
:10064000808381E090E0DF91CF911F910F91FF9027
:10065000EF900895CF93DF93EC01888D8823C1F04C
:10066000EA89FB89808185FD05C0A889B9898C91BB
:1006700086FD0EC00FB607FCF5CF808185FFF2CF57
:10068000A889B9898C9185FFEDCFCE017CDFE8CFB9
:10069000DF91CF9108953FB7F894809191049091A4
:1006A0009204A0919304B091940426B5A89B05C030
:1006B0002F3F19F00196A11DB11D3FBFBA2FA92FE1
:1006C000982F8827820F911DA11DB11DBC01CD015E
:1006D00042E0660F771F881F991F4A95D1F708954A
:1006E0002FB7F89460918D0470918E0480918F04DF
:1006F000909190042FBF08950F931F93CF93DF9392
:10070000EB01EEDF8B01AEDE8F3F41F0E9DF601BD6
:10071000710B6C177D07B8F380E001C081E0DF91B9
:10072000CF911F910F910895CF92DF92FF920F9377
:100730001F93CF93DF9300D01F92CDB7DEB76C012C
:10074000F62E29833A834B835C838EDE809184026C
:1007500029813A814B815C81811109C081E08093BC
:10076000840290915B0780915C079CBD8DBD60E029
:10077000F601848129833A834B835C83E5DD6CE257
:1007800071E0C601B9DF8F2D806465DE08E110E0FD
:100790005C814B813A812981DA01C901002E04C0B4
:1007A000B695A795979587950A94D2F729833A83AA
:1007B0004B835C8350DE0850110929813A814B81BB
:1007C0005C81083FFFEF1F0739F7FF2029F088E021
:1007D000F81204C087E803C085E901C08FEF3BDE53
:1007E00010E040DEF601828787FF04C01F3F11F052
:1007F0001F5FF7CF0F900F900F900F90DF91CF9169
:100800001F910F91FF90DF90CF900895EF92FF928C
:100810000F931F93CF93DF93EC017901411551059D
:100820006105710511F482E134C08B85833039F0A4
:1008300089E0440F551F661F771F8A95D1F79A01EB
:10084000AB0168E1CE0170DF882311F084E021C0A4
:100850008EEF01DE87018EEFF81AF80181918F018A
:10086000FADD0E151F05C9F78FEFF5DD8FEFF3DD0C
:10087000F9DD8A878F71853029F081E18D83CE0182
:10088000E0DD08C068E572E0CE0136DF811106C008
:1008900085E18D83CE01D5DD80E010C020E030E021
:1008A000A9016DE0CE0140DF811103C0DBDD8823AB
:1008B00011F084E1EECFCE01C4DD81E0DF91CF9174
:1008C0001F910F91FF90EF900895CF93DF93809148
:1008D0008702882389F1C0918502D09186024091D8
:1008E00000025091010260910202709103022CE813
:1008F00032E0CE018BDF811102C080E01EC040914A
:1009000088025091890260918A0270918B02411590
:1009100051056105710571F02CE832E0CE0176DFFA
:10092000882359F3109288021092890210928A0249
:1009300010928B021092870281E0DF91CF9108958F
:10094000BF92CF92DF92EF92FF920F931F93CF93BC
:10095000DF936B017C01B42E809100029091010223
:10096000A0910202B09103028C159D05AE05BF0552
:1009700009F46DC0AADF882309F470C0C091850214
:10098000D09186028E81882369F088819981AA811D
:10099000BB81C816D906EA06FB0621F48F8198852B
:1009A000892B89F1C882D982EA82FB828B85A701D3
:1009B0009601833039F089E0220F331F441F551F01
:1009C0008A95D1F761E1CE01AFDE882319F083E08B
:1009D0008D8331C085DE8B0145DD8A878F3F41F4F1
:1009E0007FDE601B710B6D327140B0F38FE003C08E
:1009F0008E3F29F08DE08D83CE0123DD1CC018864B
:100A00001F8281E08E830CE812E02CDDF8018193D7
:100A10008F01F4E00C381F07C1F78F8198859E5F26
:100A200098878F832985222319F08115924038F009
:100A3000CE011ADD04C0CE0104DD80E00FC0C092FB
:100A40000002D0920102E0920202F0920302809131
:100A50008702482F4B294093870281E0DF91CF9195
:100A60001F910F91FF90EF90DF90CF90BF9008956E
:100A70004F925F926F927F928F929F92AF92BF92AE
:100A8000CF92DF92EF92FF920F931F93CF93DF935A
:100A9000EC016A017B0128013901423051056105F1
:100AA000710510F480E072C089859A85AB85BC859C
:100AB0000196A11DB11D84179507A607B70790F3EE
:100AC0008B889C88AD88BE888F89803129F4BB27AC
:100AD000AF2D9E2D8D2D09C0DB01CA0147E0B695D3
:100AE000A795979587954A95D1F7880E991EAA1EC6
:100AF000BB1E8091000290910102A0910202B09170
:100B0000030288169906AA06BB0679F48F898031FC
:100B100099F4DD24EE24FF24C601880F991FFC01FF
:100B2000E457FD4F5182408218C040E0C501B40136
:100B300007DF8111EBCFB6CFE894C7F8DD24EE24B0
:100B4000FF24C601880F991F880F991FFC01E457E5
:100B5000FD4F408251826282738280918702816060
:100B6000809387028A89823080F08D819E81AF8157
:100B7000B885880E991EAA1EBB1E8092880290928C
:100B80008902A0928A02B0928B0281E0DF91CF911C
:100B90001F910F91FF90EF90DF90CF90BF90AF909B
:100BA0009F908F907F906F905F904F9008958F925D
:100BB0009F92AF92BF92CF92DF92EF92FF920F93EC
:100BC0001F93CF93DF93FC0181859285A385B48524
:100BD0000196A11DB11D84179507A607B70710F44C
:100BE00080E05BC083899489A589B689C789C031B3
:100BF00029F4852E962EA72EBB2409C04A015B013D
:100C0000C7E0B694A79497948794CA95D1F7E90161
:100C10006A017B018F01BC01CD01680D791D8A1D20
:100C20009B1D8090000290900102A0900202B09063
:100C30000302681579058A059B0599F4F8018789EF
:100C40008031A1F4B701A601552766277727440F05
:100C5000551FFA01E457FD4F80819181A0E0B0E07B
:100C600017C040E06DDE8111E9CFBACFB701A60110
:100C70004F77552766277727440F551F440F551F79
:100C8000FA01E457FD4F80819181A281B381BF7049
:100C900088839983AA83BB8381E0DF91CF911F91E1
:100CA0000F91FF90EF90DF90CF90BF90AF909F900B
:100CB0008F9008953F924F925F926F927F928F92A2
:100CC0009F92AF92BF92CF92DF92EF92FF920F93DB
:100CD0001F93CF93DF93CDB7DEB72C970FB6F89461
:100CE000DEBF0FBECDBF5C01DC015B968D909C909A
:100CF0005C971696CD90DD90ED90FC901997C114FD
:100D0000D104E104F10439F0BFEFCB1ADB0AEB0A9E
:100D1000FB0A312C07C0F401C080D180E280F3804F
:100D200033243394F40181859285A385B4859C0195
:100D3000AD012F5F3F4F4F4F5F4F29873A874B875A
:100D40005C87260137011D821E821F821886F401EE
:100D500081859285A385B4852D813E814F815885FB
:100D6000281739074A075B0708F060C089859A850C
:100D7000AB85BC858C159D05AE05BF0550F482E0A2
:100D8000C82ED12CE12CF12C92E0492E512C612C53
:100D9000712C9E012F5F3F4FB701A601C40107DFF1
:100DA000882309F443C089819A81AB81BC81892B56
:100DB0008A2B8B2B41F0260137019FEF491A590AE4
:100DC000690A790A05C0C414D504E604F70491F051
:100DD0002D813E814F8158852F5F3F4F4F4F5F4F91
:100DE0002D833E834F8358873FEFC31AD30AE30A0C
:100DF000F30AADCF0FEF1FEF2FEF3FE0B301A201DA
:100E0000C40136DE882391F0D50116964D915D918F
:100E10006D917C911997411551056105710541F05E
:100E200093018201C40124DE811102C080E02AC046
:100E3000D50116964D925D926D927C921997332052
:100E400051F0D301C2010196A11DB11DF4018083AF
:100E50009183A283B383F5018789908DA18DB28D93
:100E6000892B8A2B8B2B69F4D50157964D925D9275
:100E70006D927C925A9714968C9114978068149670
:100E80008C9381E02C960FB6F894DEBF0FBECDBFD9
:100E9000DF91CF911F910F91FF90EF90DF90CF9056
:100EA000BF90AF909F908F907F906F905F904F908A
:100EB0003F9008954F925F926F927F928F929F9290
:100EC000AF92BF92EF92FF920F931F93CF93DF9356
:100ED00000D01F921F92CDB7DEB78C016D83DC016D
:100EE00015968C911597813009F056C014968C9107
:100EF00081FF52C059C0038CF48DE02D258530E070
:100F0000275F3F4F2A013B01B1E04B1A51086108AE
:100F10007108022E04C076946794579447940A94FB
:100F2000D2F7D501C4010197A109B10904C0B69552
:100F3000A795979587952A95D2F784159505A605C7
:100F4000B70508F06FC0F8014789508D618D728D2B
:100F500046835783608771872C013D017801E6E065
:100F6000EE0EF11CD801411451046104710409F41E
:100F700063C016964D915D916D917C911997970183
:100F80005B968D919C915C9712DEB1E04B1A5108F3
:100F9000610871088111E6CF81E090E0F801938348
:100FA000828380E090E049C182FF0EC0F801428553
:100FB00053856485758583889488A588B688481587
:100FC00059056A057B05F1F4D8011A964D915D919A
:100FD0006D917C911D975B968D919C915C97FC0126
:100FE00074807A944A015B0129E0B694A79497949F
:100FF00087942A95D1F778207A01F1E0FF227720B3
:1010000011F162C081149104A104B10409F073CFFD
:101010001682178210861186F801128613861486AE
:101020001586D2CF452B462B472B09F48CCF84193C
:101030009509A609B70990CF1A968D929D92AD9207
:10104000BC921D97C1CFE114F10409F03DC0F80135
:10105000468157816085718541155105610571058E
:1010600049F48789908DA18DB28D0097A105B105B6
:1010700031F520C09E012F5F3F4F99DD882309F491
:1010800090CF89819A81AB81BC81F801238D348D09
:10109000F9012789203129F048EF5FEF6FEF7FE0FA
:1010A00004C048EF5FEF60E070E084179507A60783
:1010B000B70728F0C801FEDD811106C06DCFF80129
:1010C00086839783A087B187D8015B96ED91FC91C9
:1010D0005C9716968D909D90AD90BC901997B2E05C
:1010E0008B1A9108A108B108058404C0880C991CCA
:1010F000AA1CBB1C0A94D2F786859785A089B18962
:10110000880E991EAA1EBB1E870C911CA11CB11C27
:10111000E114F10401F5F801428553856485758574
:1011200083899489A589B689481759076A077B0777
:1011300090F0CBDB882309F42FCF809200029092AD
:101140000102A0920202B0920302809187028160A4
:101150008093870207C041E0C501B401F1DB882319
:1011600009F41ACFF701E457FD4F8D818083F80110
:1011700082859385A485B5850196A11DB11D8287C1
:101180009387A487B58743895489658976894817E9
:1011900059076A077B0738F4838B948BA58BB68B32
:1011A000848180688483D80114968C9183FD03C068
:1011B00081E090E042C0F8019581992309F4ECCEDA
:1011C00087FF37C0668577858089918941E0B8DBE4
:1011D000882309F4E1CED8015296EC91B0E2EB9F5E
:1011E00090011124D901A457BD4F109709F4D4CE12
:1011F000F8018581823050F4438954896589768964
:101200005C964D935D936D937C935F97F80187890E
:10121000908DA18DB28DF901E457FD4F938F828F90
:10122000B58BA48BD80114968C9114978F77149654
:101230008C934BDB8111BCCFAFCE0F900F900F90F2
:101240000F900F90DF91CF911F910F91FF90EF9032
:10125000BF90AF909F908F907F906F905F904F90D6
:1012600008951F920F920FB60F9211242F933F9360
:101270008F939F93AF93BF9380918D0490918E0431
:10128000A0918F04B091900430918C0423E0230F3F
:101290002D3720F40196A11DB11D05C026E8230FAE
:1012A0000296A11DB11D20938C0480938D04909310
:1012B0008E04A0938F04B093900480919104909138
:1012C0009204A0919304B09194040196A11DB11DC4
:1012D0008093910490939204A0939304B093940408
:1012E000BF91AF919F918F913F912F910F900FBE22
:1012F0000F901F901895CF93DF93EC018FE994E046
:101300000E946B01892B29F08FE994E00E9449012A
:10131000F5CFBE018FE994E0F6D06FEF8FE994E04E
:1013200053D96FEF8FE994E04FD96FEF8FE994E0D5
:10133000DF91CF9149C9CF93DF9300D000D0CDB7D3
:10134000DEB71A8219821C821B821E821D8240E037
:1013500050E063E472E0CE01019602D560915F0730
:1013600070916007CE010196DCD468E272E0CE0194
:101370000196D7D46FE272E0CE010196D2D46DE22D
:1013800072E0CE010196CDD489819A81B4DF42D238
:1013900089819A810E94061426960FB6F894DEBFC2
:1013A0000FBECDBFDF91CF9108951F920F920FB660
:1013B0000F9211240F900FBE0F901F901895CF928F
:1013C000DF92EF92FF920F931F93CF93DF936C0105
:1013D0007A018B01C0E0D0E0CE15DF0589F0D8019D
:1013E0006D918D01D601ED91FC910190F081E02D80
:1013F000C6011995892B11F47E0102C02196ECCF0C
:10140000C701DF91CF911F910F91FF90EF90DF9077
:10141000CF900895FC01A089B1898C91A689B789E4
:1014200082FD0FC09C91818D8F5F8F73228D8217FB
:1014300049F0218DDF01A20FB11D5D969C93818F34
:1014400008958C910895EF92FF920F931F93CF937D
:10145000DF93CDB7DEB729970FB6F894DEBF0FBE86
:10146000CDBF8C01862FF801118210821382128267
:101470001582148250E09E012F5F3F4F7901B90120
:1014800090E00E941413F70101900020E9F73197D2
:10149000AF014E195F09B701C80162D429960FB692
:1014A000F894DEBF0FBECDBFDF91CF911F910F919A
:1014B000FF90EF9008958FE994E00E946B0121E086
:1014C000892B09F420E0822F08958CE395E00E9497
:1014D0006B0121E0892B09F420E0822F089589ED2A
:1014E00095E00E946B0121E0892B09F420E0822F16
:1014F000089586E796E00E946B0121E0892B09F4AC
:1015000020E0822F08956115710579F0FB010190AB
:101510000020E9F73197AF01461B570BDC01ED9135
:10152000FC910280F381E02D199480E090E0089511
:101530001F920F920FB60F9211240BB60F922F939A
:101540003F934F935F936F937F938F939F93AF934B
:10155000BF93EF93FF938FE994E015D8FF91EF913C
:10156000BF91AF919F918F917F916F915F914F91BB
:101570003F912F910F900BBE0F900FBE0F901F90B9
:1015800018951F920F920FB60F9211240BB60F925F
:101590002F933F934F935F936F937F938F939F937B
:1015A000AF93BF93EF93FF938FE994E033DFFF9105
:1015B000EF91BF91AF919F918F917F916F915F91CB
:1015C0004F913F912F910F900BBE0F900FBE0F9038
:1015D0001F9018951F920F920FB60F9211240BB601
:1015E0000F922F933F934F935F936F937F938F93BC
:1015F0009F93AF93BF93EF93FF938CE395E00E948B
:10160000C302FF91EF91BF91AF919F918F917F9115
:101610006F915F914F913F912F910F900BBE0F9063
:101620000FBE0F901F9018951F920F920FB60F923A
:1016300011240BB60F922F933F934F935F936F93A9
:101640007F938F939F93AF93BF93EF93FF938CE31D
:1016500095E0E0DEFF91EF91BF91AF919F918F9167
:101660007F916F915F914F913F912F910F900BBEA2
:101670000F900FBE0F901F9018951F920F920FB6EC
:101680000F9211240BB60F922F933F934F935F93BA
:101690006F937F938F939F93AF93BF93EF93FF933A
:1016A00089ED95E00E94C302FF91EF91BF91AF9148
:1016B0009F918F917F916F915F914F913F912F916A
:1016C0000F900BBE0F900FBE0F901F9018951F929A
:1016D0000F920FB60F9211240BB60F922F933F93D8
:1016E0004F935F936F937F938F939F93AF93BF932A
:1016F000EF93FF9389ED95E08DDEFF91EF91BF9120
:10170000AF919F918F917F916F915F914F913F9199
:101710002F910F900BBE0F900FBE0F901F9018953A
:101720001F920F920FB60F9211240BB60F922F93A8
:101730003F934F935F936F937F938F939F93AF9359
:10174000BF93EF93FF9386E796E00E94C302FF9159
:10175000EF91BF91AF919F918F917F916F915F9129
:101760004F913F912F910F900BBE0F900FBE0F9096
:101770001F9018951F920F920FB60F9211240BB65F
:101780000F922F933F934F935F936F937F938F931A
:101790009F93AF93BF93EF93FF9386E796E03ADE74
:1017A000FF91EF91BF91AF919F918F917F916F9139
:1017B0005F914F913F912F910F900BBE0F900FBEF5
:1017C0000F901F9018950F931F93CF93DF93EC0109
:1017D00088819981009729F02A813B812617370754
:1017E00088F48B016F5F7F4F0E949E14009761F019
:1017F000998388831B830A832C813D81232B11F4D9
:10180000FC01108281E001C080E0DF91CF911F9147
:101810000F9108958F929F92AF92BF92EF92FF9295
:101820000F931F93CF93DF9300D01F92CDB7DEB7F6
:1018300019821A821B821C8284E690E0A0E0B0E04C
:101840008093A3049093A404A093A504B093A6044A
:101850008E010F5F1F4F7E0185E0E80EF11C0E9494
:1018600070036093A7047093A8048093A9049093D5
:10187000AA04E0919F04F091A0040284F385E02D76
:101880008FE994E0199597FD0AC0F80181938F01C3
:10189000EE15FF0521F78981813049F51EC00E94B0
:1018A00070038090A7049090A804A090A904B09021
:1018B000AA04DC01CB0188199909AA09BB09809007
:1018C000A3049090A404A090A504B090A604881549
:1018D0009905AA05BB0568F2DECF8A818F3F39F4EE
:1018E0008B818F3F21F481E09C819F3F09F080E054
:1018F0000F900F900F900F90DF91CF911F910F914C
:10190000FF90EF90BF90AF909F908F9008958F922F
:101910009F92AF92BF92DF92EF92FF920F931F932D
:10192000CF93DF93CDB7DEB7DA950FB6F894DEBF6D
:101930000FBECDBF80916B07898386E08A8380913B
:10194000F0079091F1079B838C838091F40790912D
:10195000F5079D838E83CE0101967C01FC018FEFFC
:101960009FEF8701BE2C66E06E0D2191822728E053
:1019700030E0AC015695479580FF06C0CA01A1E052
:101980008A27A0EA9A2701C0CA012150310989F7A4
:101990006E13EBCF8F83988719868091690790919A
:1019A0006A07DC01ED91FC910284F385E02D199525
:1019B000019699F7E0917F08F0918008309709F03F
:1019C0001995E8E0BE0E8091690790916A07D701EA
:1019D0006D917D01DC01ED91FC910190F081E02D94
:1019E0001995BE10F0CF8091690790916A07DC01CC
:1019F000ED91FC910680F781E02D1995E091810829
:101A0000F0918208309709F019950E9470034B01FC
:101A10005C0188E0F82EE12C8091690790916A07BB
:101A2000DC01ED91FC910084F185E02D1995892B65
:101A3000A9F0DD24D394DE0C8091690790916A07A8
:101A4000DC01ED91FC910284F385E02D1995F801FC
:101A5000EE0DF11D8083FA94ED2C07C0E0917D0816
:101A6000F0917E08309709F01995B5E0EB1224C08B
:101A7000998180916B079813ABC08A81982F9F77CB
:101A8000963009F0A7C087FF04C08B81882349F1F5
:101A900085C0813130F48F3050F48550823060F44D
:101AA00006C0863139F0873139F4FB8005C0B3E0D8
:101AB000FB2E02C0A5E0FA2E0E947003DC01CB01D0
:101AC00088199909AA09BB09813D9740A105B1056B
:101AD00010F082EE63C0F1109FCFF4E0FE1508F025
:101AE0007BC02FEF3FEFE0E08E2D90E0AC01425045
:101AF00051096E2F70E064177507C4F4D801A60F62
:101B0000B71F6C91262768E070E0D901B695A795BC
:101B100020FF06C09D01F1E02F27F0EA3F2701C01A
:101B20009D016150710989F7EF5FE3CFF801E40F80
:101B3000F51F40814213A0C0FE01E80FF91F80810C
:101B400083139AC049C02034E8F4880F991FDC0140
:101B5000A759B84FE5E0F0E0EC0FFD1FE80FF91FC3
:101B6000408150E0542F4427E4E0F0E0EC0FFD1FEB
:101B7000E80FF91F8081FA01E82BCF0118969C939A
:101B80008E931797322F2F5F822F90E0861797073B
:101B9000D4F230937C08F0FC53C080E010927608B9
:101BA000109278081092770810927B08D3950FB6A0
:101BB000F894DEBF0FBECDBFDF91CF911F910F9183
:101BC000FF90EF90DF90BF90AF909F908F9008951F
:101BD00080EEE4CF81EEE2CF8A81853030F483302D
:101BE00030F4813008F03FC0D8CF8731B1F66B8137
:101BF00070E07595679520917C0840E0842F90E017
:101C0000861797076CF54034C0F49C012E5F3F4F58
:101C1000220F331F880F991FFC01E759F84FDE018F
:101C2000A20FB31F8C9190E0982F8827D801A20FA4
:101C3000B31F2C91822B90878783242F4F5FDECF99
:101C4000203468F4880F991FFC01E759F84FD80138
:101C5000A80FB91F13968C9190E0908787832F5F10
:101C600020937C089ACFFB806F2D70E07595679567
:101C700030917C0820E088CF83EE90CF8F929F92A6
:101C8000AF92BF92CF92DF92EF92FF926B017C01F5
:101C90000E9470034B015C01C60ED71EE81EF91EA0
:101CA0000E947003681579058A059B0528F0C61601
:101CB000D706E806F906A0F7FF90EF90DF90CF90E7
:101CC000BF90AF909F908F900895EF92FF920F93E7
:101CD0001F93CF93DF93FC0124813581611571053A
:101CE00011F480E017C04115510599F07B01EC011A
:101CF0008A01020F131FB80166DD882391F3288142
:101D000039818C819D81B701820F931F08D71D8374
:101D10000C8381E0DF91CF911F910F91FF90EF90A5
:101D200008956115710549F0FB0101900020E9F764
:101D30003197AF01461B570BC8CF80E00895CF9372
:101D4000DF93EC0188819981009709F05FD51982B2
:101D500018821D821C821B821A82DF91CF91089506
:101D6000EF92FF920F931F93CF93DF93EC017B01D0
:101D70008A01BA0128DD811103C0CE01E0DF06C06F
:101D80001D830C83B70188819981C9D6CE01DF916B
:101D9000CF911F910F91FF90EF9008954F925F9216
:101DA0006F927F92EF92FF920F931F93CF93DF93E7
:101DB000CDB7DEB7A1970FB6F894DEBF0FBECDBF8B
:101DC0007C01FA01CB0119A2223008F42AE08E012D
:101DD0000F5D1F4F422E512C612C712CBF01A301AE
:101DE000920155D4F901CA01015011096A3014F465
:101DF000605D01C0695CD8016C93232B242B252BDB
:101E000069F7B801C7017FDBA1960FB6F894DEBF72
:101E10000FBECDBFDF91CF911F910F91FF90EF903B
:101E20007F906F905F904F900895CF93DF93CDB7E1
:101E3000DEB7A2970FB6F894DEBF0FBECDBF789481
:101E400084B5826084BD84B5816084BD85B58260BF
:101E500085BD85B5816085BD80916E008160809370
:101E60006E001092810080918100826080938100D9
:101E700080918100816080938100809180008160E9
:101E8000809380008091B10084608093B100809144
:101E9000B00081608093B000809191008260809357
:101EA00091008091910081608093910080919000D9
:101EB0008160809390008091A10082608093A10056
:101EC0008091A10081608093A1008091A000816039
:101ED0008093A000809121018260809321018091F4
:101EE0002101816080932101809120018160809394
:101EF000200180917A00846080937A0080917A003A
:101F0000826080937A0080917A00816080937A0069
:101F100080917A00806880937A001092C1001092BC
:101F20005707109258071092590710925A071092AB
:101F3000150710921607109217071092180768EBF2
:101F40007BE080E090E09ADE86E796E0909356078B
:101F50008093550726E040E052EC61E070E00E947B
:101F60005E020E94700360931507709316078093BA
:101F700017079093180762E372E0809155079091DC
:101F80005607C1DA6AE070E080E090E077DE81E039
:101F90008093290726E040E855E260E070E08FE991
:101FA00094E00E945E0264E472E08FE994E0ABDAB0
:101FB00061E472E08FE994E0A6DA26E040E855E2B9
:101FC00060E070E08FE994E00E945E0283E492E0BA
:101FD00092D98BE592E08FD91DDC83E692E08BD914
:101FE00019DC8BE999E0909366078093650710925E
:101FF0006807109267070E947003672B682B692B94
:1020000041F40E947003623071058105910508F466
:1020100001C10E94700360939B0470939C048093A1
:102020009D0490939E040091970410919804209130
:10203000990430919A04601771078207930740F45E
:1020400060939704709398048093990490939A04F2
:1020500000919704109198042091990430919A046A
:102060006B017C01C01AD10AE20AF30A97018601CA
:102070000A3F11052105310508F4CCC0609397048F
:10208000709398048093990490939A0484EF91E05C
:10209000A0E0B0E08093210790932207A09323074C
:1020A000B093240710922507109226071092270755
:1020B000109228078091190790911A07A0911B0789
:1020C000B0911C0780931D0790931E07A0931F07D4
:1020D000B09320070E9470036093190770931A074A
:1020E00080931B0790931C070E9470036093150751
:1020F0007093160780931707909318070E94700338
:102100006B017C016AE672E0809155079091560759
:10211000FAD92AE041E050E060E070E08091550794
:10212000909156073BDE61E772E0809155079091F0
:102130005607E9D92AE0B701A60180915507909189
:1021400056072CDE63E772E08091550790915607A1
:10215000DAD98091190790911A07A0911B07B091C5
:102160001C07B701A601481B590B6A0B7B0B2AE021
:10217000809155079091560711DE63E772E08091D8
:10218000550790915607BFD94091190750911A07EA
:1021900060911B0770911C0780911D0790911E078D
:1021A000A0911F07B0912007481B590B6A0B7B0BAE
:1021B0002AE08091550790915607F0DD65E772E0BF
:1021C00080915507909156079ED90E947003AB01EC
:1021D000BC012AE08091550790915607DFDD009100
:1021E00055071091560767E772E0C8018CD961E482
:1021F00072E0C80188D965E070E080E090E03EDDE3
:102200000E9470036093190770931A0780931B074D
:1022100090931C078AE08093960481E08093950454
:1022200031EF232E31E0332E4BEAC42E41E0D42E81
:1022300052E0E52EF12C8E01015E1F4F7090960446
:10224000F1014491F6018491882399F090E0880F80
:10225000991FFC01E859FE4FA591B491FC01E25B86
:10226000FE4F259134918FB7F8949C91492B4C9354
:102270008FBF2EE040E05BE460E070E089ED95E028
:102280000E945E0270926B0789ED95E090936A0759
:102290008093690710927608109278081092770858
:1022A00086E592E09093800880937F08E0E5F2E075
:1022B000F0938208E09381081A8E198E1C8E1B8E73
:1022C0001E8E1D8E40E050E063E472E0CE01499620
:1022D00047DDF092F107E092F0071092F3071092B9
:1022E000F207F092F507E092F40711DB60907007B7
:1022F000709071074AE060E0CE010196A4D84AE0F0
:10230000662DCE0107969FD84AE0672DCE014396F1
:102310009AD81E861D86188A1F861A8A198A6B8982
:102320007C896115710531F04F89588DCE010D966C
:1023300017DD03C0CE010D9602DD4B855C856F81F4
:102340007885CE010D96C1DC811103C0CE010D96BA
:10235000F6DC4AE0B80180E090E05CD1F801019041
:102360000020E9F73197AF01401B510BB801CE01B6
:102370000D96ABDC811103C0CE010D96E0DC4D81E2
:102380005E8169817A81CE010D969FDC811103C047
:10239000CE010D96D4DC6D857E856115710531F019
:1023A00049895A89CE014996DBDC03C0CE014996A2
:1023B000C6DC8D859E852AD28B899C8927D28F8108
:1023C000988524D289819A8121D2898D9A8D1ED2B5
:1023D0000E944B034B015C0188EE482E83E0582E8F
:1023E000612C712C0E944B03DC01CB0188199909E7
:1023F000AA09BB09883E9340A105B10580F0F1E030
:102400004F1A51086108710828EE820E23E0921ECF
:10241000A11CB11C411451046104710419F7411449
:10242000510461047104F1F609CFEFE9F4E013827D
:10243000128248EE53E060E070E044835583668387
:1024400077838EE092E09183808325E331E03587C6
:10245000248724E331E03787268720E331E0318B7E
:10246000208B21E331E0338B228B22E331E0358B6B
:10247000248B26E331E0378B268B118E128E138E40
:10248000148EECE3F5E01382128244835583668355
:1024900077839183808325ED30E03587248724ED91
:1024A00030E03787268720ED30E0318B208B21ED1F
:1024B00030E0338B228B22ED30E0358B248B26ED00
:1024C00030E0378B268B118E128E138E148EE9ED31
:1024D000F5E0138212824483558366837783918368
:1024E00080832DEC30E0358724872CEC30E0378773
:1024F000268728EC30E0318B208B29EC30E0338BC1
:10250000228B2AEC30E0358B248B2EEC30E0378B9D
:10251000268B118E128E138E148EE6E7F6E0138250
:10252000128244835583668377839183808385EC0D
:1025300090E09587848784EC90E09787868780EC8D
:1025400090E0918B808B81EC90E0938B828B82EC7E
:1025500090E0958B848B86EC90E0978B868B118E28
:10256000128E138E148EE3E1F7E016821782108626
:102570001186128613861486158616861786108A8B
:10258000118A128A138A148A158AEBE5F7E080E52E
:1025900080831182E3E8F8E01582168211861386A3
:1025A00082E090E0A0E0B0E084879587A687B787B7
:1025B00013A215A614A680E292E093A782A717A6FD
:1025C00010927E0810927D081092800810927F0869
:1025D00010928208109281081092E1091092E0098D
:1025E0001092E3091092E2091092E5091092E409B1
:1025F000EDE5F7E010828DE081838EE792E0938332
:1026000082831582148211861086138612861782A1
:1026100016820895BB274A3031F4992322F4BDE293
:10262000909581959F4F0BC04532510518F442306B
:1026300008F004C0FB011082CB010895BB27FB0109
:102640005527AA27880F991FAA1FA41710F0A41BAB
:1026500083955051B9F7A05DAA3308F0A95DA19305
:10266000009779F7B111B1931192CB0100C0DC0151
:10267000FC01672F71917723E1F7329704C07C91B9
:102680006D9370836291AE17BF07C8F30895A1E2FE
:102690001A2EAA1BBB1BFD010DC0AA1FBB1FEE1FDC
:1026A000FF1FA217B307E407F50720F0A21BB30B27
:1026B000E40BF50B661F771F881F991F1A9469F7A3
:1026C00060957095809590959B01AC01BD01CF01FF
:1026D0000895EE0FFF1F881F8BBF0790F691E02D26
:1026E0001994CF93DF938230910510F482E090E04B
:1026F000E091E809F091E90920E030E0C0E0D0E0A5
:10270000309711F14081518148175907C0F048179F
:10271000590761F482819381209719F09B838A8302
:102720002BC09093E9098093E80926C02115310553
:1027300019F04217530718F49A01BE01DF01EF01A7
:102740000280F381E02DDCCF2115310509F1281B32
:10275000390B2430310590F412968D919C9113978A
:102760006115710521F0FB019383828304C090936E
:10277000E9098093E809FD01329644C0FD01E20FAA
:10278000F31F81939193225031092D933C933AC0CA
:102790002091E6093091E709232B41F420910602AC
:1027A000309107023093E7092093E6092091040253
:1027B000309105022115310541F42DB73EB7409106
:1027C000080250910902241B350BE091E609F091B3
:1027D000E709E217F307A0F42E1B3F0B2817390770
:1027E00078F0AC014E5F5F4F2417350748F04E0F6D
:1027F0005F1F5093E7094093E6098193919302C0CC
:10280000E0E0F0E0CF01DF91CF9108950F931F93A7
:10281000CF93DF93009709F48CC0FC0132971382A9
:1028200012820091E8091091E9090115110581F45E
:1028300020813181820F931F2091E6093091E709B1
:102840002817390779F5F093E709E093E60971C095
:10285000D80140E050E0AE17BF0750F412962D911A
:102860003C911397AD012115310509F1D901F3CF41
:102870009D01DA013383228360817181860F971F66
:102880008217930769F4EC0128813981260F371FDD
:102890002E5F3F4F318320838A819B819383828384
:1028A000452B29F4F093E909E093E80942C0139617
:1028B000FC93EE931297ED01499159919E01240FDB
:1028C000351FE217F30771F480819181840F951F02
:1028D000029611969C938E938281938113969C937A
:1028E0008E931297E0E0F0E0D80112968D919C91C2
:1028F0001397009719F0F8018C01F6CF8D919C91F8
:1029000098012E5F3F4F820F931F2091E60930916F
:10291000E7092817390769F4309729F41092E90973
:102920001092E80902C0138212821093E709009303
:10293000E609DF91CF911F910F9108956F927F92D9
:102940008F929F92AF92BF92CF92DF92EF92FF92BF
:102950000F931F93CF93DF93EC01009781F4CB018A
:10296000DF91CF911F910F91FF90EF90DF90CF906B
:10297000BF90AF909F908F907F906F90B2CEFC01F0
:10298000E60FF71F9C0122503109E217F30708F404
:10299000A8C0D9010D911C91119706171707A8F02F
:1029A0000530110508F49BC0C801049786179707E6
:1029B00008F495C002501109061B170B01931193DF
:1029C0006D937C93CF0122DF8AC05B01A01AB10A0C
:1029D0004C01800E911EA091E809B091E90940E0F8
:1029E00050E0E12CF12C109709F44AC0A815B90564
:1029F000D1F56D907C901197630182E0C80ED11CD7
:102A0000CA14DB0480F1A3014A195B096A0182E060
:102A1000C80ED11C1296BC9012971396AC91B5E0DB
:102A2000CB16D10440F0B282A38351834083D901F5
:102A30006D937C930AC00E5F1F4FC301800F911FDF
:102A4000F90191838083EB2DFA2FE114F10431F029
:102A5000D7011396FC93EE93129741C0F093E909C6
:102A6000E093E8093CC08D919C9111974817590754
:102A700008F4AC017D0112960D90BC91A02DB3CF4E
:102A80008091E6099091E70988159905E1F44617C8
:102A90005707C8F48091040290910502009741F411
:102AA0008DB79EB74091080250910902841B950B87
:102AB000E817F907B0F4F093E709E093E609F901A4
:102AC000718360830CC0CB010CDE7C01009749F060
:102AD000A801BE011BD0CE0199DEC70104C0CE0102
:102AE00002C080E090E0DF91CF911F910F91FF90A5
:102AF000EF90DF90CF90BF90AF909F908F907F909E
:102B00006F90089581E090E0F89410C0FB01DC0123
:102B100002C001900D9241505040D8F70895FB013A
:102B2000DC0101900D920020E1F70895F894FFCFA9
:102B3000FFFFFFFF0000EA09800000000000E40240
:102B4000DF093A012A036B0149015D010000000021
:102B50005A07DF094D024C022E7478743D2200356D
:102B60003000564D4450565F317C315F564D4450D5
:102B7000560D0A0052533233325F54544C20436F87
:102B80006E666967757261646F2100626B636D6464
:102B90003D310070616765203000564D4450455FFF
:102BA000003A323A007C005F564D44504500743183
:022BB0003300F0
:00000001FF
