:10000000DCC100000BC2000009C2000007C20000F2
:1000100005C2000003C2000001C20000FFC10000D1
:10002000FDC10000FBC10000F9C10000F7C10000E4
:10003000F5C10000F3C10000F1C10000EFC10000F4
:10004000EDC10000EBC10000E9C10000E7C1000004
:10005000E5C10000E3C10000E1C100000C943B12C7
:10006000DDC100000C94E0100C94B710D7C1000063
:10007000D5C10000D3C10000D1C10000CFC1000034
:10008000CDC10000CBC10000C9C10000C7C1000044
:100090000C948E100C946510C1C10000BFC100000B
:1000A000BDC10000BBC10000B9C10000B7C1000064
:1000B000B5C10000B3C10000B1C10000AFC1000074
:1000C000ADC10000ABC10000A9C100000C943C1000
:1000D0000C941310A3C100000C94EA0F0C94C10FF0
:1000E0009DC1000089118C117B117F118511C311F5
:1000F000901194119A119E11A211A811AC11B01176
:10010000C311B611BA11BE11CD17CD17CD17CD172A
:10011000CA17CA17D117D117D117D117D117D117AD
:10012000D117D117CA17CA17D117D117D117D1179D
:10013000D117CF17CD1700407A10F35A00A0724E96
:1001400018090010A5D4E80000E87648170000E47C
:100150000B54020000CA9A3B000000E1F5050000C4
:1001600080969800000040420F000000A086010029
:100170000000102700000000E803000000006400F9
:10018000000000000A000000000001000000000064
:100190002C76D888DC674F0823DFC1DFAE59E1B188
:1001A000B796E5E3E453C63AE651997696E8E6C297
:1001B0008426EB898C9B62ED407C6FFCEFBC9C9F9E
:1001C00040F2BAA56FA5F490055A2AF75C936B6CC0
:1001D000F9676DC11BFCE0E40D47FEF520E6B500B4
:1001E000D0ED902E0300943577050080841E080022
:1001F00000204E0A000000C80C333333330F986ED2
:1002000012831141EF8D2114893BE65516CFFEE68E
:10021000DB18D1844B381BF77C1D901DA4BBE42454
:10022000203284725E228100C9F124ECA1E53D27D1
:1002300000002100240027002A002D003000330098
:1002400001010000040107010A0143617274E36FB8
:1002500020534420696E69636961646F20636F6D28
:10026000207375636573736F210046616C6861204C
:10027000616F2061627269722063617274E36F2042
:10028000534400496E696369616C697A616E646F99
:1002900020534420436172642E2E2E004453313388
:1002A000303720617475616C697A61646F21000078
:1002B0000020002300260029002C002F003200001F
:1002C00001000003010601090105050505070508F0
:1002D000080808020202020A0A08080404040401C9
:1002E00001010101010101030303030303030304EB
:1002F0000707070C0C0C0C0C0C0C0C02020202067B
:10030000060606060606060B0B0B0B0B0B0B0B016A
:100310000210202008081020401020408002010216
:1003200001080402010102040810204080804020DE
:100330001008040201800402018040201008040219
:100340000108040201010204081020408001020497
:10035000081020408000000A0B02090C0D0E08074F
:100360000304010000000000000000000000000085
:10037000000000000000000000000000000000007D
:10038000001211100000000000000000000000003A
:100390000000000000000000000000000022002516
:1003A0000028002B002E003100340002010000055F
:1003B0000108010B0100291E211E11241FBECFEFD1
:1003C000D1E2DEBFCDBF00E00CBF14E0A0E0B2E0A0
:1003D000E2E4FBE400E00BBF02C007900D92A433FF
:1003E000B107D9F72AE0A4E3B4E001C01D92AE3D05
:1003F000B207E1F711E0CCEDD1E000E006C02197B3
:100400000109802FFE010E944023CB3DD10780E0EF
:100410000807A9F70E94B2180C949025F1CD089511
:1004200080E090E0089560E089E20E94C41160E0FD
:1004300089E20C94C41161E089E20E94C41161E078
:1004400089E20C94C4118F929F92AF92BF92CF9287
:10045000DF92EF92FF920F931F93CF93DF93CDB76D
:10046000DEB72E970FB6F894DEBF0FBECDBF01E00A
:1004700089EF96E00E94E20E892BA9F089EF96E0C1
:100480000E94C00E182F89831A8241E050E0BE01FD
:100490006F5F7F4F8AE199E00E94B10B1A3041F7FC
:1004A00000934904E5CF80914904882309F4FCC1F5
:1004B00040911E0950911F0960911A0970911B0902
:1004C0008CE596E0DFD68CE596E00E94DE0C10927B
:1004D000490422E030E040E050E06AE179E0CE01FA
:1004E00001960E94520CCE0101960E94A60B6B0150
:1004F0007C01CE0101960E94390C2CE3C216D10476
:1005000009F0D2C11A8619861C861B861E861D8696
:100510006AE179E0CE0109960E94240C21E030E0E6
:1005200043E050E0BE01675F7F4FCE0101960E941D
:10053000520CCE0101960E94A60B162FCE010196F9
:100540000E94390C27E030E045E050E0BE01675FD3
:100550007F4FCE0101960E94520CCE0101960E945F
:10056000A60B062FCE0101960E94390C2AE030E03E
:1005700048E050E0BE01675F7F4FCE0101960E94C8
:10058000520CCE0101960E94A60BB62ECE0101960A
:100590000E94390C2FE030E04BE050E0BE01675F75
:1005A0007F4FCE0101960E94520CCE0101960E940F
:1005B000A60B6B017C01CE0101960E94390C22E151
:1005C00030E040E150E0BE01675F7F4FCE01019611
:1005D0000E94520CCE0101960E94A60B862ECE01DF
:1005E00001960E94390C25E130E043E150E0BE0164
:1005F000675F7F4FCE0101960E94520CCE0101969B
:100600000E94A60B962ECE0101960E94390C2D85D4
:100610003E8546E150E0BE01675F7F4FCE01019607
:100620000E94520CCE0101960E94A60BA62ECE016E
:1006300001960E94390C8FEF810F873018F4612FDB
:1006400083E083D787E1881538F12BE3291520F162
:100650002A1510F11AE0882D612F0E942123692F9D
:1006600020E1829F600D112482E06FD7892D612FD8
:100670000E942123692F20E1829F600D112481E0D7
:1006800064D78A2D612F0E942123692F20E1829F48
:10069000600D112480E059D78FEF800F8F3160F506
:1006A0008FEF8B0D8C3040F5C601805D9740883E02
:1006B00023E0920708F51AE0612F0E942123692F99
:1006C00020E1829F600D112486E03FD78B2D612FA2
:1006D0000E942123692F20E1829F600D112485E073
:1006E00034D7802F612F0E942123692F20E1829F20
:1006F000600D112484E029D75AD729833A834B838C
:100700005C836D837E838F8398872A3010F480E327
:1007100005C0822F6AE00E942123805D8093EE0352
:100720003AE0822F632F0E942123905D9093EF0384
:100730008AE38093F0032A812A3010F480E305C015
:10074000822F632F0E942123805D8093F1033AE082
:10075000822F632F0E942123905D9093F2038AE3FE
:100760008093F3032B812A3010F480E305C0822F9D
:10077000632F0E942123805D8093F4031AE0822F6F
:10078000612F0E942123905D9093F5031092F60350
:100790006EEE73E083E398E00E94870E08D729830A
:1007A0003A834B835C836D837E838F8398875A3033
:1007B00010F480E305C0852F612F0E942123805D06
:1007C0008093EC033AE0852F632F0E942123905DF4
:1007D0009093ED038EE28093EE032D812A3010F486
:1007E00080E305C0822F632F0E942123805D8093C8
:1007F000EF03822F6AE00E942123905D9093F00323
:100800008EE28093F1032E813F81C90168EE73E08F
:100810000E942D23605D6093F203E4E6F0E0BF01E7
:100820000E942D2380E3860F8093F303C901BF014B
:100830000E942D23EAE0F0E0BF010E942D2380E317
:10084000860F8093F403C901BF010E942D23805DB0
:100850008093F5031092F6036CEE73E083E398E067
:100860000E94870EA4D629833A834B835C836D83D1
:100870007E838F8398879150973048F4E92FF0E07A
:10088000EE0FFF1FE55EFD4F6081718102C06DEECE
:1008900073E083E398E00E94870E8CE992E00E9467
:1008A000E10CCE010996E5D72E960FB6F894DEBF7F
:1008B0000FBECDBFDF91CF911F910F91FF90EF90B1
:1008C000DF90CF90BF90AF909F908F900895CF937F
:1008D000DF93EC018D818823A1F18C8187FF2DC0EE
:1008E0006E857F858889998941E00E94C01288239E
:1008F00041F1EA8980E2E89FF0011124DF01A65A64
:10090000BB4F1097F1F08D81823050F44B895C8998
:100910006D897E895C964D935D936D937C935F9713
:100920008F89988DA98DBA8DE65AFB4F938F828F50
:10093000B58BA48B8C818F778C83DF91CF910C94B6
:10094000851280E0DF91CF9108958F929F92AF92B0
:10095000BF92CF92DF92EF92FF920F931F93CF93AC
:10096000DF93EC018D81811102C080E077C00B899B
:100970001C892D893E890417150726073707A8F318
:100980006A017B01823029F4CA86DB86EC86FD860B
:100990000DC0C114D104E104F10451F41E821F8280
:1009A000188619861A861B861C861D8681E056C00D
:1009B0008A849B84AC84BD84EB8DFC8D258530E0DE
:1009C000275F3F4FB501A4014150510961097109E9
:1009D000022E04C076956795579547950A94D2F7ED
:1009E000D701C6010197A109B10904C0B695A79521
:1009F000979587952A95D2F784179507A607B70785
:100A000020F089288A288B2849F44F89588D698DD0
:100A10007A8D4E835F836887798704C0841B950B2A
:100A2000A60BB70B4C015D018E010A5F1F4F8114AD
:100A30009104A104B10409F4A7CF4E815F816885B8
:100A4000798598018B8D9C8D0E94A71391E0891A5E
:100A50009108A108B1088111EACF87CFDF91CF912A
:100A60001F910F91FF90EF90DF90CF90BF90AF90CC
:100A70009F908F900895CF93DF9300D0CDB7DEB7CE
:100A80006AE00E942123805D8983905D9A831B82A6
:100A9000BE016F5F7F4F83E398E00E94970E0F9037
:100AA0000F900F90DF91CF9108953F924F925F92F8
:100AB0006F927F928F929F92AF92BF92CF92DF926E
:100AC000EF92FF920F931F93CF93DF93CDB7DEB7D3
:100AD0002C970FB6F894DEBF0FBECDBF5C01DC01D2
:100AE0005B968D909C905C971696CD90DD90ED90E6
:100AF000FC901997C114D104E104F10439F0BFEF5F
:100B0000CB1ADB0AEB0AFB0A312C07C0F401C080C8
:100B1000D180E280F38033243394F401818592857F
:100B2000A385B4859C01AD012F5F3F4F4F4F5F4FB1
:100B300029873A874B875C87260137011D821E82F1
:100B40001F821886F40181859285A385B4852D8145
:100B50003E814F815885281739074A075B0708F0FF
:100B600063C089859A85AB85BC858C159D05AE05CE
:100B7000BF0550F482E0C82ED12CE12CF12C92E07C
:100B8000492E512C612C712C9E012F5F3F4FB701D4
:100B9000A601C4010E94A713882309F445C08981D6
:100BA0009A81AB81BC81892B8A2B8B2B41F026014A
:100BB00037019FEF491A590A690A790A05C0C41416
:100BC000D504E604F70491F02D813E814F815885CC
:100BD0002F5F3F4F4F4F5F4F2D833E834F8358878B
:100BE0003FEFC31AD30AE30AF30AACCF0FEF1FEFAC
:100BF0002FEF3FE0B301A201C4010E940813882334
:100C000099F0D50116964D915D916D917C91199752
:100C1000411551056105710549F093018201C40137
:100C20000E940813811102C080E02AC0D5011696E7
:100C30004D925D926D927C921997332051F0D301C1
:100C4000C2010196A11DB11DF40180839183A2838D
:100C5000B383F5018789908DA18DB28D892B8A2B65
:100C60008B2B69F4D50157964D925D926D927C92D3
:100C70005A9714968C911497806814968C9381E0FF
:100C80002C960FB6F894DEBF0FBECDBFDF91CF918B
:100C90001F910F91FF90EF90DF90CF90BF90AF909A
:100CA0009F908F907F906F905F904F903F900895AE
:100CB0008FB7F89480914B048FBF089561E0FC01D9
:100CC00084810E94C41180914A04811110924A04C7
:100CD00008958EBD00000DB407FEFDCF8EB50895BA
:100CE0008FEFF7CF0F931F93CF93DF93EB010E940A
:100CF0002F128B01F5DF8F3F49F00E942F12601BEE
:100D0000710B6C177D07B0F380E001C081E0DF91CB
:100D1000CF911F910F910895CF93DF93EC018E81B6
:100D2000882379F08F8198859C012F5F3F4F38870A
:100D30002F838230924010F4D3DFF4CFCE01BEDF98
:100D40001E82DF91CF9108958CBD9DBD0895CF93F4
:100D5000DF93EC0180914A04811108C081E0809307
:100D60004A048091180990911909EEDF60E08C81A6
:100D7000DF91CF910C94C411CF92DF92FF920F9329
:100D80001F93CF93DF9300D01F92CDB7DEB76C01D6
:100D9000F62E29833A834B835C83BEDFC601D7DFFF
:100DA0006CE271E0C6019EDF8F2D806492DF08E166
:100DB00010E05C814B813A812981DA01C901002E62
:100DC00004C0B695A795979587950A94D2F729837D
:100DD0003A834B835C837DDF0850110929813A8176
:100DE0004B815C81083F8FEF180739F7FF2029F00E
:100DF000E8E0FE1204C087E803C085E901C08FEF78
:100E000068DF10E06DDFF601828787FF04C01F3FB7
:100E100011F01F5FF7CF0F900F900F900F90DF91A1
:100E2000CF911F910F91FF90DF90CF900895AF92D7
:100E3000BF92CF92DF92EF92FF920F931F93CF93C7
:100E4000DF93EC016901C801820F931F813092404A
:100E500008F06AC08E81882371F088819981AA8107
:100E6000BB81481759076A077B0729F48F8198854A
:100E7000C816D90698F5488359836A837B838B8586
:100E8000833039F089E0440F551F661F771F8A951C
:100E9000D1F79A01AB0161E1CE016EDF882319F031
:100EA00083E08D8341C00E942F125B0119DF8A8786
:100EB0008F3F49F40E942F126A197B096D327140ED
:100EC000A8F38FE003C08E3F29F08DE08D83CE0123
:100ED000F5DE2AC018861F8281E08E838F81988577
:100EE0008C159D0538F4FCDE8F81988501969887D6
:100EF0008F83F4CF6701E00EF11ECE14DF0429F0DA
:100F0000EFDEF60181936F01F8CF8F819885080F8E
:100F1000191F18870F838985882319F0011512403E
:100F200038F0CE01F9DE04C0CE01C8DE80E001C099
:100F300081E0DF91CF911F910F91FF90EF90DF90B3
:100F4000CF90BF90AF9008954F925F926F927F9233
:100F50008F929F92AF92BF92CF92DF92EF92FF92C9
:100F60000F931F93CF93DF931F92CDB7DEB7DC01B2
:100F700015962C91223018F480E090E007C16C01A6
:100F8000FC014285538564857585DB01CA0125E036
:100F9000B695A795979587952A95D1F7F82FFF7065
:100FA0005F2ED60114968C9180FFEDC044244394AB
:100FB000F60183899489A589B68984179507A607C0
:100FC000B70709F4412C842D90E09E012F5F3F4F1D
:100FD0004901360136E0630E711C892B09F484C087
:100FE000F60142855385648575855A01F1E0BF227B
:100FF000D60115962C9115977A018B0189E01695EB
:101000000795F794E7948A95D1F75B968D919C911B
:101010005C97223061F4FC01828D938DA48DB58D97
:10102000BC01CD016E0D7F1D801F911F49C0DC01E9
:1010300014962C912150122F1E21A114B104E9F411
:1010400011111BC0452B462B472B51F4F601878904
:10105000908DA18DB28D86839783A087B1870DC0B7
:10106000D60116964D915D916D917C9119979301E2
:101070000E94A713882309F486C0F601238D348DBE
:1010800086819781A085B1850297A109B109AC013C
:10109000BD01F901058404C0440F551F661F771F69
:1010A0000A94D2F786859785A089B189840F951F08
:1010B000A61FB71FBC01CD01610F711D811D911DC0
:1010C000D60114962C9126FF2AC00091000210919F
:1010D000010220910202309103026017710782071A
:1010E000930709F03FC01BC0442009F44CC089811C
:1010F00090E0019609F440CFF60182859385A4859E
:10110000B5854F96A11DB11D82879387A487B587AA
:10111000F0E25F9EC0011124865A9B4F37C040E029
:101120000E94C012882379F1F501E65AFB4FD401E1
:10113000CF010196E817F90719F021912D93FACF05
:10114000EFEF8E1A9E0AF60182859385A485B585F8
:101150000196A11DB11D82879387A487B58780E082
:1011600090E03BCF740101E010E09501AB01BC01C0
:1011700080915A0690915B065ADE882321F0BFEFDA
:101180008B1A9B0AE0CF8FEF9FEFB3CF0F90DF91C9
:10119000CF911F910F91FF90EF90DF90CF90BF9074
:1011A000AF909F908F907F906F905F904F90089539
:1011B000EF92FF920F931F93CF93DF93EC0179018E
:1011C000411551056105710511F482E134C08B852B
:1011D000833039F089E0440F551F661F771F8A95C9
:1011E000D1F79A01AB0168E1CE01C6DD882311F089
:1011F00084E021C08EEF6DDD87018EEFF81AF801D3
:1012000081918F0166DD0E151F05C9F78FEF61DD36
:101210008FEF5FDD65DD8A878F71853029F081E191
:101220008D83CE014BDD08C068E572E0CE015ADD4A
:10123000811106C085E18D83CE0140DD80E010C0C4
:1012400020E030E0A9016DE0CE0196DD811103C000
:1012500047DD882311F084E1EECFCE012FDD81E060
:10126000DF91CF911F910F91FF90EF900895E09142
:101270003308F09134080190F081E02D682F83E36A
:1012800098E01994CF92DF92EF92FF920F931F9301
:10129000CF93DF936C017A018B01C0E0D0E0CE15D3
:1012A000DF0589F0D8016D918D01D601ED91FC919A
:1012B0000190F081E02DC6011995892B11F47E0172
:1012C00002C02196ECCFC701DF91CF911F910F9102
:1012D000FF90EF90DF90CF900895CF93DF93C0E21F
:1012E000D9E061E089810E94F31160E089810E9468
:1012F000C41161E088810E94C41161E089810E946B
:10130000C41160E08981DF91CF910C94F31160E00A
:10131000809121090E94F31161E0809120090E94CF
:10132000C41180912109811101C0FFCF60E080913B
:1013300020090C94C411EF92FF920F931F93CF9347
:10134000DF93E82EF62EC7E0D0E0042F10E09801DE
:101350000C2E02C0359527950A94E2F7B901617009
:1013600077278E2D0E94C41161E08F2D0E94C41139
:1013700060E08F2D0E94C411219748F7DF91CF9133
:101380001F910F91FF90EF9008950F931F93CF93AC
:10139000DF931F92CDB7DEB7482F00E219E061E07E
:1013A000F801818149830E94F3114981F80160812C
:1013B00081810F90DF91CF911F910F91BCCF0F933F
:1013C0001F93CF93DF931F92CDB7DEB7482F00E274
:1013D00019E061E0F801818149830E94F31161E025
:1013E000F8018181D1D761E0F8018081CDD760E03B
:1013F000F8018181C9D760E0F8018081C5D74981B2
:10140000F801608181810F90DF91CF911F910F9141
:1014100092CFCF93DF93C0E2D9E061E08981E3D737
:1014200060E08881B1D761E08981AED761E08881D1
:10143000ABD760E08881A8D760E08981DF91CF9148
:10144000D2C7FF920F931F93CF93DF9360E08091F9
:101450002109C9D7C7E0D0E000E061E08091200910
:1014600093D72091210930E0F901EB5AFC4F849188
:10147000F901E15FFC4FF490F901E753FD4F14913E
:10148000112389F081112AD7E12FF0E0EE0FFF1F21
:10149000E155FD4FA591B491EC91EF2131E009F4B4
:1014A00030E0832F02C080E090E00C2E01C0880F56
:1014B0000A94EAF7082B60E08091200965D721970C
:1014C00008F0CBCF802FDF91CF911F910F91FF902C
:1014D00008956115710579F0FB0101900020E9F78D
:1014E0003197AF01461B570BDC01ED91FC91028057
:1014F000F381E02D199480E090E008950F931F93FD
:10150000CF93DF93EC0188819981009729F02A819C
:101510003B812617370788F48B016F5F7F4F0E944E
:101520008924009761F0998388831B830A832C8127
:101530003D81232B11F4FC01108281E001C080E089
:10154000DF91CF911F910F9108951F93CF93DF9358
:101550001F92CDB7DEB7182F80ED698330DFD7DE5D
:10156000812F13DFD4DE6981862F0FDFD0DE0F904D
:10157000DF91CF911F91B1CE1F93CF93DF931F9235
:10158000CDB7DEB7182F80ED1ADFC1DE812FFDDE6B
:10159000BEDEA3DE81ED13DFBADE53DF898339DFE0
:1015A0009CDE89810F90DF91CF911F9108950F9359
:1015B0001F93CF93DF93CDB7DEB728970FB6F8947C
:1015C000DEBF0FBECDBF80EDFADEA1DE80E0DDDE46
:1015D0009EDE83DE81EDF3DE9ADE00E010E031DF97
:1015E000F801E05EF64F828307301105C9F061E033
:1015F00080912109F8D660E080912009C5D660E08D
:1016000080912109C1D661E080912009BDD660E0BA
:1016100080912009B9D660E080912109E4D601C00B
:10162000F8DE0F5F1F4F08301105C9F656DE8091B6
:101630002209482F4695469546954E70942F990F4E
:10164000990F490F8F70480F80912309382F3695D5
:10165000369536953E70932F990F990F390F8F70ED
:10166000380F80912409282F2F7087FF08C085FB31
:10167000992790F97CE0979F200D112409C0807371
:10168000869586958695982F990F990F890F280F23
:10169000E091250960912609709127098091280918
:1016A000562F5695569556955E70952F990F990F12
:1016B000590F6F70560F672F6695669566956E7019
:1016C000962F990F990F690F7F70670F982F92953A
:1016D0009F708F707AE0979F800D112490E0805367
:1016E000984F9F838E83782F8F819E2F28960FB6D9
:1016F000F894DEBF0FBECDBFDF91CF911F910F9148
:1017000008958F929F92AF92BF92CF92DF92EF9205
:10171000FF926B017C01A3D64B015C01C60ED71E64
:10172000E81EF91E9CD6681579058A059B0528F0E8
:10173000C616D706E806F906A8F7FF90EF90DF90E7
:10174000CF90BF90AF909F908F900895FC018081C3
:101750009181009711F00C94551F60E070E0CB016F
:101760000895EF92FF920F931F93CF93DF93FC01A5
:10177000248135816115710511F480E018C041158F
:101780005105A1F07B01EC018A01020F131FB80182
:10179000B5DE882391F3288139818C819D81B70141
:1017A000820F931F0E947A251D830C8381E0DF91B5
:1017B000CF911F910F91FF90EF900895CF93DF93FA
:1017C000EC0188819981009711F00E94F123198220
:1017D00018821D821C821B821A82DF91CF9108958C
:1017E000EF92FF920F931F93CF93DF93EC017B0156
:1017F0008A01BA0183DE811103C0CE01DFDF07C099
:101800001D830C83B701888199810E947A25CE01BE
:10181000DF91CF911F910F91FF90EF900895CF939B
:10182000DF93EC016115710551F0FB01019000207F
:10183000E9F73197AF01461B570BD2DF01C0BEDF7E
:10184000CE01DF91CF910895CF93DF93EC01FB019F
:101850008617970751F0608171816115710521F03C
:1018600044815581BDDF01C0A9DFCE01DF91CF9159
:101870000895FC01808191810C94F123FC01118277
:10188000108213821282158214826115710549F04B
:10189000FB0101900020E9F73197AF01461B570B80
:1018A0009FCF0895BF92CF92DF92EF92FF920F9356
:1018B0001F93CF93DF937C016B018A01E901241709
:1018C000350720F4812F8901C42FD82F64E672E0F8
:1018D000C701D4DFD60114968D919C9115970817F6
:1018E0001907C8F48C179D0708F4EC01D601ED9197
:1018F000FC911197EC0FFD1FB08010824D915C910F
:10190000BA01600F711FC7018ADFD601ED91FC910A
:10191000EC0FFD1FB082C701DF91CF911F910F9196
:10192000FF90EF90DF90CF90BF9008954F925F921D
:101930006F927F92EF92FF920F931F93CF93DF935B
:10194000CDB7DEB7A1970FB6F894DEBF0FBECDBFFF
:101950007C01FA01CB0119A2223008F42AE08E01A1
:101960000F5D1F4F422E512C612C712CBF01A30122
:1019700092010E94E622F901CA01015011096A3060
:1019800014F4605D01C0695CD8016C93232B242B97
:10199000252B61F7B801C7019CDDA1960FB6F8941D
:1019A000DEBF0FBECDBFDF91CF911F910F91FF9092
:1019B000EF907F906F905F904F90089562E672E095
:1019C00088CD0F931F93CF93DF938C01C0E0D0E0BD
:1019D000F801EC0FFD1F6491662371F0E09133086C
:1019E000F09134080190F081E02D83E398E019959F
:1019F000892B11F02196ECCF83E398E0DFDF8C0F89
:101A00009D1FDF91CF911F910F910895CF93DF9389
:101A1000AB01BC012AE083E398E088DFEC0183E3BB
:101A200098E0CCDF8C0F9D1FDF91CF9108953F92FE
:101A30004F925F926F927F928F929F92AF92BF92DE
:101A4000CF92DF92EF92FF920F931F93CF93DF938A
:101A5000CDB7DEB76D970FB6F894DEBF0FBECDBF22
:101A60007C01FC011682178210861186128613866D
:101A700014861586C62ED12C7FE3A72E72E0B72ED2
:101A800077247394E2E05E2E560EF4E06F2EC701C9
:101A90005BDA8C01892B09F422C1F801808188234B
:101AA00009F41DC1853E99F38E3289F3838583FD48
:101AB000EECF912C892D092C000C990B8C159D05CE
:101AC00024F480E2D4DB9394F5CF4801412C312CEF
:101AD000F4018081803261F0F8E03F1203C08EE2B1
:101AE000C6DB4394F401608183E398E0BCD1439466
:101AF0003394FFEF8F1A9F0A8BE03812E9CFF80179
:101B000083858871803119F48FE2B1DB4394FDE065
:101B1000F41510F080E2F9CFF801808C918CA401CB
:101B2000452F552746954454584F60E070E02AE011
:101B300083E398E0FBDE8DE29ADBC40145E09695F5
:101B400087954A95E1F78F700E943B058DE28FDB08
:101B5000882D8F710E943B0580E289DBF801868821
:101B60009788892D8695869586950E943B058AE300
:101B70007EDBC40155E0969587955A95E1F78F7302
:101B80000E943B058AE373DB882D8F71880F0E94CA
:101B90003B05F80183858871803151F483E398E037
:101BA0000DDFF80183858871803109F070CF0CC09A
:101BB00080E25DDBF801448D558D668D778D2AE0DE
:101BC00083E398E0B3DEEACFF7010285138524852D
:101BD000358585E036952795179507958A95D1F730
:101BE000015011091C821B82BA82A9821E82838D38
:101BF000948D9D8F8C8F480195E0880C991C9A9547
:101C0000E1F7A40160E070E0C7010E94A504882309
:101C100009F45CC0C70198D9009709F457C0FC01CA
:101C20008081882309F452C0853E09F44FC08E326A
:101C300009F44CC00F700B8B80910002909101024F
:101C4000A0910202B09103028F87988BA98BBA8B67
:101C500080E2089FF0011124E65AFB4F4489558920
:101C600060E070E0BA0155274427828D938DA0E093
:101C7000B0E0482B592B6A2B7B2B488F598F6A8FEA
:101C80007B8F8385887151F4848D958DA68DB78D5A
:101C90008C8B9D8BAE8BBF8B7E820BC08031B1F461
:101CA0009E012C5E3F4F8C8D9D8DD4D5882371F085
:101CB0006E827D821F82188619861A861B861C8674
:101CC0001D861E86652DCE010196B1DEA401405E03
:101CD0005F4F60E070E0C7010E94A504D8CE6D960A
:101CE0000FB6F894DEBF0FBECDBFDF91CF911F912D
:101CF0000F91FF90EF90DF90CF90BF90AF909F90AB
:101D00008F907F906F905F904F903F9008950F93CA
:101D10001F93CF93DF93EC01DCDB8C01CE014EDE11
:101D2000800F911FDF91CF911F910F910895D1CB1B
:101D3000FC01A089B1898C91A689B78982FD0FC069
:101D40009C91818D8F5F8F73228D821749F0218D39
:101D5000DF01A20FB11D5D969C93818F08958C9138
:101D60000895FC01538D448D252F30E0842F90E0A1
:101D7000821B930B541710F0CF9608950197089586
:101D8000FC01918D828D981761F0828DDF01A80F83
:101D9000B11D5D968C91928D9F5F9F73928F90E0A5
:101DA00008958FEF9FEF0895FC01918D828D981714
:101DB00031F0828DE80FF11D858D90E008958FEF51
:101DC0009FEF0895FC01918D228D892F90E0805C1A
:101DD0009F4F821B91098F73992708958CE596E098
:101DE000F1DF21E0892B09F420E0822F089589EFAB
:101DF00096E0E8DF21E0892B09F420E0822F0895A6
:101E000086E997E0DFDF21E0892B09F420E0822FCB
:101E1000089583E398E0D6DF21E0892B09F420E0E0
:101E2000822F0895FC01848DDF01A80FB11DA35AF4
:101E3000BF4F2C91848D90E001968F739927848FEA
:101E4000A689B7892C93A089B1898C9180648C93E1
:101E5000938D848D981306C00288F389E02D8081CC
:101E60008F7D80830895EF92FF920F931F93CF93FE
:101E7000DF93EC0181E0888F9B8D8C8D981305C0DA
:101E8000E889F989808185FD23C0F62E0B8D10E04D
:101E90000F5F1F4F0F731127E02E8C8DE8120BC0C0
:101EA0000FB607FCFACFE889F989808185FFF5CF65
:101EB000CE01B8DFF2CF8B8DFE01E80FF11DE35AA2
:101EC000FF4FF0820B8FEA89FB898081806207C017
:101ED000EE89FF896083E889F98980818064808345
:101EE00081E090E0DF91CF911F910F91FF90EF90F3
:101EF0000895CF93DF93EC01888D8823C1F0EA89A0
:101F0000FB89808185FD05C0A889B9898C9186FDF2
:101F10000EC00FB607FCF5CF808185FFF2CFA889F0
:101F2000B9898C9185FFEDCFCE017CDFE8CFDF91C1
:101F3000CF91089580E090E0892B19F06ADF81113C
:101F400012C080E090E0892B19F05ADF81110EC099
:101F50004EDF81110EC080E090E0892B79F03EDFEA
:101F600081110AC008950E940000EBCF0E9400007A
:101F7000EFCF0E942302EFCF0C94000008950E943F
:101F80006D251F920F920FB60F9211240BB60F9270
:101F90002F933F934F935F936F937F938F939F9371
:101FA000AF93BF93EF93FF938CE596E03BDFFF91F8
:101FB000EF91BF91AF919F918F917F916F915F91C1
:101FC0004F913F912F910F900BBE0F900FBE0F902E
:101FD0001F9018951F920F920FB60F9211240BB6F7
:101FE0000F922F933F934F935F936F937F938F93B2
:101FF0009F93AF93BF93EF93FF938CE596E098DEAA
:10200000FF91EF91BF91AF919F918F917F916F91D0
:102010005F914F913F912F910F900BBE0F900FBE8C
:102020000F901F9018951F920F920FB60F921124C8
:102030000BB60F922F933F934F935F936F937F93C2
:102040008F939F93AF93BF93EF93FF9389EF96E0A6
:10205000E9DEFF91EF91BF91AF919F918F917F91B9
:102060006F915F914F913F912F910F900BBE0F9009
:102070000FBE0F901F9018951F920F920FB60F92E0
:1020800011240BB60F922F933F934F935F936F934F
:102090007F938F939F93AF93BF93EF93FF9389EFBA
:1020A00096E046DEFF91EF91BF91AF919F918F91A6
:1020B0007F916F915F914F913F912F910F900BBE48
:1020C0000F900FBE0F901F9018951F920F920FB692
:1020D0000F9211240BB60F922F933F934F935F9360
:1020E0006F937F938F939F93AF93BF93EF93FF93E0
:1020F00086E997E097DEFF91EF91BF91AF919F91B5
:102100008F917F916F915F914F913F912F910F90A0
:102110000BBE0F900FBE0F901F9018951F920F923D
:102120000FB60F9211240BB60F922F933F934F933C
:102130005F936F937F938F939F93AF93BF93EF932F
:10214000FF9386E997E0F4DDFF91EF91BF91AF91A6
:102150009F918F917F916F915F914F913F912F91BF
:102160000F900BBE0F900FBE0F901F9018951F92EF
:102170000F920FB60F9211240BB60F922F933F932D
:102180004F935F936F937F938F939F93AF93BF937F
:10219000EF93FF9383E398E045DEFF91EF91BF91CA
:1021A000AF919F918F917F916F915F914F913F91EF
:1021B0002F910F900BBE0F900FBE0F901F90189590
:1021C0001F920F920FB60F9211240BB60F922F93FE
:1021D0003F934F935F936F937F938F939F93AF93AF
:1021E000BF93EF93FF9383E398E0A2DDFF91EF911C
:1021F000BF91AF919F918F917F916F915F914F911F
:102200003F912F910F900BBE0F900FBE0F901F901C
:102210001895CF92DF92EF92FF921F93CF93DF93A7
:10222000EC016A017B01122FE889F98982E0808341
:102230004115514E61057105B1F060E079E08DE323
:1022400090E0A70196010E94E622DA01C9010197F8
:10225000A109B109B695A79597958795AC01411548
:1022600080E15807A8F0E889F989108260E874E8ED
:102270008EE190E0A70196010E94E622BA01A90131
:1022800041505109610971097695679557954795B0
:10229000EC85FD855083EE85FF854083188EEC89A3
:1022A000FD891083EA89FB89808180618083EA89C6
:1022B000FB89808188608083EA89FB8980818068CE
:1022C0008083EA89FB8980818F7D8083DF91CF9134
:1022D0001F91FF90EF90DF90CF90089590E0FC0168
:1022E0003197E231F10508F04EC08827EE58FF4FD4
:1022F0008F4F0C944023809180008F7703C0809192
:1023000080008F7D80938000089580918000877F7A
:10231000F9CF84B58F7702C084B58F7D84BD0895D1
:102320008091B0008F7703C08091B0008F7D809343
:10233000B0000895809190008F7707C08091900041
:102340008F7D03C080919000877F809390000895D7
:102350008091A0008F7707C08091A0008F7D03C07F
:102360008091A000877F8093A00008958091200134
:102370008F7707C0809120018F7D03C0809120015D
:10238000877F8093200108951F93CF93DF93282F99
:1023900030E0F901EB5AFC4F8491F901E15FFC4F09
:1023A000D491F901E753FD4FC491CC23C1F0162F0E
:1023B000811194DFEC2FF0E0EE0FFF1FE556FC4F8C
:1023C000A591B4918FB7F894111105C09C91ED2F90
:1023D000E095E92302C0EC91ED2BEC938FBFDF91E8
:1023E000CF911F910895CF93DF9390E0FC01E15FBF
:1023F000FC4F2491FC01E753FD4F8491882361F148
:1024000090E0880F991FFC01E05DFD4FC591D491CC
:10241000FC01E556FC4FA591B491611109C09FB72D
:10242000F8948881209582238883EC912E230BC019
:10243000623061F49FB7F8943881822F80958323AE
:102440008883EC912E2B2C939FBF06C08FB7F894F6
:10245000E8812E2B28838FBFDF91CF9108952FB76E
:10246000F8946091560470915704809158049091AB
:1024700059042FBF08951F920F920FB60F92112487
:102480002F933F938F939F93AF93BF938091560465
:1024900090915704A0915804B0915904309155047B
:1024A00023E0230F2D3720F40196A11DB11D05C097
:1024B00026E8230F0296A11DB11D20935504809399
:1024C000560490935704A0935804B09359048091F4
:1024D000510490915204A0915304B0915404019678
:1024E000A11DB11D8093510490935204A0935304F5
:1024F000B0935404BF91AF919F918F913F912F91D1
:102500000F900FBE0F901F90189580914C04882358
:10251000A9F1409100025091010260910202709174
:1025200003022AE534E080915A0690915B060E94EE
:10253000D808811102C080E0089540914D04509167
:102540004E0460914F04709150044115510561058E
:10255000710591F02AE534E080915A0690915B066E
:102560000E94D808882339F310924D0410924E042B
:1025700010924F041092500410924C0481E0089580
:102580008F929F92AF92BF92EF92FF920F931F9301
:10259000CF934B015C01C42F809100029091010206
:1025A000A0910202B091030288159905AA05BB0506
:1025B000F9F0ABDF811102C080E020C08AE5E82E8F
:1025C00084E0F82E00E012E020E030E0B501A40144
:1025D00080915A0690915B060E941707882361F349
:1025E0008092000290920102A0920202B092030235
:1025F00080914C04C82BC0934C0481E0CF911F9173
:102600000F91FF90EF90BF90AF909F908F900895A3
:102610004F925F926F927F928F929F92AF92BF92F2
:10262000CF92DF92EF92FF920F931F93CF93DF939E
:10263000EC016A017B012801390142305105610535
:10264000710510F480E072C089859A85AB85BC85E0
:102650000196A11DB11D84179507A607B70790F332
:102660008B889C88AD88BE888F89803129F4BB27F0
:10267000AF2D9E2D8D2D09C0DB01CA0147E0B69517
:10268000A795979587954A95D1F7880E991EAA1E0A
:10269000BB1E8091000290910102A0910202B091B4
:1026A000030288169906AA06BB0679F48F89803141
:1026B00099F4DD24EE24FF24C601880F991FFC0144
:1026C000E65AFB4F5182408218C040E0C501B40178
:1026D00057DF8111EBCFB6CFE894C7F8DD24EE24A5
:1026E000FF24C601880F991F880F991FFC01E65A25
:1026F000FB4F408251826282738280914C048160E0
:1027000080934C048A89823080F08D819E81AF81D4
:10271000B885880E991EAA1EBB1E80924D04909209
:102720004E04A0924F04B092500481E0DF91CF910B
:102730001F910F91FF90EF90DF90CF90BF90AF90DF
:102740009F908F907F906F905F904F9008958F92A1
:102750009F92AF92BF92CF92DF92EF92FF920F9330
:102760001F93CF93DF93FC0181859285A385B48568
:102770000196A11DB11D84179507A607B70710F490
:1027800080E05BC083899489A589B689C789C031F7
:1027900029F4852E962EA72EBB2409C04A015B0181
:1027A000C7E0B694A79497948794CA95D1F7E901A6
:1027B0006A017B018F01BC01CD01680D791D8A1D65
:1027C0009B1D8090000290900102A0900202B090A8
:1027D0000302681579058A059B0599F4F801878934
:1027E0008031A1F4B701A601552766277727440F4A
:1027F000551FFA01E65AFB4F80819181A0E0B0E0BD
:1028000017C040E0BDDE8111E9CFBACFB701A60104
:102810004F77552766277727440F551F440F551FBD
:10282000FA01E65AFB4F80819181A281B381BF708A
:1028300088839983AA83BB8381E0DF91CF911F9125
:102840000F91FF90EF90DF90CF90BF90AF909F904F
:102850008F9008954F925F926F927F92AF92BF9246
:10286000CF92DF92EF92FF920F931F93CF93DF935C
:1028700000D01F92CDB7DEB78C0149835A836B839A
:102880007C835901C12CD12C7601412C82E0582E39
:10289000612C712C49815A816B817C819E012F5F53
:1028A0003F4FC80154DF882351F1D301C201F80121
:1028B000058404C0880F991FAA1FBB1F0A94D2F772
:1028C000C80ED91EEA1EFB1E49815A816B817C818C
:1028D0008789803129F088EF9FEFAFEFBFE004C018
:1028E00088EF9FEFA0E0B0E0481759076A077B0721
:1028F00088F2F501C082D182E282F38281E00F90FA
:102900000F900F900F90DF91CF911F910F91FF903B
:10291000EF90DF90CF90BF90AF907F906F905F90DF
:102920004F9008958F929F92AF92BF92DF92EF9255
:10293000FF920F931F93CF93DF9300D01F921F92AC
:10294000CDB7DEB78C016D83DC0115968C911597A0
:102950008130C9F414968C9181FF15C082FF1BC091
:10296000F801438954896589768982859385A48590
:10297000B58584179507A607B70769F0C8010E94B7
:10298000A504811108C081E090E0F801938382835F
:1029900080E090E0E1C0D8011A964D915D916D9173
:1029A0007C911D975B968D919C915C97FC01D480E6
:1029B000DA944A015B0129E0B694A794979487942E
:1029C0002A95D1F7D8207A01F1E0FF22D11046C034
:1029D000E114F10409F042C0D80116964D915D91C1
:1029E0006D917C911997411551056105710559F457
:1029F00057968D919D910D90BC91A02D0097A105AA
:102A0000B10539F520C09E012F5F3F4FA0DE88231E
:102A100009F4BECF89819A81AB81BC81F801238DF5
:102A2000348DF9012789203129F048EF5FEF6FEFEE
:102A30007FE004C048EF5FEF60E070E08417950727
:102A4000A607B70730F0C8010E945505811106C0DE
:102A50009ACFF80186839783A087B187D8015B96C8
:102A6000ED91FC915C9716968D909D90AD90BC90E9
:102A70001997B2E08B1A9108A108B108058404C027
:102A8000880C991CAA1CBB1C0A94D2F786859785D2
:102A9000A089B189880E991EAA1EBB1E8D0C911C9F
:102AA000A11CB11CE114F10401F5F8014285538524
:102AB0006485758583899489A589B68948175907DE
:102AC0006A077B0790F021DD882309F45CCF8092B0
:102AD000000290920102A0920202B0920302809141
:102AE0004C04816080934C0407C041E0C501B401EF
:102AF00047DD882309F447CFF701E65AFB4F8D8164
:102B00008083F80182859385A485B5850196A11DF2
:102B1000B11D82879387A487B587438954896589C6
:102B20007689481759076A077B0738F4838B948B9B
:102B3000A58BB68B848180688483D80114968C9190
:102B400083FD03C081E090E007C0C8010E946704D4
:102B5000882309F418CFF6CF0F900F900F900F90A5
:102B60000F90DF91CF911F910F91FF90EF90DF9029
:102B7000BF90AF909F908F9008958F929F92AF9249
:102B8000BF92CF92DF92EF92FF92CF93DF93C82F45
:102B900085E699E090935B0680935A06CC2361F119
:102BA000C53010F080E00BC140E060E070E0CB0188
:102BB000E7DC8823B9F320E1C29FC0011124865BC2
:102BC0009B4FFC01E254FE4F20812F7759F73C9632
:102BD00040815181628173814436510561057105DF
:102BE00008F33497C080D180E280F380C114D1040F
:102BF000E104F10421F4D6CFC12CD12C760140E0C0
:102C0000C701B601BDDC882369F28091650490910B
:102C100066048115924031F6A0916A04AA2309F452
:102C2000C1CF60916804709169046115710509F460
:102C3000B9CF20916704222309F4B4CFA093590996
:102C400020934B0980E030E0E1E0F0E0C82FAF01D5
:102C5000082E02C0440F551F0A94E2F724173507C7
:102C600041F0982F8F5F983089F789E0809354095D
:102C700099CF8093540920917004309171042115EB
:102C8000310519F040E050E008C020917E043091F9
:102C90007F04409180045091810420934C0930932B
:102CA0004D0940934E0950934F0946015701860E36
:102CB000971EA11CB11C80925A0990925B09A092A8
:102CC0005C09B0925D09E0916B04F0916C04F093A3
:102CD0006009E0935F09B0E00E940823860E971E0A
:102CE000A81EB91E8092610990926209A0926309A0
:102CF000B092640985E0EE0FFF1F8A95E1F7E1507D
:102D0000FE4FEF2FFF27E6958E0E9F1EA11CB11CD4
:102D10008092550990925609A0925709B09258098D
:102D200020916D0430916E042115310521F0A90127
:102D300060E070E008C040917A0450917B0460919B
:102D40007C0470917D04D701C60188199909AA09EC
:102D5000BB09840F951FA61FB71F04C0B695A79582
:102D600097958795CA95D2F780935009909351090A
:102D7000A0935209B0935309853F2FE09207A10514
:102D8000B10510F48CE018C0853F9F4FA105B10537
:102D900010F480E111C08091860490918704A09185
:102DA0008804B09189048093610990936209A0938B
:102DB0006309B093640980E280935E0981E0DF914A
:102DC000CF91FF90EF90DF90CF90BF90AF909F900A
:102DD0008F900895CF93DF93EC0141E050E067ECD2
:102DE00073E00E94B10B811103C0CE010E94DE0B83
:102DF000CE01DF91CF9108958F929F92AF92BF92B3
:102E0000DF92EF92FF920F931F93CF93DF93CDB793
:102E1000DEB7DA950FB6F894DEBF0FBECDBF809156
:102E20007909898383E08A8380917A0990917B096B
:102E30009B838C8380917C0990917D099D838E83F7
:102E4000CE0101967C01FC018FEF9FEF8701BE2C24
:102E500066E06E0D2191822728E030E0AC015695A6
:102E6000479580FF06C0CA01A1E08A27A0EA9A27F9
:102E700001C0CA012150310989F76E13EBCF8F834E
:102E8000988719868091770990917809DC01ED91F6
:102E9000FC910284F385E02D1995019699F7E09154
:102EA0008D0AF0918E0A309709F01995E8E0BE0E70
:102EB0008091770990917809D7016D917D01DC01AE
:102EC000ED91FC910190F081E02D1995BE10F0CFAD
:102ED0008091770990917809DC01ED91FC91068051
:102EE000F781E02D1995E0918F0AF091900A3097C3
:102EF00009F01995B4DA4B015C0188E0F82EE12C59
:102F00008091770990917809DC01ED91FC91008422
:102F1000F185E02D1995892BA9F0DD24D394DE0CE1
:102F20008091770990917809DC01ED91FC91028400
:102F3000F385E02D1995F801EE0DF11D8083FA94CB
:102F4000ED2C07C0E0918B0AF0918C0A309709F0C4
:102F50001995B5E0EB1225C09981809179099813F4
:102F6000ABC0EA818E2F8F77833009F0A7C0E7FFCF
:102F700004C08B81882349F185C08E2F90E0FC012D
:102F80003197E731F10568F48827EC57FF4F8F4FF1
:102F90000C944023B3E0FB2E04C0FB8002C0A5E0EC
:102FA000FA2E5DDADC01CB0188199909AA09BB095F
:102FB000813D9740A105B10510F082EE63C0F1108C
:102FC0009FCFF4E0FE1508F07BC02FEF3FEFE0E06D
:102FD0008E2D90E0AC01425051096E2F70E06417C5
:102FE0007507C4F4D801A60FB71F6C91262768E0B7
:102FF00070E0D901B695A79520FF06C09D01F1E0CC
:103000002F27F0EA3F2701C09D016150710989F720
:10301000EF5FE3CFF801E40FF51F40814213A0C03A
:10302000FE01E80FF91F808183139AC049C0203444
:10303000E8F4880F991FDC01A958B64FE5E0F0E0ED
:10304000EC0FFD1FE80FF91F408150E0542F44277B
:10305000E4E0F0E0EC0FFD1FE80FF91F8081FA01BA
:10306000E82BCF0118969C938E931797322F2F5FE2
:10307000822F90E086179707D4F230938A0AF0FCEB
:1030800053C080E01092840A1092860A1092850A3A
:103090001092890AD3950FB6F894DEBF0FBECDBF4C
:1030A000DF91CF911F910F91FF90EF90DF90BF9034
:1030B000AF909F908F90089580EEE4CF81EEE2CFA5
:1030C0008A81853030F4833030F4813008F03FC09D
:1030D000D8CF8731B1F66B8170E0759567952091F7
:1030E0008A0A40E0842F90E0861797076CF54034F9
:1030F000C0F49C012E5F3F4F220F331F880F991F92
:10310000FC01E958F64FDE01A20FB31F8C9190E04D
:10311000982F8827D801A20FB31F2C91822B90875C
:103120008783242F4F5FDECF203468F4880F991FE8
:10313000FC01E958F64FD801A80FB91F13968C91DE
:1031400090E0908787832F5F20938A0A9ACFFB8035
:103150006F2D70E07595679530918A0A20E088CFD1
:1031600083EE90CFCF93DF93CDB7DEB7E4970FB662
:10317000F894DEBF0FBECDBF789484B5826084BD65
:1031800084B5816084BD85B5826085BD85B581606B
:1031900085BD80916E00816080936E0010928100E9
:1031A00080918100826080938100809181008160A4
:1031B0008093810080918000816080938000809165
:1031C000B10084608093B1008091B00081608093F1
:1031D000B000809191008260809391008091910075
:1031E0008160809391008091900081608093900035
:1031F0008091A10082608093A1008091A1008160F4
:103200008093A1008091A00081608093A0008091B4
:10321000210182608093210180912101816080934E
:1032200021018091200181608093200180917A00AA
:10323000846080937A0080917A00826080937A0023
:1032400080917A00816080937A0080917A00806812
:1032500080937A001092C1001092140910921509FF
:1032600010921609109217091092D2081092D308E2
:103270001092D4081092D50868EB7BE080E090E0D3
:103280000E94810B83E398E09093130980931209C5
:1032900026E040E052EC61E070E00E940911DFD8C6
:1032A0006093D2087093D3088093D4089093D50884
:1032B00063E572E080911209909113090E94970EC4
:1032C0006AE070E080E090E00E94810B81E08093F2
:1032D000E60826E040E05BE460E070E08CE596E024
:1032E0000E94091165E672E08CE596E00E94870E67
:1032F00026E040E05BE460E070E089EF96E00E9449
:10330000091161E088E26FD861E088E23DD86CE79E
:1033100072E089EF96E00E94870E60E088E234D880
:1033200026E040E05BE460E070E083E398E00E9428
:10333000091167E972E083E398E00E94870E80E05C
:103340000E94BC0A682F6F7780E00E94A50A62E0A5
:1033500083E00E94A50A62E182E00E94A50A60E083
:1033600081E00E94A50A60E080E00E94A50A68E171
:1033700086E00E94A50A66E085E00E94A50A66E252
:1033800084E00E94A50A87E00E94BC0A682F6C7F37
:1033900087E00E94A50A87E00E94BC0A682F60614E
:1033A00087E00E94A50A83E892E00E94E10C109257
:1033B000700910926E0910926B0910926A0985E3E8
:1033C000809369094CD88B0161E0809169090BD821
:1033D00061E0809169090E94C411BFB6F8948091A0
:1033E0003404811127C0EEEFF2E08491E4E4F3E0CD
:1033F0009491E82FF0E0EE0FFF1FE05DFD4FA591E7
:10340000B491EC91E92321F461E085E30E94C411B9
:1034100061E085E30E94F3118CB580618CBD8CB5B1
:1034200080648CBD61E084E30E94F31161E083E37A
:103430000E94F311809134048F5F80933404BFBEE7
:1034400082E58093180910921909809118099091CA
:1034500019090E94A4062AE0B22E8FEF0E94690685
:10346000BA94B110FACF85E699E00E94A70620E051
:1034700030E0A90160E085E699E00E94BC06B82E24
:1034800080936F0931E0831749F00E942F12601B6F
:10349000710B613D774058F381E056C02AEA31E074
:1034A00040E050E068E085E699E00E94BC0682FFBB
:1034B00003C0B092700910C094E0B92E0E9470064B
:1034C00080936F09BA94B110F9CF8A3A11F082E073
:1034D0003BC082E08093700980917009823021F0B6
:1034E000412C512C320105C0412C512C612C80E41F
:1034F000782E20E030E0A90167E385E699E00E949C
:10350000BC06A301920169E285E699E00E94BC062F
:1035100080936F09882349F00E942F12601B710B62
:10352000613D774030F388E00FC0809170098230B0
:1035300021F520E030E0A9016AE385E699E00E94E8
:10354000BC06882361F086E080936A0985E699E0ED
:103550000E945E068AE692E00E94E10C22C10E946F
:103560007006807C803C19F483E0809370090E948F
:1035700070060E9470060E94700685E699E00E941F
:103580005E0680E580931809109219098AE492E09A
:103590000E94E10C63EB72E083E398E00E94970ED7
:1035A0004091700950E060E070E02AE083E398E029
:1035B0000E94960C83E398E00E94DE0C80917009D3
:1035C000823039F0833041F0813049F465EC72E0AB
:1035D00008C069EC72E005C06DEC72E002C062EDFB
:1035E00072E083E398E00E94870E81E0C6DA8111E1
:1035F0000AC0C3DA811107C06AED72E083E398E084
:103600000E94870ECEC066E373E083E398E00E94D9
:10361000970E40915E0950E060E070E02AE083E39D
:1036200098E00E94960C83E398E00E94DE0C83E30E
:1036300098E00E94DE0CA0914B09409150095091F6
:10364000510960915209709153099A01AB01B9E097
:10365000220F331F441F551FBA95D1F7B0E0D8D7BA
:103660002B013C016CE473E083E398E00E94970E29
:10367000C301B2010E94060D62E673E083E398E0A5
:103680000E94970EC301B2011AE09695879577952F
:1036900067951A95D1F70E94060D69E773E083E3F9
:1036A00098E00E94970EC301B20104E196958795B8
:1036B000779567950A95D1F70E94060D60E973E04A
:1036C00083E398E00E94870E80912F09811164C0E6
:1036D00080915E09803109F582E080932F09109274
:1036E00041091092420910924309109244098091B5
:1036F0005F0990916009A0E0B0E0F5E0880F991FA4
:10370000AA1FBB1FFA95D1F780933D0990933E09FC
:10371000A0933F09B09340091CC08032E9F583E0D3
:1037200080932F094091610950916209609163096A
:103730007091640940934109509342096093430991
:10374000709344092DE339E087E499E083D8882316
:1037500019F187E499E0909346098093450981E047
:1037600080932E091092300910923109109232097B
:1037700010923309109234091092350910923609CB
:1037800010923709109238091092390910923A09AB
:1037900010923B0910923C0960E08AE299E00E9495
:1037A000170D0E942F12672B682B692B41F40E9482
:1037B0002F12623071058105910508F408C10E943D
:1037C0002F126093450470934604809347049093AE
:1037D0004804009141041091420420914304309127
:1037E0004404601771078207930740F46093410413
:1037F00070934204809343049093440400914104E5
:103800001091420420914304309144044B015C0127
:10381000801A910AA20AB30A950184010A3F110590
:103820002105310508F4D3C060934104709342042C
:10383000809343049093440484EF91E0A0E0B0E0CF
:103840008093DE089093DF08A093E008B093E1082E
:103850001092E2081092E3081092E4081092E50832
:103860008091D6089091D708A091D808B091D90836
:103870008093DA089093DB08A093DC08B093DD080E
:103880000E942F126093D6087093D7088093D808AF
:103890009093D9080E942F126093D2087093D30896
:1038A0008093D4089093D5080E942F122B013C01DD
:1038B00069EC73E080911209909113090E94970EB0
:1038C0002AE041E050E060E070E0809112099091C0
:1038D00013090E94960C60ED73E08091120990919B
:1038E00013090E94970E2AE0B301A20180911209E8
:1038F000909113090E94960C62ED73E08091120979
:10390000909113090E94970E8091D6089091D70844
:10391000A091D808B091D908B301A201481B590B56
:103920006A0B7B0B2AE080911209909113090E9487
:10393000960C62ED73E080911209909113090E9438
:10394000970E4091D6085091D7086091D808709191
:10395000D9088091DA089091DB08A091DC08B09139
:10396000DD08481B590B6A0B7B0B2AE0809112097A
:10397000909113090E94960C64ED73E080911209F6
:10398000909113090E94970E0E942F12AB01BC0167
:103990002AE080911209909113090E94960C66ED1D
:1039A00073E080911209909113090E94870E65E0DF
:1039B00070E080E090E00E94810B0E942F126093E3
:1039C000D6087093D7088093D8089093D9088AE0D6
:1039D00080934004E2E02E2E312C1091400461E0EF
:1039E00089E20E94F3112EE040E05BE460E070E0C9
:1039F00086E997E00E9409111093790986E997E01A
:103A000090937809809377091092840A1092860A1D
:103A10001092850A7BE1A72E72E0B72EB0928E0A33
:103A2000A0928D0A23E132E03093900A20938F0A0E
:103A300064E672E0CE0188960E943E0C812F90E0F1
:103A400090937B0980937A0930927D0920927C09BA
:103A5000D3D980917E0990917F094090800970911F
:103A6000810997FFEAC021E02093350431E03EA7A9
:103A7000292F30E0A90163E0569547956A95E1F753
:103A8000942F9170A9014074552758AB4FA7890115
:103A90000072112727703327215031092430310556
:103AA00060F4220F331F220F331FF901E55FFD4F32
:103AB000208131814281538104C020E030E040E820
:103AC0005FE3882E912CA12CB12C512C612C712CF0
:103AD00091111EC0D40199278827F72EE12C4701A8
:103AE000FF0CAA08BB08880D991DAA1DBB1DBC01AF
:103AF000CD01640D751D861D971D29AB3AAB4BABEF
:103B00005CAB75D429A93AA94BA95CA9ABD41EC05A
:103B1000D40199278827D72EC12C4601DD0CAA088D
:103B2000BB08880D991DAA1DBB1DBC01CD01640DEC
:103B3000751D861D971D29AB3AAB4BAB5CAB57D4BB
:103B400029A93AA94BA95CA98DD490588FA498A80B
:103B5000892819F06DED73E004C0012B39F063EE94
:103B600073E0CE0188960E940F0C3CC01BA21AA2E3
:103B70001DA21CA21FA21EA28E010F5F1F4F23E0D9
:103B800045E074D1BC01CE0182960E940F0C1A82CE
:103B900019821C821B821E821D82BE016E5D7F4FB8
:103BA000C8010E94240CC80115D98C0140917509E7
:103BB0005091760960917109709172090E94B10B60
:103BC000811103C0C8010E94DE0BB801CE018896A6
:103BD0000E94240CCE0101960E94390CCE018296DF
:103BE0000E94390C2CA53DA540E050E0BE01685D67
:103BF0007F4FCE0101960E94520C0D811E8101154E
:103C0000110519F4109236040FC00930110510F097
:103C100009E010E069817A81A80186E394E071D718
:103C2000F801EA5CFB4F1082CE0101960E94390C2C
:103C3000CE0188960E94390CD0CE109235041EA673
:103C400017CF8AE199E00E94390C81E799E00C9442
:103C5000390CCF92DF92EF92FF92CF93DF93ECE596
:103C6000F6E01382128248EE53E060E070E0448395
:103C70005583668377838DE292E09183808325E389
:103C800031E03587248724E331E03787268720E336
:103C900031E0318B208B21E331E0338B228B22E327
:103CA00031E0358B248B26E331E0378B268B118E68
:103CB000128E138E148EE9EFF6E013821282448383
:103CC0005583668377839183808325ED30E0358744
:103CD000248724ED30E03787268720ED30E0318BD4
:103CE000208B21ED30E0338B228B22ED30E0358BC1
:103CF000248B26ED30E0378B268B118E128E138E9F
:103D0000148EE6E9F7E013821282448355836683BA
:103D10007783918380832DEC30E0358724872CECEA
:103D200030E03787268728EC30E0318B208B29EC78
:103D300030E0338B228B2AEC30E0358B248B2EEC59
:103D400030E0378B268B118E128E138E148EE3E3A8
:103D5000F8E01382128244835583668377839183CC
:103D6000808385EC90E09587848784EC90E097874A
:103D7000868780EC90E0918B808B81EC90E0938B38
:103D8000828B82EC90E0958B848B86EC90E0978B15
:103D9000868B118E128E138E148EE0EDF8E0168253
:103DA000178210861186128613861486158616864B
:103DB0001786108A118A128A138A148A158AE8E1F2
:103DC000F9E080E580831182E1E9FAE0158216824C
:103DD0001186138682E0C82ED12CE12CF12CC486EA
:103DE000D586E686F78613A215A614A6CFE3D2E001
:103DF000D3A7C2A717A610928C0A10928B0A109212
:103E00008E0A10928D0A1092900A10928F0A60E327
:103E100074E081E799E00E943E0CE5E6F9E0158246
:103E2000168211861386E7E4F9E0C082D182E2822D
:103E3000F382178AEAE2F9E013821282D183C08307
:103E40001582E0E2F9E084E1818385E1808361E02D
:103E50000E94F31164E672E08AE199E0DF91CF916C
:103E6000FF90EF90DF90CF900C943E0CEF920F9369
:103E70001F93CF93DF93E80147FD02C034E001C0F8
:103E800034E1E42F440FFF0BF7FF03C0F195E195F8
:103E9000F109E32E022F2E2FAE0142D0CE01DF9189
:103EA000CF911F910F91EF9008951F93FC019927D7
:103EB0008827BC01E89411911032E9F3193010F011
:103EC0001E30C8F31B3249F01D3241F4689405C01E
:103ED00012D0610F711D811D911D119110531A3067
:103EE000B8F33EF490958095709561957F4F8F4F14
:103EF0009F4F1F910895592F482F372F262F660F58
:103F0000771F881F991F660F771F881F991F620FE1
:103F1000731F841F951F660F771F881F991F0895B1
:103F20004F925F926F927F929F92AF92BF92CF9289
:103F3000DF92EF92FF920F931F93CF93DF93CDB752
:103F4000DEB729970FB6F894DEBF0FBECDBF6A016A
:103F5000122FB02E2BE3201720F0FF24F394F00E45
:103F600002C0BCE3FB2E0F2D27E0AE014F5F5F4F79
:103F700064D1AC018981982F9970913031F0E1FCC6
:103F800006C0E0FE06C090E205C09DE203C09BE2D1
:103F900001C090E0EE2DE07183FF3CC0911102C0A2
:103FA00083E001C084E0811718F4212F281B01C091
:103FB00020E0E1110BC0F601822F30E2882319F0D6
:103FC00031938150FBCFC20ED11C20E0992329F000
:103FD000D6019C93F60131966F01C6010396E2FE6D
:103FE0000AC03EE4D6013C9341E411964C931197EC
:103FF00012963C9306C03EE6F601308341E64183CB
:104000003283FC01322F40E2332309F442C0419352
:104010003150FACF82FF44C0911102C083E001C049
:1040200084E0811718F4212F281B01C020E0E11142
:104030000BC0F601822F30E2882319F031938150B2
:10404000FBCFC20ED11C20E0992329F0D6019C930E
:10405000F60131966F01C6010396E2FE0BC039E40A
:10406000D6013C933EE411963C93119736E41296A8
:104070003C9307C039E6F60130833EE6318336E6ED
:104080003283FC01322F40E2332319F04193315047
:10409000FBCFFC01E20FF11D10828EEF9FEFB7C046
:1040A000F1E0911101C0F0E06F2F70E014161506D9
:1040B00024F49A012F5F3F4F02C021E030E0260F29
:1040C000371FBB2029F06B2D70E06F5F7F4F02C060
:1040D00060E070E0260F371F612F70E0261737076A
:1040E0001CF4121B212F01C020E03E2D387159F421
:1040F000D601322F60E2332319F06D933150FBCF9C
:10410000C20ED11C20E0FF2331F0D6019C93B601F2
:104110006F5F7F4F6B01E1110BC0F601922F30E30F
:10412000992319F031939150FBCFC20ED11C20E09E
:104130009F2D940F3A81782F7071A72E84FF03C0B2
:10414000313309F49150191624F4993018F098E09D
:1041500001C091E0E42F852F57FF02C0E0E080E02E
:104160006E2F782FE0E0F0E0AEE29A2E3A01691A65
:1041700071082A01461A570A0B2D10E01195019576
:1041800011096F3F8FEF780729F4D6019C92C60181
:1041900001966C014617570784F0661677066CF493
:1041A0007F01E40CF51CA1E0B0E0AC0FBD1FEA0EEE
:1041B000FB1ED7011196BC9002C090E3B92E61504E
:1041C00071093196C60101967C016017710724F0D0
:1041D000D601BC926C01D5CF6417750741F4363314
:1041E00020F4353321F4A11002C081E3B82EF6018A
:1041F000B082F701822F90E2882319F091938150C9
:10420000FBCFF701E20FF11D108280E090E02996CC
:104210000FB6F894DEBF0FBECDBFDF91CF911F91D7
:104220000F91FF90EF90DF90CF90BF90AF909F9055
:104230007F906F905F904F900895283008F027E0AE
:104240003327DA01990F311D87FD916000966105D2
:10425000710539F432602E5F3D9330E32A95E1F722
:1042600008959F3F30F080387105610509F03C5F8B
:104270003C5F3D93913008F08068911DDF93CF93B0
:104280001F930F93FF92EF92192F987F9695E92F26
:1042900096959695E90FFF27E057FE4F992733270C
:1042A000EE24FF24A701E70105900894079428F461
:1042B000360FE71EF81E491F511D660F771F881F16
:1042C000991F0694A1F70590079428F4E70EF81EAD
:1042D000491F561FC11D770F881F991F661F06941F
:1042E000A1F70590079428F4F80E491F561FC71F21
:1042F000D11D880F991F661F771F0694A1F705909F
:10430000079420F4490F561FC71FD81F990F661F27
:10431000771F881F0694A9F784911095177041F0B4
:10432000D695C79557954795F794E7941A95C1F791
:10433000E6E3F1E0689415901591359165919591BA
:1043400005907FE27395E118F10A430B560BC90BF8
:10435000D009C0F7E10CF11E431F561FC91FD01D25
:104360007EF4703311F48A95E6CFE894015030F072
:10437000080F0AF40027021708F4202F2395022FB4
:104380007A3328F079E37D932A95E9F710C07D937D
:104390002A9589F6069497956795379517951794FA
:1043A000E118F10A430B560BC90BD00998F023957D
:1043B0007E9173957A3308F070E37C932013B8F7FD
:1043C0007E9170617D9330F0839571E37D9370E30E
:1043D0002A95E1F71124EF90FF900F911F91CF9153
:1043E000DF91992787FD90950895E89409C097FB80
:1043F0003EF490958095709561957F4F8F4F9F4FBC
:104400009923A9F0F92F96E9BB279395F6958795FF
:1044100077956795B795F111F8CFFAF4BB0F11F4C2
:1044200060FF1BC06F5F7F4F8F4F9F4F16C0882369
:1044300011F096E911C0772321F09EE8872F762F9F
:1044400005C0662371F096E8862F70E060E02AF0E0
:104450009A95660F771F881FDAF7880F96958795CC
:1044600097F908950BD078C069D028F06ED018F075
:10447000952309F05AC05FC01124A2C07ED0A0F3DA
:10448000959FD1F3950F50E0551F629FF001729FE9
:10449000BB27F00DB11D639FAA27F00DB11DAA1F08
:1044A000649F6627B00DA11D661F829F2227B00D55
:1044B000A11D621F739FB00DA11D621F839FA00DE0
:1044C000611D221F749F3327A00D611D231F849F30
:1044D000600D211D822F762F6A2F11249F57504087
:1044E0008AF0E1F088234AF0EE0FFF1FBB1F661F22
:1044F000771F881F91505040A9F79E3F510570F0DB
:1045000014C05EC05F3FECF3983EDCF38695779570
:104510006795B795F795E7959F5FC1F7FE2B880FD5
:10452000911D9695879597F9089597F99F6780E86B
:1045300070E060E008959FEF80EC089500240A94F5
:104540001616170618060906089500240A9412166E
:104550001306140605060895092E0394000C11F4A1
:10456000882352F0BB0F40F4BF2B11F460FF04C04E
:104570006F5F7F4F8F4F9F4F089557FD9058440FA7
:10458000551F59F05F3F71F04795880F97FB991FB2
:1045900061F09F3F79F0879508951216130614066F
:1045A000551FF2CF4695F1DF08C0161617061806FC
:1045B000991FF1CF86957105610508940895E894D7
:1045C000BB2766277727CB0197F90895A1E21A2E1A
:1045D000AA1BBB1BFD010DC0AA1FBB1FEE1FFF1FA7
:1045E000A217B307E407F50720F0A21BB30BE40BF7
:1045F000F50B661F771F881F991F1A9469F760953E
:104600007095809590959B01AC01BD01CF010895F7
:1046100009D0A59F900DB49F900DA49F800D911D72
:1046200011240895A29FB001B39FC001A39F700DF4
:10463000811D1124911DB29F700D811D1124911DAA
:104640000895991B79E004C0991F961708F0961BEE
:10465000881F7A95C9F78095089597FB072E16F461
:10466000009406D077FD08D013D007FC05D03EF4A7
:10467000909581959F4F0895709561957F4F08950E
:10468000EE0FFF1F881F8BBF0790F691E02D199446
:10469000AA1BBB1B51E107C0AA1FBB1FA617B70768
:1046A00010F0A61BB70B881F991F5A95A9F7809584
:1046B0009095BC01CD010895CF93DF938230910591
:1046C00010F482E090E0E091DC0AF091DD0A20E055
:1046D00030E0C0E0D0E0309711F1408151814817BF
:1046E0005907C0F04817590761F4828193812097D8
:1046F00019F09B838A832BC09093DD0A8093DC0A98
:1047000026C02115310519F04217530718F49A01F4
:10471000BE01DF01EF010280F381E02DDCCF211526
:10472000310509F1281B390B2430310590F412961C
:104730008D919C9113976115710521F0FB01938375
:10474000828304C09093DD0A8093DC0AFD013296D7
:1047500044C0FD01E20FF31F819391932250310970
:104760002D933C933AC02091DA0A3091DB0A232B37
:1047700041F420910602309107023093DB0A209326
:10478000DA0A20910402309105022115310541F425
:104790002DB73EB74091080250910902241B350BFA
:1047A000E091DA0AF091DB0AE217F307A0F42E1B7E
:1047B0003F0B2817390778F0AC014E5F5F4F241785
:1047C000350748F04E0F5F1F5093DB0A4093DA0A1B
:1047D0008193919302C0E0E0F0E0CF01DF91CF91AF
:1047E00008950F931F93CF93DF93009709F48CC024
:1047F000FC013297138212820091DC0A1091DD0ACB
:104800000115110581F420813181820F931F2091C0
:10481000DA0A3091DB0A2817390779F5F093DB0AB9
:10482000E093DA0A71C0D80140E050E0AE17BF074C
:1048300050F412962D913C911397AD01211531053D
:1048400009F1D901F3CF9D01DA013383228360811D
:104850007181860F971F8217930769F4EC012881F5
:104860003981260F371F2E5F3F4F318320838A8186
:104870009B8193838283452B29F4F093DD0AE09397
:10488000DC0A42C01396FC93EE931297ED01499116
:1048900059919E01240F351FE217F30771F48081AF
:1048A0009181840F951F029611969C938E9382811D
:1048B000938113969C938E931297E0E0F0E0D801D9
:1048C00012968D919C911397009719F0F8018C0125
:1048D000F6CF8D919C9198012E5F3F4F820F931FD1
:1048E0002091DA0A3091DB0A2817390769F43097EA
:1048F00029F41092DD0A1092DC0A02C0138212829F
:104900001093DB0A0093DA0ADF91CF911F910F9188
:1049100008956F927F928F929F92AF92BF92CF92A3
:10492000DF92EF92FF920F931F93CF93DF93EC01EF
:10493000009781F4CB01DF91CF911F910F91FF90F0
:10494000EF90DF90CF90BF90AF909F908F907F902F
:104950006F90B2CEFC01E60FF71F9C012250310987
:10496000E217F30708F4A8C0D9010D911C91119723
:1049700006171707A8F00530110508F49BC0C801F9
:1049800004978617970708F495C002501109061B73
:10499000170B019311936D937C93CF0122DF8AC093
:1049A0005B01A01AB10A4C01800E911EA091DC0A95
:1049B000B091DD0A40E050E0E12CF12C109709F4B1
:1049C0004AC0A815B905D1F56D907C901197630187
:1049D00082E0C80ED11CCA14DB0480F1A3014A197D
:1049E0005B096A0182E0C80ED11C1296BC90129736
:1049F0001396AC91B5E0CB16D10440F0B282A383FC
:104A000051834083D9016D937C930AC00E5F1F4F81
:104A1000C301800F911FF90191838083EB2DFA2F41
:104A2000E114F10431F0D7011396FC93EE93129741
:104A300041C0F093DD0AE093DC0A3CC08D919C916B
:104A400011974817590708F4AC017D0112960D9093
:104A5000BC91A02DB3CF8091DA0A9091DB0A881522
:104A60009905E1F446175707C8F480910402909124
:104A70000502009741F48DB79EB74091080250910E
:104A80000902841B950BE817F907B0F4F093DB0AD1
:104A9000E093DA0AF901718360830CC0CB010CDE6C
:104AA0007C01009749F0A801BE011BD0CE0199DE20
:104AB000C70104C0CE0102C080E090E0DF91CF9139
:104AC0001F910F91FF90EF90DF90CF90BF90AF902C
:104AD0009F908F907F906F90089581E090E0F89480
:104AE0001FC0FB01DC0102C001900D9241505040FB
:104AF000D8F70895FB01DC0101900D920020E1F749
:104B00000895FB01DC014150504048F001900D92A6
:104B10000020C9F701C01D9241505040E0F70895B0
:104B200011E0CCEDD1E000E005C0802FFE01A8DD52
:104B30002196011DCD3DD10780E00807B1F7F8941B
:024B4000FFCFA5
:104B4200FFFFFFFF0000DE0A800000CDCCCC3D0A53
:104B5200D7233C6F12833A17B7D138F703FE030607
:104B620004100419042004290400000000330F4239
:104B720009B10E790FE20EC00ED40E0000000092B1
:104B820014420910020F0200000000BF0F42091078
:104B9200020F02564D4450565F317C315F564D44F0
:104BA20050560D0A0052533233325F54544C204354
:104BB2006F6E666967757261646F21005253343893
:104BC200352045787465726E6F20436F6E66696733
:104BD200757261646F2100506F7274612064652088
:104BE200446562756720436F6E66696775726164BA
:104BF2006121000A5469706F20646F2063617274CE
:104C0200E36F3A2000534431005344320053444886
:104C12004300556E6B6E6F776E004EE36F20666FCA
:104C22006920706F7373ED76656C20656E636F6ECD
:104C3200747261722061207061727469E7E36F209F
:104C420046415431362F46415433322E0A4365725F
:104C5200746966697175652D736520646520746574
:104C62007220666F726D617461646F206F20636180
:104C72007274E36F2E000A5469706F2064652076A7
:104C82006F6C756D6520E92046415400566F6C7556
:104C92006D652073697A6520286279746573293A93
:104CA2002000566F6C756D652073697A6520284BFC
:104CB2006279746573293A2000566F6C756D6520B0
:104CC20073697A6520284D6279746573293A2000E8
:104CD2000A4172717569766F7320656E636F6E74C7
:104CE2007261646F73206E6F2063617274E36F2070
:104CF200286E6F6D652C206461746120652074617B
:104D02006D616E686F293A2000564D4450455F0030
:104D12003A323A007C005F564D44504500534F42B0
:104D2200524500534154555241444F0078787878A7
:104D3200787878787878004D4F4E44415900545530
:104D42004553444159005745444E45534441590047
:104D5200544855525344415900465249444159001E
:104D620053415455524441590053554E4441590000
:044D72004B470000AB
:020000023000CC
:10E000000D9489F10D94B2F10D94B2F10D94B2F129
:10E010000D94B2F10D94B2F10D94B2F10D94B2F1F0
:10E020000D94B2F10D94B2F10D94B2F10D94B2F1E0
:10E030000D94B2F10D94B2F10D94B2F10D94B2F1D0
:10E040000D94B2F10D94B2F10D94B2F10D94B2F1C0
:10E050000D94B2F10D94B2F10D94B2F10D94B2F1B0
:10E060000D94B2F10D94B2F10D94B2F10D94B2F1A0
:10E070000D94B2F10D94B2F10D94B2F10D94B2F190
:10E080000D94B2F10D94B2F10D94B2F10D94B2F180
:10E090000D94B2F10D94B2F10D94B2F10D94B2F170
:10E0A0000D94B2F10D94B2F10D94B2F10D94B2F160
:10E0B0000D94B2F10D94B2F10D94B2F10D94B2F150
:10E0C0000D94B2F10D94B2F10D94B2F10D94B2F140
:10E0D0000D94B2F10D94B2F10D94B2F10D94B2F130
:10E0E0000D94B2F141546D656761323536300041AF
:10E0F000726475696E6F206578706C6F72657220DE
:10E1000073746B3530305632206279204D4C530099
:10E11000426F6F746C6F616465723E004875683F52
:10E1200000436F6D70696C6564206F6E203D200048
:10E130004350552054797065202020203D20005FF9
:10E140005F4156525F415243485F5F3D2000415658
:10E1500052204C696243205665723D20004743437C
:10E160002056657273696F6E203D20004350552024
:10E1700049442020202020203D20004C6F7720663D
:10E18000757365202020203D20004869676820665F
:10E190007573652020203D200045787420667573D6
:10E1A00065202020203D20004C6F636B2066757336
:10E1B000652020203D20004D617220203720323024
:10E1C000313300312E362E3800342E332E350056A2
:10E1D00023202020414444522020206F7020636F70
:10E1E00064652020202020696E73747275637469E1
:10E1F0006F6E2061646472202020496E74657272B3
:10E20000757074006E6F20766563746F7200726A49
:10E210006D702020006A6D70200057686174207056
:10E220006F72743A00506F7274206E6F7420737541
:10E2300070706F72746564004D7573742062652030
:10E2400061206C6574746572002000577269747483
:10E25000696E672045450052656164696E672045B7
:10E26000450045452065727220636E743D00504F35
:10E27000525400303D5A65726F2061646472003FF1
:10E280003D43505520737461747300403D454550C3
:10E29000524F4D207465737400423D426C696E6B41
:10E2A000204C454400453D44756D70204545505215
:10E2B0004F4D00463D44756D7020464C415348001B
:10E2C000483D48656C70004C3D4C69737420492F83
:10E2D0004F20506F72747300513D51756974005234
:10E2E0003D44756D702052414D00563D73686F7707
:10E2F00020696E7465727275707420566563746FF0
:10E30000727300593D506F727420626C696E6B00BD
:10E310002A0011241FBECFEFD1E2DEBFCDBF01E046
:10E320000CBF12E0A0E0B2E0EEE1FDEF03E00BBFB6
:10E3300002C007900D92A030B107D9F712E0A0E01B
:10E34000B2E001C01D92AE30B107E1F70F9460F367
:10E350000D948DFE01E20EBF0FEF0DBF11241FBE05
:10E360000D9460F30D9400F020E030E040ED57E0B4
:10E3700005C0FA013197F1F72F5F3F4F2817390792
:10E38000C0F308959C01260F311DC901A0E0B0E043
:10E390002F5F3F4FABBFFC018791882361F08093D3
:10E3A000C6008091C00086FFFCCF8091C0008064D1
:10E3B0008093C000EACF08958DE08093C6008091DD
:10E3C000C00086FFFCCF8091C00080648093C000B5
:10E3D0008AE08093C6008091C00086FFFCCF8091C8
:10E3E000C00080648093C00008950F94C2F10F9420
:10E3F000DCF10895FC019081992359F09093C600B7
:10E400008091C00086FFFCCF8091C0008064809323
:10E41000C0003196992379F70895282F982F929567
:10E420009F70892F805D8A3308F0895F8093C600D2
:10E430008091C00086FFFCCF8091C00080648093F3
:10E44000C000822F8F70982F905D9A3308F0995FEB
:10E450009093C6008091C00086FFFCCF8091C000E1
:10E4600080648093C00008959C01FB01853691056E
:10E470001CF46330710594F0C90164E670E00F94F8
:10E480002EFE605D7F4F6093C6008091C00086FFC6
:10E49000FCCF8091C00080648093C0002B30310598
:10E4A00014F43297B4F0C90164E670E00F942EFEC4
:10E4B0006AE070E00F942EFE605D7F4F6093C600AF
:10E4C0008091C00086FFFCCF8091C0008064809363
:10E4D000C000C9016AE070E00F942EFEC0968093E0
:10E4E000C6008091C00086FFFCCF8091C000806490
:10E4F0008093C00008951F93182F8EE692EE60E07F
:10E500000F94C2F11093C6008091C00086FFFCCF2B
:10E510008091C00080648093C0000F94DCF11F9153
:10E5200008952F923F924F925F926F927F928F92B7
:10E530009F92AF92BF92CF92DF92EF92FF920F9392
:10E540001F93DF93CF93CDB7DEB762970FB6F894E2
:10E55000DEBF0FBECDBF382E622ECA01DB015C01CB
:10E560006D01772420E2222E2E010894411C511CBB
:10E570008BC081E0A81680E0B80681E0C80680E084
:10E58000D80628F0C601AA27BB270F940DF2BB2797
:10E59000AD2D9C2D8B2D0F940DF28A2D0F940DF225
:10E5A0002092C6008091C00086FFFCCF8091C00001
:10E5B00080648093C0009DE29093C6008091C0006B
:10E5C00086FFFCCF8091C00080648093C0002092C1
:10E5D000C6008091C00086FFFCCF8091C00080649F
:10E5E0008093C00019828601750188249924A1E0D6
:10E5F0003A1651F03A1620F0B2E03B1661F409C029
:10E600000BBFF701779007C0C7010F9477FE782EF4
:10E6100002C0F7017080872D0F940DF22092C60082
:10E620008091C00086FFFCCF8091C0008064809301
:10E63000C000872D8052F401EF70F0708F3520F408
:10E64000E40DF51D708204C0E40DF51D8EE280839B
:10E650000894E11CF11C011D111D0894811C911CE2
:10E6600090E18916910409F0C2CF80E190E0A0E02A
:10E67000B0E0A80EB91ECA1EDB1E198AC2010F9493
:10E68000FAF10F94DCF16A94662009F072CF629679
:10E690000FB6F894DEBF0FBECDBFCF91DF911F91B3
:10E6A0000F91FF90EF90DF90CF90BF90AF909F9031
:10E6B0008F907F906F905F904F903F902F90089534
:10E6C0002F923F924F925F926F927F928F929F9282
:10E6D000AF92BF92CF92DF92EF92FF920F931F9370
:10E6E000DF93CF93CDB7DEB7CD53D1400FB6F894BB
:10E6F000DEBF0FBECDBF01E20EBF0FEF0DBF94B75F
:10E70000F894A89514BE80916000886180936000A1
:10E7100010926000789493FF05C0E0910002F091A0
:10E7200001021995279A2F9A8091C00082608093E8
:10E73000C00080E18093C40088E18093C1000000A4
:10E74000EE24FF24870144E0A42EB12CCC24DD2448
:10E7500024C0C5010197F1F70894E11CF11C011DCB
:10E76000111D21E2E2162EE4F20620E0020720E06D
:10E77000120718F031E0C32ED12CC801B70127ECE5
:10E780003BE140E050E00F9441FE611571058105C9
:10E79000910519F485B1805885B98091C00087FD35
:10E7A00003C0C114D104A9F2A6014F5F5F4FC25E3E
:10E7B000DE4F59834883CE51D140C25EDE4F8881FF
:10E7C0009981CE51D140019711F00D9410FEC05D9A
:10E7D000DE4F19821882C053D14060E0C15DDE4F28
:10E7E0001882CF52D14088249924C35DDE4F19820C
:10E7F0001882CD52D140C05EDE4F188219821A8233
:10E800001B82C052D140CE5CDE4F188219821A8220
:10E810001B82C253D140EE24FF2487010BBFF701B6
:10E8200007911691C45CDE4F19830883CC53D14005
:10E830000D940BFEC25EDE4F28813981CE51D1404E
:10E840002130310509F52091C600C25EDE4F1982E4
:10E850001882CE51D14022C02F5F3F4F4F4F5F4FA4
:10E86000213082E138078AE7480780E0580780F0C6
:10E87000C45CDE4FE881F981CC53D140EF5FFF4F9C
:10E8800019F0EE27FF27099420E030E040E050E047
:10E890008091C00087FFE0CF2091C600C35DDE4FAE
:10E8A00048815981CD52D1404F5F5F4FC35DDE4FEC
:10E8B00059834883CD52D140213209F063C64A3092
:10E8C000510508F05FC60894811C911C53E0851621
:10E8D000910409F059C600E010E018C081E280936D
:10E8E000C6008091C00086FFFCCF8091C00080648C
:10E8F0008093C0002F5F3F4F2931310579F70F9486
:10E90000DCF10F5F1F4F0530110519F020E030E0FA
:10E91000E5CF10920A0210920B0210920C02109294
:10E920000D02109206021092070210920802109235
:10E930000902109202021092030210920402109235
:10E9400005028FEE90EE60E00F94F5F180E191EE1C
:10E9500060E00F94C2F18091C00087FFFCCF9091DE
:10E96000C600903608F09F759032B8F09093C600BC
:10E970008091C00086FFFCCF8091C00080648093AE
:10E98000C000A0E2A093C6008091C00086FFFCCF2B
:10E990008091C00080648093C000983409F4D7C18E
:10E9A0009934B8F4923409F459C1933458F490333B
:10E9B00019F1903308F4E3C59F33A1F1903409F0C5
:10E9C000DEC5BDC0953409F470C1963409F0D7C5D1
:10E9D00098C1923509F42BC2933538F49C3409F46C
:10E9E000F5C1913509F0CBC518C2963509F445C279
:10E9F000993509F0C4C567C483E792EE62E00F94CD
:10EA0000F5F110920602109207021092080210927D
:10EA1000090210920A0210920B0210920C0210923C
:10EA20000D0213C18FE792EE62E00F94F5F18FEEC5
:10EA300090EE60E00F94F5F181E291EE60E00F94CA
:10EA4000C2F187EB91EE60E00F94F5F180E391EE77
:10EA500060E00F94C2F184EE90EE60E00F94F5F167
:10EA60008FE391EE60E00F94C2F186E090E061E008
:10EA700070E00F9434F20F94DCF18DE591EE60E0DC
:10EA80000F94C2F189EC91EE60E00F94F5F18EE401
:10EA900091EE60E00F94C2F183EC91EE60E00F9490
:10EAA000F5F18CE691EE60E00F94C2F18EE10F94E7
:10EAB0000DF288E90F940DF281E00F940DF20F949E
:10EAC000DCF18BE791EE60E00F94C2F119E0E0E039
:10EAD000F0E010935700E4918E2F0F940DF20F94F5
:10EAE000DCF18AE891EE60E00F94C2F1E3E0F0E03F
:10EAF00010935700E4918E2F0F940DF20F94DCF1D8
:10EB000089E991EE60E00F94C2F1E2E0F0E0109349
:10EB10005700E4918E2F0F940DF20F94DCF188EAE8
:10EB200091EE60E00F94C2F1E1E0F0E01093570045
:10EB30001491812F0F940DF20F94DCF107CF8BE825
:10EB400092EE62E00F94F5F18BE492EE60E00F94A8
:10EB5000F5F10F94DCF100E010E019C0C8016F2D51
:10EB60000F947FFEFF2031F489E492EE60E00F9471
:10EB7000C2F10BC0F092C6008091C00086FFFCCFAE
:10EB80008091C00080648093C0000F5F1F4FC80158
:10EB900081519F41A0E0B0E0ABBFFC01F790BAE229
:10EBA000FB1621F0E2E000301E07C1F60F94DCF105
:10EBB0000F94DCF187E592EE60E00F94F5F10F948D
:10EBC000DCF1CC24DD2400E010E01EC0C8010F946D
:10EBD00077FEF82E882331F489E492EE60E00F94FA
:10EBE000C2F10BC08093C6008091C00086FFFCCFAD
:10EBF0008091C00080648093C000FE1419F00894D6
:10EC0000C11CD11C0F5F1F4FC80181519F41A0E063
:10EC1000B0E0ABBFFC01E790FAE2EF1621F022E092
:10EC20000030120799F60F94DCF10F94DCF182E6C4
:10EC300092EE60E00F94C2F1C60161E070E00F94C3
:10EC400034F20F94DCF10F94DCF110920202109276
:10EC50000302109204021092050278CE89E992EE26
:10EC600062E00F94F5F1279A2F9A16C02F9880E052
:10EC700090E0E0EDF7E03197F1F7019684369105E9
:10EC8000C1F72F9A80E090E0E0EDF7E03197F1F7DF
:10EC9000019684369105C1F78091C00087FFE6CFC9
:10ECA0008091C00087FFFCCF64C485EA92EE62E0E9
:10ECB0000F94F5F140910202509103026091040219
:10ECC0007091050281E020E10F9491F2809102029F
:10ECD00090910302A0910402B091050280509F4FD1
:10ECE000AF4FBF4F8093020290930302A0930402A0
:10ECF000B093050280509041A040B04008F426CE69
:10ED0000A4CF83EB92EE62E00F94F5F140910602FE
:10ED100050910702609108027091090280E020E1A1
:10ED20000F9491F28091060290910702A09108023F
:10ED3000B091090280509F4FAF4FBF4F80930602A2
:10ED400090930702A0930802B0930902FFCD80ECD4
:10ED500092EE62E00F94F5F183E792EE60E00F949B
