:10000000D3C1000002C2000000C20000FEC1000017
:10001000FCC10000FAC10000F8C10000F6C10000F8
:10002000F4C10000F5C50000F3C50000F1C50000F3
:10003000ECC10000EAC10000E8C10000E6C1000018
:10004000E4C10000E2C10000E0C10000DEC1000028
:10005000DCC10000DAC10000D8C100008FC500007B
:10006000D4C1000024C40000F9C30000CEC10000C8
:10007000CCC10000CAC10000C8C10000C6C1000058
:10008000C4C10000C2C10000C0C10000BEC1000068
:10009000BCC3000091C30000B8C10000B6C100009D
:1000A000B4C10000B2C10000B0C10000AEC1000088
:1000B000ACC10000AAC10000A8C10000A6C1000098
:1000C000A4C10000A2C10000A0C100004CC30000F8
:1000D00021C300009AC10000F4C20000C9C20000A0
:1000E00094C1000000050305F204F604FC043A057F
:1000F00007050B051105150519051F05230527051E
:100100003A052D0531053505CB14CB14CB14CB1492
:10011000C814C814CF14CF14CF14CF14CF14CF14D5
:10012000CF14CF14C814C814CF14CF14CF14CF14C5
:10013000CF14CD14CB1400407A10F35A00A0724EA5
:1001400018090010A5D4E80000E87648170000E47C
:100150000B54020000CA9A3B000000E1F5050000C4
:1001600080969800000040420F000000A086010029
:100170000000102700000000E803000000006400F9
:10018000000000000A000000000001000000000064
:100190002C76D888DC674F0823DFC1DFAE59E1B188
:1001A000B796E5E3E453C63AE651997696E8E6C297
:1001B0008426EB898C9B62ED407C6FFCEFBC9C9F9E
:1001C00040F2BAA56FA5F490055A2AF75C936B6CC0
:1001D000F9676DC11BFCE0E40D47FEF520E6B500B4
:1001E000D0ED902E0300943577050080841E080022
:1001F00000204E0A000000C80C333333330F986ED2
:1002000012831141EF8D2114893BE65516CFFEE68E
:10021000DB18D1844B381BF77C1D901DA4BBE42454
:10022000203284725E228100C9F124ECA1E53D27D1
:1002300000002200250028002B002E003100340091
:1002400002010000050108010B010000210024004B
:1002500027002A002D0030003300010100000401B6
:1002600007010A0143617274C3A36F2053442069DC
:100270006E69636961646F20636F6D207375636578
:1002800073736F210046616C686120616F20616249
:100290007269722063617274C3A36F205344004972
:1002A0006E696369616C697A616E646F2053442082
:1002B000436172642E2E2E000000200023002600D1
:1002C00029002C002F00320000010000030106016C
:1002D00009010505050507050808080802020202CC
:1002E0000A0A0808040404040101010101010101D2
:1002F0000303030303030303040707070C0C0C0C9D
:100300000C0C0C0C02020202060606060606060685
:100310000B0B0B0B0B0B0B0B010210202008081012
:100320002040102040800201020108040201010265
:10033000040810204080804020100804020180043E
:100340000201804020100804020108040201010299
:1003500004081020408001020408102040800000A2
:100360000A0B02090C0D0E0807030401000000002F
:10037000000000000000000000000000000000007D
:10038000000000000000000000001211100000003A
:10039000000000000000000000000000000000005D
:1003A00000000000961B251711241FBECFEFD1E2DD
:1003B000DEBFCDBF00E00CBF13E0A0E0B2E0EEEC8A
:1003C000F5E400E00BBF02C007900D92A63FB10715
:1003D000D9F72AE0A6EFB3E001C01D92A537B20716
:1003E000E1F711E0C3EDD1E000E006C0219701097B
:1003F000802FFE010E949A20C23DD10780E00807AD
:10040000A9F70E942B170C94D622FACDFC01A089E3
:10041000B1898C91A689B78982FD0FC09C91818D8D
:100420008F5F8F73228D821749F0218DDF01A20F1C
:10043000B11D5D969C93818F08958C910895FC0168
:10044000538D448D252F30E0842F90E0821B930B39
:10045000541710F0CF96089501970895FC01918DDF
:10046000828D981761F0828DDF01A80FB11D5D9616
:100470008C91928D9F5F9F73928F90E008958FEF84
:100480009FEF0895FC01918D828D981731F0828D38
:10049000E80FF11D858D90E008958FEF9FEF08958F
:1004A000FC01918D228D892F90E0805C9F4F821BF3
:1004B00091098F739927089587E196E0F1DF21E094
:1004C000892B09F420E0822F089584EB96E0E8DF81
:1004D00021E0892B09F420E0822F089581E597E03F
:1004E000DFDF21E0892B09F420E0822F08958EEED2
:1004F00097E0D6DF21E0892B09F420E0822F0895D0
:10050000FC01848DDF01A80FB11DA35ABF4F2C91B0
:10051000848D90E001968F739927848FA689B7897F
:100520002C93A089B1898C9180648C93938D848D58
:10053000981306C00288F389E02D80818F7D808327
:100540000895EF92FF920F931F93CF93DF93EC01E7
:1005500081E0888F9B8D8C8D981305C0E889F9897F
:10056000808185FD23C0F62E0B8D10E00F5F1F4F9D
:100570000F731127E02E8C8DE8120BC00FB607FC0D
:10058000FACFE889F989808185FFF5CFCE01B8DF00
:10059000F2CF8B8DFE01E80FF11DE35AFF4FF08281
:1005A0000B8FEA89FB898081806207C0EE89FF8911
:1005B0006083E889F98980818064808381E090E0AC
:1005C000DF91CF911F910F91FF90EF900895CF93FE
:1005D000DF93EC01888D8823C1F0EA89FB89808153
:1005E00085FD05C0A889B9898C9186FD0EC00FB61E
:1005F00007FCF5CF808185FFF2CFA889B9898C915E
:1006000085FFEDCFCE017CDFE8CFDF91CF9108955C
:1006100080E090E0892B19F06ADF811116C080E03C
:1006200090E0892B19F05ADF811112C080E090E030
:10063000892B19F04ADF81110EC080E090E0892BF0
:1006400079F03ADF81110AC008950E940000E7CFD7
:100650000E940000EBCF0E940000EFCF0C9400003E
:1006600008950895089580E090E008950E94B322CF
:100670001F920F920FB60F9211240BB60F922F9369
:100680003F934F935F936F937F938F939F93AF931A
:10069000BF93EF93FF9387E196E032DFFF91EF91F5
:1006A000BF91AF919F918F917F916F915F914F918A
:1006B0003F912F910F900BBE0F900FBE0F901F9088
:1006C00018951F920F920FB60F9211240BB60F922E
:1006D0002F933F934F935F936F937F938F939F934A
:1006E000AF93BF93EF93FF9387E196E08FDEFF9187
:1006F000EF91BF91AF919F918F917F916F915F919A
:100700004F913F912F910F900BBE0F900FBE0F9006
:100710001F9018951F920F920FB60F9211240BB6CF
:100720000F922F933F934F935F936F937F938F938A
:100730009F93AF93BF93EF93FF9384EB96E0E0DE3C
:10074000FF91EF91BF91AF919F918F917F916F91A9
:100750005F914F913F912F910F900BBE0F900FBE65
:100760000F901F9018951F920F920FB60F921124A1
:100770000BB60F922F933F934F935F936F937F939B
:100780008F939F93AF93BF93EF93FF9384EB96E088
:100790003DDEFF91EF91BF91AF919F918F917F913E
:1007A0006F915F914F913F912F910F900BBE0F90E2
:1007B0000FBE0F901F9018951F920F920FB60F92B9
:1007C00011240BB60F922F933F934F935F936F9328
:1007D0007F938F939F93AF93BF93EF93FF9381E5A5
:1007E00097E08EDEFF91EF91BF91AF919F918F9136
:1007F0007F916F915F914F913F912F910F900BBE21
:100800000F900FBE0F901F9018951F920F920FB66A
:100810000F9211240BB60F922F933F934F935F9338
:100820006F937F938F939F93AF93BF93EF93FF93B8
:1008300081E597E0EBDDFF91EF91BF91AF919F9143
:100840008F917F916F915F914F913F912F910F9079
:100850000BBE0F900FBE0F901F9018951F920F9216
:100860000FB60F9211240BB60F922F933F934F9315
:100870005F936F937F938F939F93AF93BF93EF9308
:10088000FF938EEE97E03CDEFF91EF91BF91AF9129
:100890009F918F917F916F915F914F913F912F9198
:1008A0000F900BBE0F900FBE0F901F9018951F92C8
:1008B0000F920FB60F9211240BB60F922F933F9306
:1008C0004F935F936F937F938F939F93AF93BF9358
:1008D000EF93FF938EEE97E099DDFF91EF91BF913B
:1008E000AF919F918F917F916F915F914F913F91C8
:1008F0002F910F900BBE0F900FBE0F901F90189569
:10090000CF92DF92EF92FF921F93CF93DF93EC0190
:100910006A017B01122FE889F98982E08083411501
:10092000514E61057105B1F060E079E08DE390E032
:10093000A70196010E945D20DA01C9010197A10972
:10094000B109B695A79597958795AC01411580E1BA
:100950005807A8F0E889F989108260E874E88EE108
:1009600090E0A70196010E945D20BA01A9014150C3
:100970005109610971097695679557954795EC85F9
:10098000FD855083EE85FF854083188EEC89FD89B7
:100990001083EA89FB89808180618083EA89FB89F1
:1009A000808188608083EA89FB8980818068808378
:1009B000EA89FB8980818F7D8083DF91CF911F91B0
:1009C000FF90EF90DF90CF90089590E0FC01319779
:1009D000E231F10508F04EC08827EE58FF4F8F4FE7
:1009E0000C949A20809180008F7703C080918000C2
:1009F0008F7D80938000089580918000877FF9CF5C
:100A000084B58F7702C084B58F7D84BD08958091B1
:100A1000B0008F7703C08091B0008F7D8093B000CD
:100A20000895809190008F7707C0809190008F7D0E
:100A300003C080919000877F8093900008958091FB
:100A4000A0008F7707C08091A0008F7D03C08091A8
:100A5000A000877F8093A0000895809120018F7768
:100A600007C0809120018F7D03C080912001877F86
:100A70008093200108951F93CF93DF93282F30E0B8
:100A8000F901E25AFC4F8491F901E85EFC4FD491E0
:100A9000F901EE52FD4FC491CC23C1F0162F811104
:100AA00094DFEC2FF0E0EE0FFF1FE05DFD4FA5910E
:100AB000B4918FB7F894111105C09C91ED2FE0957A
:100AC000E92302C0EC91ED2BEC938FBFDF91CF9126
:100AD0001F91089560E089E2CEDF60E089E2CBCF2C
:100AE00061E089E2C8DF61E089E2C5CFCF93DF939F
:100AF00090E0FC01E85EFC4F2491FC01EE52FD4FBA
:100B00008491882361F190E0880F991FFC01E65BD6
:100B1000FD4FC591D491FC01E05DFD4FA591B491CD
:100B2000611109C09FB7F89488812095822388833A
:100B3000EC912E230BC0623061F49FB7F89438819A
:100B4000822F809583238883EC912E2B2C939FBF3B
:100B500006C08FB7F894E8812E2B28838FBFDF91D2
:100B6000CF9108952FB7F894609104047091050413
:100B700080910604909107042FBF08951F920F9251
:100B80000FB60F9211242F933F938F939F93AF93A0
:100B9000BF938091040490910504A0910604B09144
:100BA00007043091030423E0230F2D3720F401962E
:100BB000A11DB11D05C026E8230F0296A11DB11D80
:100BC000209303048093040490930504A0930604E7
:100BD000B09307048091FF0390910004A091010459
:100BE000B09102040196A11DB11D8093FF03909363
:100BF0000004A0930104B0930204BF91AF919F91B0
:100C00008F913F912F910F900FBE0F901F901895CD
:100C10001F920F920FB60F9211240F900FBE0F90DC
:100C20001F901895CF93DF93EC0187E196E038DCB5
:100C3000892B21F087E196E011DCF7CFBE0187E137
:100C400096E00E94FD166FEF87E196E07ADC6FEF89
:100C500087E196E076DC6FEF87E196E0DF91CF9158
:100C600070CC8F929F92AF92BF92EF92FF920F93B0
:100C70001F93CF93DF93CDB7DEB760970FB6F8948D
:100C8000DEBF0FBECDBF7C014A015B018E010F5F4D
:100C90001F4F8AE0F80111928A95E9F765EF73E03A
:100CA000CE010B960E94E9164AE0B801C4010E94E9
:100CB000D41CF70162817381CE010B960E946B16E2
:100CC00065E472E0CE010B960E946B16B801CE016E
:100CD0000B960E946B168B859C85A4DF0E94280FC3
:100CE000182FCE010B960E94E416812F60960FB646
:100CF000F894DEBF0FBECDBFDF91CF911F910F9152
:100D0000FF90EF90BF90AF909F908F900895CF93FA
:100D1000DF9300D01F92CDB7DEB719821A821B82F3
:100D20001C82BE016F5F7F4F83E998E00E946D0FC8
:100D300089819A81AB81BC814797A105B10529F4CE
:100D400088E190E0A0E0B0E004C087E190E0A0E09E
:100D5000B0E089839A83AB83BC8349815A816B81DC
:100D60007C8183E998E07DDF0F900F900F900F90CA
:100D7000DF91CF910895CF93DF9300D01F92CDB72D
:100D8000DEB719821A821B821C82BE016F5F7F4F01
:100D90008FE998E00E946D0F89819A81AB81BC81B7
:100DA0004797A105B10529F488E190E0A0E0B0E003
:100DB00004C087E190E0A0E0B0E089839A83AB8330
:100DC000BC8349815A816B817C818FE998E049DF3E
:100DD0000F900F900F900F90DF91CF910895CF93C8
:100DE000DF9300D0CDB7DEB76AE00E948E20805D31
:100DF0008983905D9A831B82BE016F5F7F4F8EEE69
:100E000097E00E94FD160F900F900F90DF91CF9109
:100E100008958FB7F8948091F7038FBF089561E02C
:100E2000FC01848128DE8091F60381111092F60383
:100E300008958EBD00000DB407FEFDCF8EB5089558
:100E40008FEFF7CF0F931F93CF93DF93EB018ADEE2
:100E50008B01F6DF8F3F41F085DE601B710B6C1755
:100E60007D07B8F380E001C081E0DF91CF911F9151
:100E70000F910895CF93DF93EC018E81882379F051
:100E80008F8198859C012F5F3F4F38872F83823059
:100E9000924010F4D5DFF4CFCE01C1DF1E82DF9186
:100EA000CF9108958CBD9DBD0895CF93DF93EC0144
:100EB0008091F603811108C081E08093F603809150
:100EC0008B0890918C08EEDF60E08C81DF91CF91F0
:100ED000D2CDCF92DF92FF920F931F93CF93DF93E8
:100EE00000D01F92CDB7DEB76C01F62E29833A836E
:100EF0004B835C83BFDFC601D8DF6CE271E0C601C3
:100F0000A1DF8F2D806495DF08E110E05C814B81CB
:100F10003A812981DA01C901002E04C0B695A7954E
:100F2000979587950A94D2F729833A834B835C83FC
:100F300080DF0850110929813A814B815C81083F8B
:100F40008FEF180739F7FF2029F0E8E0FE1204C000
:100F500087E803C085E901C08FEF6BDF10E070DF29
:100F6000F601828787FF04C01F3F11F01F5FF7CF94
:100F70000F900F900F900F90DF91CF911F910F91D5
:100F8000FF90DF90CF900895AF92BF92CF92DF9203
:100F9000EF92FF920F931F93CF93DF93EC016901C0
:100FA000C801820F931F8130924008F068C08E8183
:100FB000882371F088819981AA81BB8148175907DC
:100FC0006A077B0729F48F819885C816D90688F5AA
:100FD000488359836A837B838B85833039F089E02A
:100FE000440F551F661F771F8A95D1F79A01AB01F1
:100FF00061E1CE016EDF882319F083E08D833FC06D
:10100000B1DD5B011DDF8A878F3F41F4ABDD6A19DB
:101010007B096D327140B0F38FE003C08E3F29F041
:101020008DE08D83CE01FBDE2AC018861F8281E011
:101030008E838F8198858C159D0538F401DF8F8113
:101040009885019698878F83F4CF6701E00EF11E93
:10105000CE14DF0429F0F4DEF60181936F01F8CF9E
:101060008F819885080F191F18870F83898588231A
:1010700019F00115124038F0CE01FCDE04C0CE019B
:10108000CEDE80E001C081E0DF91CF911F910F9112
:10109000FF90EF90DF90CF90BF90AF900895EF92C8
:1010A000FF920F931F93CF93DF93EC0179014115CA
:1010B00051056105710511F482E134C08B858330DF
:1010C00039F089E0440F551F661F771F8A95D1F7C5
:1010D0009A01AB0168E1CE01FCDE882311F084E0C7
:1010E00021C08EEFA6DE87018EEFF81AF8018191FC
:1010F0008F019FDE0E151F05C9F78FEF9ADE8FEF68
:1011000098DE9EDE8A878F71853029F081E18D839C
:10111000CE0185DE08C068E572E0CE0193DE811164
:1011200006C085E18D83CE017ADE80E010C020E02C
:1011300030E0A9016DE0CE01CCDE811103C080DE7C
:10114000882311F084E1EECFCE0169DE81E0DF91EA
:10115000CF911F910F91FF90EF9008958091F80328
:10116000882399F14091000250910102609102029E
:101170007091030225E134E08091150690911606E6
:101180008EDF811102C080E008954091F9035091F3
:10119000FA036091FB037091FC0341155105610551
:1011A000710589F025E134E08091150690911606CD
:1011B00076DF882341F31092F9031092FA0310921C
:1011C000FB031092FC031092F80381E008958F92C4
:1011D0009F92AF92BF92EF92FF920F931F93CF9384
:1011E0004B015C01C42F8091000290910102A091FB
:1011F0000202B091030288159905AA05BB05F1F01A
:10120000ADDF811102C080E01FC085E1E82E84E0DF
:10121000F82E00E012E020E030E0B501A40180915A
:10122000150690911606B0DE882369F380920002BD
:1012300090920102A0920202B09203028091F80300
:10124000C82BC093F80381E0CF911F910F91FF90BD
:10125000EF90BF90AF909F908F9008954F925F92C4
:101260006F927F928F929F92AF92BF92CF92DF92B6
:10127000EF92FF920F931F93CF93DF93EC016A01DC
:101280007B0128013901423051056105710510F4D7
:1012900080E072C089859A85AB85BC850196A11DC9
:1012A000B11D84179507A607B70790F38B889C8814
:1012B000AD88BE888F89803129F4BB27AF2D9E2D44
:1012C0008D2D09C0DB01CA0147E0B695A79597951A
:1012D00087954A95D1F7880E991EAA1EBB1E80914C
:1012E000000290910102A0910202B09103028816BF
:1012F0009906AA06BB0679F48F89803199F4DD241A
:10130000EE24FF24C601880F991FFC01EB5EFB4F02
:101310005182408218C040E0C501B40158DF8111FC
:10132000EBCFB6CFE894C7F8DD24EE24FF24C60146
:10133000880F991F880F991FFC01EB5EFB4F4082BD
:101340005182628273828091F80381608093F803F6
:101350008A89823080F08D819E81AF81B885880E28
:10136000991EAA1EBB1E8092F9039092FA03A092C6
:10137000FB03B092FC0381E0DF91CF911F910F91AD
:10138000FF90EF90DF90CF90BF90AF909F908F90A5
:101390007F906F905F904F9008958F929F92AF9241
:1013A000BF92CF92DF92EF92FF920F931F93CF9352
:1013B000DF93FC0181859285A385B4850196A11DEB
:1013C000B11D84179507A607B70710F480E05BC02E
:1013D00083899489A589B689C789C03129F4852E66
:1013E000962EA72EBB2409C04A015B01C7E0B69424
:1013F000A79497948794CA95D1F7E9016A017B0174
:101400008F01BC01CD01680D791D8A1D9B1D809047
:10141000000290900102A0900202B09003026815B1
:1014200079058A059B0599F4F80187898031A1F433
:10143000B701A601552766277727440F551FFA01E4
:10144000EB5EFB4F80819181A0E0B0E017C040E0EF
:10145000BEDE8111E9CFBACFB701A6014F7755277C
:1014600066277727440F551F440F551FFA01EB5E7F
:10147000FB4F80819181A281B381BF708883998362
:10148000AA83BB8381E0DF91CF911F910F91FF90E1
:10149000EF90DF90CF90BF90AF909F908F90089586
:1014A0004F925F926F927F92AF92BF92CF92DF92F4
:1014B000EF92FF920F931F93CF93DF9300D01F9271
:1014C000CDB7DEB78C0149835A836B837C83590186
:1014D000C12CD12C7601412C82E0582E612C712C2C
:1014E00049815A816B817C819E012F5F3F4FC801EA
:1014F00054DF882351F1D301C201F801058404C0EF
:10150000880F991FAA1FBB1F0A94D2F7C80ED91EB5
:10151000EA1EFB1E49815A816B817C81878980315B
:1015200029F088EF9FEFAFEFBFE004C088EF9FEF97
:10153000A0E0B0E0481759076A077B0788F2F50179
:10154000C082D182E282F38281E00F900F900F90EF
:101550000F90DF91CF911F910F91FF90EF90DF904F
:10156000CF90BF90AF907F906F905F904F90089515
:101570008F929F92AF92BF92CF92DF92EF92FF92A3
:101580000F931F93CF93DF93EC018D81811102C0E4
:1015900080E076C00B891C892D893E8904171507C8
:1015A00026073707A8F36A017B01823029F4CA862F
:1015B000DB86EC86FD860DC0C114D104E104F10484
:1015C00051F41E821F82188619861A861B861C8675
:1015D0001D8681E055C08A849B84AC84BD84EB8DDC
:1015E000FC8D258530E0275F3F4FB501A4014150B8
:1015F000510961097109022E04C0769567955795C6
:1016000047950A94D2F7D701C6010197A109B109FC
:1016100004C0B695A795979587952A95D2F7841714
:101620009507A607B70720F089288A288B2849F450
:101630004F89588D698D7A8D4E835F83688779874E
:1016400004C0841B950BA60BB70B4C015D018E01EA
:101650000A5F1F4F81149104A104B10409F4A7CFBC
:101660004E815F816885798598018B8D9C8D95DE93
:1016700091E0891A9108A108B1088111EBCF88CFB8
:10168000DF91CF911F910F91FF90EF90DF90CF905E
:10169000BF90AF909F908F9008953F924F925F922E
:1016A0006F927F928F929F92AF92BF92CF92DF9272
:1016B000EF92FF920F931F93CF93DF93CDB7DEB7D7
:1016C0002C970FB6F894DEBF0FBECDBF5C01DC01D6
:1016D0005B968D909C905C971696CD90DD90ED90EA
:1016E000FC901997C114D104E104F10439F0BFEF63
:1016F000CB1ADB0AEB0AFB0A312C07C0F401C080CD
:10170000D180E280F38033243394F4018185928583
:10171000A385B4859C01AD012F5F3F4F4F4F5F4FB5
:1017200029873A874B875C87260137011D821E82F5
:101730001F821886F40181859285A385B4852D8149
:101740003E814F815885281739074A075B0708F003
:1017500060C089859A85AB85BC858C159D05AE05D5
:10176000BF0550F482E0C82ED12CE12CF12C92E080
:10177000492E512C612C712C9E012F5F3F4FB701D8
:10178000A601C4010ADE882309F443C089819A8135
:10179000AB81BC81892B8A2B8B2B41F02601370131
:1017A0009FEF491A590A690A790A05C0C414D50479
:1017B000E604F70491F02D813E814F8158852F5F1B
:1017C0003F4F4F4F5F4F2D833E834F8358873FEFEF
:1017D000C31AD30AE30AF30AADCF0FEF1FEF2FEFBF
:1017E0003FE0B301A201C40139DD882391F0D501A6
:1017F00016964D915D916D917C911997411551050A
:101800006105710541F093018201C40127DD811159
:1018100002C080E02AC0D50116964D925D926D926D
:101820007C921997332051F0D301C2010196A11D7A
:10183000B11DF40180839183A283B383F50187896D
:10184000908DA18DB28D892B8A2B8B2B69F4D501BC
:1018500057964D925D926D927C925A9714968C9108
:101860001497806814968C9381E02C960FB6F894A8
:10187000DEBF0FBECDBFDF91CF911F910F91FF90C3
:10188000EF90DF90CF90BF90AF909F908F907F9020
:101890006F905F904F903F9008954F925F926F923C
:1018A0007F928F929F92AF92BF92CF92DF92EF92F0
:1018B000FF920F931F93CF93DF931F92CDB7DEB7A5
:1018C000DC0115962C91223018F480E090E005C1DF
:1018D0006C01FC014285538564857585DB01CA0175
:1018E00025E0B695A795979587952A95D1F7F82F76
:1018F000FF705F2ED60114968C9180FFEBC04424BC
:101900004394F60183899489A589B689841795073C
:10191000A607B70709F4412C842D90E09E012F5FA4
:101920003F4F4901360136E0630E711C892B09F4E3
:1019300083C0F60142855385648575855A01F1E0BF
:10194000BF22D60115962C9115977A018B0189E05B
:1019500016950795F794E7948A95D1F75B968D9144
:101960009C915C97223061F4FC01828D938DA48D53
:10197000B58DBC01CD016E0D7F1D801F911F48C02C
:10198000DC0114962C912150122F1E21A114B104B8
:10199000E1F411111AC0452B462B472B51F4F601E7
:1019A0008789908DA18DB28D86839783A087B1871B
:1019B0000CC0D60116964D915D916D917C91199751
:1019C0009301EBDC882309F485C0F601238D348D67
:1019D00086819781A085B1850297A109B109AC01E3
:1019E000BD01F901058404C0440F551F661F771F10
:1019F0000A94D2F786859785A089B189840F951FAF
:101A0000A61FB71FBC01CD01610F711D811D911D66
:101A1000D60114962C9126FF2AC000910002109145
:101A200001022091020230910302601771078207C0
:101A3000930709F03EC01BC0442009F44BC08981C4
:101A400090E0019609F441CFF60182859385A48543
:101A5000B5854F96A11DB11D82879387A487B58751
:101A6000F0E25F9EC00111248B5E9B4F36C040E0C8
:101A7000AEDB882379F1F501EB5EFB4FD401CF019A
:101A80000196E817F90719F021912D93FACFEFEF9E
:101A90008E1A9E0AF60182859385A485B5850196E6
:101AA000A11DB11D82879387A487B58780E090E050
:101AB0003DCF740101E010E09501AB01BC018091C4
:101AC00015069091160660DA882321F0BFEF8B1A75
:101AD0009B0AE0CF8FEF9FEFB4CF0F90DF91CF91B4
:101AE0001F910F91FF90EF90DF90CF90BF90AF903C
:101AF0009F908F907F906F905F904F900895CF93BD
:101B0000DF93EC018D81882391F18C8187FF2CC0BC
:101B10006E857F858889998941E059DB882339F171
:101B2000EA8980E2E89FF0011124DF01AB5EBB4F40
:101B30001097E9F08D81823050F44B895C896D8972
:101B40007E895C964D935D936D937C935F978F89AF
:101B5000988DA98DBA8DEB5EFB4F938F828FB58BDD
:101B6000A48B8C818F778C83DF91CF91F7CA80E033
:101B7000DF91CF9108958F929F92AF92BF92DF92A3
:101B8000EF92FF920F931F93CF93DF9300D01F929A
:101B90001F92CDB7DEB78C016D83DC0115968C9159
:101BA00015978130C1F414968C9181FF14C082FF87
:101BB0001AC0F8014389548965897689828593859D
:101BC000A485B58584179507A607B70761F0C801F6
:101BD000CFDC811108C081E090E0F801938382831B
:101BE00080E090E0DFC0D8011A964D915D916D9133
:101BF0007C911D975B968D919C915C97FC01D480A4
:101C0000DA944A015B0129E0B694A79497948794EB
:101C10002A95D1F7D8207A01F1E0FF22D11045C0F2
:101C2000E114F10409F041C0D80116964D915D917F
:101C30006D917C911997411551056105710559F414
:101C400057968D919D910D90BC91A02D0097A10567
:101C5000B10531F520C09E012F5F3F4F9EDB8823E9
:101C600009F4BECF89819A81AB81BC81F801238DB3
:101C7000348DF9012789203129F048EF5FEF6FEFAC
:101C80007FE004C048EF5FEF60E070E084179507E5
:101C9000A607B70728F0C80100DD811106C09BCF59
:101CA000F80186839783A087B187D8015B96ED9171
:101CB000FC915C9716968D909D90AD90BC90199775
:101CC000B2E08B1A9108A108B108058404C0880C01
:101CD000991CAA1CBB1C0A94D2F786859785A089FB
:101CE000B189880E991EAA1EBB1E8D0C911CA11CC9
:101CF000B11CE114F10401F5F801428553856485B6
:101D0000758583899489A589B689481759076A0713
:101D10007B0790F023DA882309F45DCF80920002DC
:101D200090920102A0920202B09203028091F80305
:101D300081608093F80307C041E0C501B40147DA30
:101D4000882309F448CFF701EB5EFB4F8D81808338
:101D5000F80182859385A485B5850196A11DB11DE5
:101D600082879387A487B587438954896589768953
:101D7000481759076A077B0738F4838B948BA58B28
:101D8000B68B848180688483D80114968C9183FDFE
:101D900003C081E090E006C0C801B1DE882309F4E9
:101DA0001ACFF7CF0F900F900F900F900F90DF91F9
:101DB000CF911F910F91FF90EF90DF90BF90AF9068
:101DC0009F908F900895E091EE07F091EF070190BA
:101DD000F081E02D682F8EEE97E019940F931F93FA
:101DE0000E94B20560931F0670932006809321061F
:101DF00090932206E0911706F09118060284F3856D
:101E0000E02D87E196E0199597FF1FC00E94B2056B
:101E100000911F0610912006209121063091220684
:101E2000DC01CB01801B910BA20BB30B00911B06B5
:101E300010911C0620911D0630911E0680179107F7
:101E4000A207B307B8F28FEF9FEF1F910F9108958C
:101E5000EF92FF920F931F93CF93DF9300D01F92C7
:101E6000CDB7DEB719821A821B821C8284E690E00D
:101E7000A0E0B0E080931B0690931C06A0931D0683
:101E8000B0931E068E010F5F1F4F7E0185E0E80EA6
:101E9000F11CA4DF97FF04C08981813091F407C051
:101EA000F80181938F01EE15FF0599F7F5CF8A812F
:101EB0008F3F39F48B818F3F21F481E09C819F3FDC
:101EC00009F080E00F900F900F900F90DF91CF916D
:101ED0001F910F91FF90EF900895CF92DF92EF92B4
:101EE000FF920F931F93CF93DF93CDB7DEB72E975B
:101EF0000FB6F894DEBF0FBECDBF7C018B0169EE3B
:101F000073E0CE01099665D7D70112966D917C9149
:101F10001397CE010996DFD66EEE73E0CE010996D7
:101F2000DAD689859A850E941206FE01319688E0EC
:101F3000DF011D928A95E9F70115110511F410E0F2
:101F400045C084E690E0A0E0B0E080931B0690934B
:101F50001C06A0931D06B0931E067F01C12CD12C38
:101F60003DDF97FDECCFF70181937F01FFEFCF1AA3
:101F7000DF0A88E0C816D10499F789818137F9F61C
:101F80008E818F3FE1F68F818F3FC9F688858F3F25
:101F9000B1F62D818C8190E0A0E0B0E0DC019927C2
:101FA0008827B22B2A81822B4B8150E0542F442763
:101FB000052E000C660B770B842B952BA62BB72BCD
:101FC000F80180839183A283B38311E0CE01099647
:101FD000FBD6812F2E960FB6F894DEBF0FBECDBF75
:101FE000DF91CF911F910F91FF90EF90DF90CF90F5
:101FF00008958F929F92AF92BF92CF92DF92EF920D
:10200000FF92CF93DF93C82F8CE19AE0909316064E
:1020100080931506CC2361F1C53010F080E00BC130
:1020200040E060E070E0CB01D2D88823B9F320E132
:10203000C29FC00111248B5F9B4FFC01E254FE4FF5
:1020400020812F7759F73C964081518162817381BD
:10205000443651056105710508F33497C080D1807D
:10206000E280F380C114D104E104F10421F4D6CF5D
:10207000C12CD12C760140E0C701B601A8D8882335
:1020800069F280912004909121048115924031F6EB
:10209000A0912504AA2309F4C1CF60912304709173
:1020A00024046115710509F4B9CF2091220422237B
:1020B00009F4B4CFA093100A2093020A80E030E024
:1020C000E1E0F0E0C82FAF01082E02C0440F551F19
:1020D0000A94E2F72417350741F0982F8F5F983064
:1020E00089F789E080930B0A99CF80930B0A20919E
:1020F0002B0430912C042115310519F040E050E0FB
:1021000008C02091390430913A0440913B04509129
:102110003C042093030A3093040A4093050A509329
:10212000060A46015701860E971EA11CB11C80921B
:10213000110A9092120AA092130AB092140AE09126
:102140002604F0912704F093170AE093160AB0E0F2
:102150000E945320860E971EA81EB91E8092180A50
:102160009092190AA0921A0AB0921B0A85E0EE0F0B
:10217000FF1F8A95E1F7E150FE4FEF2FFF27E6950D
:102180008E0E9F1EA11CB11C80920C0A90920D0A0B
:10219000A0920E0AB0920F0A2091280430912904CF
:1021A0002115310521F0A90160E070E008C04091DF
:1021B0003504509136046091370470913804D7018A
:1021C000C60188199909AA09BB09840F951FA61F82
:1021D000B71F04C0B695A79597958795CA95D2F76E
:1021E0008093070A9093080AA093090AB0930A0AF9
:1021F000853F2FE09207A105B10510F48CE018C0CF
:10220000853F9F4FA105B10510F480E111C0809179
:10221000410490914204A0914304B09144048093FE
:10222000180A9093190AA0931A0AB0931B0A80E225
:102230008093150A81E0DF91CF91FF90EF90DF90BE
:10224000CF90BF90AF909F908F9008950F931F9362
:10225000CF93DF938C01C0E0D0E0F801EC0FFD1FBD
:102260006491662371F0E091EE07F091EF07019021
:10227000F081E02D8EEE97E01995892B11F02196D3
:10228000ECCF8EEE97E0CED58C0F9D1FDF91CF91D6
:102290001F910F9108958F929F92AF92BF920F93CB
:1022A0001F93CF93DF93CDB7DEB7A1970FB6F89406
:1022B000DEBF0FBECDBF19A2423008F44AE08E0146
:1022C0000F5D1F4F842E912CA12CB12CA5019401E0
:1022D0000E945D20E62FB901CA0101501109EA30C0
:1022E00014F4E05D01C0E95CD801EC93232B242BAE
:1022F000252B61F7B8018EEE97E07FD5A1960FB63A
:10230000F894DEBF0FBECDBFDF91CF911F910F912B
:10231000BF90AF909F908F900895CF93DF934AE046
:10232000BADFEC018EEE97E07DD58C0F9D1FDF911B
:10233000CF9108953F924F925F926F927F928F92CA
:102340009F92AF92BF92CF92DF92EF92FF920F9344
:102350001F93CF93DF93CDB7DEB76D970FB6F89489
:10236000DEBF0FBECDBF7C01FC0116821782108636
:1023700011861286138614861586C62ED12C71E31B
:10238000A72E72E0B72E77247394E2E05E2E560EED
:10239000F4E06F2EC70181DA8C01892B09F41FC18B
:1023A000F8018081882309F41AC1853E99F38E32A1
:1023B00089F3838583FDEECF912C892D092C000CA8
:1023C000990B8C159D0524F480E2FDDC9394F5CFE8
:1023D0004801412C312CF4018081803269F0F8E011
:1023E0003F1203C08EE2EFDC4394F40160818EEE75
:1023F00097E00E94A10243943394FFEF8F1A9F0A43
:102400008BE03812E8CFF80183858871803119F4A8
:102410008FE2D9DC4394FDE0F41510F080E2F9CFAF
:10242000F801808C918CB401672F772766956454EE
:10243000784F80E090E04AE02EDF8DE2C4DCC401FA
:1024400045E0969587954A95E1F78F700E94EF06D3
:102450008DE2B9DC882D8F710E94EF0680E2B3DC3B
:10246000F80186889788892D8695869586950E949D
:10247000EF068AE3A8DCC40155E0969587955A9546
:10248000E1F78F730E94EF068AE39DDC882D8F7140
:10249000880F0E94EF06F80183858871803151F41E
:1024A0008EEE97E0BFD4F80183858871803109F002
:1024B00071CF0AC080E287DCF801648D758D868D4E
:1024C000978D4AE0E8DEECCFF7010285138524857D
:1024D000358585E036952795179507958A95D1F727
:1024E000015011091C821B82BA82A9821E82838D2F
:1024F000948D9D8F8C8F480195E0880C991C9A953E
:10250000E1F7A40160E070E0C70132D8882309F444
:102510005DC0C701C2D9009709F458C0FC01808191
:10252000882309F453C0853E09F450C08E3209F463
:102530004DC00F700B8B8091000290910102A09111
:102540000202B09103028F87988BA98BBA8B80E22D
:10255000089FF0011124EB5EFB4F4489558960E030
:1025600070E0BA0155274427828D938DA0E0B0E03A
:10257000482B592B6A2B7B2B488F598F6A8F7B8F67
:102580008385887151F4848D958DA68DB78D8C8B44
:102590009D8BAE8BBF8B7E820CC08031B9F49E01C7
:1025A0002C5E3F4F8C8D9D8D0E94500A882371F0C8
:1025B0006E827D821F82188619861A861B861C866B
:1025C0001D861E86652DCE010196B4DEA401405EF7
:1025D0005F4F60E070E0C7010E94B80ADBCE6D96E5
:1025E0000FB6F894DEBF0FBECDBFDF91CF911F9124
:1025F0000F91FF90EF90DF90CF90BF90AF909F90A2
:102600008F907F906F905F904F903F900895CF9202
:10261000DF92EF92FF920F931F93CF93DF936C01A2
:102620007A018B01C0E0D0E0CE15DF0589F0D8013A
:102630006D918D01D601ED91FC910190F081E02D1D
:10264000C6011995892B11F47E0102C02196ECCFA9
:10265000C701DF91CF911F910F91FF90EF90DF9015
:10266000CF900895CF93DF93C7EBD8E061E08981E5
:102670000E94760560E089810E943B0561E08881C7
:102680000E943B0561E089810E943B0560E08981F1
:10269000DF91CF910C94760560E08091B8080E949C
:1026A000760561E08091B7080E943B058091B808EB
:1026B000811101C0FFCF60E08091B7080C943B0509
:1026C000EF92FF920F931F93CF93DF93E82EF62E96
:1026D000C7E0D0E0042F10E098010C2E02C0359521
:1026E00027950A94E2F7B901617077278E2D0E9431
:1026F0003B0561E08F2D0E943B0560E08F2D0E941D
:102700003B05219748F7DF91CF911F910F91FF90E3
:10271000EF9008950F931F93CF93DF931F92CDB740
:10272000DEB7482F07EB18E061E0F80181814983AB
:102730000E9476054981F801608181810F90DF91C7
:10274000CF911F910F91BCCF0F931F93CF93DF9326
:102750001F92CDB7DEB7482F07EB18E061E0F80114
:10276000818149830E94760561E0F80181810E94A0
:102770003B0561E0F80180810E943B0560E0F801C3
:1027800081810E943B0560E0F80180810E943B0549
:102790004981F801608181810F90DF91CF911F9174
:1027A0000F918ECF0F931F93CF93DF93EC0188810E
:1027B0009981009729F02A813B812617370788F4F1
:1027C0008B016F5F7F4F0E94CF21009761F099834B
:1027D00088831B830A832C813D81232B11F4FC0108
:1027E000108281E001C080E0DF91CF911F910F91B5
:1027F00008958F929F92AF92BF92DF92EF92FF92D5
:102800000F931F93CF93DF93CDB7DEB7DA950FB653
:10281000F894DEBF0FBECDBF8091C908898383E0E5
:102820008A838091CA089091CB089B838C83809186
:10283000CC089091CD089D838E83CE0101967C01BA
:10284000FC018FEF9FEF8701BE2C66E06E0D21919A
:10285000822728E030E0AC015695479580FF06C0FE
:10286000CA01A1E08A27A0EA9A2701C0CA01215023
:10287000310989F76E13EBCF8F8398871986809182
:10288000C7089091C808DC01ED91FC910284F385A2
:10289000E02D1995019699F7E091DD09F091DE0997
:1028A000309709F01995E8E0BE0E8091C708909125
:1028B000C808D7016D917D01DC01ED91FC9101907B
:1028C000F081E02D1995BE10F0CF8091C70890914E
:1028D000C808DC01ED91FC910680F781E02D199587
:1028E000E091DF09F091E009309709F019950E9415
:1028F000B2054B015C0188E0F82EE12C8091C708FD
:102900009091C808DC01ED91FC910084F185E02DE7
:102910001995892BA9F0DD24D394DE0C8091C7088A
:102920009091C808DC01ED91FC910284F385E02DC3
:102930001995F801EE0DF11D8083FA94ED2C07C076
:10294000E091DB09F091DC09309709F01995B5E0C9
:10295000EB1225C099818091C9089813ACC0EA8117
:102960008E2F8F77833009F0A8C0E7FF04C08B81DA
:10297000882351F186C08E2F90E0FC013197E7311A
:10298000F10568F48827EC57FF4F8F4F0C949A207D
:10299000B3E0FB2E04C0FB8002C0A5E0FA2E0E942B
:1029A000B205DC01CB0188199909AA09BB09813D4F
:1029B0009740A105B10510F082EE63C0F1109ECFE3
:1029C000F4E0FE1508F07BC02FEF3FEFE0E08E2D26
:1029D00090E0AC01425051096E2F70E0641775070A
:1029E000C4F4D801A60FB71F6C91262768E070E0E9
:1029F000D901B695A79520FF06C09D01F1E02F27CC
:102A0000F0EA3F2701C09D016150710989F7EF5F2E
:102A1000E3CFF801E40FF51F40814213A0C0FE018F
:102A2000E80FF91F808183139AC049C02034E8F46D
:102A3000880F991FDC01A953B74FE5E0F0E0EC0FD8
:102A4000FD1FE80FF91F408150E0542F4427E4E0B8
:102A5000F0E0EC0FFD1FE80FF91F8081FA01E82B71
:102A6000CF0118969C938E931797322F2F5F822F4A
:102A700090E086179707D4F23093DA09F0FC53C040
:102A800080E01092D4091092D6091092D5091092C4
:102A9000D909D3950FB6F894DEBF0FBECDBFDF9135
:102AA000CF911F910F91FF90EF90DF90BF90AF906B
:102AB0009F908F90089580EEE4CF81EEE2CF8A81DF
:102AC000853030F4833030F4813008F03FC0D8CF07
:102AD0008731B1F66B8170E0759567952091DA09C1
:102AE00040E0842F90E0861797076CF54034C0F4DF
:102AF0009C012E5F3F4F220F331F880F991FFC014F
:102B0000E953F74FDE01A20FB31F8C9190E0982F8D
:102B10008827D801A20FB31F2C91822B908787831F
:102B2000242F4F5FDECF203468F4880F991FFC01FB
:102B3000E953F74FD801A80FB91F13968C9190E075
:102B4000908787832F5F2093DA099ACFFB806F2DC0
:102B500070E0759567953091DA0920E088CF83EEB3
:102B600090CF1F93CF93DF931F92CDB7DEB7182F6F
:102B700080ED6983E9DD90DD812FCCDD8DDD69811C
:102B8000862FC8DD89DD0F90DF91CF911F916ACD2F
:102B9000FF920F931F93CF93DF93C82F80EDD4DD67
:102BA0007BDD8C2FB7DD78DD5DDD81EDCDDD74DD86
:102BB00060E08091B8080E947605C7E0D0E000E0B0
:102BC00061E08091B7080E943B052091B80830E091
:102BD000F901E25AFC4F8491F901E85EFC4FF49050
:102BE000F901EE52FD4F1491112391F081110E94D1
:102BF000E504E12FF0E0EE0FFF1FE854FD4FA59133
:102C0000B491EC91EF2131E009F430E0832F02C060
:102C100080E090E00C2E01C0880F0A94EAF7082BA0
:102C200060E08091B7080E943B05219708F0C8CF6B
:102C300061E08091B8080E94760560E08091B70855
:102C40000E943B0561E08091B8080E943B0561E06D
:102C50008091B7080E943B0560E08091B7080E9410
:102C60003B0560E08091B8080E947605FBDC802F70
:102C7000DF91CF911F910F91FF900895EF92FF92F6
:102C80000F931F93CF93DF93FC012481358161154E
:102C9000710511F480E018C041155105A1F07B01C8
:102CA000EC018A01020F131FB8017CDD882391F328
:102CB000288139818C819D81B701820F931F0E94E9
:102CC000C0221D830C8381E0DF91CF911F910F9172
:102CD000FF90EF9008956115710549F0FB01019097
:102CE0000020E9F73197AF01461B570BC7CF80E0B3
:102CF0000895CF93DF93EC0188819981009711F0BB
:102D00000E943721198218821D821C821B821A821E
:102D1000DF91CF910895CF93DF93EC0141E050E034
:102D200064EC73E0ABDF811102C0CE01E2DFCE01C3
:102D3000DF91CF910895EF92FF920F931F93CF935E
:102D4000DF93EC017B018A01BA012CDD811103C004
:102D5000CE01CFDF07C01D830C83B7018881998125
:102D60000E94C022CE01DF91CF911F910F91FF9061
:102D7000EF900895CF93DF93EC016115710551F049
:102D8000FB0101900020E9F73197AF01461B570B7B
:102D9000D2DF01C0AEDFCE01DF91CF910895CF9396
:102DA000DF93EC01FB018617970751F06081718179
:102DB0006115710521F044815581BDDF01C099DFA6
:102DC000CE01DF91CF910895FC01808191810C9417
:102DD0003721FC0111821082138212821582148223
:102DE0006115710549F0FB0101900020E9F7319769
:102DF000AF01461B570B9FCF08956115710579F000
:102E0000FB0101900020E9F73197AF01461B570BFA
:102E1000DC01ED91FC910280F381E02D199480E0BA
:102E200090E0089563EF73E0E8CF0F931F93CF9383
:102E3000DF93EC01E2DF8C01CE01F4DF800F911F04
:102E4000DF91CF911F910F9108958DE898E0BCDF3D
:102E500081EC98E0B9CFCF93DF93CDB7DEB7E4979D
:102E60000FB6F894DEBF0FBECDBF789484B58260F4
:102E700084BD84B5816084BD85B5826085BD85B51E
:102E8000816085BD80916E00816080936E0010929C
:102E90008100809181008260809381008091810017
:102EA00081608093810080918000816080938000A8
:102EB0008091B10084608093B1008091B000816006
:102EC0008093B00080919100826080939100809106
:102ED0009100816080939100809190008160809347
:102EE00090008091A10082608093A1008091A10058
:102EF00081608093A1008091A00081608093A000F8
:102F00008091210182608093210180912101816063
:102F10008093210180912001816080932001809124
:102F20007A00846080937A0080917A008260809336
:102F30007A0080917A00816080937A0080917A0093
:102F4000806880937A001092C10026E040E855E244
:102F500060E070E087E196E00E9480046BE472E03C
:102F600087E196E062DF26E040E05BE460E070E04D
:102F700084EB96E00E94800461E088E20E9476057E
:102F800061E088E20E943B0562E672E084EB96E035
:102F90004CDF60E088E20E943B0526E040E855E215
:102FA00060E070E08EEE97E00E9480046DE772E0D2
:102FB0008EEE97E03ADF26E040E855E260E070E010
:102FC00087E196E00E94800485EF93E00E9412065C
:102FD00089E992E00E9412060E94280F81EA92E09D
:102FE0000E9412060E94280F81E393E09093B40898
:102FF0008093B3081092B6081092B5088BEB96E058
:103000009093A8088093A7081092AA081092A90884
:1030100087E896E090939C0880939B0810929E0806
:1030200010929D0880E0B4DD682F6F7780E099DD15
:1030300062E083E096DD62E182E093DD60E081E0C2
:1030400090DD60E080E08DDD68E186E08ADD66E0AD
:1030500085E087DD66E284E084DD87E099DD682F26
:103060006C7F87E07EDD87E093DD682F606187E01D
:1030700078DD8FE992E0EAD81092270A1092250AAB
:103080001092220A1092210A85E38093200A0E945E
:10309000B2058B0161E08091200A0E94760561E013
:1030A0008091200A0E943B05BFB6F89480910804E5
:1030B000811127C0E7E0F3E08491EDE4F3E094911F
:1030C000E82FF0E0EE0FFF1FE65BFD4FA591B491F6
:1030D000EC91E92321F461E085E30E943B0561E086
:1030E00085E30E9476058CB580618CBD8CB58064CB
:1030F0008CBD61E084E30E94760561E083E30E9479
:103100007605809108048F5F80930804BFBE82E536
:1031100080938B0810928C0880918B0890918C087A
:103120000E9452072AE0B22E8FEF0E941907BA942C
:10313000B110FACF8CE19AE00E94550720E030E010
:10314000A90160E08CE19AE00E946907B82E8093A3
:10315000260A31E0831749F00E94B205601B710B0B
:10316000613D774058F381E056C02AEA31E040E003
:1031700050E068E08CE19AE00E94690782FF03C09A
:10318000B092270A10C094E0B92E0E9420078093C5
:10319000260ABA94B110F9CF8A3A11F082E03BC006
:1031A00082E08093270A8091270A823021F0412C07
:1031B000512C320105C0412C512C612C80E4782E19
:1031C00020E030E0A90167E38CE19AE00E94690702
:1031D000A301920169E28CE19AE00E946907809361
:1031E000260A882349F00E94B205601B710B613DDD
:1031F000774030F388E00FC08091270A823019F5BC
:1032000020E030E0A9016AE38CE19AE00E946907BE
:10321000882359F086E08093210A8CE19AE00E948D
:103220000F0785E892E012D815C10E942007807C24
:10323000803C19F483E08093270A0E9420070E94B3
:1032400020070E9420078CE19AE00E940F0780E58A
:1032500080938B0810928C0884E692E00E942611DD
:1032600068EA72E08EEE97E0C8DD6091270A70E0B0
:1032700080E090E04AE00FD88EEE97E0D3DD8091B9
:10328000270A823039F0833041F0813049F46BEB0A
:1032900072E008C06FEB72E005C063EC72E002C040
:1032A00068EC72E08EEE97E0C0DD81E00E94F90FDD
:1032B00081110AC00E94F90F811106C060ED72E011
:1032C0008EEE97E0B2DDC6C061E373E08EEE97E06C
:1032D00094DD6091150A70E080E090E04AE00E9481
:1032E0004B118EEE97E09EDD8EEE97E09BDDA09178
:1032F000020A4091070A5091080A6091090A7091E8
:103300000A0A9A01AB01F9E0220F331F441F551F2F
:10331000FA95D1F7B0E0C7D62B013C0168E473E021
:103320008EEE97E06ADDC301B2010E948D116EE559
:1033300073E08EEE97E061DDC301B201AAE09695DD
:10334000879577956795AA95D1F70E948D1165E7C6
:1033500073E08EEE97E051DDC301B201B4E19695C2
:10336000879577956795BA95D1F70E948D116CE88E
:1033700073E08EEE97E059DD8091E609811165C01A
:103380008091150A803109F582E08093E609109258
:10339000F8091092F9091092FA091092FB0980912C
:1033A000160A9091170AA0E0B0E0E5E0880F991F97
:1033B000AA1FBB1FEA95D1F78093F4099093F509F2
:1033C000A093F609B093F7091DC08032F1F583E0B0
:1033D0008093E6094091180A5091190A60911A0ADF
:1033E00070911B0A4093F8095093F9096093FA0908
:1033F0007093FB0924EF39E08EEF99E00E94500AA8
:10340000882319F18EEF99E09093FD098093FC09D0
:1034100081E08093E5091092E7091092E809109283
:10342000E9091092EA091092EB091092EC09109246
:10343000ED091092EE091092EF091092F009109226
:10344000F1091092F2091092F30960E081EE99E01F
:103450000E949A118AE08093140472E0272E312C86
:103460001091140461E089E20E9476052EE040E0AC
:103470005BE460E070E081E597E00E9480041093D7
:10348000C90881E597E09093C8088093C708109217
:10349000D4091092D6091092D50980E795E090934F
:1034A000DE098093DD092AE635E03093E0092093B8
:1034B000DF0965EF73E0CE0188968BDC812F90E009
:1034C0009093CB088093CA083092CD082092CC0804
:1034D00090D98091CE089091CF084090D0087091FB
:1034E000D10897FF1FC121E02093090431E03EA7D6
:1034F000292F30E0A90163E0569547956A95E1F7D9
:10350000942F9170A9014074552758AB4FA789019A
:1035100000721127277033272150310924303105DB
:1035200060F4220F331F220F331FF901E55FFD4FB7
:10353000208131814281538104C020E030E040E8A5
:103540005FE3882E912CA12CB12C512C612C712C75
:1035500091111EC0D40199278827F72EE12C47012D
:10356000FF0CAA08BB08880D991DAA1DBB1DBC0134
:10357000CD01640D751D861D971D29AB3AAB4BAB74
:103580005CABA2D429A93AA94BA95CA9D8D41EC086
:10359000D40199278827D72EC12C4601DD0CAA0813
:1035A000BB08880D991DAA1DBB1DBC01CD01640D72
:1035B000751D861D971D29AB3AAB4BAB5CAB84D414
:1035C00029A93AA94BA95CA9BAD490582FA538A922
:1035D000232B19F066EC73E004C0012B31F06CEC86
:1035E00073E0CE018896C6DB35C01BA21AA21DA2CD
:1035F0001CA21FA21EA28E010F5F1F4F23E045E0F9
:10360000B4D1BC01CE018296B5DB1A8219821C822C
:103610001B821E821D82BE016E5D7F4FC801BFDB13
:10362000C80179DB8C014091C5085091C6086091B2
:10363000C1087091C20822DB811102C0C80159DBA8
:10364000B801CE018896ABDBCE010196BDDBCE0181
:103650008296BADBACA4BDA465EF73E0CE010196FF
:10366000B8DB0CA51DA501151105A9F0A016B10622
:1036700008F48501E8A5F9A5E00FF11FB0801082DC
:1036800068A579A5CE01019675DB88A599A5FC01F1
:10369000E00FF11FB0820D811E810115110519F493
:1036A00010920A040FC00930110510F009E010E073
:1036B00069817A81A8018AE094E069D7F801E65F20
:1036C000FB4F1082CE0101967FDBCE0188967CDB1A
:1036D0006AE074E08EEE97E0A8DB65EF73E0CE0160
:1036E000019677DB6091AD087091AE08CE0101962E
:1036F000F2DA65ED73E0CE010196EDDA6AE074E08E
:10370000CE010196E8DA6AED73E0CE010196E3DAC4
:1037100089819A810E9412060E94280FCE0101968B
:1037200053DB9ECE109209041EA6E2CEE7E1F6E03E
:103730001382128248EE53E060E070E044835583C8
:10374000668377838FE192E09183808325E331E084
:103750003587248724E331E03787268720E331E06B
:10376000318B208B21E331E0338B228B22E331E05C
:10377000358B248B26E331E0378B268B118E128E0E
:10378000138E148EE4EBF6E0138212824483558389
:10379000668377839183808325ED30E035872487A6
:1037A00024ED30E03787268720ED30E0318B208B09
:1037B00021ED30E0338B228B22ED30E0358B248BF2
:1037C00026ED30E0378B268B118E128E138E148EE1
:1037D000E1E5F7E0138212824483558366837783A1
:1037E000918380832DEC30E0358724872CEC30E00A
:1037F0003787268728EC30E0318B208B29EC30E0AE
:10380000338B228B2AEC30E0358B248B2EEC30E08E
:10381000378B268B118E128E138E148EEEEEF7E000
:1038200013821282448355836683778391838083D6
:1038300085EC90E09587848784EC90E09787868775
:1038400080EC90E0918B808B81EC90E0938B828B6D
:1038500082EC90E0958B848B86EC90E0978B868B46
:10386000118E128E138E148EEBE8F8E080E58083C3
:103870001182E8E2FAE0158216821186138642E090
:1038800050E060E070E0448755876687778713A231
:1038900015A614A681E392E093A782A717A6ECE1F0
:1038A000FAE01582168211861386EEEFF9E0408366
:1038B000518362837383178AE1EEF9E013821282E7
:1038C0009183808315821092DC091092DB0910929B
:1038D000DE091092DD091092E0091092DF096CED0B
:1038E00073E081EC98E075DAE7EBF8E084E181833E
:1038F00085E1808361E00E947605EBEAF8E01082C2
:103900008DE081838FED93E093838283158214820F
:10391000118610861386128617821682EFE9F8E068
:1039200010828EE1818383EE93E0938382831582FC
:103930001482118610861386128617821682E3E996
:10394000F8E0108281E2818386EE93E093838283A4
:1039500015821482118610861386128617821682AB
:1039600065EF73E08DE898E034CAEF920F931F93F0
:10397000CF93DF93E80147FD02C034E001C034E19A
:10398000E42F440FFF0BF7FF03C0F195E195F10918
:10399000E32E022F2E2FAE0120D0CE01DF91CF914A
:1039A0001F910F91EF900895BB27FB015527AA2780
:1039B000880F991FAA1FA41710F0A41B83955051BC
:1039C000B9F7A05DAA3308F0A95DA193009779F734
:1039D000B111B1931192CB0165C24F925F926F9278
:1039E0007F929F92AF92BF92CF92DF92EF92FF921F
:1039F0000F931F93CF93DF93CDB7DEB729970FB601
:103A0000F894DEBF0FBECDBF6A01122FB02E2BE39C
:103A1000201720F0FF24F394F00E02C0BCE3FB2E2D
:103A20000F2D27E0AE014F5F5F4F64D1AC0189815C
:103A3000982F9970913031F0E1FC06C0E0FE06C08D
:103A400090E205C09DE203C09BE201C090E0EE2D34
:103A5000E07183FF3CC0911102C083E001C084E0AB
:103A6000811718F4212F281B01C020E0E1110BC0A1
:103A7000F601822F30E2882319F031938150FBCF79
:103A8000C20ED11C20E0992329F0D6019C93F601A7
:103A900031966F01C6010396E2FE0AC03EE4D601EC
:103AA0003C9341E411964C93119712963C9306C0B7
:103AB0003EE6F601308341E641833283FC01322F3A
:103AC00040E2332309F442C041933150FACF82FFE0
:103AD00044C0911102C083E001C084E0811718F452
:103AE000212F281B01C020E0E1110BC0F601822F1D
:103AF00030E2882319F031938150FBCFC20ED11CE4
:103B000020E0992329F0D6019C93F60131966F01AC
:103B1000C6010396E2FE0BC039E4D6013C933EE4B5
:103B200011963C93119736E412963C9307C039E600
:103B3000F60130833EE6318336E63283FC01322FD4
:103B400040E2332319F041933150FBCFFC01E20FE7
:103B5000F11D10828EEF9FEFB7C0F1E0911101C00F
:103B6000F0E06F2F70E01416150624F49A012F5F11
:103B70003F4F02C021E030E0260F371FBB2029F065
:103B80006B2D70E06F5F7F4F02C060E070E0260F2A
:103B9000371F612F70E0261737071CF4121B212FE7
:103BA00001C020E03E2D387159F4D601322F60E279
:103BB000332319F06D933150FBCFC20ED11C20E09E
:103BC000FF2331F0D6019C93B6016F5F7F4F6B01ED
:103BD000E1110BC0F601922F30E3992319F03193D4
:103BE0009150FBCFC20ED11C20E09F2D940F3A8143
:103BF000782F7071A72E84FF03C0313309F49150E0
:103C0000191624F4993018F098E001C091E0E42FDF
:103C1000852F57FF02C0E0E080E06E2F782FE0E0B4
:103C2000F0E0AEE29A2E3A01691A71082A01461AAA
:103C3000570A0B2D10E01195019511096F3F8FEF79
:103C4000780729F4D6019C92C60101966C014617AB
:103C5000570784F0661677066CF47F01E40CF51CB8
:103C6000A1E0B0E0AC0FBD1FEA0EFB1ED70111961C
:103C7000BC9002C090E3B92E615071093196C60123
:103C800001967C016017710724F0D601BC926C018B
:103C9000D5CF6417750741F4363320F4353321F45A
:103CA000A11002C081E3B82EF601B082F701822F85
:103CB00090E2882319F091938150FBCFF701E20F36
:103CC000F11D108280E090E029960FB6F894DEBFD7
:103CD0000FBECDBFDF91CF911F910F91FF90EF905D
:103CE000DF90CF90BF90AF909F907F906F905F904C
:103CF0004F900895283008F027E03327DA01990F14
:103D0000311D87FD916000966105710539F43260BF
:103D10002E5F3D9330E32A95E1F708959F3F30F001
:103D200080387105610509F03C5F3C5F3D9391303F
:103D300008F08068911DDF93CF931F930F93FF923C
:103D4000EF92192F987F9695E92F96959695E90F02
:103D5000FF27E057FE4F99273327EE24FF24A701C2
:103D6000E70105900894079428F4360FE71EF81E23
:103D7000491F511D660F771F881F991F0694A1F7D1
:103D80000590079428F4E70EF81E491F561FC11D21
:103D9000770F881F991F661F0694A1F70590079457
:103DA00028F4F80E491F561FC71FD11D880F991FF1
:103DB000661F771F0694A1F70590079420F4490F1A
:103DC000561FC71FD81F990F661F771F881F06949D
:103DD000A9F784911095177041F0D695C79557951E
:103DE0004795F794E7941A95C1F7E6E3F1E06894F4
:103DF0001590159135916591959105907FE2739598
:103E0000E118F10A430B560BC90BD009C0F7E10CBE
:103E1000F11E431F561FC91FD01D7EF4703311F4CD
:103E20008A95E6CFE894015030F0080F0AF4002795
:103E3000021708F4202F2395022F7A3328F079E314
:103E40007D932A95E9F710C07D932A9589F606940B
:103E500097956795379517951794E118F10A430BD5
:103E6000560BC90BD00998F023957E9173957A3340
:103E700008F070E37C932013B8F77E9170617D9316
:103E800030F0839571E37D9370E32A95E1F7112477
:103E9000EF90FF900F911F91CF91DF91992787FDB0
:103EA00090950895DC01FC01672F71917723E1F76C
:103EB000329704C07C916D9370836291AE17BF07F7
:103EC000C8F30895E89409C097FB3EF49095809557
:103ED000709561957F4F8F4F9F4F9923A9F0F92FD0
:103EE00096E9BB279395F695879577956795B7954E
:103EF000F111F8CFFAF4BB0F11F460FF1BC06F5F34
:103F00007F4F8F4F9F4F16C0882311F096E911C045
:103F1000772321F09EE8872F762F05C0662371F066
:103F200096E8862F70E060E02AF09A95660F771F7A
:103F3000881FDAF7880F9695879597F908950BD023
:103F400078C069D028F06ED018F0952309F05AC0D7
:103F50005FC01124A2C07ED0A0F3959FD1F3950F2E
:103F600050E0551F629FF001729FBB27F00DB11DFD
:103F7000639FAA27F00DB11DAA1F649F6627B00D8D
:103F8000A11D661F829F2227B00DA11D621F739F76
:103F9000B00DA11D621F839FA00D611D221F749F84
:103FA0003327A00D611D231F849F600D211D822FCB
:103FB000762F6A2F11249F5750408AF0E1F0882312
:103FC0004AF0EE0FFF1FBB1F661F771F881F91501F
:103FD0005040A9F79E3F510570F014C05EC05F3F8E
:103FE000ECF3983EDCF3869577956795B795F79552
:103FF000E7959F5FC1F7FE2B880F911D96958795DA
:1040000097F9089597F99F6780E870E060E0089558
:104010009FEF80EC089500240A94161617061806E0
:104020000906089500240A941216130614060506BC
:104030000895092E0394000C11F4882352F0BB0F4D
:1040400040F4BF2B11F460FF04C06F5F7F4F8F4FB0
:104050009F4F089557FD9058440F551F59F05F3FEB
:1040600071F04795880F97FB991F61F09F3F79F09A
:1040700087950895121613061406551FF2CF46951C
:10408000F1DF08C0161617061806991FF1CF86959E
:104090007105610508940895E894BB276627772782
:1040A000CB0197F908952BD0A59F900DB49F900D4B
:1040B000A49F800D911D11240895A1E21A2EAA1B20
:1040C000BB1BFD010DC0AA1FBB1FEE1FFF1FA217C8
:1040D000B307E407F50720F0A21BB30BE40BF50BC5
:1040E000661F771F881F991F1A9469F7609570954E
:1040F000809590959B01AC01BD01CF010895A29FD1
:10410000B001B39FC001A39F700D811D1124911DAB
:10411000B29F700D811D1124911D0895991B79E0A6
:1041200004C0991F961708F0961B881F7A95C9F747
:1041300080950895EE0FFF1F881F8BBF0790F691A3
:10414000E02D1994CF93DF938230910510F482E033
:1041500090E0E091730AF091740A20E030E0C0E052
:10416000D0E0309711F14081518148175907C0F0D4
:104170004817590761F482819381209719F09B8336
:104180008A832BC09093740A8093730A26C02115EA
:10419000310519F04217530718F49A01BE01DF01E7
:1041A000EF010280F381E02DDCCF2115310509F10B
:1041B000281B390B2430310590F412968D919C9177
:1041C00013976115710521F0FB019383828304C06D
:1041D0009093740A8093730AFD01329644C0FD01E6
:1041E000E20FF31F81939193225031092D933C9359
:1041F0003AC02091710A3091720A232B41F4209128
:104200000602309107023093720A2093710A2091BE
:104210000402309105022115310541F42DB73EB756
:104220004091080250910902241B350BE091710A5C
:10423000F091720AE217F307A0F42E1B3F0B281728
:10424000390778F0AC014E5F5F4F2417350748F00F
:104250004E0F5F1F5093720A4093710A819391939E
:1042600002C0E0E0F0E0CF01DF91CF9108950F931D
:104270001F93CF93DF93009709F48CC0FC01329712
:10428000138212820091730A1091740A01151105AC
:1042900081F420813181820F931F2091710A309126
:1042A000720A2817390779F5F093720AE093710AB8
:1042B00071C0D80140E050E0AE17BF0750F412962D
:1042C0002D913C911397AD012115310509F1D901CB
:1042D000F3CF9D01DA013383228360817181860FE0
:1042E000971F8217930769F4EC0128813981260F03
:1042F000371F2E5F3F4F318320838A819B819383B9
:104300008283452B29F4F093740AE093730A42C028
:104310001396FC93EE931297ED01499159919E01EA
:10432000240F351FE217F30771F480819181840F08
:10433000951F029611969C938E938281938113967A
:104340009C938E931297E0E0F0E0D80112968D9145
:104350009C911397009719F0F8018C01F6CF8D917D
:104360009C9198012E5F3F4F820F931F2091710AFD
:104370003091720A2817390769F4309729F410929E
:10438000740A1092730A02C0138212821093720A86
:104390000093710ADF91CF911F910F9108956F9251
:1043A0007F928F929F92AF92BF92CF92DF92EF92C5
:1043B000FF920F931F93CF93DF93EC01009781F44B
:1043C000CB01DF91CF911F910F91FF90EF90DF9084
:1043D000CF90BF90AF909F908F907F906F90B2CE14
:1043E000FC01E60FF71F9C0122503109E217F30789
:1043F00008F4A8C0D9010D911C9111970617170751
:10440000A8F00530110508F49BC0C8010497861771
:10441000970708F495C002501109061B170B01936A
:1044200011936D937C93CF0122DF8AC05B01A01AA8
:10443000B10A4C01800E911EA091730AB091740ACA
:1044400040E050E0E12CF12C109709F44AC0A81587
:10445000B905D1F56D907C901197630182E0C80E8B
:10446000D11CCA14DB0480F1A3014A195B096A015B
:1044700082E0C80ED11C1296BC9012971396AC9194
:10448000B5E0CB16D10440F0B282A38351834083C0
:10449000D9016D937C930AC00E5F1F4FC301800F3B
:1044A000911FF90191838083EB2DFA2FE114F10420
:1044B00031F0D7011396FC93EE93129741C0F0931D
:1044C000740AE093730A3CC08D919C911197481730
:1044D000590708F4AC017D0112960D90BC91A02DF6
:1044E000B3CF8091710A9091720A88159905E1F411
:1044F00046175707C8F4809104029091050200976F
:1045000041F48DB79EB74091080250910902841B77
:10451000950BE817F907B0F4F093720AE093710A6B
:10452000F901718360830CC0CB010CDE7C01009724
:1045300049F0A801BE011BD0CE0199DEC70104C01D
:10454000CE0102C080E090E0DF91CF911F910F91EA
:10455000FF90EF90DF90CF90BF90AF909F908F90A3
:104560007F906F90089581E090E0F8941FC0FB0168
:10457000DC0102C001900D9241505040D8F70895DF
:10458000FB01DC0101900D920020E1F70895FB0191
:10459000DC014150504048F001900D920020C9F7D5
:1045A00001C01D9241505040E0F7089511E0C3ED65
:1045B000D1E000E005C0802FFE01BCDD2196011D89
:0E45C000C43DD10780E00807B1F7F894FFCFA3
:1045CE00FFFFFFFF0000750A800000CDCCCC3D0A36
:1045DE00D7233C6F12833A17B7D13800000000A1E1
:1045EE000207131F02E70250022E024202000000D1
:1045FE0000BB0D0713330332030000000036030720
:10460E0013330332032E7069633D0052533233323B
:10461E005F54544C20436F6E666967757261646FA8
:10462E00210052533438352045787465726E6F20F0
:10463E00436F6E666967757261646F2100506F72A9
:10464E00746120646520446562756720436F6E66F1
:10465E00696775726164612100626B636D643D31DF
:10466E0000706167652030000A5469706F20646FB6
:10467E002063617274C3A36F3A2000534431005318
:10468E004432005344484300556E6B6E6F776E0094
:10469E004EC3A36F20666F6920706F7373C3AD76C0
:1046AE00656C20656E636F6E74726172206120702E
:1046BE0061727469C3A7C3A36F2046415431362F6C
:1046CE0046415433322E0A436572746966697175B8
:1046DE00652D73652064652074657220666F726D3A
:1046EE00617461646F206F2063617274C3A36F2E57
:1046FE00000A5469706F20646520766F6C756D6565
:10470E0020C3A92046415400566F6C756D65207309
:10471E00697A6520286279746573293A2000566F8C
:10472E006C756D652073697A6520284B62797465A6
:10473E0073293A2000566F6C756D652073697A6522
:10474E0020284D6279746573293A20000A417271EE
:10475E007569766F7320656E636F6E747261646FC8
:10476E0073206E6F2063617274C3A36F20286E6F07
:10477E006D652C206461746120652074616D616EBD
:10478E00686F293A2000534F425245005341545509
:10479E005241444F002E7478743D22004B470074F2
:1047AE0031330070330070340067657420002E7052
:0647BE006963000D0A0012
:020000023000CC
:10E000000D9489F10D94B2F10D94B2F10D94B2F129
:10E010000D94B2F10D94B2F10D94B2F10D94B2F1F0
:10E020000D94B2F10D94B2F10D94B2F10D94B2F1E0
:10E030000D94B2F10D94B2F10D94B2F10D94B2F1D0
:10E040000D94B2F10D94B2F10D94B2F10D94B2F1C0
:10E050000D94B2F10D94B2F10D94B2F10D94B2F1B0
:10E060000D94B2F10D94B2F10D94B2F10D94B2F1A0
:10E070000D94B2F10D94B2F10D94B2F10D94B2F190
:10E080000D94B2F10D94B2F10D94B2F10D94B2F180
:10E090000D94B2F10D94B2F10D94B2F10D94B2F170
:10E0A0000D94B2F10D94B2F10D94B2F10D94B2F160
:10E0B0000D94B2F10D94B2F10D94B2F10D94B2F150
:10E0C0000D94B2F10D94B2F10D94B2F10D94B2F140
:10E0D0000D94B2F10D94B2F10D94B2F10D94B2F130
:10E0E0000D94B2F141546D656761323536300041AF
:10E0F000726475696E6F206578706C6F72657220DE
:10E1000073746B3530305632206279204D4C530099
:10E11000426F6F746C6F616465723E004875683F52
:10E1200000436F6D70696C6564206F6E203D200048
:10E130004350552054797065202020203D20005FF9
:10E140005F4156525F415243485F5F3D2000415658
:10E1500052204C696243205665723D20004743437C
:10E160002056657273696F6E203D20004350552024
:10E1700049442020202020203D20004C6F7720663D
:10E18000757365202020203D20004869676820665F
:10E190007573652020203D200045787420667573D6
:10E1A00065202020203D20004C6F636B2066757336
:10E1B000652020203D20004D617220203720323024
:10E1C000313300312E362E3800342E332E350056A2
:10E1D00023202020414444522020206F7020636F70
:10E1E00064652020202020696E73747275637469E1
:10E1F0006F6E2061646472202020496E74657272B3
:10E20000757074006E6F20766563746F7200726A49
:10E210006D702020006A6D70200057686174207056
:10E220006F72743A00506F7274206E6F7420737541
:10E2300070706F72746564004D7573742062652030
:10E2400061206C6574746572002000577269747483
:10E25000696E672045450052656164696E672045B7
:10E26000450045452065727220636E743D00504F35
:10E27000525400303D5A65726F2061646472003FF1
:10E280003D43505520737461747300403D454550C3
:10E29000524F4D207465737400423D426C696E6B41
:10E2A000204C454400453D44756D70204545505215
:10E2B0004F4D00463D44756D7020464C415348001B
:10E2C000483D48656C70004C3D4C69737420492F83
:10E2D0004F20506F72747300513D51756974005234
:10E2E0003D44756D702052414D00563D73686F7707
:10E2F00020696E7465727275707420566563746FF0
:10E30000727300593D506F727420626C696E6B00BD
:10E310002A0011241FBECFEFD1E2DEBFCDBF01E046
:10E320000CBF12E0A0E0B2E0EEE1FDEF03E00BBFB6
:10E3300002C007900D92A030B107D9F712E0A0E01B
:10E34000B2E001C01D92AE30B107E1F70F9460F367
:10E350000D948DFE01E20EBF0FEF0DBF11241FBE05
:10E360000D9460F30D9400F020E030E040ED57E0B4
:10E3700005C0FA013197F1F72F5F3F4F2817390792
:10E38000C0F308959C01260F311DC901A0E0B0E043
:10E390002F5F3F4FABBFFC018791882361F08093D3
:10E3A000C6008091C00086FFFCCF8091C0008064D1
:10E3B0008093C000EACF08958DE08093C6008091DD
:10E3C000C00086FFFCCF8091C00080648093C000B5
:10E3D0008AE08093C6008091C00086FFFCCF8091C8
:10E3E000C00080648093C00008950F94C2F10F9420
:10E3F000DCF10895FC019081992359F09093C600B7
:10E400008091C00086FFFCCF8091C0008064809323
:10E41000C0003196992379F70895282F982F929567
:10E420009F70892F805D8A3308F0895F8093C600D2
:10E430008091C00086FFFCCF8091C00080648093F3
:10E44000C000822F8F70982F905D9A3308F0995FEB
:10E450009093C6008091C00086FFFCCF8091C000E1
:10E4600080648093C00008959C01FB01853691056E
:10E470001CF46330710594F0C90164E670E00F94F8
:10E480002EFE605D7F4F6093C6008091C00086FFC6
:10E49000FCCF8091C00080648093C0002B30310598
:10E4A00014F43297B4F0C90164E670E00F942EFEC4
:10E4B0006AE070E00F942EFE605D7F4F6093C600AF
:10E4C0008091C00086FFFCCF8091C0008064809363
:10E4D000C000C9016AE070E00F942EFEC0968093E0
:10E4E000C6008091C00086FFFCCF8091C000806490
:10E4F0008093C00008951F93182F8EE692EE60E07F
:10E500000F94C2F11093C6008091C00086FFFCCF2B
:10E510008091C00080648093C0000F94DCF11F9153
:10E5200008952F923F924F925F926F927F928F92B7
:10E530009F92AF92BF92CF92DF92EF92FF920F9392
:10E540001F93DF93CF93CDB7DEB762970FB6F894E2
:10E55000DEBF0FBECDBF382E622ECA01DB015C01CB
:10E560006D01772420E2222E2E010894411C511CBB
:10E570008BC081E0A81680E0B80681E0C80680E084
:10E58000D80628F0C601AA27BB270F940DF2BB2797
:10E59000AD2D9C2D8B2D0F940DF28A2D0F940DF225
:10E5A0002092C6008091C00086FFFCCF8091C00001
:10E5B00080648093C0009DE29093C6008091C0006B
:10E5C00086FFFCCF8091C00080648093C0002092C1
:10E5D000C6008091C00086FFFCCF8091C00080649F
:10E5E0008093C00019828601750188249924A1E0D6
:10E5F0003A1651F03A1620F0B2E03B1661F409C029
:10E600000BBFF701779007C0C7010F9477FE782EF4
:10E6100002C0F7017080872D0F940DF22092C60082
:10E620008091C00086FFFCCF8091C0008064809301
:10E63000C000872D8052F401EF70F0708F3520F408
:10E64000E40DF51D708204C0E40DF51D8EE280839B
:10E650000894E11CF11C011D111D0894811C911CE2
:10E6600090E18916910409F0C2CF80E190E0A0E02A
:10E67000B0E0A80EB91ECA1EDB1E198AC2010F9493
:10E68000FAF10F94DCF16A94662009F072CF629679
:10E690000FB6F894DEBF0FBECDBFCF91DF911F91B3
:10E6A0000F91FF90EF90DF90CF90BF90AF909F9031
:10E6B0008F907F906F905F904F903F902F90089534
:10E6C0002F923F924F925F926F927F928F929F9282
:10E6D000AF92BF92CF92DF92EF92FF920F931F9370
:10E6E000DF93CF93CDB7DEB7CD53D1400FB6F894BB
:10E6F000DEBF0FBECDBF01E20EBF0FEF0DBF94B75F
:10E70000F894A89514BE80916000886180936000A1
:10E7100010926000789493FF05C0E0910002F091A0
:10E7200001021995279A2F9A8091C00082608093E8
:10E73000C00080E18093C40088E18093C1000000A4
:10E74000EE24FF24870144E0A42EB12CCC24DD2448
:10E7500024C0C5010197F1F70894E11CF11C011DCB
:10E76000111D21E2E2162EE4F20620E0020720E06D
:10E77000120718F031E0C32ED12CC801B70127ECE5
:10E780003BE140E050E00F9441FE611571058105C9
:10E79000910519F485B1805885B98091C00087FD35
:10E7A00003C0C114D104A9F2A6014F5F5F4FC25E3E
:10E7B000DE4F59834883CE51D140C25EDE4F8881FF
:10E7C0009981CE51D140019711F00D9410FEC05D9A
:10E7D000DE4F19821882C053D14060E0C15DDE4F28
:10E7E0001882CF52D14088249924C35DDE4F19820C
:10E7F0001882CD52D140C05EDE4F188219821A8233
:10E800001B82C052D140CE5CDE4F188219821A8220
:10E810001B82C253D140EE24FF2487010BBFF701B6
:10E8200007911691C45CDE4F19830883CC53D14005
:10E830000D940BFEC25EDE4F28813981CE51D1404E
:10E840002130310509F52091C600C25EDE4F1982E4
:10E850001882CE51D14022C02F5F3F4F4F4F5F4FA4
:10E86000213082E138078AE7480780E0580780F0C6
:10E87000C45CDE4FE881F981CC53D140EF5FFF4F9C
:10E8800019F0EE27FF27099420E030E040E050E047
:10E890008091C00087FFE0CF2091C600C35DDE4FAE
:10E8A00048815981CD52D1404F5F5F4FC35DDE4FEC
:10E8B00059834883CD52D140213209F063C64A3092
:10E8C000510508F05FC60894811C911C53E0851621
:10E8D000910409F059C600E010E018C081E280936D
:10E8E000C6008091C00086FFFCCF8091C00080648C
:10E8F0008093C0002F5F3F4F2931310579F70F9486
:10E90000DCF10F5F1F4F0530110519F020E030E0FA
:10E91000E5CF10920A0210920B0210920C02109294
:10E920000D02109206021092070210920802109235
:10E930000902109202021092030210920402109235
:10E9400005028FEE90EE60E00F94F5F180E191EE1C
:10E9500060E00F94C2F18091C00087FFFCCF9091DE
:10E96000C600903608F09F759032B8F09093C600BC
:10E970008091C00086FFFCCF8091C00080648093AE
:10E98000C000A0E2A093C6008091C00086FFFCCF2B
:10E990008091C00080648093C000983409F4D7C18E
:10E9A0009934B8F4923409F459C1933458F490333B
:10E9B00019F1903308F4E3C59F33A1F1903409F0C5
:10E9C000DEC5BDC0953409F470C1963409F0D7C5D1
:10E9D00098C1923509F42BC2933538F49C3409F46C
:10E9E000F5C1913509F0CBC518C2963509F445C279
:10E9F000993509F0C4C567C483E792EE62E00F94CD
:10EA0000F5F110920602109207021092080210927D
:10EA1000090210920A0210920B0210920C0210923C
:10EA20000D0213C18FE792EE62E00F94F5F18FEEC5
:10EA300090EE60E00F94F5F181E291EE60E00F94CA
:10EA4000C2F187EB91EE60E00F94F5F180E391EE77
:10EA500060E00F94C2F184EE90EE60E00F94F5F167
:10EA60008FE391EE60E00F94C2F186E090E061E008
:10EA700070E00F9434F20F94DCF18DE591EE60E0DC
:10EA80000F94C2F189EC91EE60E00F94F5F18EE401
:10EA900091EE60E00F94C2F183EC91EE60E00F9490
:10EAA000F5F18CE691EE60E00F94C2F18EE10F94E7
:10EAB0000DF288E90F940DF281E00F940DF20F949E
:10EAC000DCF18BE791EE60E00F94C2F119E0E0E039
:10EAD000F0E010935700E4918E2F0F940DF20F94F5
:10EAE000DCF18AE891EE60E00F94C2F1E3E0F0E03F
:10EAF00010935700E4918E2F0F940DF20F94DCF1D8
:10EB000089E991EE60E00F94C2F1E2E0F0E0109349
:10EB10005700E4918E2F0F940DF20F94DCF188EAE8
:10EB200091EE60E00F94C2F1E1E0F0E01093570045
:10EB30001491812F0F940DF20F94DCF107CF8BE825
:10EB400092EE62E00F94F5F18BE492EE60E00F94A8
:10EB5000F5F10F94DCF100E010E019C0C8016F2D51
:10EB60000F947FFEFF2031F489E492EE60E00F9471
:10EB7000C2F10BC0F092C6008091C00086FFFCCFAE
:10EB80008091C00080648093C0000F5F1F4FC80158
:10EB900081519F41A0E0B0E0ABBFFC01F790BAE229
:10EBA000FB1621F0E2E000301E07C1F60F94DCF105
:10EBB0000F94DCF187E592EE60E00F94F5F10F948D
:10EBC000DCF1CC24DD2400E010E01EC0C8010F946D
:10EBD00077FEF82E882331F489E492EE60E00F94FA
:10EBE000C2F10BC08093C6008091C00086FFFCCFAD
:10EBF0008091C00080648093C000FE1419F00894D6
:10EC0000C11CD11C0F5F1F4FC80181519F41A0E063
:10EC1000B0E0ABBFFC01E790FAE2EF1621F022E092
:10EC20000030120799F60F94DCF10F94DCF182E6C4
:10EC300092EE60E00F94C2F1C60161E070E00F94C3
:10EC400034F20F94DCF10F94DCF110920202109276
:10EC50000302109204021092050278CE89E992EE26
:10EC600062E00F94F5F1279A2F9A16C02F9880E052
:10EC700090E0E0EDF7E03197F1F7019684369105E9
:10EC8000C1F72F9A80E090E0E0EDF7E03197F1F7DF
:10EC9000019684369105C1F78091C00087FFE6CFC9
:10ECA0008091C00087FFFCCF64C485EA92EE62E0E9
:10ECB0000F94F5F140910202509103026091040219
:10ECC0007091050281E020E10F9491F2809102029F
:10ECD00090910302A0910402B091050280509F4FD1
:10ECE000AF4FBF4F8093020290930302A0930402A0
:10ECF000B093050280509041A040B04008F426CE69
:10ED0000A4CF83EB92EE62E00F94F5F140910602FE
:10ED100050910702609108027091090280E020E1A1
:10ED20000F9491F28091060290910702A09108023F
:10ED3000B091090280509F4FAF4FBF4F80930602A2
:10ED400090930702A0930802B0930902FFCD80ECD4
:10ED500092EE62E00F94F5F183E792EE60E00F949B
:10ED6000F5F18FE792EE60E00F94F5F18BE892EE0B
:10ED700060E00F94F5F189E992EE60E00F94F5F10F
:10ED800085EA92EE60E00F94F5F183EB92EE60E09D
:10ED90000F94F5F180EC92EE60E00F94F5F187ECC2
:10EDA00092EE60E00F94F5F188ED92EE60E00F9442
:10EDB000F5F18FED92EE60E00F94F5F18AEE92EEB0
:10EDC00060E00F94F5F183E093EEBDCD87EC92EE19
:10EDD00062E00F94F5F181E40F947BF282E40F94EA
:10EDE0007BF283E40F947BF284E40F947BF285E45E
:10EDF0000F947BF286E40F947BF287E40F947BF20E
:10EE000088E40F947BF28AE40F947BF28BE40F94F6
:10EE10007BF28CE40F947BF299CD88ED92EE62E068
:10EE20000F94F5F1772473948824992409C48FED05
:10EE300092EE62E00F94F5F140910A0250910B02BC
:10EE400060910C0270910D0282E020E10F9491F22A
:10EE500080910A0290910B02A0910C02B0910D02D8
:10EE600080509F4FAF4FBF4F80930A0290930B0289
:10EE7000A0930C02B0930D0269CD8AEE92EE62E08F
:10EE80000F94F5F184EE90EE60E00F94F5F18FECC5
:10EE900091EE60E00F94F5F1662477244301CC5D98
:10EEA000DE4F19821882C452D140D401C301B695F5
:10EEB000A79597958795CA5DDE4F88839983AA8326
:10EEC000BB83C652D140CC5DDE4FA881B981C4520C
:10EED000D1401196CC5DDE4FB983A883C452D14096
:10EEE000CD0162E070E00F9434F2B0E2B093C6005E
:10EEF0008091C00086FFFCCF8091C0008064809329
:10EF0000C000EDE2E093C6008091C00086FFFCCF18
:10EF10008091C00080648093C000F0E2F093C6004E
:10EF20008091C00086FFFCCF8091C00080648093F8
:10EF3000C000CA5DDE4FE880F9800A811B81C6529D
:10EF4000D140BB27A12F902F8F2D0F940DF2CA5DBA
:10EF5000DE4F8881C652D1400F940DF2B0E2FB2EF5
:10EF6000F092C6008091C00086FFFCCF8091C00067
:10EF700080648093C0000DE30093C6008091C000C0
:10EF800086FFFCCF8091C00080648093C00010E2B7
:10EF90001093C6008091C00086FFFCCF8091C00016
:10EFA00080648093C0008BBEF3012791C65DDE4F65
:10EFB0002883CA52D140A22EBB24CC24DD2408943D
:10EFC000611C711C811C911C8BBEF3018791282E42
:10EFD0003324442455240894611C711C811C911C09
:10EFE0008BBEF3013791C55DDE4F3883CB52D140E4
:10EFF0000894611C711C811C911C8BBEF30147910C
:10F00000C45DDE4F4883CC52D140ADEFEA2EAFEF66
:10F01000FA2EAFEF0A2FAFEF1A2F6E0C7F1C801E57
:10F02000911E142D032DF22CEE24EA0CFB1C0C1D5A
:10F030001D1D0F940DF220E22093C6008091C000A8
:10F0400086FFFCCF8091C00080648093C000C65DC5
:10F05000DE4F8881CA52D1400F940DF230E23093D6
:10F06000C6008091C00086FFFCCF8091C000806404
:10F070008093C000C45DDE4F8881CC52D1400F9494
:10F080000DF240E24093C6008091C00086FFFCCFA5
:10F090008091C00080648093C000C55DDE4F888190
:10F0A000CB52D1400F940DF250E25093C6008091A4
:10F0B000C00086FFFCCF8091C00080648093C000B8
:10F0C0008FEFE8168FEFF80680E0080780E018075A
:10F0D00031F484E092EE60E00F94C2F1DFC0D80119
:10F0E000C7018070907CA070B0708050904CA040A0
:10F0F000B040D1F52FEF3FE340E050E0E222F322B1
:10F1000004231523CA5DDE4FA880B980CA80DB8046
:10F11000C652D140AE0CBF1CC01ED11EAA0CBB1CD7
:10F12000CC1CDD1C8EE092EE60E00F94C2F1BB2798
:10F13000A12F902F8F2D0F940DF28E2D0F940DF285
:10F1400030E23093C6008091C00086FFFCCF8091F2
:10F15000C00080648093C0004EE34093C60080915D
:10F16000C00086FFFCCF87C08EE09EEFA0E0B0E03D
:10F17000E822F9220A231B239CE0E91694E9F90608
:10F1800090E0090790E0190709F088C0C45DDE4FE0
:10F19000A881CC52D140EA2EFF2400E010E0102FCD
:10F1A0000F2DFE2CEE24C55DDE4FB881CB52D14031
:10F1B000EB0EF11C011D111DD601C501817090706F
:10F1C000A070B070DC0199278827E80EF91E0A1F8D
:10F1D0001B1F20EF30E040E050E0A222B322C42207
:10F1E000D52241E1AA0CBB1CCC1CDD1C4A95D1F7F1
:10F1F000EA0CFB1C0C1D1D1D81E090E0A0E0B0E0BE
:10F20000282239224A225B2235E1220C331C441C7D
:10F21000551C3A95D1F7E20CF31C041D151D57013E
:10F220006801AA0CBB1CCC1CDD1C85E192EE60E0E1
:10F230000F94C2F1C801AA27BB270F940DF2BB2778
:10F24000A12F902F8F2D0F940DF28E2D0F940DF274
:10F2500090E29093C6008091C00086FFFCCF809121
:10F26000C00080648093C000AEE3A093C60080918C
:10F27000C00086FFFCCF8091C00080648093C000F6
:10F28000C601AA27BB270F940DF2BB27AD2D9C2DDD
:10F290008B2D0F940DF28A2D0F940DF20F94DCF14B
:10F2A000CC5DDE4FE881F981C452D140F99709F471
:10F2B0004DCBF4E0EF2EF12C012D112D6E0C7F1CA7
:10F2C000801E911EF2CD83E093EE62E00F94F5F183
:10F2D0008AE192EE60E00F94C2F18091C00087FF56
:10F2E000FCCF1091C6001F751093C6008091C0001E
:10F2F00086FFFCCF8091C00080648093C0000F9493
:10F30000DCF1812F81548A3108F036C1163409F4BA
