:10000000A9C10000D8C10000D6C10000D4C10000C1
:10001000D2C10000D0C10000CEC10000CCC10000A0
:10002000CAC100000C94890B0C94890B0C94890BA9
:10003000C2C10000C0C10000BEC10000BCC10000C0
:10004000BAC10000B8C10000B6C10000B4C10000D0
:10005000B2C10000B0C10000AEC100000C943F0B63
:10006000AAC10000A6C20000A5C30000A4C10000F0
:10007000A2C10000A0C100009EC100009CC1000000
:100080009AC1000098C1000096C1000094C1000010
:1000900067C2000066C300008EC100008CC1000072
:1000A0008AC1000088C1000086C1000084C1000030
:1000B00082C1000080C100007EC100007CC1000040
:1000C0007AC1000078C1000076C1000020C20000A3
:1000D0001FC3000070C100000C949D0C0C94730CA5
:1000E0006AC100008504880477047B048104BF048E
:1000F0008C04900496049A049E04A404A804AC04FE
:10010000BF04B204B604BA04B10EB10EB10EB10E02
:10011000AE0EAE0EB50EB50EB50EB50EB50EB50ED5
:10012000B50EB50EAE0EAE0EB50EB50EB50EB50EC5
:10013000B50EB30EB10E00407A10F35A00A0724E05
:1001400018090010A5D4E80000E87648170000E47C
:100150000B54020000CA9A3B000000E1F5050000C4
:1001600080969800000040420F000000A086010029
:100170000000102700000000E803000000006400F9
:10018000000000000A000000000001000000000064
:100190002C76D888DC674F0823DFC1DFAE59E1B188
:1001A000B796E5E3E453C63AE651997696E8E6C297
:1001B0008426EB898C9B62ED407C6FFCEFBC9C9F9E
:1001C00040F2BAA56FA5F490055A2AF75C936B6CC0
:1001D000F9676DC11BFCE0E40D47FEF520E6B500B4
:1001E000D0ED902E0300943577050080841E080022
:1001F00000204E0A000000C80C333333330F986ED2
:1002000012831141EF8D2114893BE65516CFFEE68E
:10021000DB18D1844B381BF77C1D901DA4BBE42454
:10022000203284725E228100C9F124ECA1E53D27D1
:1002300000002100240027002A002D003000330098
:1002400001010000040107010A010000220025004D
:1002500028002B002E0031003400020100000501AF
:1002600008010B01000020002300260029002C00BB
:100270002F003200000100000301060109010505FD
:100280000505070508080808020202020A0A08080C
:10029000040404040101010101010101030303033A
:1002A00003030303040707070C0C0C0C0C0C0C0CC9
:1002B0000202020206060606060606060B0B0B0BDA
:1002C0000B0B0B0B010210202008081020401020FF
:1002D000408002010201080402010102040810200A
:1002E0004080804020100804020180040201804008
:1002F0002010080402010804020101020408102071
:100300004080010204081020408000000A0B02090E
:100310000C0D0E080703040100000000000000009F
:1003200000000000000000000000000000000000CD
:10033000000000000000121110000000000000008A
:1003400000000000000000000000000000000000AD
:100350009216AB1211241FBECFEFD1E2DEBFCDBF8C
:1003600000E00CBF12E0A0E0B2E0E2EEFBE300E050
:100370000BBF02C007900D92AA3EB107D9F729E042
:10038000AAEEB2E001C01D92A137B207E1F711E079
:10039000C9EAD1E000E006C021970109802FFE01E3
:1003A0000E94901BC83AD10780E00807A9F70E9475
:1003B000B1120C94E01D24CEFC01538D448D252FE9
:1003C00030E0842F90E0821B930B541710F0CF96EF
:1003D000089501970895FC01918D828D981761F021
:1003E000828DDF01A80FB11D5D968C91928D9F5F6C
:1003F0009F73928F90E008958FEF9FEF0895FC0117
:10040000918D828D981731F0828DE80FF11D858DC9
:1004100090E008958FEF9FEF0895FC01918D228D5C
:10042000892F90E0805C9F4F821B91098F739927E1
:10043000089580EB95E0F1DF21E0892B09F420E0BD
:10044000822F08958DE496E0E8DF21E0892B09F4FE
:1004500020E0822F08958AEE96E0DFDF21E0892BED
:1004600009F420E0822F089580E090E0892B19F0B4
:10047000F2DF811117C080E090E0892B19F0E2DFF4
:10048000811113C080E090E0892B19F0D2DF811137
:100490000FC080E090E0892B81F00E94690C8111EF
:1004A0000AC008950E940000E6CF0E940000EACF33
:1004B0000E940000EECF0C94000008958EBD000055
:1004C0000DB407FEFDCF8EB508958FEFF7CF0895D9
:1004D000089580E090E008950E94BD1DFC01A08970
:1004E000B1898C91A689B78982FD0FC09C91818DBD
:1004F0008F5F8F73228D821749F0218DDF01A20F4C
:10050000B11D5D969C93818F08958C9108951F92E3
:100510000F920FB60F9211240BB60F922F933F93A9
:100520004F935F936F937F938F939F93AF93BF93FB
:10053000EF93FF9380EB95E0D1DFFF91EF91BF91B7
:10054000AF919F918F917F916F915F914F913F916B
:100550002F910F900BBE0F900FBE0F901F9018950C
:100560001F920F920FB60F9211240BB60F922F937A
:100570003F934F935F936F937F938F939F93AF932B
:10058000BF93EF93FF938DE496E0A8DFFF91EF9187
:10059000BF91AF919F918F917F916F915F914F919B
:1005A0003F912F910F900BBE0F900FBE0F901F9099
:1005B00018951F920F920FB60F9211240BB60F923F
:1005C0002F933F934F935F936F937F938F939F935B
:1005D000AF93BF93EF93FF938AEE96E07FDFFF9197
:1005E000EF91BF91AF919F918F917F916F915F91AB
:1005F0004F913F912F910F900BBE0F900FBE0F9018
:100600001F901895CF92DF92EF92FF921F93CF9396
:10061000DF93EC016A017B01122FE889F98982E0FE
:1006200080834115514E61057105B1F060E079E0BC
:100630008DE390E0A70196010E944F1BDA01C901EA
:100640000197A109B109B695A79597958795AC0132
:10065000411580E15807A8F0E889F989108260E81F
:1006600074E88EE190E0A70196010E944F1BBA0149
:10067000A90141505109610971097695679557950E
:100680004795EC85FD855083EE85FF854083188E68
:10069000EC89FD891083EA89FB89808180618083F0
:1006A000EA89FB89808188608083EA89FB8980816F
:1006B00080688083EA89FB8980818F7D8083DF91D8
:1006C000CF911F91FF90EF90DF90CF900895FC01A4
:1006D000848DDF01A80FB11DA35ABF4F2C91848DCB
:1006E00090E001968F739927848FA689B7892C9300
:1006F000A089B1898C9180648C93938D848D98139B
:1007000006C00288F389E02D80818F7D8083089563
:100710001F920F920FB60F9211240BB60F922F93C8
:100720003F934F935F936F937F938F939F93AF9379
:10073000BF93EF93FF9380EB95E0C9DFFF91EF91BB
:10074000BF91AF919F918F917F916F915F914F91E9
:100750003F912F910F900BBE0F900FBE0F901F90E7
:1007600018951F920F920FB60F9211240BB60F928D
:100770002F933F934F935F936F937F938F939F93A9
:10078000AF93BF93EF93FF938DE496E0A0DFFF91CB
:10079000EF91BF91AF919F918F917F916F915F91F9
:1007A0004F913F912F910F900BBE0F900FBE0F9066
:1007B0001F9018951F920F920FB60F9211240BB62F
:1007C0000F922F933F934F935F936F937F938F93EA
:1007D0009F93AF93BF93EF93FF938AEE96E077DFFB
:1007E000FF91EF91BF91AF919F918F917F916F9109
:1007F0005F914F913F912F910F900BBE0F900FBEC5
:100800000F901F901895EF92FF920F931F93CF9325
:10081000DF93EC0181E0888F9B8D8C8D981305C050
:10082000E889F989808185FD23C0F62E0B8D10E0C3
:100830000F5F1F4F0F731127E02E8C8DE8120BC036
:100840000FB607FCFACFE889F989808185FFF5CFDB
:10085000CE013DDFF2CF8B8DFE01E80FF11DE35A93
:10086000FF4FF0820B8FEA89FB898081806207C08D
:10087000EE89FF896083E889F989808180648083BB
:1008800081E090E0DF91CF911F910F91FF90EF9069
:100890000895CF93DF93EC01888D8823C1F0EA8916
:1008A000FB89808185FD05C0A889B9898C9186FD69
:1008B0000EC00FB607FCF5CF808185FFF2CFA88967
:1008C000B9898C9185FFEDCFCE0101DFE8CFDF91B3
:1008D000CF91089590E0FC013197E231F10508F0E5
:1008E0004EC08827EE58FF4F8F4F0C94901B80917D
:1008F00080008F7703C0809180008F7D809380007F
:10090000089580918000877FF9CF84B58F7702C0EA
:1009100084B58F7D84BD08958091B0008F7703C02A
:100920008091B0008F7D8093B000089580919000F9
:100930008F7707C0809190008F7D03C080919000D9
:10094000877F8093900008958091A0008F7707C0E3
:100950008091A0008F7D03C08091A000877F80934D
:10096000A0000895809120018F7707C08091200119
:100970008F7D03C080912001877F8093200108959F
:100980001F93CF93DF93282F30E0F901E65FFC4FF0
:100990008491F901EC53FD4FD491F901E258FD4FD8
:1009A000C491CC23C1F0162F811194DFEC2FF0E01D
:1009B000EE0FFF1FE65BFD4FA591B4918FB7F89442
:1009C000111105C09C91ED2FE095E92302C0EC9137
:1009D000ED2BEC938FBFDF91CF911F91089561E0D4
:1009E000FC018481CDDF8091EA0281111092EA023C
:1009F0000895CF93DF93EC018E81882379F08F8166
:100A000098859C012F5F3F4F38872F83823092401B
:100A100010F45BDDF4CFCE01E2DF1E82DF91CF91D7
:100A2000089560E088E2ACDF60E088E2A9CF61E091
:100A300088E2A6DF61E088E2A3CFCF93DF9390E066
:100A4000FC01EC53FD4F2491FC01E258FD4F8491D1
:100A5000882361F190E0880F991FFC01E05DFD4F54
:100A6000C591D491FC01E65BFD4FA591B491611154
:100A700009C09FB7F8948881209582238883EC91E0
:100A80002E230BC0623061F49FB7F8943881822F17
:100A9000809583238883EC912E2B2C939FBF06C0D7
:100AA0008FB7F894E8812E2B28838FBFDF91CF91E9
:100AB00008953FB7F8948091F9049091FA04A091B9
:100AC000FB04B091FC0426B5A89B05C02F3F19F08C
:100AD0000196A11DB11D3FBFBA2FA92F982F8827BE
:100AE000820F911DA11DB11DBC01CD0142E0660F19
:100AF000771F881F991F4A95D1F708952FB7F8944B
:100B00006091F5047091F6048091F7049091F804D7
:100B10002FBF08950F931F93CF93DF93EB01EEDF69
:100B20008B01D3DC8F3F41F0E9DF601B710B6C1749
:100B30007D07B8F380E001C081E0DF91CF911F9184
:100B40000F910895CF92DF92FF920F931F93CF934F
:100B5000DF9300D01F92CDB7DEB76C01F62E29834C
:100B60003A834B835C8345DF8091EA0229813A8195
:100B70004B815C81811109C081E08093EA029091F0
:100B80008707809188079CBD8DBD60E0F601848158
:100B900029833A834B835C83F3DE6CE271E0C60108
:100BA000B9DF8F2D80648ADC08E110E05C814B8125
:100BB0003A812981DA01C901002E04C0B695A795B2
:100BC000979587950A94D2F729833A834B835C8360
:100BD00075DC0850110929813A814B815C81083FFD
:100BE000FFEF1F0739F7FF2029F088E0F81204C053
:100BF00087E803C085E901C08FEF60DC10E065DCA9
:100C0000F601828787FF04C01F3F11F01F5FF7CFF7
:100C10000F900F900F900F90DF91CF911F910F9138
:100C2000FF90DF90CF900895EF92FF920F931F9364
:100C3000CF93DF93EC0179014115510561057105F1
:100C400011F482E134C08B85833039F089E0440FA0
:100C5000551F661F771F8A95D1F79A01AB0168E18E
:100C6000CE0170DF882311F084E021C08EEF26DCF6
:100C700087018EEFF81AF80181918F011FDC0E15A4
:100C80001F05C9F78FEF1ADC8FEF18DC1EDC8A878F
:100C90008F71853029F081E18D83CE01A0DE08C0FF
:100CA00068E572E0CE0136DF811106C085E18D83F3
:100CB000CE0195DE80E010C020E030E0A9016DE0BB
:100CC000CE0140DF811103C000DC882311F084E1F4
:100CD000EECFCE0184DE81E0DF91CF911F910F91A5
:100CE000FF90EF900895CF93DF938091ED028823DA
:100CF00089F1C091EB02D091EC0240910002509139
:100D00000102609102027091030222EF32E0CE01F3
:100D10008BDF811102C080E01EC04091EE02509135
:100D2000EF026091F0027091F102411551056105E9
:100D3000710571F022EF32E0CE0176DF882359F39E
:100D40001092EE021092EF021092F0021092F10255
:100D50001092ED0281E0DF91CF910895BF92CF9282
:100D6000DF92EF92FF920F931F93CF93DF936B016C
:100D70007C01B42E8091000290910102A0910202A8
:100D8000B09103028C159D05AE05BF0509F46DC039
:100D9000AADF882309F470C0C091EB02D091EC0265
:100DA0008E81882369F088819981AA81BB81C816C8
:100DB000D906EA06FB0621F48F819885892B89F1F3
:100DC000C882D982EA82FB828B85A7019601833093
:100DD00039F089E0220F331F441F551F8A95D1F740
:100DE00061E1CE01AFDE882319F083E08D8331C04D
:100DF00085DE8B016ADB8A878F3F41F47FDE601BD3
:100E0000710B6D327140B0F38FE003C08E3F29F05B
:100E10008DE08D83CE01E3DD1CC018861F8281E04A
:100E20008E8302EF12E051DBF80181938F01F4E031
:100E3000023F1F07C1F78F8198859E5F98878F8338
:100E40002985222319F08115924038F0CE01D1DD99
:100E500004C0CE01C4DD80E00FC0C0920002D09279
:100E60000102E0920202F09203028091ED02482F0B
:100E70004B294093ED0281E0DF91CF911F910F91BB
:100E8000FF90EF90DF90CF90BF9008954F925F92C8
:100E90006F927F928F929F92AF92BF92CF92DF928A
:100EA000EF92FF920F931F93CF93DF93EC016A01B0
:100EB0007B0128013901423051056105710510F4AB
:100EC00080E072C089859A85AB85BC850196A11D9D
:100ED000B11D84179507A607B70790F38B889C88E8
:100EE000AD88BE888F89803129F4BB27AF2D9E2D18
:100EF0008D2D09C0DB01CA0147E0B695A7959795EE
:100F000087954A95D1F7880E991EAA1EBB1E80911F
:100F1000000290910102A0910202B0910302881692
:100F20009906AA06BB0679F48F89803199F4DD24ED
:100F3000EE24FF24C601880F991FFC01EE50FD4FDF
:100F40005182408218C040E0C501B40107DF811121
:100F5000EBCFB6CFE894C7F8DD24EE24FF24C6011A
:100F6000880F991F880F991FFC01EE50FD4F40829A
:100F70005182628273828091ED0281608093ED02E2
:100F80008A89823080F08D819E81AF81B885880EFC
:100F9000991EAA1EBB1E8092EE029092EF02A092B2
:100FA000F002B092F10281E0DF91CF911F910F9199
:100FB000FF90EF90DF90CF90BF90AF909F908F9079
:100FC0007F906F905F904F9008958F929F92AF9215
:100FD000BF92CF92DF92EF92FF920F931F93CF9326
:100FE000DF93FC0181859285A385B4850196A11DBF
:100FF000B11D84179507A607B70710F480E05BC002
:1010000083899489A589B689C789C03129F4852E39
:10101000962EA72EBB2409C04A015B01C7E0B694F7
:10102000A79497948794CA95D1F7E9016A017B0147
:101030008F01BC01CD01680D791D8A1D9B1D80901B
:10104000000290900102A0900202B0900302681585
:1010500079058A059B0599F4F80187898031A1F407
:10106000B701A601552766277727440F551FFA01B8
:10107000EE50FD4F80819181A0E0B0E017C040E0CC
:101080006DDE8111E9CFBACFB701A6014F775527A1
:1010900066277727440F551F440F551FFA01EE505E
:1010A000FD4F80819181A281B381BF708883998334
:1010B000AA83BB8381E0DF91CF911F910F91FF90B5
:1010C000EF90DF90CF90BF90AF909F908F9008955A
:1010D0003F924F925F926F927F928F929F92AF92C8
:1010E000BF92CF92DF92EF92FF920F931F93CF9315
:1010F000DF93CDB7DEB72C970FB6F894DEBF0FBEE7
:10110000CDBF5C01DC015B968D909C905C97169640
:10111000CD90DD90ED90FC901997C114D104E104BD
:10112000F10439F0BFEFCB1ADB0AEB0AFB0A312CD2
:1011300007C0F401C080D180E280F380332433946F
:10114000F40181859285A385B4859C01AD012F5F53
:101150003F4F4F4F5F4F29873A874B875C87260168
:1011600037011D821E821F821886F40181859285B7
:10117000A385B4852D813E814F8158852817390775
:101180004A075B0708F060C089859A85AB85BC85F6
:101190008C159D05AE05BF0550F482E0C82ED12CFC
:1011A000E12CF12C92E0492E512C612C712C9E01E6
:1011B0002F5F3F4FB701A601C40107DF882309F461
:1011C00043C089819A81AB81BC81892B8A2B8B2B6F
:1011D00041F0260137019FEF491A590A690A790A35
:1011E00005C0C414D504E604F70491F02D813E81B6
:1011F0004F8158852F5F3F4F4F4F5F4F2D833E8369
:101200004F8358873FEFC31AD30AE30AF30AADCFDF
:101210000FEF1FEF2FEF3FE0B301A201C40136DE55
:10122000882391F0D50116964D915D916D917C9139
:101230001997411551056105710541F0930182012E
:10124000C40124DE811102C080E02AC0D5011696B7
:101250004D925D926D927C921997332051F0D3019B
:10126000C2010196A11DB11DF40180839183A28367
:10127000B383F5018789908DA18DB28D892B8A2B3F
:101280008B2B69F4D50157964D925D926D927C92AD
:101290005A9714968C911497806814968C9381E0D9
:1012A0002C960FB6F894DEBF0FBECDBFDF91CF9165
:1012B0001F910F91FF90EF90DF90CF90BF90AF9074
:1012C0009F908F907F906F905F904F903F90089588
:1012D0004F925F926F927F928F929F92AF92BF9246
:1012E000EF92FF920F931F93CF93DF9300D01F9243
:1012F0001F92CDB7DEB78C016D83DC0115968C9102
:101300001597813009F056C014968C9181FF52C018
:1013100059C0038CF48DE02D258530E0275F3F4FC9
:101320002A013B01B1E04B1A510861087108022EF5
:1013300004C076946794579447940A94D2F7D501E1
:10134000C4010197A109B10904C0B695A795979565
:1013500087952A95D2F784159505A605B70508F057
:101360006FC0F8014789508D618D728D4683578318
:10137000608771872C013D017801E6E0EE0EF11CDB
:10138000D801411451046104710409F463C0169634
:101390004D915D916D917C91199797015B968D911F
:1013A0009C915C9712DEB1E04B1A510861087108FC
:1013B0008111E6CF81E090E0F8019383828380E0A1
:1013C00090E049C182FF0EC0F801428553856485D3
:1013D000758583889488A588B688481559056A0557
:1013E0007B05F1F4D8011A964D915D916D917C9138
:1013F0001D975B968D919C915C97FC0174807A940B
:101400004A015B0129E0B694A794979487942A95A2
:10141000D1F778207A01F1E0FF22772011F162C044
:1014200081149104A104B10409F073CF16821782CC
:1014300010861186F8011286138614861586D2CF7F
:10144000452B462B472B09F48CCF84199509A60907
:10145000B70990CF1A968D929D92AD92BC921D972E
:10146000C1CFE114F10409F03DC0F8014681578174
:1014700060857185411551056105710549F48789BC
:10148000908DA18DB28D0097A105B10531F520C0D9
:101490009E012F5F3F4F99DD882309F490CF89810A
:1014A0009A81AB81BC81F801238D348DF9012789A4
:1014B000203129F048EF5FEF6FEF7FE004C048EF85
:1014C0005FEF60E070E084179507A607B70728F084
:1014D000C801FEDD811106C06DCFF80186839783B8
:1014E000A087B187D8015B96ED91FC915C97169629
:1014F0008D909D90AD90BC901997B2E08B1A910899
:10150000A108B108058404C0880C991CAA1CBB1C46
:101510000A94D2F786859785A089B189880E991E8D
:10152000AA1EBB1E870C911CA11CB11CE114F10466
:1015300001F5F80142855385648575858389948911
:10154000A589B689481759076A077B0790F0CBDB56
:10155000882309F42FCF8092000290920102A0927A
:101560000202B09203028091ED0281608093ED024D
:1015700007C041E0C501B401F1DB882309F41ACFAB
:10158000F701EE50FD4F8D818083F80182859385B0
:10159000A485B5850196A11DB11D82879387A48777
:1015A000B5874389548965897689481759076A0739
:1015B0007B0738F4838B948BA58BB68B84818068F2
:1015C0008483D80114968C9183FD03C081E090E060
:1015D00042C0F8019581992309F4ECCE87FF37C00A
:1015E000668577858089918941E0B8DB882309F495
:1015F000E1CED8015296EC91B0E2EB9F900111241C
:10160000D901AE50BD4F109709F4D4CEF8018581B1
:10161000823050F443895489658976895C964D936C
:101620005D936D937C935F97F8018789908DA18D71
:10163000B28DF901EE50FD4F938F828FB58BA48B45
:10164000D80114968C9114978F7714968C934BDB5A
:101650008111BCCFAFCE0F900F900F900F900F90D5
:10166000DF91CF911F910F91FF90EF90BF90AF90BE
:101670009F908F907F906F905F904F9008951F92F2
:101680000F920FB60F9211242F933F938F939F9336
:10169000AF93BF938091F5049091F604A091F70465
:1016A000B091F8043091F40423E0230F2D3720F497
:1016B0000196A11DB11D05C026E8230F0296A11DAC
:1016C000B11D2093F4048093F5049093F604A09345
:1016D000F704B093F8048091F9049091FA04A09172
:1016E000FB04B091FC040196A11DB11D8093F90487
:1016F0009093FA04A093FB04B093FC04BF91AF91C4
:101700009F918F913F912F910F900FBE0F901F903F
:1017100018951F920F920FB60F9211240F900FBEC3
:101720000F901F901895CF93DF93EC0183E195E024
:101730000E940D02892B29F083E195E00E94EB01C4
:10174000F5CFBE0183E195E0DFD66FEF83E195E051
:101750005AD86FEF83E195E056D86FEF83E195E0BB
:10176000DF91CF9150C88F929F92AF92BF92EF922C
:10177000FF920F931F93CF93DF93CDB7DEB76097A0
:101780000FB6F894DEBF0FBECDBF7C014A015B01EE
:101790008E010F5F1F4F8AE0F80111928A95E9F7D9
:1017A00069EE72E0CE010B969BD64AE0B801C40107
:1017B0000E94D017F70162817381CE010B9622D669
:1017C0006CE472E0CE010B961DD6B801CE010B96EB
:1017D00019D68B859C85A7DF12D1182FCE010B96C9
:1017E0007AD6812F60960FB6F894DEBF0FBECDBFBC
:1017F000DF91CF911F910F91FF90EF90BF90AF902D
:101800009F908F900895CF93DF9300D01F92CDB714
:10181000DEB719821A821B821C82BE016F5F7F4F66
:101820008FE897E031D189819A81AB81BC8147975C
:10183000A105B10529F488E190E0A0E0B0E004C082
:1018400087E190E0A0E0B0E089839A83AB83BC831A
:1018500049815A816B817C818FE897E084DF0F900A
:101860000F900F900F90DF91CF910895CF93DF935A
:1018700000D01F92CDB7DEB719821A821B821C825C
:10188000BE016F5F7F4F8BE997E0FED089819A811F
:10189000AB81BC814797A105B10529F488E190E0AF
:1018A000A0E0B0E004C087E190E0A0E0B0E0898370
:1018B0009A83AB83BC8349815A816B817C818BE99C
:1018C00097E051DF0F900F900F900F90DF91CF9125
:1018D000089583E195E00E940D0221E0892B09F42F
:1018E00020E0822F08951F920F920FB60F921124BD
:1018F0000BB60F922F933F934F935F936F937F930A
:101900008F939F93AF93BF93EF93FF9383E195E002
:101910000E946703FF91EF91BF91AF919F918F91CB
:101920007F916F915F914F913F912F910F900BBEDF
:101930000F900FBE0F901F9018951F920F920FB629
:101940000F9211240BB60F922F933F934F935F93F7
:101950006F937F938F939F93AF93BF93EF93FF9377
:1019600083E195E00E946E02FF91EF91BF91AF91EC
:101970009F918F917F916F915F914F913F912F91A7
:101980000F900BBE0F900FBE0F901F9018950F93E6
:101990001F93B4D860931B0570931C0580931D059D
:1019A00090931E05E0911305F09114050284F385D0
:1019B000E02D83E195E0199597FF1EC09FD8009117
:1019C0001B0510911C0520911D0530911E05DC01A1
:1019D000CB01801B910BA20BB30B0091170510914B
:1019E00018052091190530911A0580179107A20753
:1019F000B307C0F28FEF9FEF1F910F910895EF9201
:101A0000FF920F931F93CF93DF9300D01F92CDB718
:101A1000DEB719821A821B821C8281E090E0A0E06E
:101A2000B0E08093170590931805A0931905B09323
:101A30001A058E010F5F1F4F7E0185E0E80EF11C35
:101A4000A6DF97FF04C08981813091F407C0F801B7
:101A500081938F01EE15FF0599F7F5CF8A818F3FAE
:101A600039F48B818F3F21F481E09C819F3F09F005
:101A700080E00F900F900F900F90DF91CF911F910A
:101A80000F91FF90EF900895CF92DF92EF92FF9227
:101A90000F931F93CF93DF93CDB7DEB72E970FB67B
:101AA000F894DEBF0FBECDBF7C018B016DED72E0FF
:101AB000CE01099615D5D70112966D917C91139799
:101AC000CE0109969FD462EE72E0CE0109969AD4B7
:101AD00089859A8528DEFE01319688E0DF011D9216
:101AE0008A95E9F70115110511F410E045C081E070
:101AF00090E0A0E0B0E08093170590931805A093C4
:101B00001905B0931A057F01C12CD12C40DF97FD38
:101B1000ECCFF70181937F01FFEFCF1ADF0A88E056
:101B2000C816D10499F789818137F9F68E818F3FE4
:101B3000E1F68F818F3FC9F688858F3FB1F62D8101
:101B40008C8190E0A0E0B0E0DC0199278827B22BDF
:101B50002A81822B4B8150E0542F4427052E000C04
:101B6000660B770B842B952BA62BB72BF801808364
:101B70009183A283B38311E0CE010996ACD4812F67
:101B80002E960FB6F894DEBF0FBECDBFDF91CF917A
:101B90001F910F91FF90EF90DF90CF900895CF931A
:101BA000DF93EC0141E050E060EE72E0FED3811182
:101BB00002C0CE0135D4CE01DF91CF9108958F922E
:101BC0009F92AF92BF92DF92EF92FF920F931F937B
:101BD000CF93DF93CDB7DEB7DA950FB6F894DEBFBB
:101BE0000FBECDBF8091C507898383E08A83809132
:101BF000C6079091C7079B838C838091C8079091FB
:101C0000C9079D838E83CE0101967C01FC018FEF75
:101C10009FEF8701BE2C66E06E0D2191822728E0A0
:101C200030E0AC015695479580FF06C0CA01A1E09F
:101C30008A27A0EA9A2701C0CA012150310989F7F1
:101C40006E13EBCF8F83988719868091C30790918D
:101C5000C407DC01ED91FC910284F385E02D199518
:101C6000019699F7E091D908F091DA08309709F0D8
:101C70001995E8E0BE0E8091C3079091C407D70183
:101C80006D917D01DC01ED91FC910190F081E02DE1
:101C90001995BE10F0CF8091C3079091C407DC0165
:101CA000ED91FC910680F781E02D1995E091DB081C
:101CB000F091DC08309709F019950E947E054B01E0
:101CC0005C0188E0F82EE12C8091C3079091C40755
:101CD000DC01ED91FC910084F185E02D1995892BB3
:101CE000A9F0DD24D394DE0C8091C3079091C40742
:101CF000DC01ED91FC910284F385E02D1995F8014A
:101D0000EE0DF11D8083FA94ED2C07C0E091D70809
:101D1000F091D808309709F01995B5E0EB1225C07D
:101D200099818091C5079813ACC0EA818E2F8F7777
:101D3000833009F0A8C0E7FF04C08B81882351F1EC
:101D400086C08E2F90E0FC013197E731F10568F4F1
:101D50008827EC57FF4F8F4F0C94901BB3E0FB2E5E
:101D600004C0FB8002C0A5E0FA2E0E947E05DC01C3
:101D7000CB0188199909AA09BB09813D9740A105A2
:101D8000B10510F082EE63C0F1109ECFF4E0FE15B5
:101D900008F07BC02FEF3FEFE0E08E2D90E0AC012C
:101DA000425051096E2F70E064177507C4F4D801D2
:101DB000A60FB71F6C91262768E070E0D901B69591
:101DC000A79520FF06C09D01F1E02F27F0EA3F27ED
:101DD00001C09D016150710989F7EF5FE3CFF80100
:101DE000E40FF51F40814213A0C0FE01E80FF91F68
:101DF000808183139AC049C02034E8F4880F991F6A
:101E0000DC01AD53B84FE5E0F0E0EC0FFD1FE80F4B
:101E1000F91F408150E0542F4427E4E0F0E0EC0F3C
:101E2000FD1FE80FF91F8081FA01E82BCF011896FA
:101E30009C938E931797322F2F5F822F90E08617F7
:101E40009707D4F23093D608F0FC53C080E010928C
:101E5000D0081092D2081092D1081092D508D395CC
:101E60000FB6F894DEBF0FBECDBFDF91CF911F91AB
:101E70000F91FF90EF90DF90BF90AF909F908F9069
:101E8000089580EEE4CF81EEE2CF8A81853030F490
:101E9000833030F4813008F03FC0D8CF8731B1F6BD
:101EA0006B8170E0759567952091D60840E0842F8E
:101EB00090E0861797076CF54034C0F49C012E5FC4
:101EC0003F4F220F331F880F991FFC01ED53F84F2E
:101ED000DE01A20FB31F8C9190E0982F8827D801C4
:101EE000A20FB31F2C91822B90878783242F4F5FE3
:101EF000DECF203468F4880F991FFC01ED53F84FB2
:101F0000D801A80FB91F13968C9190E09087878312
:101F10002F5F2093D6089ACFFB806F2D70E07595C8
:101F200067953091D60820E088CF83EE90CFCF938D
:101F3000DF93C3EBD7E061E089810E941D0560E07B
:101F400089810E94C00461E088810E94C00461E030
:101F500089810E94C00460E08981DF91CF910C9457
:101F60001D05CF93DF93C3EBD7E061E089810E9429
:101F70001D0560E088810E94C00461E089810E94A3
:101F8000C00461E088810E94C00460E088810E94F2
:101F9000C00460E08981DF91CF910C941D05FF9210
:101FA0000F931F93CF93DF9360E08091B4070E945B
:101FB0001D05C7E0D0E000E061E08091B3070E941A
:101FC000C0042091B40730E0F901E65FFC4F849132
:101FD000F901EC53FD4FF490F901E258FD4F1491D3
:101FE000112391F081110E946A04E12FF0E0EE0FBD
:101FF000FF1FEC59FD4FA591B491EC91EF2131E019
:1020000009F430E0832F02C080E090E00C2E01C084
:10201000880F0A94EAF7082B60E08091B3070E94CA
:10202000C004219708F0C8CF802FDF91CF911F9176
:102030000F91FF90089560E08091B4070E941D0504
:1020400061E08091B3070E94C0048091B4078111C0
:1020500001C0FFCF60E08091B3070C94C004EF9201
:10206000FF920F931F93CF93DF93E82EF62EC7E0D6
:10207000D0E0042F10E098010C2E02C03595279572
:102080000A94E2F7B901617077278E2D0E94C0048F
:1020900061E08F2D0E94C00460E08F2D0E94C0047B
:1020A000219748F7DF91CF911F910F91FF90EF900B
:1020B00008950F931F93CF93DF931F92CDB7DEB791
:1020C000482F03EB17E061E0F801818149830E940A
:1020D0001D0561E0F80181810E94C00461E0F80102
:1020E00080810E94C00460E0F80181810E94C004E8
:1020F00060E0F80180810E94C0044981F80160819C
:1021000081810F90DF91CF911F910F91A8CFCF9236
:10211000DF92EF92FF920F931F93CF93DF936C01A7
:102120007A018B01C0E0D0E0CE15DF0589F0D8013F
:102130006D918D01D601ED91FC910190F081E02D22
:10214000C6011995892B11F47E0102C02196ECCFAE
:10215000C701DF91CF911F910F91FF90EF90DF901A
:10216000CF9008950F931F93CF93DF931F92CDB716
:10217000DEB7482F03EB17E061E0F8018181498366
:102180000E941D054981F801608181810F90DF91D6
:10219000CF911F910F9163CF0F931F93CF93DF9335
:1021A000EC0188819981009729F02A813B812617CB
:1021B000370788F48B016F5F7F4F0E94D91C00970F
:1021C00061F0998388831B830A832C813D81232BB3
:1021D00011F4FC01108281E001C080E0DF91CF9119
:1021E0001F910F9108950F931F93CF93DF93CDB756
:1021F000DEB728970FB6F894DEBF0FBECDBF80EDD7
:1022000058DF19DF80E0AEDF16DF91DE81ED51DFB0
:1022100012DF00E010E0C3DEF801ED54F84F8283D6
:1022200007301105F9F061E08091B4070E941D05A7
:1022300060E08091B3070E94C00460E08091B40721
:102240000E94C00461E08091B3070E94C00460E076
:102250008091B3070E94C00460E08091B4070E949F
:102260001D0501C07EDE0F5F1F4F0830110599F676
:102270005EDE8091B507482F4695469546954E708F
:10228000942F990F990F490F8F70480F8091B607BF
:10229000382F3695369536953E70932F990F990FB6
:1022A000390F8F70380F8091B707282F2F7087FF55
:1022B00008C085FB992790F97CE0979F200D112499
:1022C00009C08073869586958695982F990F990FEA
:1022D000890F280FE091B8076091B9077091BA078C
:1022E0008091BB07562F5695569556955E70952F43
:1022F000990F990F590F6F70560F672F6695669556
:1023000066956E70962F990F990F690F7F70670F02
:10231000982F92959F708F707AE0979F800D11246F
:1023200090E08053984F9F838E83782F8F819E2FCC
:1023300028960FB6F894DEBF0FBECDBFDF91CF91C8
:102340001F910F9108951F93CF93DF931F92CDB7E5
:10235000DEB7182F80ED6983ACDE6DDE812F02DFE2
:102360006ADE6981862FFEDE66DE0F90DF91CF91F7
:102370001F91DDCD1F93CF93DF931F92CDB7DEB7B3
:10238000182F80ED96DE57DE812FECDE54DECFDD98
:1023900081ED8FDE50DE03DE8983E3DDC8DD8981D8
:1023A0000F90DF91CF911F910895EF92FF920F93BD
:1023B0001F93CF93DF93FC01248135816115710553
:1023C00011F480E018C041155105A1F07B01EC012A
:1023D0008A01020F131FB801DFDE882391F32881E1
:1023E00039818C819D81B701820F931F0E94CA1D84
:1023F0001D830C8381E0DF91CF911F910F91FF909E
:10240000EF9008956115710549F0FB0101900020DE
:10241000E9F73197AF01461B570BC7CF80E008950E
:10242000CF93DF93EC0188819981009711F00E948E
:10243000411C198218821D821C821B821A82DF9124
:10244000CF910895EF92FF920F931F93CF93DF9355
:10245000EC017B018A01BA019FDE811103C0CE012C
:10246000DFDF07C01D830C83B701888199810E943B
:10247000CA1DCE01DF91CF911F910F91FF90EF9078
:102480000895CF93DF93EC016115710551F0FB01C5
:1024900001900020E9F73197AF01461B570BD2DFBF
:1024A00001C0BEDFCE01DF91CF910895CF93DF93BE
:1024B000EC01FB018617970751F06081718161156E
:1024C000710521F044815581BDDF01C0A9DFCE0136
:1024D000DF91CF910895FC01808191810C94411C82
:1024E000FC011182108213821282158214826115FE
:1024F000710549F0FB0101900020E9F73197AF0128
:10250000461B570B9FCF08956115710579F0FB01AC
:1025100001900020E9F73197AF01461B570BDC0112
:10252000ED91FC910280F381E02D199480E090E020
:1025300008950F931F93CF93DF93EC01E5DF8C0198
:1025400067EE72E0CE01E0DF800F911FDF91CF9147
:102550001F910F91089589E897E0BDDF8DEB97E01B
:10256000BACFCF93DF93CDB7DEB7E4970FB6F89429
:10257000DEBF0FBECDBF789484B5826084BD84B5C4
:10258000816084BD85B5826085BD85B5816085BD6E
:1025900080916E00816080936E0010928100809126
:1025A00081008260809381008091810081608093AE
:1025B0008100809180008160809380008091B100D3
:1025C00084608093B1008091B00081608093B000FE
:1025D0008091910082608093910080919100816050
:1025E0008093910080919000816080939000809111
:1025F000A10082608093A1008091A10081608093FE
:10260000A1008091A00081608093A00080912101B1
:10261000826080932101809121018160809321015A
:102620008091200181608093200180917A008460F4
:1026300080937A0080917A00826080937A00809102
:102640007A00816080937A0080917A00806880931C
:102650007A001092C10026E040E855E260E070E0A8
:1026600083E195E00E94020362E572E083E195E078
:1026700060DF26E040E05BE460E070E08DE496E03F
:102680000E94020361E089E20E941D0561E089E287
:102690000E94C00469E672E08DE496E04ADF60E0E3
:1026A00089E20E94C00426E040E855E260E070E064
:1026B0008AEE96E00E94020364E872E08AEE96E0F9
:1026C00038DF26E040E855E260E070E083E195E025
:1026D0000E94020389EE92E026D880EA92E023D895
:1026E0008ED988EA92E01FD88AD987E692E0909343
:1026F000B0078093AF071092B2071092B10786E33C
:102700009CE09093A4078093A3071092A6071092D1
:10271000A50783E09CE09093980780939707109219
:102720009A071092990780E025DE682F6F7780E086
:102730000ADE62E083E007DE62E182E004DE60E060
:1027400081E001DE60E080E0FEDD68E186E0FBDD47
:1027500066E085E0F8DD66E284E0F5DD87E00ADE2C
:10276000682F6C7F87E0EFDD87E004DE682F606113
:1027700087E0E9DD38DD29833A834B835C836D8311
:102780007E838F8398875A3010F480E304C0852FAE
:102790006AE0A7D7805D8093AF023AE0852F632F70
:1027A000A0D7905D9093B0028EE28093B1022D810C
:1027B0002A3010F480E304C0822F632F92D7805D0B
:1027C0008093B2021AE0822F612F8BD7905D909395
:1027D000B3028EE28093B4022E813F81C90168EE7C
:1027E00073E08BD740E3460F4093B502E4E6F0E098
:1027F000BF0183D780E3860F8093B602C901BF0172
:102800007CD7EAE0F0E0BF0178D780E3860F8093C1
:10281000B702C901BF0171D7805D8093B8021092E1
:10282000B9026FEA72E08AEE96E083DEDCDC29838F
:102830003A834B835C836D837E838F8398872A30B2
:1028400010F480E304C0822F612F4BD7805D80930A
:10285000B1023AE0822F632F44D7905D9093B20289
:102860008AE38093B3022A812A3010F480E304C003
:10287000822F632F36D7805D8093B4023AE0822F97
:10288000632F2FD7905D9093B5028AE38093B602B1
:102890002B812A3010F480E304C0822F632F21D7CC
:1028A000805D8093B702822F6AE01BD7905D909382
:1028B000B8021092B90261EB72E08AEE96E039DE5E
:1028C00061E086E10E941D0560E086E10E94C0048F
:1028D00061E088E20E941D05A2E02A2E312C1AE058
:1028E0001093120561E088E20E941D052EE040E091
:1028F0005BE460E070E080EB95E00E9402031093DF
:10290000C50780EB95E09093C4078093C3071092AE
:10291000D0081092D2081092D10827E135E0309308
:10292000DA082093D90841E155E05093DC08409340
:10293000DB0869EE72E0CE018896D2DD8AE090E095
:102940009093C7078093C6073092C9072092C807A3
:1029500036D98091CA079091CB074090CC077091EF
:10296000CD0797FFB8C121E02093FD04E1E0EEA779
:10297000292F30E0A901F3E056954795FA95E1F744
:10298000942F9170A9014074552758AB4FA7890126
:102990000072112727703327215031092430310567
:1029A00060F4220F331F220F331FF901EE5EFD4F3B
:1029B000208131814281538104C020E030E040E831
:1029C0005FE3882E912CA12CB12C512C612C712C01
:1029D00091111EC0D40199278827F72EE12C4701B9
:1029E000FF0CAA08BB08880D991DAA1DBB1DBC01C0
:1029F000CD01640D751D861D971D29AB3AAB4BAB00
:102A00005CAB5ED529A93AA94BA95CA994D51EC097
:102A1000D40199278827D72EC12C4601DD0CAA089E
:102A2000BB08880D991DAA1DBB1DBC01CD01640DFD
:102A3000751D861D971D29AB3AAB4BAB5CAB40D5E2
:102A400029A93AA94BA95CA976D59058EFA5F8A970
:102A5000EF2B19F06AEB72E004C0012B31F060EC4F
:102A600072E0CE0188960DDD35C01BA21AA21DA210
:102A70001CA21FA21EA28E010F5F1F4F23E045E084
:102A800070D2BC01CE018296FCDC1A8219821C82B3
:102A90001B821E821D82BE016E5D7F4FC80106DD56
:102AA000C8017DD88C014091C1075091C207609147
:102AB000BD077091BE0779DC811102C0C801B0DC8E
:102AC000B801CE018896F2DCCE01019604DDCE017C
:102AD000829601DDACA4BDA469EE72E0CE01019640
:102AE000FFDC0CA51DA501151105A9F0A016B10666
:102AF00008F48501E8A5F9A5E00FF11FB080108268
:102B000068A579A5CE010196BCDC88A599A5FC0134
:102B1000E00FF11FB0820D811E810115110519F41E
:102B20001092080510C00930110510F009E010E0FE
:102B300069817A81A80188E095E00E94D11DF801A1
:102B4000E85FFA4F1082CE010196C5DCCE0188966F
:102B5000C2DC69EE72E0CE010196C2DC6091A90789
:102B60007091AA07CE0101964DDC69EC72E0CE01AE
:102B7000019648DC68E075E0CE01019643DC6EEC1E
:102B800072E0CE0101963EDC89819A810E94930B0E
:102B90000E94FF0CCE0101969EDC8091FD048823EB
:102BA00081F048E150E060E070E08FE897E00E943B
:102BB000B30B47E150E060E070E08BE997E00E94E2
:102BC000B30B8091FD04811135C047E150E060E016
:102BD00070E08FE897E00E94B30B48E150E060E0BE
:102BE00070E08BE997E00E94B30B24C00E94590566
:102BF000DC01CB0188199909AA09BB09883E9340D9
:102C0000A105B10558F021E0421A51086108710888
:102C100038EE830E33E0931EA11CB11C4114510405
:102C20006104710419F783E195E00E94EB01182F0C
:102C3000853691F083E195E00E940D021816190681
:102C40000CF046C00E9459054B015C018AE0482EF9
:102C5000512C612C712CCACF83E195E00E940D02AA
:102C6000069744F31093FE040FEF14E083E195E020
:102C70000E94EB01F80181938F01F5E005301F07F9
:102C8000A9F710920505809102058F3F99F6809172
:102C900003058F3F79F6809104058F3F59F64091E7
:102CA000010550E060E070E0809100059091FF0424
:102CB000E4E0F2E0A191B191109709F4BBCF2C911F
:102CC0002913F8CF11962C9111972813F3CF07C031
:102CD0000E94340204CE1092FD041EA649CE41305B
:102CE00051056105710561F41496ED91FC911597FC
:102CF000309709F49FCF16968D919C91179710C02D
:102D0000452B462B472B09F095CF1896ED91FC915A
:102D10001997309709F48ECF1A968D919C911B9735
:102D2000199588CFE3E1F5E01382128248EE53E073
:102D300060E070E0448355836683778386E292E0A7
:102D40009183808325E331E03587248724E331E0D4
:102D50003787268720E331E0318B208B21E331E078
:102D6000338B228B22E331E0358B248B26E331E059
:102D7000378B268B118E128E138E148EE0EBF5E0BE
:102D80001382128244835583668377839183808381
:102D900025ED30E03587248724ED30E0378726871E
:102DA00020ED30E0318B208B21ED30E0338B228B16
:102DB00022ED30E0358B248B26ED30E0378B268BEF
:102DC000118E128E138E148EEDE4F6E013821282B1
:102DD0004483558366837783918380832DEC30E031
:102DE000358724872CEC30E03787268728EC30E0C5
:102DF000318B208B29EC30E0338B228B2AEC30E0B6
:102E0000358B248B2EEC30E0378B268B118E128E77
:102E1000138E148EEAEEF6E01382128244835583F9
:102E2000668377839183808385EC90E095878487A0
:102E300084EC90E09787868780EC90E0918B808B84
:102E400081EC90E0938B828B82EC90E0958B848B6D
:102E500086EC90E0978B868B118E128E138E148EDB
:102E6000E7E8F7E080E580831182E4E2F9E015828B
:102E700016821186138642E050E060E070E04487DD
:102E800055876687778713A215A614A688E392E074
:102E900093A782A717A6E8E1F9E0158216821186AA
:102EA0001386EAEFF8E04083518362837383178AC5
:102EB000EDEDF8E0138212829183808315821092E7
:102EC000D8081092D7081092DA081092D9081092F8
:102ED000DC081092DB0860ED72E08DEB97E000DB20
:102EE000E3EBF7E084E1818385E1808361E00E9488
:102EF0001D05E7EAF7E010828DE0818383ED92E023
:102F0000938382831582148211861086138612861B
:102F100017821682EBE9F7E010828EE1818387ED5C
:102F200092E0938382831582148211861086138621
:102F3000128617821682EFE8F7E0108281E2818321
:102F40008AED92E093838283158214821186108623
:102F5000138612861782168269EE72E089E897E07E
:102F6000BFCAEF920F931F93CF93DF93E80147FD02
:102F700002C034E001C034E1E42F440FFF0BF7FF3F
:102F800003C0F195E195F109E32E022F2E2FAE013A
:102F900020D0CE01DF91CF911F910F91EF90089536
:102FA000BB27FB015527AA27880F991FAA1FA41723
:102FB00010F0A41B83955051B9F7A05DAA3308F017
:102FC000A95DA193009779F7B111B1931192CB014B
:102FD00065C24F925F926F927F929F92AF92BF9223
:102FE000CF92DF92EF92FF920F931F93CF93DF93D5
:102FF000CDB7DEB729970FB6F894DEBF0FBECDBFB1
:103000006A01122FB02E2BE3201720F0FF24F39437
:10301000F00E02C0BCE3FB2E0F2D27E0AE014F5F88
:103020005F4F64D1AC018981982F9970913031F054
:10303000E1FC06C0E0FE06C090E205C09DE203C0D0
:103040009BE201C090E0EE2DE07183FF3CC0911146
:1030500002C083E001C084E0811718F4212F281BEF
:1030600001C020E0E1110BC0F601822F30E288237D
:1030700019F031938150FBCFC20ED11C20E099236F
:1030800029F0D6019C93F60131966F01C601039693
:10309000E2FE0AC03EE4D6013C9341E411964C9313
:1030A000119712963C9306C03EE6F601308341E646
:1030B00041833283FC01322F40E2332309F442C0C2
:1030C00041933150FACF82FF44C0911102C083E096
:1030D00001C084E0811718F4212F281B01C020E0D3
:1030E000E1110BC0F601822F30E2882319F03193F1
:1030F0008150FBCFC20ED11C20E0992329F0D601CC
:103100009C93F60131966F01C6010396E2FE0BC057
:1031100039E4D6013C933EE411963C93119736E492
:1031200012963C9307C039E6F60130833EE63183C0
:1031300036E63283FC01322F40E2332319F041930B
:103140003150FBCFFC01E20FF11D10828EEF9FEF9B
:10315000B7C0F1E0911101C0F0E06F2F70E01416DC
:10316000150624F49A012F5F3F4F02C021E030E0A2
:10317000260F371FBB2029F06B2D70E06F5F7F4F4C
:1031800002C060E070E0260F371F612F70E0261745
:1031900037071CF4121B212F01C020E03E2D38718F
:1031A00059F4D601322F60E2332319F06D93315078
:1031B000FBCFC20ED11C20E0FF2331F0D6019C933F
:1031C000B6016F5F7F4F6B01E1110BC0F601922FCB
:1031D00030E3992319F031939150FBCFC20ED11CEB
:1031E00020E09F2D940F3A81782F7071A72E84FFD5
:1031F00003C0313309F49150191624F4993018F0B2
:1032000098E001C091E0E42F852F57FF02C0E0E075
:1032100080E06E2F782FE0E0F0E0AEE29A2E3A01E7
:10322000691A71082A01461A570A0B2D10E01195E8
:10323000019511096F3F8FEF780729F4D6019C9211
:10324000C60101966C014617570784F0661677068B
:103250006CF47F01E40CF51CA1E0B0E0AC0FBD1FE5
:10326000EA0EFB1ED7011196BC9002C090E3B92E66
:10327000615071093196C60101967C016017710792
:1032800024F0D601BC926C01D5CF6417750741F4C8
:10329000363320F4353321F4A11002C081E3B82E77
:1032A000F601B082F701822F90E2882319F0919302
:1032B0008150FBCFF701E20FF11D108280E090E01A
:1032C00029960FB6F894DEBF0FBECDBFDF91CF9128
:1032D0001F910F91FF90EF90DF90CF90BF90AF9034
:1032E0009F907F906F905F904F900895283008F0E6
:1032F00027E03327DA01990F311D87FD9160009691
:103300006105710539F432602E5F3D9330E32A95F3
:10331000E1F708959F3F30F080387105610509F0AD
:103320003C5F3C5F3D93913008F08068911DDF93D6
:10333000CF931F930F93FF92EF92192F987F96953B
:10334000E92F96959695E90FFF27E057FE4F9927AD
:103350003327EE24FF24A701E70105900894079482
:1033600028F4360FE71EF81E491F511D660F771F00
:10337000881F991F0694A1F70590079428F4E70E7B
:10338000F81E491F561FC11D770F881F991F661F02
:103390000694A1F70590079428F4F80E491F561FCC
:1033A000C71FD11D880F991F661F771F0694A1F7AD
:1033B0000590079420F4490F561FC71FD81F990F77
:1033C000661F771F881F0694A9F7849110951770C0
:1033D00041F0D695C79557954795F794E7941A9578
:1033E000C1F7E6E3F1E06894159015913591659188
:1033F000959105907FE27395E118F10A430B560B06
:10340000C90BD009C0F7E10CF11E431F561FC91F9D
:10341000D01D7EF4703311F48A95E6CFE894015004
:1034200030F0080F0AF40027021708F4202F239524
:10343000022F7A3328F079E37D932A95E9F710C0BB
:103440007D932A9589F606949795679537951795F4
:103450001794E118F10A430B560BC90BD00998F0E9
:1034600023957E9173957A3308F070E37C93201353
:10347000B8F77E9170617D9330F0839571E37D9311
:1034800070E32A95E1F71124EF90FF900F911F91BF
:10349000CF91DF91992787FD90950895DC01FC017C
:1034A000672F71917723E1F7329704C07C916D9378
:1034B00070836291AE17BF07C8F30895E89409C0FE
:1034C00097FB3EF490958095709561957F4F8F4F57
:1034D0009F4F9923A9F0F92F96E9BB279395F6956D
:1034E000879577956795B795F111F8CFFAF4BB0FEB
:1034F00011F460FF1BC06F5F7F4F8F4F9F4F16C04F
:10350000882311F096E911C0772321F09EE8872FD8
:10351000762F05C0662371F096E8862F70E060E094
:103520002AF09A95660F771F881FDAF7880F96950D
:10353000879597F908950BD078C069D028F06ED0A0
:1035400018F0952309F05AC05FC01124A2C07ED0A4
:10355000A0F3959FD1F3950F50E0551F629FF001A6
:10356000729FBB27F00DB11D639FAA27F00DB11DFF
:10357000AA1F649F6627B00DA11D661F829F222788
:10358000B00DA11D621F739FB00DA11D621F839F0F
:10359000A00D611D221F749F3327A00D611D231FE5
:1035A000849F600D211D822F762F6A2F11249F5733
:1035B00050408AF0E1F088234AF0EE0FFF1FBB1F56
:1035C000661F771F881F91505040A9F79E3F5105F5
:1035D00070F014C05EC05F3FECF3983EDCF386955C
:1035E00077956795B795F795E7959F5FC1F7FE2BA0
:1035F000880F911D9695879597F9089597F99F677C
:1036000080E870E060E008959FEF80EC089500246A
:103610000A941616170618060906089500240A9437
:1036200012161306140605060895092E0394000CBD
:1036300011F4882352F0BB0F40F4BF2B11F460FF4C
:1036400004C06F5F7F4F8F4F9F4F089557FD905875
:10365000440F551F59F05F3F71F04795880F97FB56
:10366000991F61F09F3F79F0879508951216130610
:103670001406551FF2CF4695F1DF08C0161617063F
:103680001806991FF1CF8695710561050894089574
:10369000E894BB2766277727CB0197F90895A1E225
:1036A0001A2EAA1BBB1BFD010DC0AA1FBB1FEE1FBC
:1036B000FF1FA217B307E407F50720F0A21BB30B07
:1036C000E40BF50B661F771F881F991F1A9469F783
:1036D00060957095809590959B01AC01BD01CF01DF
:1036E0000895991B79E004C0991F961708F0961B5E
:1036F000881F7A95C9F78095089597FB072E16F4D1
:10370000009406D077FD08D013D007FC05D03EF416
:10371000909581959F4F0895709561957F4F08957D
:10372000EE0FFF1F881F8BBF0790F691E02D1994B5
:10373000AA1BBB1B51E107C0AA1FBB1FA617B707D7
:1037400010F0A61BB70B881F991F5A95A9F78095F3
:103750009095BC01CD010895CF93DF938230910500
:1037600010F482E090E0E0916F09F091700920E0A0
:1037700030E0C0E0D0E0309711F14081518148172E
:103780005907C0F04817590761F482819381209747
:1037900019F09B838A832BC09093700980936F09E3
:1037A00026C02115310519F04217530718F49A0164
:1037B000BE01DF01EF010280F381E02DDCCF211596
:1037C000310509F1281B390B2430310590F412968C
:1037D0008D919C9113976115710521F0FB019383E5
:1037E000828304C09093700980936F09FD01329623
:1037F00044C0FD01E20FF31F8193919322503109E0
:103800002D933C933AC020916D0930916E09232B82
:1038100041F420910E0230910F0230936E092093F3
:103820006D0920910C0230910D022115310541F4F2
:103830002DB73EB74091100250911102241B350B59
:10384000E0916D09F0916E09E217F307A0F42E1BC9
:103850003F0B2817390778F0AC014E5F5F4F2417F4
:10386000350748F04E0F5F1F50936E0940936D0966
:103870008193919302C0E0E0F0E0CF01DF91CF911E
:1038800008950F931F93CF93DF93009709F48CC093
:10389000FC0132971382128200916F091091700916
:1038A0000115110581F420813181820F931F209130
:1038B0006D0930916E092817390779F5F0936E0973
:1038C000E0936D0971C0D80140E050E0AE17BF072A
:1038D00050F412962D913C911397AD0121153105AD
:1038E00009F1D901F3CF9D01DA013383228360818D
:1038F0007181860F971F8217930769F4EC01288165
:103900003981260F371F2E5F3F4F318320838A81F5
:103910009B8193838283452B29F4F0937009E09374
:103920006F0942C01396FC93EE931297ED014991F3
:1039300059919E01240F351FE217F30771F480811E
:103940009181840F951F029611969C938E9382818C
:10395000938113969C938E931297E0E0F0E0D80148
:1039600012968D919C911397009719F0F8018C0194
:10397000F6CF8D919C9198012E5F3F4F820F931F40
:1039800020916D0930916E092817390769F4309735
:1039900029F41092700910926F0902C013821282EA
:1039A00010936E0900936D09DF91CF911F910F91D4
:1039B00008956F927F928F929F92AF92BF92CF9213
:1039C000DF92EF92FF920F931F93CF93DF93EC015F
:1039D000009781F4CB01DF91CF911F910F91FF9060
:1039E000EF90DF90CF90BF90AF909F908F907F909F
:1039F0006F90B2CEFC01E60FF71F9C0122503109F7
:103A0000E217F30708F4A8C0D9010D911C91119792
:103A100006171707A8F00530110508F49BC0C80168
:103A200004978617970708F495C002501109061BE2
:103A3000170B019311936D937C93CF0122DF8AC002
:103A40005B01A01AB10A4C01800E911EA0916F0972
:103A5000B091700940E050E0E12CF12C109709F48E
:103A60004AC0A815B905D1F56D907C9011976301F6
:103A700082E0C80ED11CCA14DB0480F1A3014A19EC
:103A80005B096A0182E0C80ED11C1296BC901297A5
:103A90001396AC91B5E0CB16D10440F0B282A3836B
:103AA00051834083D9016D937C930AC00E5F1F4FF1
:103AB000C301800F911FF90191838083EB2DFA2FB1
:103AC000E114F10431F0D7011396FC93EE931297B1
:103AD00041C0F0937009E0936F093CC08D919C91B7
:103AE00011974817590708F4AC017D0112960D9003
:103AF000BC91A02DB3CF80916D0990916E0988156E
:103B00009905E1F446175707C8F480910C0290918B
:103B10000D02009741F48DB79EB74091100250916D
:103B20001102841B950BE817F907B0F4F0936E09A6
:103B3000E0936D09F901718360830CC0CB010CDE49
:103B40007C01009749F0A801BE011BD0CE0199DE8F
:103B5000C70104C0CE0102C080E090E0DF91CF91A8
:103B60001F910F91FF90EF90DF90CF90BF90AF909B
:103B70009F908F907F906F90089581E090E0F894EF
:103B80001FC0FB01DC0102C001900D92415050406A
:103B9000D8F70895FB01DC0101900D920020E1F7B8
:103BA0000895FB01DC014150504048F001900D9216
:103BB0000020C9F701C01D9241505040E0F7089520
:103BC00011E0C9EAD1E000E005C0802FFE01A8DDC8
:103BD0002196011DCA3AD10780E00807B1F7F89491
:023BE000FFCF15
:103BE200FFFFFFFFA7079B078F0700000000710977
:103BF2008000CDCCCC3D0AD7233C6F12833A17B755
:103C0200D1380000000003048710DC0149040D02D2
:103C1200EB01FF01000000006809871069026802D9
:103C2200000000006C028710690268022E7069634E
:103C32003D0052533233325F54544C20436F6E6610
:103C42006967757261646F210052533438352045BB
:103C5200787465726E6F20436F6E66696775726104
:103C6200646F2100506F7274612064652044656244
:103C7200756720436F6E66696775726164612100C2
:103C8200626B636D643D310070616765203000785E
:103C920078787878787878787800534F425245006F
:103CA200534154555241444F002E7478743D2200C2
:103CB2004B47007431330070330070340067657411
:0A3CC20020002E706963000D0A0057
:020000023000CC
:10E000000D9489F10D94B2F10D94B2F10D94B2F129
:10E010000D94B2F10D94B2F10D94B2F10D94B2F1F0
:10E020000D94B2F10D94B2F10D94B2F10D94B2F1E0
:10E030000D94B2F10D94B2F10D94B2F10D94B2F1D0
:10E040000D94B2F10D94B2F10D94B2F10D94B2F1C0
:10E050000D94B2F10D94B2F10D94B2F10D94B2F1B0
:10E060000D94B2F10D94B2F10D94B2F10D94B2F1A0
:10E070000D94B2F10D94B2F10D94B2F10D94B2F190
:10E080000D94B2F10D94B2F10D94B2F10D94B2F180
:10E090000D94B2F10D94B2F10D94B2F10D94B2F170
:10E0A0000D94B2F10D94B2F10D94B2F10D94B2F160
:10E0B0000D94B2F10D94B2F10D94B2F10D94B2F150
:10E0C0000D94B2F10D94B2F10D94B2F10D94B2F140
:10E0D0000D94B2F10D94B2F10D94B2F10D94B2F130
:10E0E0000D94B2F141546D656761323536300041AF
:10E0F000726475696E6F206578706C6F72657220DE
:10E1000073746B3530305632206279204D4C530099
:10E11000426F6F746C6F616465723E004875683F52
:10E1200000436F6D70696C6564206F6E203D200048
:10E130004350552054797065202020203D20005FF9
:10E140005F4156525F415243485F5F3D2000415658
:10E1500052204C696243205665723D20004743437C
:10E160002056657273696F6E203D20004350552024
:10E1700049442020202020203D20004C6F7720663D
:10E18000757365202020203D20004869676820665F
:10E190007573652020203D200045787420667573D6
:10E1A00065202020203D20004C6F636B2066757336
:10E1B000652020203D20004D617220203720323024
:10E1C000313300312E362E3800342E332E350056A2
:10E1D00023202020414444522020206F7020636F70
:10E1E00064652020202020696E73747275637469E1
:10E1F0006F6E2061646472202020496E74657272B3
:10E20000757074006E6F20766563746F7200726A49
:10E210006D702020006A6D70200057686174207056
:10E220006F72743A00506F7274206E6F7420737541
:10E2300070706F72746564004D7573742062652030
:10E2400061206C6574746572002000577269747483
:10E25000696E672045450052656164696E672045B7
:10E26000450045452065727220636E743D00504F35
:10E27000525400303D5A65726F2061646472003FF1
:10E280003D43505520737461747300403D454550C3
:10E29000524F4D207465737400423D426C696E6B41
:10E2A000204C454400453D44756D70204545505215
:10E2B0004F4D00463D44756D7020464C415348001B
:10E2C000483D48656C70004C3D4C69737420492F83
:10E2D0004F20506F72747300513D51756974005234
:10E2E0003D44756D702052414D00563D73686F7707
:10E2F00020696E7465727275707420566563746FF0
:10E30000727300593D506F727420626C696E6B00BD
:10E310002A0011241FBECFEFD1E2DEBFCDBF01E046
:10E320000CBF12E0A0E0B2E0EEE1FDEF03E00BBFB6
:10E3300002C007900D92A030B107D9F712E0A0E01B
:10E34000B2E001C01D92AE30B107E1F70F9460F367
:10E350000D948DFE01E20EBF0FEF0DBF11241FBE05
:10E360000D9460F30D9400F020E030E040ED57E0B4
:10E3700005C0FA013197F1F72F5F3F4F2817390792
:10E38000C0F308959C01260F311DC901A0E0B0E043
:10E390002F5F3F4FABBFFC018791882361F08093D3
:10E3A000C6008091C00086FFFCCF8091C0008064D1
:10E3B0008093C000EACF08958DE08093C6008091DD
:10E3C000C00086FFFCCF8091C00080648093C000B5
:10E3D0008AE08093C6008091C00086FFFCCF8091C8
:10E3E000C00080648093C00008950F94C2F10F9420
:10E3F000DCF10895FC019081992359F09093C600B7
:10E400008091C00086FFFCCF8091C0008064809323
:10E41000C0003196992379F70895282F982F929567
:10E420009F70892F805D8A3308F0895F8093C600D2
:10E430008091C00086FFFCCF8091C00080648093F3
:10E44000C000822F8F70982F905D9A3308F0995FEB
:10E450009093C6008091C00086FFFCCF8091C000E1
:10E4600080648093C00008959C01FB01853691056E
:10E470001CF46330710594F0C90164E670E00F94F8
:10E480002EFE605D7F4F6093C6008091C00086FFC6
:10E49000FCCF8091C00080648093C0002B30310598
:10E4A00014F43297B4F0C90164E670E00F942EFEC4
:10E4B0006AE070E00F942EFE605D7F4F6093C600AF
:10E4C0008091C00086FFFCCF8091C0008064809363
:10E4D000C000C9016AE070E00F942EFEC0968093E0
:10E4E000C6008091C00086FFFCCF8091C000806490
:10E4F0008093C00008951F93182F8EE692EE60E07F
:10E500000F94C2F11093C6008091C00086FFFCCF2B
:10E510008091C00080648093C0000F94DCF11F9153
:10E5200008952F923F924F925F926F927F928F92B7
:10E530009F92AF92BF92CF92DF92EF92FF920F9392
:10E540001F93DF93CF93CDB7DEB762970FB6F894E2
:10E55000DEBF0FBECDBF382E622ECA01DB015C01CB
:10E560006D01772420E2222E2E010894411C511CBB
:10E570008BC081E0A81680E0B80681E0C80680E084
:10E58000D80628F0C601AA27BB270F940DF2BB2797
:10E59000AD2D9C2D8B2D0F940DF28A2D0F940DF225
:10E5A0002092C6008091C00086FFFCCF8091C00001
:10E5B00080648093C0009DE29093C6008091C0006B
:10E5C00086FFFCCF8091C00080648093C0002092C1
:10E5D000C6008091C00086FFFCCF8091C00080649F
:10E5E0008093C00019828601750188249924A1E0D6
:10E5F0003A1651F03A1620F0B2E03B1661F409C029
:10E600000BBFF701779007C0C7010F9477FE782EF4
:10E6100002C0F7017080872D0F940DF22092C60082
:10E620008091C00086FFFCCF8091C0008064809301
:10E63000C000872D8052F401EF70F0708F3520F408
:10E64000E40DF51D708204C0E40DF51D8EE280839B
:10E650000894E11CF11C011D111D0894811C911CE2
:10E6600090E18916910409F0C2CF80E190E0A0E02A
:10E67000B0E0A80EB91ECA1EDB1E198AC2010F9493
:10E68000FAF10F94DCF16A94662009F072CF629679
:10E690000FB6F894DEBF0FBECDBFCF91DF911F91B3
:10E6A0000F91FF90EF90DF90CF90BF90AF909F9031
:10E6B0008F907F906F905F904F903F902F90089534
:10E6C0002F923F924F925F926F927F928F929F9282
:10E6D000AF92BF92CF92DF92EF92FF920F931F9370
:10E6E000DF93CF93CDB7DEB7CD53D1400FB6F894BB
:10E6F000DEBF0FBECDBF01E20EBF0FEF0DBF94B75F
:10E70000F894A89514BE80916000886180936000A1
:10E7100010926000789493FF05C0E0910002F091A0
:10E7200001021995279A2F9A8091C00082608093E8
:10E73000C00080E18093C40088E18093C1000000A4
:10E74000EE24FF24870144E0A42EB12CCC24DD2448
:10E7500024C0C5010197F1F70894E11CF11C011DCB
:10E76000111D21E2E2162EE4F20620E0020720E06D
:10E77000120718F031E0C32ED12CC801B70127ECE5
:10E780003BE140E050E00F9441FE611571058105C9
:10E79000910519F485B1805885B98091C00087FD35
:10E7A00003C0C114D104A9F2A6014F5F5F4FC25E3E
:10E7B000DE4F59834883CE51D140C25EDE4F8881FF
:10E7C0009981CE51D140019711F00D9410FEC05D9A
:10E7D000DE4F19821882C053D14060E0C15DDE4F28
:10E7E0001882CF52D14088249924C35DDE4F19820C
:10E7F0001882CD52D140C05EDE4F188219821A8233
:10E800001B82C052D140CE5CDE4F188219821A8220
:10E810001B82C253D140EE24FF2487010BBFF701B6
:10E8200007911691C45CDE4F19830883CC53D14005
:10E830000D940BFEC25EDE4F28813981CE51D1404E
:10E840002130310509F52091C600C25EDE4F1982E4
:10E850001882CE51D14022C02F5F3F4F4F4F5F4FA4
:10E86000213082E138078AE7480780E0580780F0C6
:10E87000C45CDE4FE881F981CC53D140EF5FFF4F9C
:10E8800019F0EE27FF27099420E030E040E050E047
:10E890008091C00087FFE0CF2091C600C35DDE4FAE
:10E8A00048815981CD52D1404F5F5F4FC35DDE4FEC
:10E8B00059834883CD52D140213209F063C64A3092
:10E8C000510508F05FC60894811C911C53E0851621
:10E8D000910409F059C600E010E018C081E280936D
:10E8E000C6008091C00086FFFCCF8091C00080648C
:10E8F0008093C0002F5F3F4F2931310579F70F9486
:10E90000DCF10F5F1F4F0530110519F020E030E0FA
:10E91000E5CF10920A0210920B0210920C02109294
:10E920000D02109206021092070210920802109235
:10E930000902109202021092030210920402109235
:10E9400005028FEE90EE60E00F94F5F180E191EE1C
:10E9500060E00F94C2F18091C00087FFFCCF9091DE
:10E96000C600903608F09F759032B8F09093C600BC
:10E970008091C00086FFFCCF8091C00080648093AE
:10E98000C000A0E2A093C6008091C00086FFFCCF2B
:10E990008091C00080648093C000983409F4D7C18E
:10E9A0009934B8F4923409F459C1933458F490333B
:10E9B00019F1903308F4E3C59F33A1F1903409F0C5
:10E9C000DEC5BDC0953409F470C1963409F0D7C5D1
:10E9D00098C1923509F42BC2933538F49C3409F46C
:10E9E000F5C1913509F0CBC518C2963509F445C279
:10E9F000993509F0C4C567C483E792EE62E00F94CD
:10EA0000F5F110920602109207021092080210927D
:10EA1000090210920A0210920B0210920C0210923C
:10EA20000D0213C18FE792EE62E00F94F5F18FEEC5
:10EA300090EE60E00F94F5F181E291EE60E00F94CA
:10EA4000C2F187EB91EE60E00F94F5F180E391EE77
:10EA500060E00F94C2F184EE90EE60E00F94F5F167
:10EA60008FE391EE60E00F94C2F186E090E061E008
:10EA700070E00F9434F20F94DCF18DE591EE60E0DC
:10EA80000F94C2F189EC91EE60E00F94F5F18EE401
:10EA900091EE60E00F94C2F183EC91EE60E00F9490
:10EAA000F5F18CE691EE60E00F94C2F18EE10F94E7
:10EAB0000DF288E90F940DF281E00F940DF20F949E
:10EAC000DCF18BE791EE60E00F94C2F119E0E0E039
:10EAD000F0E010935700E4918E2F0F940DF20F94F5
:10EAE000DCF18AE891EE60E00F94C2F1E3E0F0E03F
:10EAF00010935700E4918E2F0F940DF20F94DCF1D8
:10EB000089E991EE60E00F94C2F1E2E0F0E0109349
:10EB10005700E4918E2F0F940DF20F94DCF188EAE8
:10EB200091EE60E00F94C2F1E1E0F0E01093570045
:10EB30001491812F0F940DF20F94DCF107CF8BE825
:10EB400092EE62E00F94F5F18BE492EE60E00F94A8
:10EB5000F5F10F94DCF100E010E019C0C8016F2D51
:10EB60000F947FFEFF2031F489E492EE60E00F9471
:10EB7000C2F10BC0F092C6008091C00086FFFCCFAE
:10EB80008091C00080648093C0000F5F1F4FC80158
:10EB900081519F41A0E0B0E0ABBFFC01F790BAE229
:10EBA000FB1621F0E2E000301E07C1F60F94DCF105
:10EBB0000F94DCF187E592EE60E00F94F5F10F948D
:10EBC000DCF1CC24DD2400E010E01EC0C8010F946D
:10EBD00077FEF82E882331F489E492EE60E00F94FA
:10EBE000C2F10BC08093C6008091C00086FFFCCFAD
:10EBF0008091C00080648093C000FE1419F00894D6
:10EC0000C11CD11C0F5F1F4FC80181519F41A0E063
:10EC1000B0E0ABBFFC01E790FAE2EF1621F022E092
:10EC20000030120799F60F94DCF10F94DCF182E6C4
:10EC300092EE60E00F94C2F1C60161E070E00F94C3
:10EC400034F20F94DCF10F94DCF110920202109276
:10EC50000302109204021092050278CE89E992EE26
:10EC600062E00F94F5F1279A2F9A16C02F9880E052
:10EC700090E0E0EDF7E03197F1F7019684369105E9
:10EC8000C1F72F9A80E090E0E0EDF7E03197F1F7DF
:10EC9000019684369105C1F78091C00087FFE6CFC9
:10ECA0008091C00087FFFCCF64C485EA92EE62E0E9
:10ECB0000F94F5F140910202509103026091040219
:10ECC0007091050281E020E10F9491F2809102029F
:10ECD00090910302A0910402B091050280509F4FD1
:10ECE000AF4FBF4F8093020290930302A0930402A0
:10ECF000B093050280509041A040B04008F426CE69
:10ED0000A4CF83EB92EE62E00F94F5F140910602FE
:10ED100050910702609108027091090280E020E1A1
:10ED20000F9491F28091060290910702A09108023F
:10ED3000B091090280509F4FAF4FBF4F80930602A2
:10ED400090930702A0930802B0930902FFCD80ECD4
:10ED500092EE62E00F94F5F183E792EE60E00F949B
:10ED6000F5F18FE792EE60E00F94F5F18BE892EE0B
:10ED700060E00F94F5F189E992EE60E00F94F5F10F
:10ED800085EA92EE60E00F94F5F183EB92EE60E09D
:10ED90000F94F5F180EC92EE60E00F94F5F187ECC2
:10EDA00092EE60E00F94F5F188ED92EE60E00F9442
:10EDB000F5F18FED92EE60E00F94F5F18AEE92EEB0
:10EDC00060E00F94F5F183E093EEBDCD87EC92EE19
:10EDD00062E00F94F5F181E40F947BF282E40F94EA
:10EDE0007BF283E40F947BF284E40F947BF285E45E
:10EDF0000F947BF286E40F947BF287E40F947BF20E
:10EE000088E40F947BF28AE40F947BF28BE40F94F6
:10EE10007BF28CE40F947BF299CD88ED92EE62E068
:10EE20000F94F5F1772473948824992409C48FED05
:10EE300092EE62E00F94F5F140910A0250910B02BC
:10EE400060910C0270910D0282E020E10F9491F22A
:10EE500080910A0290910B02A0910C02B0910D02D8
:10EE600080509F4FAF4FBF4F80930A0290930B0289
:10EE7000A0930C02B0930D0269CD8AEE92EE62E08F
:10EE80000F94F5F184EE90EE60E00F94F5F18FECC5
:10EE900091EE60E00F94F5F1662477244301CC5D98
:10EEA000DE4F19821882C452D140D401C301B695F5
:10EEB000A79597958795CA5DDE4F88839983AA8326
:10EEC000BB83C652D140CC5DDE4FA881B981C4520C
:10EED000D1401196CC5DDE4FB983A883C452D14096
:10EEE000CD0162E070E00F9434F2B0E2B093C6005E
:10EEF0008091C00086FFFCCF8091C0008064809329
:10EF0000C000EDE2E093C6008091C00086FFFCCF18
:10EF10008091C00080648093C000F0E2F093C6004E
:10EF20008091C00086FFFCCF8091C00080648093F8
:10EF3000C000CA5DDE4FE880F9800A811B81C6529D
:10EF4000D140BB27A12F902F8F2D0F940DF2CA5DBA
:10EF5000DE4F8881C652D1400F940DF2B0E2FB2EF5
:10EF6000F092C6008091C00086FFFCCF8091C00067
:10EF700080648093C0000DE30093C6008091C000C0
:10EF800086FFFCCF8091C00080648093C00010E2B7
:10EF90001093C6008091C00086FFFCCF8091C00016
:10EFA00080648093C0008BBEF3012791C65DDE4F65
:10EFB0002883CA52D140A22EBB24CC24DD2408943D
:10EFC000611C711C811C911C8BBEF3018791282E42
:10EFD0003324442455240894611C711C811C911C09
:10EFE0008BBEF3013791C55DDE4F3883CB52D140E4
:10EFF0000894611C711C811C911C8BBEF30147910C
:10F00000C45DDE4F4883CC52D140ADEFEA2EAFEF66
:10F01000FA2EAFEF0A2FAFEF1A2F6E0C7F1C801E57
:10F02000911E142D032DF22CEE24EA0CFB1C0C1D5A
:10F030001D1D0F940DF220E22093C6008091C000A8
:10F0400086FFFCCF8091C00080648093C000C65DC5
:10F05000DE4F8881CA52D1400F940DF230E23093D6
:10F06000C6008091C00086FFFCCF8091C000806404
:10F070008093C000C45DDE4F8881CC52D1400F9494
:10F080000DF240E24093C6008091C00086FFFCCFA5
:10F090008091C00080648093C000C55DDE4F888190
:10F0A000CB52D1400F940DF250E25093C6008091A4
:10F0B000C00086FFFCCF8091C00080648093C000B8
:10F0C0008FEFE8168FEFF80680E0080780E018075A
:10F0D00031F484E092EE60E00F94C2F1DFC0D80119
:10F0E000C7018070907CA070B0708050904CA040A0
:10F0F000B040D1F52FEF3FE340E050E0E222F322B1
:10F1000004231523CA5DDE4FA880B980CA80DB8046
:10F11000C652D140AE0CBF1CC01ED11EAA0CBB1CD7
:10F12000CC1CDD1C8EE092EE60E00F94C2F1BB2798
:10F13000A12F902F8F2D0F940DF28E2D0F940DF285
:10F1400030E23093C6008091C00086FFFCCF8091F2
:10F15000C00080648093C0004EE34093C60080915D
:10F16000C00086FFFCCF87C08EE09EEFA0E0B0E03D
:10F17000E822F9220A231B239CE0E91694E9F90608
:10F1800090E0090790E0190709F088C0C45DDE4FE0
:10F19000A881CC52D140EA2EFF2400E010E0102FCD
:10F1A0000F2DFE2CEE24C55DDE4FB881CB52D14031
:10F1B000EB0EF11C011D111DD601C501817090706F
:10F1C000A070B070DC0199278827E80EF91E0A1F8D
:10F1D0001B1F20EF30E040E050E0A222B322C42207
:10F1E000D52241E1AA0CBB1CCC1CDD1C4A95D1F7F1
:10F1F000EA0CFB1C0C1D1D1D81E090E0A0E0B0E0BE
:10F20000282239224A225B2235E1220C331C441C7D
:10F21000551C3A95D1F7E20CF31C041D151D57013E
:10F220006801AA0CBB1CCC1CDD1C85E192EE60E0E1
:10F230000F94C2F1C801AA27BB270F940DF2BB2778
:10F24000A12F902F8F2D0F940DF28E2D0F940DF274
:10F2500090E29093C6008091C00086FFFCCF809121
:10F26000C00080648093C000AEE3A093C60080918C
:10F27000C00086FFFCCF8091C00080648093C000F6
:10F28000C601AA27BB270F940DF2BB27AD2D9C2DDD
:10F290008B2D0F940DF28A2D0F940DF20F94DCF14B
:10F2A000CC5DDE4FE881F981C452D140F99709F471
:10F2B0004DCBF4E0EF2EF12C012D112D6E0C7F1CA7
:10F2C000801E911EF2CD83E093EE62E00F94F5F183
:10F2D0008AE192EE60E00F94C2F18091C00087FF56
:10F2E000FCCF1091C6001F751093C6008091C0001E
:10F2F00086FFFCCF8091C00080648093C0000F9493
:10F30000DCF1812F81548A3108F036C1163409F4BA
:10F3100095C0173490F4133409F44EC0143430F40B
:10F320001134F1F0123409F01DC130C0143409F465
:10F3300059C0153409F016C16BC01A3409F4C4C0A1
:10F340001B3438F4173409F48FC0183409F00AC19B
:10F35000A1C01B3409F4D2C01C3409F003C1E8C0B9
:10F360008FEF81B90DC082B1809582B980E090E0C5
:10F37000E0EDF7E03197F1F70196883C9105C1F790
:10F380008091C00087FFEFCF12B8EFC08FEF84B934
:10F390000DC085B1809585B980E090E0E0EDF7E0A3
:10F3A0003197F1F70196883C9105C1F78091C00033
:10F3B00087FFEFCF15B8D9C08FEF87B90DC088B1DF
:10F3C000809588B980E090E0E0EDF7E03197F1F7C3
:10F3D0000196883C9105C1F78091C00087FFEFCF6F
:10F3E00018B8C3C08FEF8AB90DC08BB180958BB9A7
:10F3F00080E090E0E0EDF7E03197F1F70196883C8E
:10F400009105C1F78091C00087FFEFCF1BB8ADC059
:10F410008FEF8DB90DC08EB180958EB980E090E0F0
:10F42000E0EDF7E03197F1F70196883C9105C1F7DF
:10F430008091C00087FFEFCF1EB897C08FEF80BBD1
:10F440000DC081B3809581BB80E090E0E0EDF7E0F6
:10F450003197F1F70196883C9105C1F78091C00082
:10F4600087FFEFCF11BA81C08FEF83BB0DC084B38C
:10F47000809584BB80E090E0E0EDF7E03197F1F714
:10F480000196883C9105C1F78091C00087FFEFCFBE
:10F4900014BA6BC08FEF809301010FC080910201FD
:10F4A00080958093020180E090E0E0EDF7E03197F5
:10F4B000F1F70196883C9105C1F78091C00087FF64
:10F4C000EDCF1092020151C08FEF809304010FC065
:10F4D0008091050180958093050180E090E0E0ED4A
:10F4E000F7E03197F1F70196883C9105C1F78091DB
:10F4F000C00087FFEDCF1092050137C08FEF8093DA
:10F5000007010FC08091080180958093080180E079
:10F5100090E0E0EDF7E03197F1F70196883C910536
:10F52000C1F78091C00087FFEDCF109208011DC088
:10F530008FEF80930A010FC080910B01809580931B
:10F540000B0180E090E0E0EDF7E03197F1F70196F4
:10F55000883C9105C1F78091C00087FFEDCF1092E4
:10F560000B0103C085E292EEEEC98091C00087FFD7
:10F57000FCCF8091C600EAC988E392EEE4C98CE131
:10F5800091EEE1C988249924933011F1943028F444
:10F59000913089F09230B8F408C0953061F195301F
:10F5A000F0F0963009F048C043C02B3109F042C951
:10F5B00091E06BE13FC96227C15DDE4F2883CF52E6
:10F5C000D14092E037C9B22FA0E0622793E032C960
:10F5D000822F90E0A82BB92B622794E02BC92E3004
:10F5E00009F039C3622795E0C05DDE4F19821882A9
:10F5F000C053D1401FC9E1E0F0E0EC0FFD1FC05D3A
:10F60000DE4F08811981C053D140E00FF11F2083E4
:10F610000F5F1F4FC05DDE4F19830883C053D14079
:10F6200062270A171B0709F005C9D80196E002C92D
:10F63000261709F010C303C0973009F0FBC87724E0
:10F640009981933109F412C19431C8F4963009F4C8
:10F65000D8C0973050F4923009F406C1933009F4C1
:10F660006DC0913009F059C253C0913109F477C08F
:10F67000923108F0BBC0903109F04FC2F5C098310B
:10F6800009F487C0993150F4953109F4EFC09531F0
:10F6900008F4C6C1963109F040C2C2C19A3109F4DA
:10F6A0006CC09A3108F491C09B3109F45BC09D3164
:10F6B00009F033C29D81903359F48F81882311F46E
:10F6C0009EE11CC0813011F091E018C098E916C08D
:10F6D000892F807591F0903539F4E0E0F0E089E011
:10F6E0008093570094910AC0983539F4E3E0F0E034
:10F6F00089E080935700949101C090E01A821B82A8
:10F700008D818C831D829E831F8227E030E009C299
:10F710001A8288E08B8381E48C8386E58D8382E581
:10F720008E8389E48F8383E5888780E589878FE5E9
:10F730008A8782E38B872BE030E0F3C18A818139AD
:10F7400041F0823941F0803911F48FE005C080E04A
:10F7500003C082E001C08AE01A828B8344C0772410
:10F76000739482C08D81882311F48EE12CC0813086
:10F7700011F081E028C088E926C01A82E1E0F0E0BB
:10F7800089E08093570084918B831C8224E030E0D1
:10F79000C8C18B81803589F48C81883039F4E2E0EE
:10F7A000F0E089E08093570084910DC0E0E0F0E044
:10F7B00089E080935700849106C0E3E0F0E089E09F
:10F7C0008093570084911A82DFCF8D81836C99E0FA
:10F7D000E1E0F0E0082E90935700E89507B600FCB2
:10F7E000FDCF1A821B8223E030E09BC180EC8A832C
:10F7F000CE5CDE4F188219821A821B82C253D1401E
:10F800008EC18A8190E0A0E0B0E0582F44273327D2
:10F8100022278B8190E0A0E0B0E0DC0199278827C7
:10F82000282B392B4A2B5B2B8D8190E0A0E0B0E098
:10F83000282B392B4A2B5B2B8C8190E0A0E0B0E089
:10F84000BA2FA92F982F8827282B392B4A2B5B2BCF
:10F85000220F331F441F551FC05EDE4F288339839C
:10F860004A835B83C052D1401A8259C13A81C95C34
:10F87000DE4F3883C753D140CA5CDE4F1882C6536F
:10F88000D1408B81C82EDD24CA5CDE4F488159816E
:10F89000C653D140C42AD52A933109F082C0CE5C28
:10F8A000DE4F88819981AA81BB81C253D1408050AB
:10F8B000904CA340B04030F583E0CE5CDE4FE88052
:10F8C000F9800A811B81C253D140F70100935B008C
:10F8D00080935700E89507B600FCFDCFCE5CDE4F65
:10F8E000088119812A813B81C253D14000501F4FAA
:10F8F0002F4F3F4FCE5CDE4F088319832A833B8313
:10F90000C253D140C05EDE4F488159816A817B81FC
:10F91000C052D140DE011B9631E08C9111962C91A2
:10F9200011971296C75CDE4F2883C953D140C85C3B
:10F93000DE4F1882C853D14090E0C85CDE4FE881AA
:10F94000F981C853D1408E2B9F2B0C01FA01609393
:10F950005B0030935700E89511244E5F5F4F6F4F67
:10F960007F4F0EEFE02E0FEFF02ECE0CDF1CC114F8
:10F97000D10499F685E0C05EDE4F088119812A81A5
:10F980003B81C052D140F80120935B008093570027
:10F99000E89507B600FCFDCF81E180935700E8951C
:10F9A00035C0C05EDE4F88819981AA81BB81C0527B
:10F9B000D140B695A795979587957C018601ABE0D8
:10F9C000AA2EB12CAC0EBD1E0BC0D5016D915D01F0
:10F9D000C7010F947FFE0894E11CF11C01501040F8
:10F9E0000115110591F7A60160E070E0440F551F65
:10F9F000661F771FC05EDE4FE880F9800A811B8199
:10FA0000C052D1404E0D5F1D601F711F1A82C05E33
:10FA1000DE4F488359836A837B83C052D1407FC0C5
:10FA2000FA80C55CDE4FF882CB53D140C65CDE4F16
:10FA30001882CA53D1408B81C82EDD24C65CDE4FAC
:10FA400008811981CA53D140C02AD12A1A828981DA
:10FA5000BE016D5F7F4F843121F59601C05EDE4FA0
:10FA6000E880F9800A811B81C052D1400BBFF701A9
:10FA700087919691DB018C9311969C936E5F7F4FDB
:10FA8000D801C7010296A11DB11DC05EDE4F88835B
:10FA90009983AA83BB83C052D14022503040F1F6F3
:10FAA00036C0C05EDE4F288139814A815B81C052F9
:10FAB000D1400894C108D108760100E010E0089414
:10FAC000C11CD11C0894E11CF11C011D111DE20E8A
:10FAD000F31E041F151F21BDBB27A52F942F832FB5
:10FAE00082BD2F5F3F4F4F4F5F4FF89A80B5DB01CC
:10FAF0008D93BD012E153F054007510761F7C05E8C
:10FB0000DE4F288339834A835B83C052D1409601FC
:10FB10002D5F3F4FFB01108204C080EC8A8322E0FE
:10FB200030E08BE18093C6008091C00086FFFCCF5F
:10FB30008091C00080648093C000C15DDE4FF88179
:10FB4000CF52D140F093C6008091C00086FFFCCF19
:10FB50008091C00080648093C000432F3093C60022
:10FB60008091C00086FFFCCF8091C00080648093AC
:10FB7000C000922F2093C6008091C00086FFFCCF6A
:10FB80008091C00080648093C0008EE08093C600A6
:10FB90008091C00086FFFCCF8091C000806480937C
:10FBA000C00065E1C15DDE4FE880CF52D1406E25D7
:10FBB00069276427FE01319610C090819093C6009A
:10FBC0008091C00086FFFCCF31968091C000806498
:10FBD0008093C0006927215030402115310569F715
:10FBE0006093C6008091C00086FFFCCF8091C0006A
:10FBF00080648093C00085B1805885B9772081F4F6
:10FC0000C15DDE4F0881CF52D1400F5FC15DDE4F35
:10FC10000883CF52D14090E0A0E0B0E00D941AF4F8
:10FC200027982F9880E090E020ED37E0F901319798
:10FC3000F1F7019684369105C9F700008091C00064
:10FC40008D7F8093C00081E180935700E895EE2777
:10FC5000FF270994FFCF90E00D941AF497FB092E2B
:10FC600007260AD077FD04D02ED006D000201AF443
:10FC7000709561957F4F0895F6F7909581959F4F08
:10FC80000895A1E21A2EAA1BBB1BFD010DC0AA1FDD
:10FC9000BB1FEE1FFF1FA217B307E407F50720F0F5
:10FCA000A21BB30BE40BF50B661F771F881F991F70
:10FCB0001A9469F760957095809590959B01AC01B9
:10FCC000BD01CF010895AA1BBB1B51E107C0AA1FAC
:10FCD000BB1FA617B70710F0A61BB70B881F991FED
:10FCE0005A95A9F780959095BC01CD010895F99991
:10FCF000FECF92BD81BDF89A992780B50895262F31
:10FD0000F999FECF1FBA92BD81BD20BD0FB6F89400
:0EFD1000FA9AF99A0FBE01960895F894FFCF63
:040000033000E000E9
:00000001FF