:100000009CC10000CBC10000C9C10000C7C10000F5
:10001000C5C10000C3C10000C1C10000BFC10000D4
:10002000BDC100000C9440080C9440080C9440089A
:10003000B5C10000B3C10000B1C10000AFC10000F4
:10004000ADC10000ABC10000A9C10000A7C1000004
:10005000A5C10000A3C10000A1C10000C7C70000E6
:100060009DC100000C94CF0B0C94A60B97C100000F
:1000700095C1000093C1000091C100008FC1000034
:100080008DC100008BC1000089C1000087C1000044
:100090000C947D0B0C94540B81C100007FC10000B7
:1000A0007DC100007BC1000079C1000077C1000064
:1000B00075C1000073C1000071C100006FC1000074
:1000C0006DC100006BC1000069C100000C942B0BD6
:1000D0000C94020B63C100000C94D90A0C94B00A72
:1000E0005DC10000270C2A0C190C1D0C210C610CA1
:1000F0002E0C320C380C3C0C400C460C4A0C4E0CAE
:10010000610C540C580C5C0C0A0E0A0E0A0E0A0EF6
:10011000070E070E0E0E0E0E0E0E0E0E0E0E0E0E0D
:100120000E0E0E0E070E070E0E0E0E0E0E0E0E0EFD
:100130000E0E0C0E0A0E00407A10F35A00A0724EFA
:1001400018090010A5D4E80000E87648170000E47C
:100150000B54020000CA9A3B000000E1F5050000C4
:1001600080969800000040420F000000A086010029
:100170000000102700000000E803000000006400F9
:10018000000000000A000000000001000000000064
:100190002C76D888DC674F0823DFC1DFAE59E1B188
:1001A000B796E5E3E453C63AE651997696E8E6C297
:1001B0008426EB898C9B62ED407C6FFCEFBC9C9F9E
:1001C00040F2BAA56FA5F490055A2AF75C936B6CC0
:1001D000F9676DC11BFCE0E40D47FEF520E6B500B4
:1001E000D0ED902E0300943577050080841E080022
:1001F00000204E0A000000C80C333333330F986ED2
:1002000012831141EF8D2114893BE65516CFFEE68E
:10021000DB18D1844B381BF77C1D901DA4BBE42454
:10022000203284725E228100C9F124ECA1E53D27D1
:1002300000000A0B02090C0D0E0807030401000060
:1002400000000000000000000000000000000000AE
:10025000000000000000000000000000121110006B
:10026000000000000000000000000000000000008E
:1002700000000000000000002200250028002B00E4
:100280002E003100340002010000050108010B01BD
:1002900000002100240027002A002D003000330038
:1002A00001010000040107010A0105050505070514
:1002B00008080808020202020A0A080804040404E2
:1002C000010101010101010103030303030303030E
:1002D000040707070C0C0C0C0C0C0C0C020202029D
:1002E00006060606060606060B0B0B0B0B0B0B0B86
:1002F0000102102020080810204010204080020138
:10030000020108040201010204081020408080401C
:10031000201008040201800402018040201008041B
:1003200002010804020101020408102040800102B9
:1003300004081020408071129B0F11241FBECFEFC4
:10034000D1E2DEBFCDBF00E00CBF12E0A0E0B2E022
:10035000EAE3F3E300E00BBF02C007900D92A83C74
:10036000B107D9F729E0A8ECB2E001C01D92AF3483
:10037000B207E1F711E0CCE9D1E000E006C0219737
:100380000109802FFE010E945017CB39D10780E070
:100390000807A9F70E94A10F0C948C1931CE8EBDCD
:1003A00000000DB407FEFDCF8EB508958FEFF7CF97
:1003B000089580E090E0089561E0FC0184810E944E
:1003C000F80B8091C80281111092C8020895CF9352
:1003D000DF93EC018E81882379F08F8198859C01D1
:1003E0002F5F3F4F38872F838230924010F4DEDF3B
:1003F000F4CFCE01E1DF1E82DF91CF91089560E05E
:1004000088E20E94F80B60E088E20C94F80B61E04F
:1004100088E20E94F80B61E088E20C94F80B3FB789
:10042000F8948091D7049091D804A091D904B09108
:10043000DA0426B5A89B05C02F3F19F00196A11D2F
:10044000B11D3FBFBA2FA92F982F8827820F911D6A
:10045000A11DB11DBC01CD0142E0660F771F881FB1
:10046000991F4A95D1F708952FB7F8946091D30456
:100470007091D4048091D5049091D6042FBF089533
:100480000F931F93CF93DF93EB01EEDF8B018EDF92
:100490008F3F41F0E9DF601B710B6C177D07B8F3EC
:1004A00080E001C081E0DF91CF911F910F9108950D
:1004B000CF92DF92FF920F931F93CF93DF9300D0E1
:1004C0001F92CDB7DEB76C01F62E29833A834B839A
:1004D0005C837DDF8091C80229813A814B815C81F8
:1004E000811109C081E08093C802909165078091D5
:1004F00066079CBD8DBD60E0F601848129833A8347
:100500004B835C830E94F80B6CE271E0C601B8DF9C
:100510008F2D806444DF08E110E05C814B813A81DB
:100520002981DA01C901002E04C0B695A7959795D7
:1005300087950A94D2F729833A834B835C832FDF14
:100540000850110929813A814B815C81083FFFEFF6
:100550001F0739F7FF2029F088E0F81204C087E868
:1005600003C085E901C08FEF1ADF10E01FDFF6013D
:10057000828787FF04C01F3F11F01F5FF7CF0F90E6
:100580000F900F900F90DF91CF911F910F91FF90DF
:10059000DF90CF900895EF92FF920F931F93CF9328
:1005A000DF93EC017901411551056105710511F4E5
:1005B00082E134C08B85833039F089E0440F551FC8
:1005C000661F771F8A95D1F79A01AB0168E1CE01CA
:1005D0006FDF882311F084E021C08EEFE0DE870119
:1005E0008EEFF81AF80181918F01D9DE0E151F05E3
:1005F000C9F78FEFD4DE8FEFD2DED8DE8A878F7116
:10060000853029F081E18D83CE01D6DE08C068E512
:1006100072E0CE0135DF811106C085E18D83CE0108
:10062000CBDE80E010C020E030E0A9016DE0CE011B
:100630003FDF811103C0BADE882311F084E1EECFE1
:10064000CE01BADE81E0DF91CF911F910F91FF9033
:10065000EF900895CF93DF938091CB02882389F1A7
:10066000C091C902D091CA0240910002509101028A
:10067000609102027091030220ED32E0CE018BDF27
:10068000811102C080E01EC04091CC025091CD0289
:100690006091CE027091CF0241155105610571053F
:1006A00071F020ED32E0CE0176DF882359F310920D
:1006B000CC021092CD021092CE021092CF02109274
:1006C000CB0281E0DF91CF910895BF92CF92DF926C
:1006D000EF92FF920F931F93CF93DF936B017C01F7
:1006E000B42E8091000290910102A0910202B0917B
:1006F00003028C159D05AE05BF0509F46DC0AADF88
:10070000882309F470C0C091C902D091CA028E81B9
:10071000882369F088819981AA81BB81C816D9068E
:10072000EA06FB0621F48F819885892B89F1C8821E
:10073000D982EA82FB828B85A7019601833039F04A
:1007400089E0220F331F441F551F8A95D1F761E1BD
:10075000CE01AEDE882319F083E08D8331C084DEC4
:100760008B0124DE8A878F3F41F47EDE601B710B94
:100770006D327140B0F38FE003C08E3F29F08DE001
:100780008D83CE0119DE1CC018861F8281E08E8306
:1007900000ED12E00BDEF80181938F01F4E0003DE3
:1007A0001F07C1F78F8198859E5F98878F83298562
:1007B000222319F08115924038F0CE0108DE04C0E2
:1007C000CE01FADD80E00FC0C0920002D09201029B
:1007D000E0920202F09203028091CB02482F4B2953
:1007E0004093CB0281E0DF91CF911F910F91FF9059
:1007F000EF90DF90CF90BF9008954F925F926F92ED
:100800007F928F929F92AF92BF92CF92DF92EF92A0
:10081000FF920F931F93CF93DF93EC016A017B014B
:1008200028013901423051056105710510F480E05D
:1008300072C089859A85AB85BC850196A11DB11DC5
:1008400084179507A607B70790F38B889C88AD8817
:10085000BE888F89803129F4BB27AF2D9E2D8D2D29
:1008600009C0DB01CA0147E0B695A7959795879522
:100870004A95D1F7880E991EAA1EBB1E80910002D0
:1008800090910102A0910202B0910302881699068C
:10089000AA06BB0679F48F89803199F4DD24EE2411
:1008A000FF24C601880F991FFC01E053FD4F5182C0
:1008B000408218C040E0C501B40107DF8111EBCFD1
:1008C000B6CFE894C7F8DD24EE24FF24C601880FD4
:1008D000991F880F991FFC01E053FD4F4082518200
:1008E000628273828091CB0281608093CB028A897D
:1008F000823080F08D819E81AF81B885880E991EEF
:10090000AA1EBB1E8092CC029092CD02A092CE0273
:10091000B092CF0281E0DF91CF911F910F91FF90B4
:10092000EF90DF90CF90BF90AF909F908F907F908F
:100930006F905F904F9008958F929F92AF92BF9269
:10094000CF92DF92EF92FF920F931F93CF93DF939B
:10095000FC0181859285A385B4850196A11DB11DF9
:1009600084179507A607B70710F480E05BC083895A
:100970009489A589B689C789C03129F4852E962E18
:10098000A72EBB2409C04A015B01C7E0B694A79417
:1009900097948794CA95D1F7E9016A017B018F0189
:1009A000BC01CD01680D791D8A1D9B1D8090000240
:1009B00090900102A0900202B090030268157905A0
:1009C0008A059B0599F4F80187898031A1F4B70164
:1009D000A601552766277727440F551FFA01E053D4
:1009E000FD4F80819181A0E0B0E017C040E06DDE56
:1009F0008111E9CFBACFB701A6014F7755276627F6
:100A00007727440F551F440F551FFA01E053FD4F40
:100A100080819181A281B381BF7088839983AA83E9
:100A2000BB8381E0DF91CF911F910F91FF90EF90F9
:100A3000DF90CF90BF90AF909F908F9008953F929E
:100A40004F925F926F927F928F929F92AF92BF92DE
:100A5000CF92DF92EF92FF920F931F93CF93DF938A
:100A6000CDB7DEB72C970FB6F894DEBF0FBECDBF63
:100A70005C01DC015B968D909C905C971696CD9006
:100A8000DD90ED90FC901997C114D104E104F104BC
:100A900039F0BFEFCB1ADB0AEB0AFB0A312C07C097
:100AA000F401C080D180E280F38033243394F401D8
:100AB00081859285A385B4859C01AD012F5F3F4F51
:100AC0004F4F5F4F29873A874B875C872601370155
:100AD0001D821E821F821886F40181859285A3855E
:100AE000B4852D813E814F815885281739074A07E3
:100AF0005B0708F060C089859A85AB85BC858C153D
:100B00009D05AE05BF0550F482E0C82ED12CE12C26
:100B1000F12C92E0492E512C612C712C9E012F5FFB
:100B20003F4FB701A601C40107DF882309F443C082
:100B300089819A81AB81BC81892B8A2B8B2B41F0D7
:100B4000260137019FEF491A590A690A790A05C037
:100B5000C414D504E604F70491F02D813E814F8141
:100B600058852F5F3F4F4F4F5F4F2D833E834F83FD
:100B700058873FEFC31AD30AE30AF30AADCF0FEF4A
:100B80001FEF2FEF3FE0B301A201C40136DE88233F
:100B900091F0D50116964D915D916D917C911997CB
:100BA000411551056105710541F093018201C401B0
:100BB00024DE811102C080E02AC0D50116964D9234
:100BC0005D926D927C921997332051F0D301C2014E
:100BD0000196A11DB11DF40180839183A283B3838B
:100BE000F5018789908DA18DB28D892B8A2B8B2B56
:100BF00069F4D50157964D925D926D927C925A9709
:100C000014968C911497806814968C9381E02C969E
:100C10000FB6F894DEBF0FBECDBFDF91CF911F910D
:100C20000F91FF90EF90DF90CF90BF90AF909F908B
:100C30008F907F906F905F904F903F9008954F926C
:100C40005F926F927F928F929F92AF92BF92EF923C
:100C5000FF920F931F93CF93DF9300D01F921F92A9
:100C6000CDB7DEB78C016D83DC0115968C9115979D
:100C7000813009F056C014968C9181FF52C059C042
:100C8000038CF48DE02D258530E0275F3F4F2A014E
:100C90003B01B1E04B1A510861087108022E04C0F3
:100CA00076946794579447940A94D2F7D501C40177
:100CB0000197A109B10904C0B695A79597958795A5
:100CC0002A95D2F784159505A605B70508F06FC0DB
:100CD000F8014789508D618D728D468357836087F7
:100CE00071872C013D017801E6E0EE0EF11CD80180
:100CF000411451046104710409F463C016964D91C6
:100D00005D916D917C91199797015B968D919C9166
:100D10005C9712DEB1E04B1A51086108710881112D
:100D2000E6CF81E090E0F8019383828380E090E059
:100D300049C182FF0EC0F8014285538564857585DF
:100D400083889488A588B688481559056A057B0567
:100D5000F1F4D8011A964D915D916D917C911D979A
:100D60005B968D919C915C97FC0174807A944A010A
:100D70005B0129E0B694A794979487942A95D1F7BC
:100D800078207A01F1E0FF22772011F162C081140E
:100D90009104A104B10409F073CF16821782108662
:100DA0001186F8011286138614861586D2CF452B3C
:100DB000462B472B09F48CCF84199509A609B7094E
:100DC00090CF1A968D929D92AD92BC921D97C1CFF5
:100DD000E114F10409F03DC0F801468157816085B6
:100DE0007185411551056105710549F48789908D1B
:100DF000A18DB28D0097A105B10531F520C09E01EE
:100E00002F5F3F4F99DD882309F490CF89819A8124
:100E1000AB81BC81F801238D348DF9012789203104
:100E200029F048EF5FEF6FEF7FE004C048EF5FEF1E
:100E300060E070E084179507A607B70728F0C8019F
:100E4000FEDD811106C06DCFF80186839783A087F0
:100E5000B187D8015B96ED91FC915C9716968D90C9
:100E60009D90AD90BC901997B2E08B1A9108A108A3
:100E7000B108058404C0880C991CAA1CBB1C0A94E8
:100E8000D2F786859785A089B189880E991EAA1EFA
:100E9000BB1E870C911CA11CB11CE114F10401F5CF
:100EA000F801428553856485758583899489A58970
:100EB000B689481759076A077B0790F0CBDB882370
:100EC00009F42FCF8092000290920102A0920202B8
:100ED000B09203028091CB0281608093CB0207C065
:100EE00041E0C501B401F1DB882309F41ACFF70111
:100EF000E053FD4F8D818083F80182859385A48521
:100F0000B5850196A11DB11D82879387A487B587FA
:100F10004389548965897689481759076A077B0789
:100F200038F4838B948BA58BB68B84818068848303
:100F3000D80114968C9183FD03C081E090E042C0FB
:100F4000F8019581992309F4ECCE87FF37C06685B7
:100F500077858089918941E0B8DB882309F4E1CE67
:100F6000D8015296EC91B0E2EB9F90011124D90187
:100F7000A053BD4F109709F4D4CEF801858182307B
:100F800050F443895489658976895C964D935D93C5
:100F90006D937C935F97F8018789908DA18DB28DB9
:100FA000F901E053FD4F938F828FB58BA48BD8014D
:100FB00014968C9114978F7714968C934BDB811138
:100FC000BCCFAFCE0F900F900F900F900F90DF918E
:100FD000CF911F910F91FF90EF90BF90AF909F9096
:100FE0008F907F906F905F904F9008951F920F9217
:100FF0000FB60F9211242F933F938F939F93AF932C
:10100000BF938091D3049091D404A091D504B09162
:10101000D6043091D20423E0230F2D3720F401961B
:10102000A11DB11D05C026E8230F0296A11DB11D0B
:101030002093D2048093D3049093D404A093D50436
:10104000B093D6048091D7049091D804A091D9048C
:10105000B091DA040196A11DB11D8093D70490933D
:10106000D804A093D904B093DA04BF91AF919F91B3
:101070008F913F912F910F900FBE0F901F90189559
:101080001F920F920FB60F9211240F900FBE0F9068
:101090001F901895CF93DF93EC0181EF94E0DDD0A2
:1010A000892B21F081EF94E0B6D0F7CFBE0181EF1C
:1010B00094E02FD26FEF81EF94E085D16FEF81EF55
:1010C00094E081D16FEF81EF94E0DF91CF917BC10C
:1010D0008F929F92AF92BF92EF92FF920F931F93C6
:1010E000CF93DF93CDB7DEB760970FB6F894DEBF2E
:1010F0000FBECDBF7C014A015B018E010F5F1F4F08
:101100008AE0F80111928A95E9F764E572E0CE0170
:101110000B96EBD14AE0B801C4010E94AF13F7016E
:1011200062817381CE010B9688D66CE472E0CE01A9
:101130000B9683D6B801CE010B967FD68B859C8506
:10114000A9DF19D4182FCE010B96F0D6812F609607
:101150000FB6F894DEBF0FBECDBFDF91CF911F91C8
:101160000F91FF90EF90BF90AF909F908F90089558
:10117000CF92DF92EF92FF920F931F93CF93DF9363
:101180006C017A018B01C0E0D0E0CE15DF0589F05B
:10119000D8016D918D01D601ED91FC910190F08106
:1011A000E02DC6011995892B11F47E0102C021960C
:1011B000ECCFC701DF91CF911F910F91FF90EF907E
:1011C000DF90CF900895FC01A089B1898C91A68908
:1011D000B78982FD0FC09C91818D8F5F8F73228DA7
:1011E000821749F0218DDF01A20FB11D5D969C93FE
:1011F000818F08958C910895FC01538D448D252F86
:1012000030E0842F90E0821B930B541710F0CF96A0
:10121000089501970895FC01918D828D981761F0D2
:10122000828DDF01A80FB11D5D968C91928D9F5F1D
:101230009F73928F90E008958FEF9FEF0895FC01C8
:10124000918D828D981731F0828DE80FF11D858D7B
:1012500090E008958FEF9FEF0895FC01918D228D0E
:10126000892F90E0805C9F4F821B91098F73992793
:10127000089581EF94E0F1DF21E0892B09F420E06B
:10128000822F08958EE895E0E8DF21E0892B09F4AC
:1012900020E0822F08958BE296E0DFDF21E0892BAA
:1012A00009F420E0822F089588EC96E0D6DF21E053
:1012B000892B09F420E0822F0895CF92DF92EF92DC
:1012C000FF921F93CF93DF93EC016A017B01122FF2
:1012D000E889F98982E080834115514E61057105E5
:1012E000B1F060E079E08DE390E0A70196010E9403
:1012F0002E17DA01C9010197A109B109B695A79581
:1013000097958795AC01411580E15807A8F0E889C9
:10131000F989108260E874E88EE190E0A7019601F7
:101320000E942E17BA01A9014150510961097109A2
:101330007695679557954795EC85FD855083EE85A5
:10134000FF854083188EEC89FD891083EA89FB892B
:10135000808180618083EA89FB89808188608083C5
:10136000EA89FB89808180688083EA89FB898081A2
:101370008F7D8083DF91CF911F91FF90EF90DF9061
:10138000CF900895FC01848DDF01A80FB11DA35AF1
:10139000BF4F2C91848D90E001968F739927848F95
:1013A000A689B7892C93A089B1898C9180648C938C
:1013B000938D848D981306C00288F389E02D808177
:1013C0008F7D80830895EF92FF920F931F93CF93A9
:1013D000DF93EC0181E0888F9B8D8C8D981305C085
:1013E000E889F989808185FD23C0F62E0B8D10E0F8
:1013F0000F5F1F4F0F731127E02E8C8DE8120BC06B
:101400000FB607FCFACFE889F989808185FFF5CF0F
:10141000CE01B8DFF2CF8B8DFE01E80FF11DE35A4C
:10142000FF4FF0820B8FEA89FB898081806207C0C1
:10143000EE89FF896083E889F989808180648083EF
:1014400081E090E0DF91CF911F910F91FF90EF909D
:101450000895CF93DF93EC01888D8823C1F0EA894A
:10146000FB89808185FD05C0A889B9898C9186FD9D
:101470000EC00FB607FCF5CF808185FFF2CFA8899B
:10148000B9898C9185FFEDCFCE017CDFE8CFDF916C
:10149000CF91089580E090E0892B19F005DF81114C
:1014A00016C080E090E0892B19F0F5DE811112C0A2
:1014B00080E090E0892B19F0E5DE81110EC080E01C
:1014C00090E0892B79F0D5DE81110AC008950E9441
:1014D0000000E7CF0E940000EBCF0E940000EFCF9A
:1014E0000C94000008950E946919FC011182108279
:1014F00013821282158214826115710549F0FB0175
:1015000001900020E9F73197AF01461B570BC5C486
:1015100008956115710579F0FB0101900020E9F74C
:101520003197AF01461B570BDC01ED91FC91028016
:10153000F381E02D199480E090E008950F931F93BC
:10154000CF93DF93EC01E5DF8C0162E572E0CE0121
:10155000E0DF800F911FDF91CF911F910F910895D0
:101560001F920F920FB60F9211240BB60F922F936A
:101570003F934F935F936F937F938F939F93AF931B
:10158000BF93EF93FF9381EF94E0FCDEFF91EF9127
:10159000BF91AF919F918F917F916F915F914F918B
:1015A0003F912F910F900BBE0F900FBE0F901F9089
:1015B00018951F920F920FB60F9211240BB60F922F
:1015C0002F933F934F935F936F937F938F939F934B
:1015D000AF93BF93EF93FF9381EF94E0F4DDFF911E
:1015E000EF91BF91AF919F918F917F916F915F919B
:1015F0004F913F912F910F900BBE0F900FBE0F9008
:101600001F9018951F920F920FB60F9211240BB6D0
:101610000F922F933F934F935F936F937F938F938B
:101620009F93AF93BF93EF93FF938EE895E0AADE6D
:10163000FF91EF91BF91AF919F918F917F916F91AA
:101640005F914F913F912F910F900BBE0F900FBE66
:101650000F901F9018951F920F920FB60F921124A2
:101660000BB60F922F933F934F935F936F937F939C
:101670008F939F93AF93BF93EF93FF938EE895E083
:10168000A2DDFF91EF91BF91AF919F918F917F91DB
:101690006F915F914F913F912F910F900BBE0F90E3
:1016A0000FBE0F901F9018951F920F920FB60F92BA
:1016B00011240BB60F922F933F934F935F936F9329
:1016C0007F938F939F93AF93BF93EF93FF938BE29F
:1016D00096E058DEFF91EF91BF91AF919F918F916E
:1016E0007F916F915F914F913F912F910F900BBE22
:1016F0000F900FBE0F901F9018951F920F920FB66C
:101700000F9211240BB60F922F933F934F935F9339
:101710006F937F938F939F93AF93BF93EF93FF93B9
:101720008BE296E050DDFF91EF91BF91AF919F91D9
:101730008F917F916F915F914F913F912F910F907A
:101740000BBE0F900FBE0F901F9018951F920F9217
:101750000FB60F9211240BB60F922F933F934F9316
:101760005F936F937F938F939F93AF93BF93EF9309
:10177000FF9388EC96E006DEFF91EF91BF91AF9169
:101780009F918F917F916F915F914F913F912F9199
:101790000F900BBE0F900FBE0F901F9018951F92C9
:1017A0000F920FB60F9211240BB60F922F933F9307
:1017B0004F935F936F937F938F939F93AF93BF9359
:1017C000EF93FF9388EC96E0FEDCFF91EF91BF91E1
:1017D000AF919F918F917F916F915F914F913F91C9
:1017E0002F910F900BBE0F900FBE0F901F9018956A
:1017F000362F90E0FC01E05DFD4F4491FC01E0518B
:10180000FD4F2491FC01E655FD4F9491992309F475
:101810006BC0442309F455C050E0FA013197E2311E
:10182000F10508F04EC08827EE58FF4F8F4F0C94FB
:101830005017809180008F7707C0809180008F7D46
:1018400003C080918000877F809380003AC084B578
:101850008F7702C084B58F7D84BD33C08091B00086
:101860008F7703C08091B0008F7D8093B00029C036
:10187000809190008F7707C0809190008F7D03C08A
:1018800080919000877F809390001BC08091A00082
:101890008F7707C08091A0008F7D03C08091A0004A
:1018A000877F8093A0000DC0809120018F7707C0B3
:1018B000809120018F7D03C080912001877F8093DC
:1018C0002001E92FF0E0EE0FFF1FEA58FD4FA59130
:1018D000B4918FB7F894EC91311103C020952E2369
:1018E00001C02E2B2C938FBF08950F931F93CF937E
:1018F000DF93EC0188819981009729F02A813B814F
:101900002617370788F48B016F5F7F4F0E94851879
:10191000009761F0998388831B830A832C813D8122
:10192000232B11F4FC01108281E001C080E0DF91E3
:10193000CF911F910F91089590E0FC01E051FD4F70
:101940002491FC01E655FD4F8491882399F090E0A5
:10195000880F991FFC01E057FD4FA591B491FC0140
:10196000EA58FD4F859194918FB7F894EC91E22B52
:10197000EC938FBF08958F929F92AF92BF92EF9298
:10198000FF920F931F93CF93DF9300D01F92CDB799
:10199000DEB719821A821B821C8281E090E0A0E0EF
:1019A000B0E08093F5049093F604A093F704B0930D
:1019B000F8048E010F5F1F4F7E0185E0E80EF11CD9
:1019C0000E9434026093F9047093FA048093FB043C
:1019D0009093FC04E091F104F091F2040284F38509
:1019E000E02D81EF94E0199597FD0AC0F8018193ED
:1019F0008F01EE15FF0521F78981813049F51EC061
:101A00000E9434028090F9049090FA04A090FB04A4
:101A1000B090FC04DC01CB0188199909AA09BB0923
:101A20008090F5049090F604A090F704B090F8042C
:101A300088159905AA05BB0568F2DECF8A818F3F1C
:101A400039F48B818F3F21F481E09C819F3F09F025
:101A500080E00F900F900F900F90DF91CF911F912A
:101A60000F91FF90EF90BF90AF909F908F9008954F
:101A70008F929F92AF92BF92DF92EF92FF920F935D
:101A80001F93CF93DF93CDB7DEB7DA950FB6F894F7
:101A9000DEBF0FBECDBF8091A307898383E08A8319
:101AA0008091A4079091A5079B838C838091A607C2
:101AB0009091A7079D838E83CE0101967C01FC0146
:101AC0008FEF9FEF8701BE2C66E06E0D219182277C
:101AD00028E030E0AC015695479580FF06C0CA016A
:101AE000A1E08A27A0EA9A2701C0CA012150310942
:101AF00089F76E13EBCF8F83988719868091A107A2
:101B00009091A207DC01ED91FC910284F385E02D18
:101B10001995019699F7E091B708F091B8083097B8
:101B200009F01995E8E0BE0E8091A1079091A207F7
:101B3000D7016D917D01DC01ED91FC910190F08167
:101B4000E02D1995BE10F0CF8091A1079091A207CA
:101B5000DC01ED91FC910680F781E02D1995E09173
:101B6000B908F091BA08309709F019950E9434022B
:101B70004B015C0188E0F82EE12C8091A107909147
:101B8000A207DC01ED91FC910084F185E02D19950F
:101B9000892BA9F0DD24D394DE0C8091A1079091CC
:101BA000A207DC01ED91FC910284F385E02D1995EB
:101BB000F801EE0DF11D8083FA94ED2C07C0E09141
:101BC000B508F091B608309709F01995B5E0EB1219
:101BD00025C099818091A3079813ACC0EA818E2F0C
:101BE0008F77833009F0A8C0E7FF04C08B8188237A
:101BF00051F186C08E2F90E0FC013197E731F1055D
:101C000068F48827EC57FF4F8F4F0C945017B3E0C0
:101C1000FB2E04C0FB8002C0A5E0FA2E0E94340215
:101C2000DC01CB0188199909AA09BB09813D9740BC
:101C3000A105B10510F082EE63C0F1109ECFF4E073
:101C4000FE1508F07BC02FEF3FEFE0E08E2D90E017
:101C5000AC01425051096E2F70E064177507C4F44F
:101C6000D801A60FB71F6C91262768E070E0D90154
:101C7000B695A79520FF06C09D01F1E02F27F0EA59
:101C80003F2701C09D016150710989F7EF5FE3CFE4
:101C9000F801E40FF51F40814213A0C0FE01E80FD8
:101CA000F91F808183139AC049C02034E8F4880F5B
:101CB000991FDC01AF55B84FE5E0F0E0EC0FFD1FD8
:101CC000E80FF91F408150E0542F4427E4E0F0E092
:101CD000EC0FFD1FE80FF91F8081FA01E82BCF01FF
:101CE00018969C938E931797322F2F5F822F90E038
:101CF00086179707D4F23093B408F0FC53C080E005
:101D00001092AE081092B0081092AF081092B3086B
:101D1000D3950FB6F894DEBF0FBECDBFDF91CF9144
:101D20001F910F91FF90EF90DF90BF90AF909F9029
:101D30008F90089580EEE4CF81EEE2CF8A818530E6
:101D400030F4833030F4813008F03FC0D8CF873191
:101D5000B1F66B8170E0759567952091B40840E00D
:101D6000842F90E0861797076CF54034C0F49C01EF
:101D70002E5F3F4F220F331F880F991FFC01EF5535
:101D8000F84FDE01A20FB31F8C9190E0982F8827A7
:101D9000D801A20FB31F2C91822B90878783242F09
:101DA0004F5FDECF203468F4880F991FFC01EF5598
:101DB000F84FD801A80FB91F13968C9190E0908727
:101DC00087832F5F2093B4089ACFFB806F2D70E03C
:101DD000759567953091B40820E088CF83EE90CF59
:101DE000EF92FF920F931F93CF93DF93FC01248117
:101DF00035816115710511F480E018C04115510558
:101E0000A1F07B01EC018A01020F131FB8016DDD07
:101E1000882391F3288139818C819D81B701820FBC
:101E2000931F0E9476191D830C8381E0DF91CF916F
:101E30001F910F91FF90EF9008956115710549F082
:101E4000FB0101900020E9F73197AF01461B570BCA
:101E5000C7CF80E00895CF93DF93EC01888199810B
:101E6000009711F00E94ED17198218821D821C82C2
:101E70001B821A82DF91CF910895CF93DF93EC01FB
:101E800041E050E066EC72E0ABDF811102C0CE01B0
:101E9000E2DFCE01DF91CF910895EF92FF920F9391
:101EA0001F93CF93DF93EC017B018A01BA011DDD03
:101EB000811103C0CE01CFDF07C01D830C83B701A2
:101EC000888199810E947619CE01DF91CF911F916F
:101ED0000F91FF90EF900895CF93DF93EC01611580
:101EE000710551F0FB0101900020E9F73197AF0136
:101EF000461B570BD2DF01C0AEDFCE01DF91CF9181
:101F00000895CF93DF93EC01FB018617970751F0FB
:101F1000608171816115710521F044815581BDDFBA
:101F200001C099DFCE01DF91CF910895FC0180813E
:101F300091810C94ED1787E697E0F8DF8BE997E045
:101F4000F5CFCF93DF93CDB7DEB7E4970FB6F89414
:101F5000DEBF0FBECDBF789484B5826084BD84B5EA
:101F6000816084BD85B5826085BD85B5816085BD94
:101F700080916E00816080936E001092810080914C
:101F800081008260809381008091810081608093D4
:101F90008100809180008160809380008091B100F9
:101FA00084608093B1008091B00081608093B00024
:101FB0008091910082608093910080919100816076
:101FC0008093910080919000816080939000809137
:101FD000A10082608093A1008091A1008160809324
:101FE000A1008091A00081608093A00080912101D8
:101FF0008260809321018091210181608093210181
:102000008091200181608093200180917A0084601A
:1020100080937A0080917A00826080937A00809128
:102020007A00816080937A0080917A008068809342
:102030007A001092C10026E040E855E260E070E0CE
:1020400081EF94E03AD965E572E081EF94E076DAC9
:1020500026E040E05BE460E070E08BE296E02DD9A2
:1020600089E26ADC61E089E2C3DB6CE672E08BE264
:1020700096E064DA60E089E2BBDB26E040E855E206
:1020800060E070E088EC96E018D967E872E088ECD0
:1020900096E054DA86E150DC60E086E1A9DB88E274
:1020A0004BDCA2E02A2E312C1AE01093F00488E2D7
:1020B00043DC2EE040E05BE460E070E08EE895E019
:1020C000FCD81093A3078EE895E09093A207809325
:1020D000A1071092AE081092B0081092AF0827E046
:1020E00032E03093B8082093B7084FEF51E0509397
:1020F000BA084093B90864E572E0CE018896F5D934
:102100008AE090E09093A5078093A4073092A707F8
:102110002092A607ADDC8091A8079091A907409076
:10212000AA077091AB0797FFB5C121E02093DB04AC
:10213000E1E0EEA7292F30E0A901F3E0569547959D
:10214000FA95E1F7942F9170A9014074552758AB87
:102150004FA78901007211272770332721503109B9
:102160002430310560F4220F331F220F331FF90191
:10217000EE5EFD4F208131814281538104C020E019
:1021800030E040E85FE3882E912CA12CB12C512C3B
:10219000612C712C91111EC0D40199278827F72E2C
:1021A000E12C4701FF0CAA08BB08880D991DAA1D48
:1021B000BB1DBC01CD01640D751D861D971D29AB8E
:1021C0003AAB4BAB5CAB5BD529A93AA94BA95CA94F
:1021D00091D51EC0D40199278827D72EC12C46013E
:1021E000DD0CAA08BB08880D991DAA1DBB1DBC01EA
:1021F000CD01640D751D861D971D29AB3AAB4BAB08
:102200005CAB3DD529A93AA94BA95CA973D59058D7
:10221000EFA5F8A9EF2B19F063EA72E004C0012BD7
:1022200031F069EA72E0CE01889656DE35C01BA215
:102230001AA21DA21CA21FA21EA28E010F5F1F4F79
:1022400023E045E06DD2BC01CE01829645DE1A82C4
:1022500019821C821B821E821D82BE016E5D7F4F11
:10226000C8014FDEC80109DE8C0140919F075091E3
:10227000A00760919B0770919C07B2DD811102C09D
:10228000C801E9DDB801CE0188963BDECE0101969A
:102290004DDECE0182964ADEACA4BDA464E572E0B8
:1022A000CE01019622D90CA51DA501151105A9F095
:1022B000A016B10608F48501E8A5F9A5E00FF11F05
:1022C000B080108268A579A5CE01019605DE88A5AB
:1022D00099A5FC01E00FF11FB0820D811E8101154F
:1022E000110519F41092E6040FC00930110510F021
:1022F00009E010E069817A81A80186EE94E0FDD7BB
:10230000F801EA51FB4F1082CE0101960FDECE019B
:1023100088960CDE64E572E0CE010196E6D8609105
:10232000870770918807CE01019687DD62EB72E026
:10233000CE01019682DD66EE74E0CE0101967DDD70
:1023400067EB72E0CE01019678DD89819A810E9467
:102350004A0811DBCE010196E9DD8091DB04882378
:1023600081F048E150E060E070E08DE697E00E9487
:10237000680847E150E060E070E089E797E00E947C
:1023800068088091DB04811135C047E150E060E0CE
:1023900070E08DE697E00E94680848E150E060E058
:1023A00070E089E797E00E94680824C00E940F024D
:1023B000DC01CB0188199909AA09BB09883E934021
:1023C000A105B10558F021E0421A510861087108D1
:1023D00038EE830E33E0931EA11CB11C411451044E
:1023E0006104710419F781EF94E00E940B09182F22
:1023F000853691F081EF94E00E942D091816190698
:102400000CF046C00E940F024B015C018AE0482E8E
:10241000512C612C712CCACF81EF94E00E942D09C0
:10242000069744F31093DC040DED14E081EF94E083
:102430000E940B09F80181938F01F4E0033E1F070E
:10244000A9F71092E3048091E0048F3F99F6809100
:10245000E1048F3F79F68091E2048F3F59F6409175
:10246000DF0450E060E070E08091DE049091DD04D4
:10247000E4E0F2E0A191B191109709F4BBCF2C9167
:102480002913F8CF11962C9111972813F3CF06C07A
:1024900001D80ACE1092DB041EA64CCE4130510565
:1024A0006105710561F41496ED91FC9115973097D3
:1024B00009F4A0CF16968D919C91179710C0452BCB
:1024C000462B472B09F096CF1896ED91FC91199762
:1024D000309709F48FCF1A968D919C911B9719957F
:1024E00089CFE1EFF4E01382128248EE53E060E01E
:1024F00070E0448355836683778386E292E091831C
:10250000808325E331E03587248724E331E0378772
:10251000268720E331E0318B208B21E331E0338BC0
:10252000228B22E331E0358B248B26E331E0378B9D
:10253000268B118E128E138E148EEEE8F5E0138228
:10254000128244835583668377839183808325ED4C
:1025500030E03587248724ED30E03787268720ED6B
:1025600030E0318B208B21ED30E0338B228B22ED5C
:1025700030E0358B248B26ED30E0378B268B118EA7
:10258000128E138E148EEBE2F6E0138212824483D5
:10259000558366837783918380832DEC30E0358784
:1025A00024872CEC30E03787268728EC30E0318B0D
:1025B000208B29EC30E0338B228B2AEC30E0358BFA
:1025C000248B2EEC30E0378B268B118E128E138EDF
:1025D000148EE8ECF6E013821282448355836683FE
:1025E00077839183808385EC90E09587848784EC62
:1025F00090E09787868780EC90E0918B808B81ECD0
:1026000090E0938B828B82EC90E0958B848B86ECB0
:1026100090E0978B868B118E128E138E148EE5E6CA
:10262000F7E080E580831182E2E0F9E0158216820E
:102630001186138642E050E060E070E044875587E1
:102640006687778713A215A614A688E392E093A75E
:1026500082A717A6E6EFF8E0158216821186138688
:10266000E8EDF8E04083518362837383178AEBEBD4
:10267000F8E0138212829183808315821092B6084B
:102680001092B5081092B8081092B7081092BA08C4
:102690001092B90869EB72E08BE997E00E94750A25
:1026A000E1E9F7E084E1818385E1808345D9E5E8CC
:1026B000F7E010828DE081838CEB92E0938382833C
:1026C000158214821186108613861286178216824E
:1026D000E9E7F7E010828EE1818380EC92E093835A
:1026E00082831582148211861086138612861782C1
:1026F0001682EDE6F7E0108281E2818383EC92E0BE
:102700009383828315821482118610861386128623
:102710001782168264E572E087E697E00C94750AEA
:10272000EF920F931F93CF93DF93E80147FD02C011
:1027300034E001C034E1E42F440FFF0BF7FF03C086
:10274000F195E195F109E32E022F2E2FAE0120D055
:10275000CE01DF91CF911F910F91EF900895BB278C
:10276000FB015527AA27880F991FAA1FA41710F04D
:10277000A41B83955051B9F7A05DAA3308F0A95D59
:10278000A193009779F7B111B1931192CB0165C272
:102790004F925F926F927F929F92AF92BF92CF9231
:1027A000DF92EF92FF920F931F93CF93DF93CDB7FA
:1027B000DEB729970FB6F894DEBF0FBECDBF6A0112
:1027C000122FB02E2BE3201720F0FF24F394F00EED
:1027D00002C0BCE3FB2E0F2D27E0AE014F5F5F4F21
:1027E00064D1AC018981982F9970913031F0E1FC6E
:1027F00006C0E0FE06C090E205C09DE203C09BE279
:1028000001C090E0EE2DE07183FF3CC0911102C049
:1028100083E001C084E0811718F4212F281B01C038
:1028200020E0E1110BC0F601822F30E2882319F07D
:1028300031938150FBCFC20ED11C20E0992329F0A7
:10284000D6019C93F60131966F01C6010396E2FE14
:102850000AC03EE4D6013C9341E411964C93119793
:1028600012963C9306C03EE6F601308341E6418372
:102870003283FC01322F40E2332309F442C04193FA
:102880003150FACF82FF44C0911102C083E001C0F1
:1028900084E0811718F4212F281B01C020E0E111EA
:1028A0000BC0F601822F30E2882319F0319381505A
:1028B000FBCFC20ED11C20E0992329F0D6019C93B6
:1028C000F60131966F01C6010396E2FE0BC039E4B2
:1028D000D6013C933EE411963C93119736E4129650
:1028E0003C9307C039E6F60130833EE6318336E695
:1028F0003283FC01322F40E2332319F041933150EF
:10290000FBCFFC01E20FF11D10828EEF9FEFB7C0ED
:10291000F1E0911101C0F0E06F2F70E01416150680
:1029200024F49A012F5F3F4F02C021E030E0260FD0
:10293000371FBB2029F06B2D70E06F5F7F4F02C007
:1029400060E070E0260F371F612F70E02617370711
:102950001CF4121B212F01C020E03E2D387159F4C8
:10296000D601322F60E2332319F06D933150FBCF43
:10297000C20ED11C20E0FF2331F0D6019C93B6019A
:102980006F5F7F4F6B01E1110BC0F601922F30E3B7
:10299000992319F031939150FBCFC20ED11C20E046
:1029A0009F2D940F3A81782F7071A72E84FF03C05A
:1029B000313309F49150191624F4993018F098E045
:1029C00001C091E0E42F852F57FF02C0E0E080E0D6
:1029D0006E2F782FE0E0F0E0AEE29A2E3A01691A0D
:1029E00071082A01461A570A0B2D10E0119501951E
:1029F00011096F3F8FEF780729F4D6019C92C60129
:102A000001966C014617570784F0661677066CF43A
:102A10007F01E40CF51CA1E0B0E0AC0FBD1FEA0E95
:102A2000FB1ED7011196BC9002C090E3B92E6150F5
:102A300071093196C60101967C016017710724F077
:102A4000D601BC926C01D5CF6417750741F43633BB
:102A500020F4353321F4A11002C081E3B82EF60131
:102A6000B082F701822F90E2882319F09193815070
:102A7000FBCFF701E20FF11D108280E090E0299674
:102A80000FB6F894DEBF0FBECDBFDF91CF911F917F
:102A90000F91FF90EF90DF90CF90BF90AF909F90FD
:102AA0007F906F905F904F900895283008F027E056
:102AB0003327DA01990F311D87FD9160009661057A
:102AC000710539F432602E5F3D9330E32A95E1F7CA
:102AD00008959F3F30F080387105610509F03C5F33
:102AE0003C5F3D93913008F08068911DDF93CF9358
:102AF0001F930F93FF92EF92192F987F9695E92FCE
:102B000096959695E90FFF27E057FE4F99273327B3
:102B1000EE24FF24A701E70105900894079428F408
:102B2000360FE71EF81E491F511D660F771F881FBD
:102B3000991F0694A1F70590079428F4E70EF81E54
:102B4000491F561FC11D770F881F991F661F0694C6
:102B5000A1F70590079428F4F80E491F561FC71FC8
:102B6000D11D880F991F661F771F0694A1F7059046
:102B7000079420F4490F561FC71FD81F990F661FCF
:102B8000771F881F0694A9F784911095177041F05C
:102B9000D695C79557954795F794E7941A95C1F739
:102BA000E6E3F1E068941590159135916591959162
:102BB00005907FE27395E118F10A430B560BC90BA0
:102BC000D009C0F7E10CF11E431F561FC91FD01DCD
:102BD0007EF4703311F48A95E6CFE894015030F01A
:102BE000080F0AF40027021708F4202F2395022F5C
:102BF0007A3328F079E37D932A95E9F710C07D9325
:102C00002A9589F6069497956795379517951794A1
:102C1000E118F10A430B560BC90BD00998F0239524
:102C20007E9173957A3308F070E37C932013B8F7A4
:102C30007E9170617D9330F0839571E37D9370E3B5
:102C40002A95E1F71124EF90FF900F911F91CF91FA
:102C5000DF91992787FD90950895DC01FC01672F8E
:102C600071917723E1F7329704C07C916D93708363
:102C70006291AE17BF07C8F30895E89409C097FBA7
:102C80003EF490958095709561957F4F8F4F9F4F43
:102C90009923A9F0F92F96E9BB279395F695879587
:102CA00077956795B795F111F8CFFAF4BB0F11F44A
:102CB00060FF1BC06F5F7F4F8F4F9F4F16C08823F1
:102CC00011F096E911C0772321F09EE8872F762F27
:102CD00005C0662371F096E8862F70E060E02AF068
:102CE0009A95660F771F881FDAF7880F9695879554
:102CF00097F908950BD078C069D028F06ED018F0FD
:102D0000952309F05AC05FC01124A2C07ED0A0F361
:102D1000959FD1F3950F50E0551F629FF001729F70
:102D2000BB27F00DB11D639FAA27F00DB11DAA1F8F
:102D3000649F6627B00DA11D661F829F2227B00DDC
:102D4000A11D621F739FB00DA11D621F839FA00D67
:102D5000611D221F749F3327A00D611D231F849FB7
:102D6000600D211D822F762F6A2F11249F5750400E
:102D70008AF0E1F088234AF0EE0FFF1FBB1F661FA9
:102D8000771F881F91505040A9F79E3F510570F062
:102D900014C05EC05F3FECF3983EDCF386957795F8
:102DA0006795B795F795E7959F5FC1F7FE2B880F5D
:102DB000911D9695879597F9089597F99F6780E8F3
:102DC00070E060E008959FEF80EC089500240A947D
:102DD0001616170618060906089500240A941216F6
:102DE0001306140605060895092E0394000C11F429
:102DF000882352F0BB0F40F4BF2B11F460FF04C0D6
:102E00006F5F7F4F8F4F9F4F089557FD9058440F2E
:102E1000551F59F05F3F71F04795880F97FB991F39
:102E200061F09F3F79F087950895121613061406F6
:102E3000551FF2CF4695F1DF08C016161706180683
:102E4000991FF1CF86957105610508940895E8945E
:102E5000BB2766277727CB0197F90895A1E21A2EA1
:102E6000AA1BBB1BFD010DC0AA1FBB1FEE1FFF1F2E
:102E7000A217B307E407F50720F0A21BB30BE40B7E
:102E8000F50B661F771F881F991F1A9469F76095C5
:102E90007095809590959B01AC01BD01CF0108957F
:102EA000EE0FFF1F881F8BBF0790F691E02D19943E
:102EB000CF93DF938230910510F482E090E0E091AF
:102EC0004D09F0914E0920E030E0C0E0D0E03097AD
:102ED00011F14081518148175907C0F0481759072F
:102EE00061F482819381209719F09B838A832BC0A0
:102EF00090934E0980934D0926C02115310519F094
:102F00004217530718F49A01BE01DF01EF01028056
:102F1000F381E02DDCCF2115310509F1281B390B98
:102F20002430310590F412968D919C911397611580
:102F3000710521F0FB019383828304C090934E09B5
:102F400080934D09FD01329644C0FD01E20FF31F4D
:102F500081939193225031092D933C933AC0209153
:102F60004B0930914C09232B41F420910E023091F2
:102F70000F0230934C0920934B0920910C023091A1
:102F80000D022115310541F42DB73EB740911002D5
:102F900050911102241B350BE0914B09F0914C0923
:102FA000E217F307A0F42E1B3F0B2817390778F020
:102FB000AC014E5F5F4F2417350748F04E0F5F1F7F
:102FC00050934C0940934B098193919302C0E0E0E8
:102FD000F0E0CF01DF91CF9108950F931F93CF932E
:102FE000DF93009709F48CC0FC01329713821282A0
:102FF00000914D0910914E090115110581F42081B0
:103000003181820F931F20914B0930914C09281771
:10301000390779F5F0934C09E0934B0971C0D80159
:1030200040E050E0AE17BF0750F412962D913C914E
:103030001397AD012115310509F1D901F3CF9D0198
:10304000DA013383228360817181860F971F821793
:10305000930769F4EC0128813981260F371F2E5F11
:103060003F4F318320838A819B8193838283452BC9
:1030700029F4F0934E09E0934D0942C01396FC9356
:10308000EE931297ED01499159919E01240F351F3E
:10309000E217F30771F480819181840F951F0296E6
:1030A00011969C938E938281938113969C938E9319
:1030B0001297E0E0F0E0D80112968D919C91139761
:1030C000009719F0F8018C01F6CF8D919C91980131
:1030D0002E5F3F4F820F931F20914B0930914C0977
:1030E0002817390769F4309729F410924E09109285
:1030F0004D0902C01382128210934C0900934B09B0
:10310000DF91CF911F910F9108956F927F928F92CF
:103110009F92AF92BF92CF92DF92EF92FF920F9366
:103120001F93CF93DF93EC01009781F4CB01DF91E4
:10313000CF911F910F91FF90EF90DF90CF90BF90B4
:10314000AF909F908F907F906F90B2CEFC01E60F72
:10315000F71F9C0122503109E217F30708F4A8C0B9
:10316000D9010D911C91119706171707A8F005308A
:10317000110508F49BC0C80104978617970708F447
:1031800095C002501109061B170B019311936D9303
:103190007C93CF0122DF8AC05B01A01AB10A4C01E7
:1031A000800E911EA0914D09B0914E0940E050E073
:1031B000E12CF12C109709F44AC0A815B905D1F5F6
:1031C0006D907C901197630182E0C80ED11CCA14E7
:1031D000DB0480F1A3014A195B096A0182E0C80E91
:1031E000D11C1296BC9012971396AC91B5E0CB16F9
:1031F000D10440F0B282A38351834083D9016D93FF
:103200007C930AC00E5F1F4FC301800F911FF9010D
:1032100091838083EB2DFA2FE114F10431F0D70173
:103220001396FC93EE93129741C0F0934E09E093EE
:103230004D093CC08D919C9111974817590708F48E
:10324000AC017D0112960D90BC91A02DB3CF809161
:103250004B0990914C0988159905E1F446175707D9
:10326000C8F480910C0290910D02009741F48DB743
:103270009EB74091100250911102841B950BE817E4
:10328000F907B0F4F0934C09E0934B09F90171830D
:1032900060830CC0CB010CDE7C01009749F0A801D3
:1032A000BE011BD0CE0199DEC70104C0CE0102C011
:1032B00080E090E0DF91CF911F910F91FF90EF9010
:1032C000DF90CF90BF90AF909F908F907F906F9046
:1032D000089581E090E0F8941FC0FB01DC0102C07A
:1032E00001900D9241505040D8F70895FB01DC0148
:1032F00001900D920020E1F70895FB01DC0141509F
:10330000504048F001900D920020C9F701C01D9275
:1033100041505040E0F7089511E0CCE9D1E000E0E1
:1033200005C0802FFE01BCDD2196011DCD39D107DE
:0A33300080E00807B1F7F894FFCF22
:10333A00FFFFFFFF850779076D07000000004F09AF
:10334A008000CDCCCC3D0AD7233C6F12833A17B705
:10335A00D13800000000E309B808FC08290A2D0941
:10336A000B091F09000000001F06B808D901D8017F
:10337A0000000000730AB808D901D8012E706963E9
:10338A003D000D0A0052533233325F54544C2043ED
:10339A006F6E666967757261646F210052533438C3
:1033AA00352045787465726E6F20436F6E66696763
:1033BA00757261646F2100506F72746120646520B8
:1033CA00446562756720436F6E66696775726164EA
:1033DA00612100534F4252450053415455524144D2
:1033EA004F002E7478743D22004B4700743133002D
:0833FA00703300703400200064
:00000001FF
