:10000000D3C1000002C2000000C20000FEC1000017
:10001000FCC10000FAC10000F8C10000F6C10000F8
:10002000F4C1000031C600002FC600002DC600003C
:10003000ECC10000EAC10000E8C10000E6C1000018
:10004000E4C10000E2C10000E0C10000DEC1000028
:10005000DCC10000DAC10000D8C10000CBC500003F
:10006000D4C1000075C400004AC40000CEC1000025
:10007000CCC10000CAC10000C8C10000C6C1000058
:10008000C4C10000C2C10000C0C10000BEC1000068
:100090000DC40000E2C30000B8C10000B6C10000FA
:1000A000B4C10000B2C10000B0C10000AEC1000088
:1000B000ACC10000AAC10000A8C10000A6C1000098
:1000C000A4C10000A2C10000A0C100009DC30000A7
:1000D00072C300009AC1000045C300001AC30000AB
:1000E00094C100004C034F033E03420348038603C0
:1000F000530357035D03610365036B036F037303CE
:10010000860379037D038103201020102010201026
:100110001D101D102410241024102410241024104D
:10012000241024101D101D1024102410241024103D
:1001300024102210201000407A10F35A00A0724EB2
:1001400018090010A5D4E80000E87648170000E47C
:100150000B54020000CA9A3B000000E1F5050000C4
:1001600080969800000040420F000000A086010029
:100170000000102700000000E803000000006400F9
:10018000000000000A000000000001000000000064
:100190002C76D888DC674F0823DFC1DFAE59E1B188
:1001A000B796E5E3E453C63AE651997696E8E6C297
:1001B0008426EB898C9B62ED407C6FFCEFBC9C9F9E
:1001C00040F2BAA56FA5F490055A2AF75C936B6CC0
:1001D000F9676DC11BFCE0E40D47FEF520E6B500B4
:1001E000D0ED902E0300943577050080841E080022
:1001F00000204E0A000000C80C333333330F986ED2
:1002000012831141EF8D2114893BE65516CFFEE68E
:10021000DB18D1844B381BF77C1D901DA4BBE42454
:10022000203284725E228100C9F124ECA1E53D27D1
:1002300000002100240027002A002D003000330098
:1002400001010000040107010A0101021020200839
:100250000810204010204080020102010804020121
:100260000102040810204080804020100804020190
:1002700080040201804020100804020108040201E9
:100280000102040810204080010204081020408070
:1002900005050505070508080808020202020A0A02
:1002A0000808040404040101010101010101030320
:1002B000030303030303040707070C0C0C0C0C0CCB
:1002C0000C0C0202020206060606060606060B0BC8
:1002D0000B0B0B0B0B0B43617274C3A36F205344C6
:1002E00020696E69636961646F20636F6D20737547
:1002F000636573736F210046616C686120616F20D4
:1003000061627269722063617274C3A36F20534487
:1003100000496E696369616C697A616E646F20532C
:100320004420436172642E2E2E000000220025001E
:1003300028002B002E0031003400020100000501CE
:1003400008010B01000020002300260029002C00DA
:100350002F00320000010000030106010901000026
:100360000A0B02090C0D0E0807030401000000002F
:10037000000000000000000000000000000000007D
:10038000000000000000000000001211100000003A
:10039000000000000000000000000000000000005D
:1003A00000000000441E651F11241FBECFEFD1E2E4
:1003B000DEBFCDBF00E00CBF14E0A0E0B2E0ECE88F
:1003C000FBE400E00BBF02C007900D92AA30B1071A
:1003D000D9F72AE0AAE0B4E001C01D92AA39B20719
:1003E000E1F711E0C3EDD1E000E006C0219701097B
:1003F000802FFE010E946523C23DD10780E00807DF
:10040000A9F70E941D180C94B525FACDFC01A0890E
:10041000B1898C91A689B78982FD0FC09C91818D8D
:100420008F5F8F73228D821749F0218DDF01A20F1C
:10043000B11D5D969C93818F08958C910895FC0168
:10044000538D448D252F30E0842F90E0821B930B39
:10045000541710F0CF96089501970895FC01918DDF
:10046000828D981761F0828DDF01A80FB11D5D9616
:100470008C91928D9F5F9F73928F90E008958FEF84
:100480009FEF0895FC01918D828D981731F0828D38
:10049000E80FF11D858D90E008958FEF9FEF08958F
:1004A000FC01918D228D892F90E0805C9F4F821BF3
:1004B00091098F73992708958AE396E0F1DF21E08F
:1004C000892B09F420E0822F089587ED96E0E8DF7C
:1004D00021E0892B09F420E0822F089584E797E03A
:1004E000DFDF21E0892B09F420E0822F089581E1EC
:1004F00098E0D6DF21E0892B09F420E0822F0895CF
:10050000FC01848DDF01A80FB11DA35ABF4F2C91B0
:10051000848D90E001968F739927848FA689B7897F
:100520002C93A089B1898C9180648C93938D848D58
:10053000981306C00288F389E02D80818F7D808327
:100540000895EF92FF920F931F93CF93DF93EC01E7
:1005500081E0888F9B8D8C8D981305C0E889F9897F
:10056000808185FD23C0F62E0B8D10E00F5F1F4F9D
:100570000F731127E02E8C8DE8120BC00FB607FC0D
:10058000FACFE889F989808185FFF5CFCE01B8DF00
:10059000F2CF8B8DFE01E80FF11DE35AFF4FF08281
:1005A0000B8FEA89FB898081806207C0EE89FF8911
:1005B0006083E889F98980818064808381E090E0AC
:1005C000DF91CF911F910F91FF90EF900895CF93FE
:1005D000DF93EC01888D8823C1F0EA89FB89808153
:1005E00085FD05C0A889B9898C9186FD0EC00FB61E
:1005F00007FCF5CF808185FFF2CFA889B9898C915E
:1006000085FFEDCFCE017CDFE8CFDF91CF9108955C
:1006100080E090E0892B19F06ADF811116C080E03C
:1006200090E0892B19F05ADF811112C080E090E030
:10063000892B19F04ADF81110EC080E090E0892BF0
:1006400079F03ADF81110AC008950E940000E7CFD7
:100650000E940000EBCF0E940000EFCF0C9400003E
:10066000089590E0FC013197E231F10508F04EC0A9
:100670008827EE58FF4F8F4F0C94652380918000A0
:100680008F7703C0809180008F7D809380000895D4
:1006900080918000877FF9CF84B58F7702C084B5C1
:1006A0008F7D84BD08958091B0008F7703C08091C5
:1006B000B0008F7D8093B0000895809190008F7777
:1006C00007C0809190008F7D03C080919000877F4C
:1006D0008093900008958091A0008F7707C080914B
:1006E000A0008F7D03C08091A000877F8093A00031
:1006F0000895809120018F7707C0809120018F7D20
:1007000003C080912001877F8093200108950E947B
:1007100092251F920F920FB60F9211240BB60F92D3
:100720002F933F934F935F936F937F938F939F93F9
:10073000AF93BF93EF93FF938AE396E0E1DEFF91DF
:10074000EF91BF91AF919F918F917F916F915F9149
:100750004F913F912F910F900BBE0F900FBE0F90B6
:100760001F9018951F920F920FB60F9211240BB67F
:100770000F922F933F934F935F936F937F938F933A
:100780009F93AF93BF93EF93FF938AE396E03EDE90
:10079000FF91EF91BF91AF919F918F917F916F9159
:1007A0005F914F913F912F910F900BBE0F900FBE15
:1007B0000F901F9018951F920F920FB60F92112451
:1007C0000BB60F922F933F934F935F936F937F934B
:1007D0008F939F93AF93BF93EF93FF9387ED96E033
:1007E0008FDEFF91EF91BF91AF919F918F917F919C
:1007F0006F915F914F913F912F910F900BBE0F9092
:100800000FBE0F901F9018951F920F920FB60F9268
:1008100011240BB60F922F933F934F935F936F93D7
:100820007F938F939F93AF93BF93EF93FF9387ED46
:1008300096E0ECDDFF91EF91BF91AF919F918F9189
:100840007F916F915F914F913F912F910F900BBED0
:100850000F900FBE0F901F9018951F920F920FB61A
:100860000F9211240BB60F922F933F934F935F93E8
:100870006F937F938F939F93AF93BF93EF93FF9368
:1008800084E797E03DDEFF91EF91BF91AF919F919B
:100890008F917F916F915F914F913F912F910F9029
:1008A0000BBE0F900FBE0F901F9018951F920F92C6
:1008B0000FB60F9211240BB60F922F933F934F93C5
:1008C0005F936F937F938F939F93AF93BF93EF93B8
:1008D000FF9384E797E09ADDFF91EF91BF91AF918D
:1008E0009F918F917F916F915F914F913F912F9148
:1008F0000F900BBE0F900FBE0F901F9018951F9278
:100900000F920FB60F9211240BB60F922F933F93B5
:100910004F935F936F937F938F939F93AF93BF9307
:10092000EF93FF9381E198E0EBDDFF91EF91BF91B1
:10093000AF919F918F917F916F915F914F913F9177
:100940002F910F900BBE0F900FBE0F901F90189518
:100950001F920F920FB60F9211240BB60F922F9386
:100960003F934F935F936F937F938F939F93AF9337
:10097000BF93EF93FF9381E198E048DDFF91EF9102
:10098000BF91AF919F918F917F916F915F914F91A7
:100990003F912F910F900BBE0F900FBE0F901F90A5
:1009A0001895CF92DF92EF92FF921F93CF93DF9330
:1009B000EC016A017B01122FE889F98982E08083CA
:1009C0004115514E61057105B1F060E079E08DE3AC
:1009D00090E0A70196010E941523DA01C901019751
:1009E000A109B109B695A79597958795AC014115D1
:1009F00080E15807A8F0E889F989108260E874E876
:100A00008EE190E0A70196010E941523BA01A90189
:100A10004150510961097109769567955795479538
:100A2000EC85FD855083EE85FF854083188EEC892B
:100A3000FD891083EA89FB89808180618083EA894E
:100A4000FB89808188608083EA89FB898081806856
:100A50008083EA89FB8980818F7D8083DF91CF91BC
:100A60001F91FF90EF90DF90CF900895CF93DF9389
:100A7000282F30E0F901E25AFC4F8491F901E65B3E
:100A8000FD4FD491F901E057FD4FC491CC2389F07B
:100A90008111E7DDEC2FF0E0EE0FFF1FEC5BFC4F68
:100AA000A591B491EC91ED2381E090E021F480E0F8
:100AB00002C080E090E0DF91CF9108951F93CF9323
:100AC000DF93282F30E0F901E25AFC4F8491F901BD
:100AD000E65BFD4FD491F901E057FD4FC491CC2363
:100AE000C1F0162F8111BDDDEC2FF0E0EE0FFF1FDE
:100AF000E65DFC4FA591B4918FB7F894111105C034
:100B00009C91ED2FE095E92302C0EC91ED2BEC9345
:100B10008FBFDF91CF911F910895CF93DF9390E026
:100B2000FC01E65BFD4F2491FC01E057FD4F8491F1
:100B3000882361F190E0880F991FFC01E05DFD4F73
:100B4000C591D491FC01E65DFC4FA591B491611172
:100B500009C09FB7F8948881209582238883EC91FF
:100B60002E230BC0623061F49FB7F8943881822F36
:100B7000809583238883EC912E2B2C939FBF06C0F6
:100B80008FB7F894E8812E2B28838FBFDF91CF9108
:100B900008953FB7F8948091340490913504A09162
:100BA0003604B091370426B5A89B05C02F3F19F035
:100BB0000196A11DB11D3FBFBA2FA92F982F8827DD
:100BC000820F911DA11DB11DBC01CD0142E0660F38
:100BD000771F881F991F4A95D1F708952FB7F8946A
:100BE000609130047091310480913204909133040B
:100BF0002FBF08951F920F920FB60F9211242F93BB
:100C00003F938F939F93AF93BF93809130049091C4
:100C10003104A0913204B091330430912F0423E0C9
:100C2000230F2D3720F40196A11DB11D05C026E824
:100C3000230F0296A11DB11D20932F048093300431
:100C400090933104A0933204B09333048091340420
:100C500090913504A0913604B09137040196A11DFE
:100C6000B11D8093340490933504A0933604B0935F
:100C70003704BF91AF919F918F913F912F910F902A
:100C80000FBE0F901F9018951F920F920FB60F92E4
:100C900011240F900FBE0F901F901895CF93DF93E4
:100CA000EC018AE396E0FCDB892B21F08AE396E0F5
:100CB000D5DBF7CFBE018AE396E00E94A7126FEF63
:100CC0008AE396E03EDC6FEF8AE396E03ADC6FEF72
:100CD0008AE396E0DF91CF9134CC8F929F92AF92CE
:100CE000BF92EF92FF920F931F93CF93DF93CDB7F5
:100CF000DEB760970FB6F894DEBF0FBECDBF7C01A4
:100D00004A015B018E010F5F1F4F8AE0F8011192CB
:100D10008A95E9F768E074E0CE010B960E94931281
:100D20004AE0B801C4010E948C1FF70162817381FF
:100D3000CE010B960E94151269EE73E0CE010B9660
:100D40000E941512B801CE010B960E9415128B85D8
:100D50009C85A4DF92D3182FCE010B960E948E1291
:100D6000812F60960FB6F894DEBF0FBECDBFDF9126
:100D7000CF911F910F91FF90EF90BF90AF909F90F8
:100D80008F900895809128048823A9F1409108024A
:100D90005091090260910A0270910B0228E334E03D
:100DA00080913806909139060E94BE17811102C0C9
:100DB00080E008954091290450912A0460912B0409
:100DC00070912C04411551056105710591F028E3DE
:100DD00034E080913806909139060E94BE1788232E
:100DE00039F31092290410922A0410922B041092C5
:100DF0002C041092280481E008958F929F92AF9264
:100E0000BF92EF92FF920F931F93CF934B015C0120
:100E1000C42F8091080290910902A0910A02B0911A
:100E20000B0288159905AA05BB05F9F0ABDF811106
:100E300002C080E020C088E3E82E84E0F82E00E0C5
:100E400012E020E030E0B501A401809138069091D5
:100E500039060E94FD15882361F380920802909262
:100E60000902A0920A02B0920B0280912804C82BBA
:100E7000C093280481E0CF911F910F91FF90EF90D4
:100E8000BF90AF909F908F9008954F925F926F9216
:100E90007F928F929F92AF92BF92CF92DF92EF920A
:100EA000FF920F931F93CF93DF93EC016A017B01B5
:100EB00028013901423051056105710510F480E0C7
:100EC00072C089859A85AB85BC850196A11DB11D2F
:100ED00084179507A607B70790F38B889C88AD8881
:100EE000BE888F89803129F4BB27AF2D9E2D8D2D93
:100EF00009C0DB01CA0147E0B695A795979587958C
:100F00004A95D1F7880E991EAA1EBB1E8091080231
:100F100090910902A0910A02B0910B0288169906DD
:100F2000AA06BB0679F48F89803199F4DD24EE247A
:100F3000FF24C601880F991FFC01E85CFB4F51821A
:100F4000408218C040E0C501B40157DF8111EBCFEA
:100F5000B6CFE894C7F8DD24EE24FF24C601880F3D
:100F6000991F880F991FFC01E85CFB4F408251825A
:100F700062827382809128048160809328048A8928
:100F8000823080F08D819E81AF81B885880E991E58
:100F9000AA1EBB1E8092290490922A04A0922B04C0
:100FA000B0922C0481E0DF91CF911F910F91FF90BF
:100FB000EF90DF90CF90BF90AF909F908F907F90F9
:100FC0006F905F904F9008958F929F92AF92BF92D3
:100FD000CF92DF92EF92FF920F931F93CF93DF9305
:100FE000FC0181859285A385B4850196A11DB11D63
:100FF00084179507A607B70710F480E05BC08389C4
:101000009489A589B689C789C03129F4852E962E81
:10101000A72EBB2409C04A015B01C7E0B694A79480
:1010200097948794CA95D1F7E9016A017B018F01F2
:10103000BC01CD01680D791D8A1D9B1D80900802A1
:1010400090900902A0900A02B0900B0268157905F1
:101050008A059B0599F4F80187898031A1F4B701CD
:10106000A601552766277727440F551FFA01E85C2C
:10107000FB4F80819181A0E0B0E017C040E0BDDE71
:101080008111E9CFBACFB701A6014F77552766275F
:101090007727440F551F440F551FFA01E85CFB4F9B
:1010A00080819181A281B381BF7088839983AA8353
:1010B000BB8381E0DF91CF911F910F91FF90EF9063
:1010C000DF90CF90BF90AF909F908F9008954F92F8
:1010D0005F926F927F92AF92BF92CF92DF92EF9228
:1010E000FF920F931F93CF93DF9300D01F92CDB742
:1010F000DEB78C0149835A836B837C835901C12CF1
:10110000D12C7601412C82E0582E612C712C498122
:101110005A816B817C819E012F5F3F4FC80154DF54
:10112000882351F1D301C201F801058404C0880F5E
:10113000991FAA1FBB1F0A94D2F7C80ED91EEA1E18
:10114000FB1E49815A816B817C818789803129F01E
:1011500088EF9FEFAFEFBFE004C088EF9FEFA0E004
:10116000B0E0481759076A077B0788F2F501C0828B
:10117000D182E282F38281E00F900F900F900F9066
:10118000DF91CF911F910F91FF90EF90DF90CF9063
:10119000BF90AF907F906F905F904F9008958F9227
:1011A0009F92AF92BF92DF92EF92FF920F931F93A5
:1011B000CF93DF9300D01F921F92CDB7DEB78C0183
:1011C0006D83DC0115968C9115978130C9F41496C6
:1011D0008C9181FF15C082FF1BC0F801438954899F
:1011E0006589768982859385A485B5858417950759
:1011F000A607B70769F0C8010E948C13811108C0C7
:1012000081E090E0F8019383828380E090E0E1C088
:10121000D8011A964D915D916D917C911D975B96C9
:101220008D919C915C97FC01D480DA944A015B011A
:1012300029E0B694A794979487942A95D1F7D8205B
:101240007A01F1E0FF22D11046C0E114F10409F067
:1012500042C0D80116964D915D916D917C91199780
:10126000411551056105710559F457968D919D9170
:101270000D90BC91A02D0097A105B10539F520C0B6
:101280009E012F5F3F4FA0DE882309F4BECF8981E6
:101290009A81AB81BC81F801238D348DF9012789B6
:1012A000203129F048EF5FEF6FEF7FE004C048EF97
:1012B0005FEF60E070E084179507A607B70730F08E
:1012C000C8010E943B14811106C09ACFF8018683A1
:1012D0009783A087B187D8015B96ED91FC915C97CD
:1012E00016968D909D90AD90BC901997B2E08B1A98
:1012F0009108A108B108058404C0880C991CAA1C97
:10130000BB1C0A94D2F786859785A089B189880E7F
:10131000991EAA1EBB1E8D0C911CA11CB11CE114B0
:10132000F10401F5F801428553856485758583894B
:101330009489A589B689481759076A077B0790F0F1
:1013400021DD882309F45CCF809208029092090283
:10135000A0920A02B0920B028091280481608093CF
:10136000280407C041E0C501B40147DD882309F422
:1013700047CFF701E85CFB4F8D818083F8018285C0
:101380009385A485B5850196A11DB11D828793879C
:10139000A487B58743895489658976894817590791
:1013A0006A077B0738F4838B948BA58BB68B84817B
:1013B00080688483D80114968C9183FD03C081E0FA
:1013C00090E007C0C8010E944E13882309F418CF8B
:1013D000F6CF0F900F900F900F900F90DF91CF915D
:1013E0001F910F91FF90EF90DF90BF90AF909F9073
:1013F0008F900895E0911108F09112080190F0810A
:10140000E02D682F81E198E019940F931F93E6DB9C
:10141000609342067093430680934406909345067A
:10142000E0913A06F0913B060284F385E02D8AE3D1
:1014300096E0199597FF1EC0D1DB009142061091EE
:1014400043062091440630914506DC01CB01801B08
:10145000910BA20BB30B00913E0610913F06209119
:1014600040063091410680179107A207B307C0F2EA
:101470008FEF9FEF1F910F910895EF92FF920F93BF
:101480001F93CF93DF9300D01F92CDB7DEB71982A1
:101490001A821B821C8281E090E0A0E0B0E0809381
:1014A0003E0690933F06A0934006B09341068E01FE
:1014B0000F5F1F4F7E0185E0E80EF11CA6DF97FF4E
:1014C00004C08981813091F407C0F80181938F01B4
:1014D000EE15FF0599F7F5CF8A818F3F39F48B819F
:1014E0008F3F21F481E09C819F3F09F080E00F90C5
:1014F0000F900F900F90DF91CF911F910F91FF9060
:10150000EF900895CF92DF92EF92FF920F931F9387
:10151000CF93DF93CDB7DEB72E970FB6F894DEBF2B
:101520000FBECDBF7C018B016CEF73E0CE0109963D
:10153000FAD7D70112966D917C911397CE01099637
:1015400074D761E074E0CE0109966FD789859A85DA
:10155000A5DBFE01319688E0DF011D928A95E9F74F
:101560000115110511F410E045C081E090E0A0E004
:10157000B0E080933E0690933F06A0934006B09360
:1015800041067F01C12CD12C40DF97FDECCFF70144
:1015900081937F01FFEFCF1ADF0A88E0C816D104DC
:1015A00099F789818137F9F68E818F3FE1F68F8136
:1015B0008F3FC9F688858F3FB1F62D818C8190E0F1
:1015C000A0E0B0E0DC0199278827B22B2A81822B8A
:1015D0004B8150E0542F4427052E000C660B770BEF
:1015E000842B952BA62BB72BF80180839183A283A4
:1015F000B38311E0CE01099691D7812F2E960FB6B5
:10160000F894DEBF0FBECDBFDF91CF911F910F9138
:10161000FF90EF90DF90CF9008958F929F92AF92BE
:10162000BF92CF92DF92EF92FF92CF93DF93C82FBA
:101630008FE39AE09093390680933806CC2361F1CA
:10164000C53010F080E00BC140E060E070E0CB01FD
:10165000D4DB8823B9F320E1C29FC0011124885D47
:101660009B4FFC01E254FE4F20812F7759F73C96A7
:101670004081518162817381443651056105710554
:1016800008F33497C080D180E280F380C114D10484
:10169000E104F10421F4D6CFC12CD12C760140E035
:1016A000C701B601AADB882369F2809143049091B7
:1016B00044048115924031F6A0914804AA2309F40C
:1016C000C1CF60914604709147046115710509F41A
:1016D000B9CF20914504222309F4B4CFA093330A53
:1016E0002093250A80E030E0E1E0F0E0C82FAF0170
:1016F000082E02C0440F551F0A94E2F7241735073D
:1017000041F0982F8F5F983089F789E080932E0AF7
:1017100099CF80932E0A20914E0430914F042115C9
:10172000310519F040E050E008C020915C04309190
:101730005D0440915E0450915F042093260A30932B
:10174000270A4093280A5093290A46015701860E1A
:10175000971EA11CB11C8092340A9092350AA09267
:10176000360AB092370AE0914904F0914A04F093A6
:101770003A0AE093390AB0E00E940B23860E971EC6
:10178000A81EB91E80923B0A90923C0AA0923D0A84
:10179000B0923E0A85E0EE0FFF1F8A95E1F7E15017
:1017A000FE4FEF2FFF27E6958E0E9F1EA11CB11C4A
:1017B00080922F0A9092300AA092310AB092320A97
:1017C00020914B0430914C042115310521F0A901E1
:1017D00060E070E008C04091580450915904609155
:1017E0005A0470915B04D701C60188199909AA09A6
:1017F000BB09840F951FA61FB71F04C0B695A795F8
:1018000097958795CA95D2F780932A0A90932B0AC9
:10181000A0932C0AB0932D0A853F2FE09207A105D3
:10182000B10510F48CE018C0853F9F4FA105B105AC
:1018300010F480E111C08091640490916504A0913E
:101840006604B091670480933B0A90933C0AA0938E
:101850003D0AB0933E0A80E28093380A81E0DF912E
:10186000CF91FF90EF90DF90CF90BF90AF909F907F
:101870008F9008950F931F93CF93DF938C01C0E057
:10188000D0E0F801EC0FFD1F6491662371F0E09148
:101890001108F09112080190F081E02D81E198E0AB
:1018A0001995892B11F02196ECCF81E198E064D64F
:1018B0008C0F9D1FDF91CF911F910F9108958F92F3
:1018C0009F92AF92BF920F931F93CF93DF93CDB7A9
:1018D000DEB7A1970FB6F894DEBF0FBECDBF19A239
:1018E000423008F44AE08E010F5D1F4F842E912C88
:1018F000A12CB12CA50194010E941523E62FB9015A
:10190000CA0101501109EA3014F4E05D01C0E95C3C
:10191000D801EC93232B242B252B61F7B80181E10F
:1019200098E015D6A1960FB6F894DEBF0FBECDBFD6
:10193000DF91CF911F910F91BF90AF909F908F90AB
:101940000895CF93DF934AE0BADFEC0181E198E09C
:1019500013D68C0F9D1FDF91CF9108953F924F9228
:101960005F926F927F928F929F92AF92BF92CF922F
:10197000DF92EF92FF920F931F93CF93DF93CDB738
:10198000DEB76D970FB6F894DEBF0FBECDBF7C01FA
:10199000FC01168217821086118612861386148621
:1019A0001586C62ED12C79E3A72E72E0B72E7724A8
:1019B0007394E2E05E2E560EF4E06F2EC7010E9493
:1019C0008A168C01892B09F419C1F80180818823BA
:1019D00009F414C1853E91F38E3281F3838583FD32
:1019E000EDCF912C892D092C000C990B8C159D05A0
:1019F00024F480E2FFDC9394F5CF4801412C312C94
:101A0000F4018081803269F0F8E03F1203C08EE279
:101A1000F1DC4394F401608181E198E00E94A1022D
:101A200043943394FFEF8F1A9F0A8BE03812E8CF6C
:101A3000F80183858871803119F48FE2DBDC4394EF
:101A4000FDE0F41510F080E2F9CFF801808C918C64
:101A5000B401672F772766956454784F80E090E053
:101A60004AE02DDF8DE2C6DCC40145E096958795FE
:101A70004A95E1F78F70E6D68DE2BCDC882D8F7138
:101A8000E1D680E2B7DCF80186889788892D8695B3
:101A900086958695D7D68AE3ADDCC40155E0969548
:101AA00087955A95E1F78F73CDD68AE3A3DC882D0D
:101AB0008F71880FC7D6F80183858871803151F402
:101AC00081E198E059D5F80183858871803109F06A
:101AD00075CF0AC080E28EDCF801648D758D868D2D
:101AE000978D4AE0ECDEECCFF70102851385248563
:101AF000358585E036952795179507958A95D1F711
:101B0000015011091C821B82BA82A9821E82838D18
:101B1000948D9D8F8C8F480195E0880C991C9A9527
:101B2000E1F7A40160E070E0C701F6D5882309F46D
:101B30005DC0C7010E948A16009709F457C0FC01D6
:101B40008081882309F452C0853E09F44FC08E324B
:101B500009F44CC00F700B8B809108029091090220
:101B6000A0910A02B0910B028F87988BA98BBA8B38
:101B700080E2089FF0011124E85CFB4F44895589FD
:101B800060E070E0BA0155274427828D938DA0E074
:101B9000B0E0482B592B6A2B7B2B488F598F6A8FCB
:101BA0007B8F8385887151F4848D958DA68DB78D3B
:101BB0008C8B9D8BAE8BBF8B7E820BC08031B1F442
:101BC0009E012C5E3F4F8C8D9D8D81DA882371F0B4
:101BD0006E827D821F82188619861A861B861C8655
:101BE0001D861E86652DCE010196B8DEA401405EDD
:101BF0005F4F60E070E0C7018FD5E0CE6D960FB605
:101C0000F894DEBF0FBECDBFDF91CF911F910F9132
:101C1000FF90EF90DF90CF90BF90AF909F908F900C
:101C20007F906F905F904F903F900895CF92DF929A
:101C3000EF92FF920F931F93CF93DF936C017A0182
:101C40008B01C0E0D0E0CE15DF0589F0D8016D91A1
:101C50008D01D601ED91FC910190F081E02DC6013E
:101C60001995892B11F47E0102C02196ECCFC70192
:101C7000DF91CF911F910F91FF90EF90DF90CF9068
:101C80000895CF93DF93CAEDD8E061E089810E9487
:101C90008D0560E089810E945E0561E088810E9477
:101CA0005E0561E089810E945E0560E08981DF91C7
:101CB000CF910C948D05CF93DF93CAEDD8E061E00E
:101CC00089810E948D0560E088810E945E0561E047
:101CD00089810E945E0561E088810E945E0560E066
:101CE00088810E945E0560E08981DF91CF910C942C
:101CF0008D0560E08091DB080E948D0561E0809198
:101D0000DA080E945E058091DB08811101C0FFCFD7
:101D100060E08091DA080C945E051F93CF93DF9307
:101D200060E08091DB080E948D05C7E0D0E010E004
:101D300061E08091DA080E945E058091DB080E94D4
:101D400036059C0133270C2E01C0220F0A94EAF7B6
:101D5000122B60E08091DA080E945E05219740F71F
:101D6000812FDF91CF911F910895EF92FF920F93F2
:101D70001F93CF93DF93E82EF62EC7E0D0E0042F19
:101D800010E098010C2E02C0359527950A94E2F7D1
:101D9000B901617077278E2D0E945E0561E08F2D5D
:101DA0000E945E0560E08F2D0E945E05219748F736
:101DB000DF91CF911F910F91FF90EF9008950F93B6
:101DC0001F93CF93DF931F92CDB7DEB7482F0AED55
:101DD00018E061E0F801818149830E948D0561E08E
:101DE000F80181810E945E0561E0F80180810E9416
:101DF0005E0560E0F80181810E945E0560E0F80107
:101E000080810E945E054981F801608181810F9087
:101E1000DF91CF911F910F91A8CF0F931F93CF9375
:101E2000DF931F92CDB7DEB7482F0AED18E061E0CF
:101E3000F801818149830E948D054981F801608103
:101E400081810F90DF91CF911F910F918ECF0F93D2
:101E50001F93CF93DF93EC0188819981009729F03C
:101E60002A813B812617370788F48B016F5F7F4FEC
:101E70000E94AE24009761F0998388831B830A83B4
:101E80002C813D81232B11F4FC01108281E001C0E3
:101E900080E0DF91CF911F910F9108958F929F92D3
:101EA000AF92BF92DF92EF92FF920F931F93CF9367
:101EB000DF93CDB7DEB7DA950FB6F894DEBF0FBE6D
:101EC000CDBF8091EC08898383E08A838091ED08FF
:101ED0009091EE089B838C838091EF089091F0089D
:101EE0009D838E83CE0101967C01FC018FEF9FEFD5
:101EF0008701BE2C66E06E0D2191822728E030E03C
:101F0000AC015695479580FF06C0CA01A1E08A271B
:101F1000A0EA9A2701C0CA012150310989F76E133E
:101F2000EBCF8F83988719868091EA089091EB0810
:101F3000DC01ED91FC910284F385E02D1995019669
:101F400099F7E091000AF091010A309709F019958C
:101F5000E8E0BE0E8091EA089091EB08D7016D9100
:101F60007D01DC01ED91FC910190F081E02D19954E
:101F7000BE10F0CF8091EA089091EB08DC01ED9162
:101F8000FC910680F781E02D1995E091020AF0910D
:101F9000030A309709F019950E94EE054B015C0188
:101FA00088E0F82EE12C8091EA089091EB08DC01A2
:101FB000ED91FC910084F185E02D1995892BA9F014
:101FC000DD24D394DE0C8091EA089091EB08DC01CB
:101FD000ED91FC910284F385E02D1995F801EE0D49
:101FE000F11D8083FA94ED2C07C0E091FE09F09179
:101FF000FF09309709F01995B5E0EB1225C09981DA
:102000008091EC089813ACC0EA818E2F8F778330D3
:1020100009F0A8C0E7FF04C08B81882351F186C076
:102020008E2F90E0FC013197E731F10568F48827A5
:10203000EC57FF4F8F4F0C946523B3E0FB2E04C089
:10204000FB8002C0A5E0FA2E0E94EE05DC01CB0168
:1020500088199909AA09BB09813D9740A105B105D5
:1020600010F082EE63C0F1109ECFF4E0FE1508F090
:102070007BC02FEF3FEFE0E08E2D90E0AC014250AF
:1020800051096E2F70E064177507C4F4D801A60FCC
:10209000B71F6C91262768E070E0D901B695A79527
:1020A00020FF06C09D01F1E02F27F0EA3F2701C085
:1020B0009D016150710989F7EF5FE3CFF801E40FEB
:1020C000F51F40814213A0C0FE01E80FF91F808177
:1020D00083139AC049C02034E8F4880F991FDC01AB
:1020E000A651B74FE5E0F0E0EC0FFD1FE80FF91F38
:1020F000408150E0542F4427E4E0F0E0EC0FFD1F56
:10210000E80FF91F8081FA01E82BCF0118969C9304
:102110008E931797322F2F5F822F90E086179707A5
:10212000D4F23093FD09F0FC53C080E01092F7091F
:102130001092F9091092F8091092FC09D3950FB684
:10214000F894DEBF0FBECDBFDF91CF911F910F91ED
:10215000FF90EF90DF90BF90AF909F908F90089589
:1021600080EEE4CF81EEE2CF8A81853030F4833097
:1021700030F4813008F03FC0D8CF8731B1F66B81A1
:1021800070E0759567952091FD0940E0842F90E0FF
:10219000861797076CF54034C0F49C012E5F3F4FC3
:1021A000220F331F880F991FFC01E651F74FDE0104
:1021B000A20FB31F8C9190E0982F8827D801A20F0F
:1021C000B31F2C91822B90878783242F4F5FDECF04
:1021D000203468F4880F991FFC01E651F74FD801AD
:1021E000A80FB91F13968C9190E0908787832F5F7B
:1021F0002093FD099ACFFB806F2D70E07595679550
:102200003091FD0920E088CF83EE90CF0F931F938C
:10221000CF93DF93CDB7DEB728970FB6F894DEBF24
:102220000FBECDBF80EDCBDD64DD80E0F6DD61DD8E
:1022300028DD81EDC4DD5DDD00E010E06EDDF8013C
:10224000E652F74F828307301105F9F061E0809183
:10225000DB080E948D0560E08091DA080E945E052F
:1022600060E08091DB080E945E0561E08091DA0801
:102270000E945E0560E08091DA080E945E0560E0E1
:102280008091DB080E948D0501C015DD0F5F1F4F97
:102290000830110599F6F5DC8091DC08482F469549
:1022A000469546954E70942F990F990F490F8F7050
:1022B000480F8091DD08382F3695369536953E705B
:1022C000932F990F990F390F8F70380F8091DE0877
:1022D000282F2F7087FF08C085FB992790F97CE095
:1022E000979F200D112409C0807386958695869549
:1022F000982F990F990F890F280FE091DF086091AF
:10230000E0087091E1088091E208562F56955695A5
:1023100056955E70952F990F990F590F6F70560F44
:10232000672F6695669566956E70962F990F990F33
:10233000690F7F70670F982F92959F708F707AE06A
:10234000979F800D112490E08053984F9F838E8338
:10235000782F8F819E2F28960FB6F894DEBF0FBE80
:10236000CDBFDF91CF911F910F9108951F93CF9310
:10237000DF931F92CDB7DEB7182F80ED69831FDD85
:10238000B8DC812F4ADDB5DC6981862F46DDB1DC02
:102390000F90DF91CF911F9174CC1F93CF93DF9358
:1023A0001F92CDB7DEB7182F80ED09DDA2DC812F9B
:1023B00034DD9FDC66DC81ED02DD9BDCAEDC8983F5
:1023C0007ADC5FDC89810F90DF91CF911F910895B6
:1023D000EF92FF920F931F93CF93DF93FC01248121
:1023E00035816115710511F480E018C04115510562
:1023F000A1F07B01EC018A01020F131FB80127DD58
:10240000882391F3288139818C819D81B701820FC6
:10241000931F0E949F251D830C8381E0DF91CF9144
:102420001F910F91FF90EF9008956115710549F08C
:10243000FB0101900020E9F73197AF01461B570BD4
:10244000C7CF80E00895CF93DF93EC018881998115
:10245000009711F00E941624198218821D821C8296
:102460001B821A82DF91CF910895CF93DF93EC0105
:1024700041E050E061ED73E0ABDF811102C0CE01BD
:10248000E2DFCE01DF91CF910895EF92FF920F939B
:102490001F93CF93DF93EC017B018A01BA01D7DC54
:1024A000811103C0CE01CFDF07C01D830C83B701AC
:1024B000888199810E949F25CE01DF91CF911F9144
:1024C0000F91FF90EF900895CF93DF93EC0161158A
:1024D000710551F0FB0101900020E9F73197AF0140
:1024E000461B570BD2DF01C0AEDFCE01DF91CF918B
:1024F0000895CF93DF93EC01FB018617970751F006
:10250000608171816115710521F044815581BDDFC4
:1025100001C099DFCE01DF91CF910895FC01808148
:1025200091810C941624FC01118210821382128274
:10253000158214826115710549F0FB01019000209C
:10254000E9F73197AF01461B570B9FCF08956115EF
:10255000710579F0FB0101900020E9F73197AF0197
:10256000461B570BDC01ED91FC910280F381E02DBD
:10257000199480E090E0089566E074E0E8CF0F934E
:102580001F93CF93DF93EC01E2DF8C01CE01F4DFE8
:10259000800F911FDF91CF911F910F9108950895A2
:1025A000089580E090E0089560E088E20E945E0572
:1025B00060E088E20C945E0561E088E20E945E05BE
:1025C00061E088E20C945E05CF93DF9300D01F9208
:1025D000CDB7DEB719821A821B821C82BE016F5FE3
:1025E0007F4F86EB98E00E94820A89819A81AB81B5
:1025F000BC814797A105B10529F488E190E0A0E0EE
:10260000B0E004C087E190E0A0E0B0E089839A8365
:10261000AB83BC8349815A816B817C8186EB98E0D6
:102620000E946D060F900F900F900F90DF91CF9149
:102630000895CF93DF9300D01F92CDB7DEB71982F4
:102640001A821B821C82BE016F5F7F4F82EC98E072
:102650000E94820A89819A81AB81BC814797A1053A
:10266000B10529F488E190E0A0E0B0E004C087E182
:1026700090E0A0E0B0E089839A83AB83BC8349817A
:102680005A816B817C8182EC98E00E946D060F90EC
:102690000F900F900F90DF91CF910895CF93DF931C
:1026A000EC018D818823A1F18C8187FF2DC06E857F
:1026B0007F858889998941E00E94FD06882341F140
:1026C000EA8980E2E89FF0011124DF01A85CBB4F9A
:1026D0001097F1F08D81823050F44B895C896D89BF
:1026E0007E895C964D935D936D937C935F978F8904
:1026F000988DA98DBA8DE85CFB4F938F828FB58B37
:10270000A48B8C818F778C83DF91CF910C94C20640
:1027100080E0DF91CF9108958F929F92AF92BF9208
:10272000CF92DF92EF92FF920F931F93CF93DF939D
:10273000EC018D81811102C080E077C00B891C897A
:102740002D893E890417150726073707A8F36A0164
:102750007B01823029F4CA86DB86EC86FD860DC0BB
:10276000C114D104E104F10451F41E821F821886C1
:1027700019861A861B861C861D8681E056C08A84AF
:102780009B84AC84BD84EB8DFC8D258530E0275F78
:102790003F4FB501A4014150510961097109022E51
:1027A00004C076956795579547950A94D2F7D70157
:1027B000C6010197A109B10904C0B695A7959795DF
:1027C00087952A95D2F784179507A607B70720F0B3
:1027D00089288A288B2849F44F89588D698D7A8DEC
:1027E0004E835F836887798704C0841B950BA60B93
:1027F000B70B4C015D018E010A5F1F4F81149104DC
:10280000A104B10409F4A7CF4E815F816885798561
:1028100098018B8D9C8D0E94E40791E0891A9108A4
:10282000A108B1088111EACF87CFDF91CF911F9125
:102830000F91FF90EF90DF90CF90BF90AF909F905F
:102840008F900895CF93DF9300D0CDB7DEB76AE0C5
:102850000E944623805D8983905D9A831B82BE011E
:102860006F5F7F4F81E198E072DE0F900F900F90C5
:10287000DF91CF9108953F924F925F926F927F9236
:102880008F929F92AF92BF92CF92DF92EF92FF9280
:102890000F931F93CF93DF93CDB7DEB72C970FB66F
:1028A000F894DEBF0FBECDBF5C01DC015B968D905E
:1028B0009C905C971696CD90DD90ED90FC901997CA
:1028C000C114D104E104F10439F0BFEFCB1ADB0AE3
:1028D000EB0AFB0A312C07C0F401C080D180E280F2
:1028E000F38033243394F40181859285A385B485E4
:1028F0009C01AD012F5F3F4F4F4F5F4F29873A87B4
:102900004B875C87260137011D821E821F82188635
:10291000F40181859285A385B4852D813E814F8107
:102920005885281739074A075B0708F063C089856F
:102930009A85AB85BC858C159D05AE05BF0550F409
:1029400082E0C82ED12CE12CF12C92E0492E512CA2
:10295000612C712C9E012F5F3F4FB701A601C4016E
:102960000E94E407882309F445C089819A81AB81DC
:10297000BC81892B8A2B8B2B41F0260137019FEFDD
:10298000491A590A690A790A05C0C414D504E6042B
:10299000F70491F02D813E814F8158852F5F3F4F85
:1029A0004F4F5F4F2D833E834F8358873FEFC31AAE
:1029B000D30AE30AF30AACCF0FEF1FEF2FEF3FE08C
:1029C000B301A201C4010E944507882399F0D501F3
:1029D00016964D915D916D917C9119974115510518
:1029E0006105710549F093018201C4010E94450708
:1029F000811102C080E02AC0D50116964D925D92E9
:102A00006D927C921997332051F0D301C201019647
:102A1000A11DB11DF40180839183A283B383F501CD
:102A20008789908DA18DB28D892B8A2B8B2B69F490
:102A3000D50157964D925D926D927C925A9714965D
:102A40008C911497806814968C9381E02C960FB625
:102A5000F894DEBF0FBECDBFDF91CF911F910F91D4
:102A6000FF90EF90DF90CF90BF90AF909F908F90AE
:102A70007F906F905F904F903F9008958FB7F8943C
:102A80008091950A8FBF089561E0FC0184810E94C6
:102A90005E058091940A81111092940A08958EBD6A
:102AA00000000DB407FEFDCF8EB508958FEFF7CF70
:102AB0000F931F93CF93DF93EB010E94EE058B01E1
:102AC000F5DF8F3F49F00E94EE05601B710B6C171C
:102AD0007D07B0F380E001C081E0DF91CF911F91CD
:102AE0000F910895CF93DF93EC018E81882379F0C5
:102AF0008F8198859C012F5F3F4F38872F838230CD
:102B0000924010F4D3DFF4CFCE01BEDF1E82DF91FE
:102B1000CF9108958CBD9DBD0895CF93DF93EC01B7
:102B20008091940A811108C081E08093940A809179
:102B3000AE089091AF08EEDF60E08C81DF91CF911D
:102B40000C945E05CF92DF92FF920F931F93CF9369
:102B5000DF9300D01F92CDB7DEB76C01F62E29832C
:102B60003A834B835C83BEDFC601D7DF6CE271E042
:102B7000C6019EDF8F2D806492DF08E110E05C814A
:102B80004B813A812981DA01C901002E04C0B69532
:102B9000A795979587950A94D2F729833A834B8313
:102BA0005C837DDF0850110929813A814B815C816A
:102BB000083F8FEF180739F7FF2029F0E8E0FE12F1
:102BC00004C087E803C085E901C08FEF68DF10E02B
:102BD0006DDFF601828787FF04C01F3F11F01F5F82
:102BE000F7CF0F900F900F900F90DF91CF911F9123
:102BF0000F91FF90DF90CF900895AF92BF92CF9248
:102C0000DF92EF92FF920F931F93CF93DF93EC012C
:102C10006901C801820F931F8130924008F06AC099
:102C20008E81882371F088819981AA81BB814817A0
:102C300059076A077B0729F48F819885C816D9063A
:102C400098F5488359836A837B838B85833039F079
:102C500089E0440F551F661F771F8A95D1F79A01A7
:102C6000AB0161E1CE016EDF882319F083E08D8333
:102C700041C00E94EE055B0119DF8A878F3F49F44E
:102C80000E94EE056A197B096D327140A8F38FE04E
:102C900003C08E3F29F08DE08D83CE01F5DE2AC082
:102CA00018861F8281E08E838F8198858C159D0503
:102CB00038F4FCDE8F819885019698878F83F4CF56
:102CC0006701E00EF11ECE14DF0429F0EFDEF601FD
:102CD00081936F01F8CF8F819885080F191F18878E
:102CE0000F838985882319F00115124038F0CE0131
:102CF000F9DE04C0CE01C8DE80E001C081E0DF91D2
:102D0000CF911F910F91FF90EF90DF90CF90BF90E8
:102D1000AF9008954F925F926F927F928F929F92A1
:102D2000AF92BF92CF92DF92EF92FF920F931F93D9
:102D3000CF93DF931F92CDB7DEB7DC0115962C91B0
:102D4000223018F480E090E007C16C01FC0142855C
:102D5000538564857585DB01CA0125E0B695A79585
:102D6000979587952A95D1F7F82FFF705F2ED6019A
:102D700014968C9180FFEDC044244394F60183891E
:102D80009489A589B68984179507A607B70709F41A
:102D9000412C842D90E09E012F5F3F4F4901360169
:102DA00036E0630E711C892B09F484C0F60142855C
:102DB0005385648575855A01F1E0BF22D6011596C9
:102DC0002C9115977A018B0189E016950795F79458
:102DD000E7948A95D1F75B968D919C915C97223010
:102DE00061F4FC01828D938DA48DB58DBC01CD0164
:102DF0006E0D7F1D801F911F49C0DC0114962C9120
:102E00002150122F1E21A114B104E9F411111BC08D
:102E1000452B462B472B51F4F6018789908DA18DC8
:102E2000B28D86839783A087B1870DC0D601169691
:102E30004D915D916D917C91199793010E94E407EA
:102E4000882309F486C0F601238D348D868197810D
:102E5000A085B1850297A109B109AC01BD01F901B5
:102E6000058404C0440F551F661F771F0A94D2F7CC
:102E700086859785A089B189840F951FA61FB71FE6
:102E8000BC01CD01610F711D811D911DD6011496EC
:102E90002C9126FF2AC0009108021091090220916E
:102EA0000A0230910B02601771078207930709F03D
:102EB0003FC01BC0442009F44CC0898190E00196BA
:102EC00009F440CFF60182859385A485B5854F9698
:102ED000A11DB11D82879387A487B587F0E25F9E0D
:102EE000C0011124885C9B4F37C040E00E94FD0662
:102EF000882379F1F501E85CFB4FD401CF010196FD
:102F0000E817F90719F021912D93FACFEFEF8E1AF8
:102F10009E0AF60182859385A485B5850196A11D3B
:102F2000B11D82879387A487B58780E090E03BCF6F
:102F3000740101E010E09501AB01BC0180913806FD
:102F4000909139065ADE882321F0BFEF8B1A9B0A35
:102F5000E0CF8FEF9FEFB3CF0F90DF91CF911F9115
:102F60000F91FF90EF90DF90CF90BF90AF909F9028
:102F70008F907F906F905F904F900895EF92FF92A7
:102F80000F931F93CF93DF93EC0179014115510506
:102F90006105710511F482E134C08B85833039F00D
:102FA00089E0440F551F661F771F8A95D1F79A0154
:102FB000AB0168E1CE01C6DD882311F084E021C0B9
:102FC0008EEF6DDD87018EEFF81AF80181918F0188
:102FD00066DD0E151F05C9F78FEF61DD8FEF5FDD31
:102FE00065DD8A878F71853029F081E18D83CE017F
:102FF0004BDD08C068E572E0CE015ADD811106C0E4
:1030000085E18D83CE0140DD80E010C020E030E01E
:10301000A9016DE0CE0196DD811103C047DD882353
:1030200011F084E1EECFCE012FDD81E0DF91CF9171
:103030001F910F91FF90EF900895CF93DF93CDB73D
:10304000DEB7E4970FB6F894DEBF0FBECDBF78941D
:1030500084B5826084BD84B5816084BD85B582609D
:1030600085BD85B5816085BD80916E00816080934E
:103070006E001092810080918100826080938100B7
:1030800080918100816080938100809180008160C7
:10309000809380008091B10084608093B100809122
:1030A000B00081608093B000809191008260809335
:1030B00091008091910081608093910080919000B7
:1030C0008160809390008091A10082608093A10034
:1030D0008091A10081608093A1008091A000816017
:1030E0008093A000809121018260809321018091D2
:1030F0002101816080932101809120018160809372
:10310000200180917A00846080937A0080917A0017
:10311000826080937A0080917A00816080937A0047
:1031200080917A00806880937A001092C10026E036
:1031300040E855E260E070E08AE396E00E94D10446
:103140006DE472E08AE396E01ADA26E040E05BE4A0
:1031500060E070E084E797E00E94D10461E089E2DA
:103160000E948D0561E089E20E945E0564E672E0DE
:1031700084E797E004DA60E089E20E945E0526E0D9
:1031800040E855E260E070E081E198E00E94D104FF
:103190006FE772E081E198E0F2D926E040E855E27D
:1031A00060E070E08AE396E00E94D10488E094E059
:1031B0000E944E068BE992E00E944E060E943D0A54
:1031C00083EA92E00E944E060E943D0A8FEC92E153
:1031D0009093D7088093D6081092D9081092D808F7
:1031E00089E193E19093CB088093CA081092CD08AF
:1031F0001092CC0884EE92E19093BF088093BE08B1
:103200001092C1081092C00880E0C7D8682F6F776D
:1032100080E0ACD862E083E0A9D862E182E0A6D881
:1032200060E081E0A3D860E080E0A0D868E186E0BB
:103230009DD866E085E09AD866E284E097D887E07A
:10324000ACD8682F6C7F87E091D887E0A6D8682F2C
:10325000606187E08BD80E94061129833A834B83F3
:103260005C836D837E838F8398875A3010F480E36C
:1032700005C0852F6AE00E944623805D8093AA02E4
:103280003AE0852F632F0E944623905D9093AB0216
:103290008EE28093AC022D812A3010F480E305C0C9
:1032A000822F632F0E944623805D8093AD021AE037
:1032B000822F612F0E944623905D9093AE028EE292
:1032C0008093AF022E813F81C90168EE73E00E94B6
:1032D000522340E3460F4093B002E4E6F0E0BF0122
:1032E0000E94522380E3860F8093B102C901BF017F
:1032F0000E945223EAE0F0E0BF010E94522380E3E3
:10330000860F8093B202C901BF010E945223805DE3
:103310008093B3021092B4026AEA72E081E198E00D
:103320002ED90E94061129833A834B835C836D83D7
:103330007E838F8398872A3010F480E305C0822F24
:10334000612F0E944623805D8093AC023AE0822F79
:10335000632F0E944623905D9093AD028AE3809391
:10336000AE022A812A3010F480E305C0822F632F39
:103370000E944623805D8093AF023AE0822F632F44
:103380000E944623905D9093B0028AE38093B1023D
:103390002B812A3010F480E305C0822F632F0E9416
:1033A0004623805D8093B202822F6AE00E9446230A
:1033B000905D9093B3021092B4026CEA72E081E1E6
:1033C00098E0DDD881E193E00E943A0C10924A0A1D
:1033D0001092480A1092450A1092440A85E380939D
:1033E000430A0E94EE058B0161E08091430A0E942E
:1033F0008D0561E08091430A0E945E05BFB6F89496
:1034000080910A04811127C0E5ECF2E08491EFE796
:10341000F2E09491E82FF0E0EE0FFF1FE05DFD4F2A
:10342000A591B491EC91E92321F461E085E30E9438
:103430005E0561E085E30E948D058CB580618CBDE1
:103440008CB580648CBD61E084E30E948D0561E0F1
:1034500083E30E948D0580910A048F5F80930A04A4
:10346000BFBE82E58093AE081092AF088091AE088F
:103470009091AF084FDB6AE0B62E8FEF10DBBA9465
:10348000B110FBCF8FE39AE048DB20E030E0A901E8
:1034900060E08FE39AE056DBB82E8093490A31E072
:1034A000831749F00E94EE05601B710B613D774068
:1034B00060F381E051C02AEA31E040E050E068E08A
:1034C0008FE39AE03FDB82FF03C0B0924A0A0FC04D
:1034D00054E0B52EEBDA8093490ABA94B110FACFD2
:1034E0008A3A11F082E038C082E080934A0A8091E3
:1034F0004A0A823021F0812C912C540105C0812C84
:10350000912CA12C40E4B42E20E030E0A90167E327
:103510008FE39AE017DBA501940169E28FE39AE05B
:1035200011DB8093490A882349F00E94EE05601B55
:10353000710B613D774040F388E00EC080914A0AEC
:103540008230F1F420E030E0A9016AE38FE39AE0F1
:10355000F9DA882359F086E08093440A8FE39AE0F1
:1035600093DA87EF92E00E943A0C1CC19FDA807CCC
:10357000803C19F483E080934A0A98DA97DA96DA65
:103580008FE39AE081DA80E58093AE081092AF086D
:1035900086ED92E00E943A0C65EB72E081E198E0E2
:1035A0000E94A71260914A0A70E080E090E04AE031
:1035B0000E945F0C81E198E00E94BC1280914A0A4F
:1035C000823039F0833041F0813049F468EC72E0A8
:1035D00008C06CEC72E005C060ED72E002C065ED01
:1035E00072E081E198E00E94BF1281E00E940D0B21
:1035F00081110BC00E940D0B811107C06DED72E0AF
:1036000081E198E00E94BF12CDC06EE373E081E1DA
:1036100098E00E94A7126091380A70E080E090E084
:103620004AE00E945F0C81E198E00E94BC1281E1B7
:1036300098E00E94BC12A091250A40912A0A50915C
:103640002B0A60912C0A70912D0A9A01AB0109E0B6
:10365000220F331F441F551F0A95D1F7B0E0DBD767
:103660004B015C0165E573E081E198E00E94A712DF
:10367000C501B4010E94A10C6BE673E081E198E002
:103680000E94A712C501B4012AE096958795779507
:1036900067952A95D1F70E94A10C62E873E081E159
:1036A00098E00E94A712C501B40134E19695879570
:1036B000779567953A95D1F70E94A10C69E973E077
:1036C00081E198E00E94BF128091090A811165C0D2
:1036D0008091380A803109F582E08093090A1092BE
:1036E0001B0A10921C0A10921D0A10921E0A809149
:1036F000390A90913A0AA0E0B0E015E0880F991FCE
:10370000AA1FBB1F1A95D1F78093170A9093180A26
:10371000A093190AB0931A0A1DC08032F1F583E014
:103720008093090A40913B0A50913C0A60913D0AFE
:1037300070913E0A40931B0A50931C0A60931D0A25
:1037400070931E0A27E13AE081E29AE00E9467083E
:10375000882319F181E29AE09093200A80931F0A4E
:1037600081E08093080A10920A0A10920B0A1092C4
:103770000C0A10920D0A10920E0A10920F0A109263
:10378000100A1092110A1092120A1092130A109243
:10379000140A1092150A1092160A60E084E09AE06A
:1037A0000E94AE0C61E086E10E948D0560E086E13A
:1037B0000E945E05B2E02B2E312C0E94EE05609334
:1037C0002404709325048093260490932704009189
:1037D00020041091210420912204309123044B01F4
:1037E0005C01801A910AA20AB30A44EF841641E0F0
:1037F0009406A104B10490F0609320047093210416
:10380000809322049093230486E10E94360561E0B0
:10381000892B09F060E086E10E945E0561E088E2A4
:103820000E948D052EE040E05BE460E070E087EDF3
:1038300096E00E94D1048AE08093EC0887ED96E040
:103840009093EB088093EA081092F7091092F90917
:103850001092F8098CED92E19093010A8093000A8E
:10386000E4EDF2E1F093030AE093020A68E074E009
:10387000CE0188960E949312AAE08A2E912C9092F3
:10388000EE088092ED083092F0082092EF080E9436
:103890004E0F8091F1089091F2084090F3087091DA
:1038A000F40897FFCAC121E020930B042EA7292F0B
:1038B00030E0A901F3E056954795FA95E1F7942F8A
:1038C0009170A9014074552758AB4FA78901007228
:1038D000112727703327215031092430310560F436
:1038E000220F331F220F331FF901ED5EFD4F2081A0
:1038F00031814281538104C020E030E040E85FE341
:10390000882E912CA12CB12C512C612C712C911151
:103910001EC0D40199278827F72EE12C4701FF0C00
:10392000AA08BB08880D991DAA1DBB1DBC01CD01AD
:10393000640D751D861D971D29AB3AAB4BAB5CAB77
:103940007BD529A93AA94BA95CA9B1D51EC0D40140
:1039500099278827D72EC12C4601DD0CAA08BB0861
:10396000880D991DAA1DBB1DBC01CD01640D751DDF
:10397000861D971D29AB3AAB4BAB5CAB5DD529A936
:103980003AA94BA95CA993D590588FA498A88928E7
:1039900019F063ED73E004C0012B39F069ED73E0B9
:1039A000CE0188960E9464123DC01BA21AA21DA2DD
:1039B0001CA21FA21EA28E010F5F1F4F23E045E035
:1039C0008CD2BC01CE0182960E9464121A821982A6
:1039D0001C821B821E821D82BE016E5D7F4FC8014C
:1039E0000E947912C8010E9435128C014091E808AA
:1039F0005091E9086091E4087091E5080E94E8118F
:103A0000811103C0C8010E942312B801CE0188961B
:103A10000E947912CE0101960E948E12CE018296EA
:103A20000E948E12ACA4BDA468E074E0CE010196A1
:103A30000E9493120CA51DA501151105B1F0A01649
:103A4000B10608F48501E8A5F9A5E00FF11FB080E3
:103A5000108268A579A5CE0101960E94641288A5FE
:103A600099A5FC01E00FF11FB0820D811E810115A7
:103A7000110519F41092160410C00930110510F048
:103A800009E010E069817A81A80186E194E00E9452
:103A9000A625F801EA5EFB4F1082CE0101960E9436
:103AA0008E12CE0188960E948E1268E074E0CE01DC
:103AB00001960E9493126091D0087091D108CE01B6
:103AC00001960E94151262EE73E0CE0101960E94EB
:103AD000151266E174E0CE0101960E94151267EEA0
:103AE00073E0CE0101960E94151289819A810E948D
:103AF0004E060E943D0ACE0101960E948E128091D0
:103B00000B04882381F048E150E060E070E086EB30
:103B100098E00E946D0647E150E060E070E082ECC2
:103B200098E00E946D0680910B04811135C047E139
:103B300050E060E070E086EB98E00E946D0648E19E
:103B400050E060E070E082EC98E00E946D0624C0D6
:103B50000E94C905DC01CB0188199909AA09BB0992
:103B6000883E9340A105B10558F021E0421A510862
:103B70006108710838EE830E33E0931EA11CB11C5E
:103B8000411451046104710419F78AE396E00E941C
:103B90002E02182F853691F08AE396E00E9450029B
:103BA000181619060CF046C00E94C9054B015C01AD
:103BB0008AE0482E512C612C712CCACF8AE396E002
:103BC0000E945002069744F310930C040DE014E099
:103BD0008AE396E00E942E02F80181938F01F4E0BF
:103BE00003311F07A9F710921304809110048F3F2F
:103BF00099F6809111048F3F79F6809112048F3FDE
:103C000059F640910F0450E060E070E080910E049E
:103C100090910D04E0E0F2E0A191B191109709F4C8
:103C2000BBCF2C912913F8CF11962C911197281303
:103C3000F3CF07C00E940803C0CD10920B041EA64C
:103C400036CE413051056105710561F41496ED9150
:103C5000FC911597309709F49FCF16968D919C9102
:103C6000179710C0452B462B472B09F095CF189678
:103C7000ED91FC911997309709F48ECF1A968D919A
:103C80009C911B97199588CFEAE3F6E01382128284
:103C900048EE53E060E070E04483558366837783A9
:103CA00087E292E09183808325E331E035872487A2
:103CB00024E331E03787268720E331E0318B208B06
:103CC00021E331E0338B228B22E331E0358B248BEF
:103CD00026E331E0378B268B118E128E138E148ED5
:103CE000E7EDF6E01382128244835583668377837F
:103CF0009183808325ED30E03587248724ED30E003
:103D00003787268720ED30E0318B208B21ED30E0A6
:103D1000338B228B22ED30E0358B248B26ED30E087
:103D2000378B268B118E128E138E148EE4E7F7E0FC
:103D300013821282448355836683778391838083C1
:103D40002DEC30E0358724872CEC30E03787268750
:103D500028EC30E0318B208B29EC30E0338B228B48
:103D60002AEC30E0358B248B2EEC30E0378B268B21
:103D7000118E128E138E148EE1E1F8E013821282FE
:103D800044835583668377839183808385EC90E0B9
:103D90009587848784EC90E09787868780EC90E015
:103DA000918B808B81EC90E0938B828B82EC90E006
:103DB000958B848B86EC90E0978B868B118E128E80
:103DC000138E148EEEEAF8E080E580831182EBE436
:103DD000FAE0158216821186138642E050E060E018
:103DE00070E0448755876687778713A215A614A6C7
:103DF00089E392E093A782A717A6EFE3FAE0158282
:103E0000168211861386E1E2FAE0408351836283D1
:103E10007383178AE4E0FAE013821282918380832D
:103E200015821092FF091092FE091092010A109259
:103E3000000A1092030A1092020A6FEE73E084EEF9
:103E400098E00E949312EAEDF8E084E1818385E135
:103E5000808361E00E948D05EEECF8E010828DE039
:103E6000818382EF93E0938382831582148211868B
:103E700010861386128617821682E2ECF8E0108212
:103E80008EE1818386EF93E093838283158214828F
:103E9000118610861386128617821682E6EBF8E0EA
:103EA000108281E2818389EF93E09383828315827C
:103EB000148211861086138612861782168268E095
:103EC00074E080EB98E00C94931280EB98E00E94F1
:103ED0008E1284EE98E00C948E12EF920F931F9343
:103EE000CF93DF93E80147FD02C034E001C034E125
:103EF000E42F440FFF0BF7FF03C0F195E195F109A3
:103F0000E32E022F2E2FAE0120D0CE01DF91CF91D4
:103F10001F910F91EF900895BB27FB015527AA270A
:103F2000880F991FAA1FA41710F0A41B8395505146
:103F3000B9F7A05DAA3308F0A95DA193009779F7BE
:103F4000B111B1931192CB0165C24F925F926F9202
:103F50007F929F92AF92BF92CF92DF92EF92FF92A9
:103F60000F931F93CF93DF93CDB7DEB729970FB68B
:103F7000F894DEBF0FBECDBF6A01122FB02E2BE327
:103F8000201720F0FF24F394F00E02C0BCE3FB2EB8
:103F90000F2D27E0AE014F5F5F4F64D1AC018981E7
:103FA000982F9970913031F0E1FC06C0E0FE06C018
:103FB00090E205C09DE203C09BE201C090E0EE2DBF
:103FC000E07183FF3CC0911102C083E001C084E036
:103FD000811718F4212F281B01C020E0E1110BC02C
:103FE000F601822F30E2882319F031938150FBCF04
:103FF000C20ED11C20E0992329F0D6019C93F60132
:1040000031966F01C6010396E2FE0AC03EE4D60176
:104010003C9341E411964C93119712963C9306C041
:104020003EE6F601308341E641833283FC01322FC4
:1040300040E2332309F442C041933150FACF82FF6A
:1040400044C0911102C083E001C084E0811718F4DC
:10405000212F281B01C020E0E1110BC0F601822FA7
:1040600030E2882319F031938150FBCFC20ED11C6E
:1040700020E0992329F0D6019C93F60131966F0137
:10408000C6010396E2FE0BC039E4D6013C933EE440
:1040900011963C93119736E412963C9307C039E68B
:1040A000F60130833EE6318336E63283FC01322F5F
:1040B00040E2332319F041933150FBCFFC01E20F72
:1040C000F11D10828EEF9FEFB7C0F1E0911101C09A
:1040D000F0E06F2F70E01416150624F49A012F5F9C
:1040E0003F4F02C021E030E0260F371FBB2029F0F0
:1040F0006B2D70E06F5F7F4F02C060E070E0260FB5
:10410000371F612F70E0261737071CF4121B212F71
:1041100001C020E03E2D387159F4D601322F60E203
:10412000332319F06D933150FBCFC20ED11C20E028
:10413000FF2331F0D6019C93B6016F5F7F4F6B0177
:10414000E1110BC0F601922F30E3992319F031935E
:104150009150FBCFC20ED11C20E09F2D940F3A81CD
:10416000782F7071A72E84FF03C0313309F491506A
:10417000191624F4993018F098E001C091E0E42F6A
:10418000852F57FF02C0E0E080E06E2F782FE0E03F
:10419000F0E0AEE29A2E3A01691A71082A01461A35
:1041A000570A0B2D10E01195019511096F3F8FEF04
:1041B000780729F4D6019C92C60101966C01461736
:1041C000570784F0661677066CF47F01E40CF51C43
:1041D000A1E0B0E0AC0FBD1FEA0EFB1ED7011196A7
:1041E000BC9002C090E3B92E615071093196C601AE
:1041F00001967C016017710724F0D601BC926C0116
:10420000D5CF6417750741F4363320F4353321F4E4
:10421000A11002C081E3B82EF601B082F701822F0F
:1042200090E2882319F091938150FBCFF701E20FC0
:10423000F11D108280E090E029960FB6F894DEBF61
:104240000FBECDBFDF91CF911F910F91FF90EF90E7
:10425000DF90CF90BF90AF909F907F906F905F90D6
:104260004F900895283008F027E03327DA01990F9E
:10427000311D87FD916000966105710539F432604A
:104280002E5F3D9330E32A95E1F708959F3F30F08C
:1042900080387105610509F03C5F3C5F3D939130CA
:1042A00008F08068911DDF93CF931F930F93FF92C7
:1042B000EF92192F987F9695E92F96959695E90F8D
:1042C000FF27E057FE4F99273327EE24FF24A7014D
:1042D000E70105900894079428F4360FE71EF81EAE
:1042E000491F511D660F771F881F991F0694A1F75C
:1042F0000590079428F4E70EF81E491F561FC11DAC
:10430000770F881F991F661F0694A1F705900794E1
:1043100028F4F80E491F561FC71FD11D880F991F7B
:10432000661F771F0694A1F70590079420F4490FA4
:10433000561FC71FD81F990F661F771F881F069427
:10434000A9F784911095177041F0D695C7955795A8
:104350004795F794E7941A95C1F7E6E3F1E068947E
:104360001590159135916591959105907FE2739522
:10437000E118F10A430B560BC90BD009C0F7E10C49
:10438000F11E431F561FC91FD01D7EF4703311F458
:104390008A95E6CFE894015030F0080F0AF4002720
:1043A000021708F4202F2395022F7A3328F079E39F
:1043B0007D932A95E9F710C07D932A9589F6069496
:1043C00097956795379517951794E118F10A430B60
:1043D000560BC90BD00998F023957E9173957A33CB
:1043E00008F070E37C932013B8F77E9170617D93A1
:1043F00030F0839571E37D9370E32A95E1F7112402
:10440000EF90FF900F911F91CF91DF91992787FD3A
:1044100090950895DC01FC01672F71917723E1F7F6
:10442000329704C07C916D9370836291AE17BF0781
:10443000C8F30895E89409C097FB3EF490958095E1
:10444000709561957F4F8F4F9F4F9923A9F0F92F5A
:1044500096E9BB279395F695879577956795B795D8
:10446000F111F8CFFAF4BB0F11F460FF1BC06F5FBE
:104470007F4F8F4F9F4F16C0882311F096E911C0D0
:10448000772321F09EE8872F762F05C0662371F0F1
:1044900096E8862F70E060E02AF09A95660F771F05
:1044A000881FDAF7880F9695879597F908950BD0AE
:1044B00078C069D028F06ED018F0952309F05AC062
:1044C0005FC01124A2C07ED0A0F3959FD1F3950FB9
:1044D00050E0551F629FF001729FBB27F00DB11D88
:1044E000639FAA27F00DB11DAA1F649F6627B00D18
:1044F000A11D661F829F2227B00DA11D621F739F01
:10450000B00DA11D621F839FA00D611D221F749F0E
:104510003327A00D611D231F849F600D211D822F55
:10452000762F6A2F11249F5750408AF0E1F088239C
:104530004AF0EE0FFF1FBB1F661F771F881F9150A9
:104540005040A9F79E3F510570F014C05EC05F3F18
:10455000ECF3983EDCF3869577956795B795F795DC
:10456000E7959F5FC1F7FE2B880F911D9695879564
:1045700097F9089597F99F6780E870E060E00895E3
:104580009FEF80EC089500240A941616170618066B
:104590000906089500240A94121613061406050647
:1045A0000895092E0394000C11F4882352F0BB0FD8
:1045B00040F4BF2B11F460FF04C06F5F7F4F8F4F3B
:1045C0009F4F089557FD9058440F551F59F05F3F76
:1045D00071F04795880F97FB991F61F09F3F79F025
:1045E00087950895121613061406551FF2CF4695A7
:1045F000F1DF08C0161617061806991FF1CF869529
:104600007105610508940895E894BB27662777270C
:10461000CB0197F908952BD0A59F900DB49F900DD5
:10462000A49F800D911D11240895A1E21A2EAA1BAA
:10463000BB1BFD010DC0AA1FBB1FEE1FFF1FA21752
:10464000B307E407F50720F0A21BB30BE40BF50B4F
:10465000661F771F881F991F1A9469F760957095D8
:10466000809590959B01AC01BD01CF010895A29F5B
:10467000B001B39FC001A39F700D811D1124911D36
:10468000B29F700D811D1124911D0895991B79E031
:1046900004C0991F961708F0961B881F7A95C9F7D2
:1046A0008095089597FB072E16F4009406D077FDA9
:1046B00008D013D007FC05D03EF4909581959F4F0C
:1046C0000895709561957F4F0895EE0FFF1F881F25
:1046D0008BBF0790F691E02D1994AA1BBB1B51E1EB
:1046E00007C0AA1FBB1FA617B70710F0A61BB70B62
:1046F000881F991F5A95A9F780959095BC01CD0107
:104700000895CF93DF938230910510F482E090E01A
:10471000E091980AF091990A20E030E0C0E0D0E002
:10472000309711F14081518148175907C0F048175F
:10473000590761F482819381209719F09B838A83C2
:104740002BC09093990A8093980A26C021153105B1
:1047500019F04217530718F49A01BE01DF01EF0167
:104760000280F381E02DDCCF2115310509F1281BF2
:10477000390B2430310590F412968D919C9113974A
:104780006115710521F0FB019383828304C090932E
:10479000990A8093980AFD01329644C0FD01E20F08
:1047A000F31F81939193225031092D933C933AC08A
:1047B0002091960A3091970A232B41F420910E0202
:1047C00030910F023093970A2093960A20910C02A1
:1047D00030910D022115310541F42DB73EB74091BE
:1047E000100250911102241B350BE091960AF091B2
:1047F000970AE217F307A0F42E1B3F0B281739077F
:1048000078F0AC014E5F5F4F2417350748F04E0F2C
:104810005F1F5093970A4093960A8193919302C029
:10482000E0E0F0E0CF01DF91CF9108950F931F9367
:10483000CF93DF93009709F48CC0FC013297138269
:1048400012820091980A1091990A0115110581F4BC
:1048500020813181820F931F2091960A3091970A0F
:104860002817390779F5F093970AE093960A71C0F3
:10487000D80140E050E0AE17BF0750F412962D91DA
:104880003C911397AD012115310509F1D901F3CF01
:104890009D01DA013383228360817181860F971F26
:1048A0008217930769F4EC0128813981260F371F9D
:1048B0002E5F3F4F318320838A819B819383828344
:1048C000452B29F4F093990AE093980A42C0139675
:1048D000FC93EE931297ED01499159919E01240F9B
:1048E000351FE217F30771F480819181840F951FC2
:1048F000029611969C938E938281938113969C933A
:104900008E931297E0E0F0E0D80112968D919C9181
:104910001397009719F0F8018C01F6CF8D919C91B7
:1049200098012E5F3F4F820F931F2091960A30917E
:10493000970A2817390769F4309729F41092990AD1
:104940001092980A02C0138212821093970A009361
:10495000960ADF91CF911F910F9108956F927F92E8
:104960008F929F92AF92BF92CF92DF92EF92FF927F
:104970000F931F93CF93DF93EC01009781F4CB014A
:10498000DF91CF911F910F91FF90EF90DF90CF902B
:10499000BF90AF909F908F907F906F90B2CEFC01B0
:1049A000E60FF71F9C0122503109E217F30708F4C4
:1049B000A8C0D9010D911C91119706171707A8F0EF
:1049C0000530110508F49BC0C801049786179707A6
:1049D00008F495C002501109061B170B019311939F
:1049E0006D937C93CF0122DF8AC05B01A01AB10ACC
:1049F0004C01800E911EA091980AB091990A40E056
:104A000050E0E12CF12C109709F44AC0A815B90523
:104A1000D1F56D907C901197630182E0C80ED11C96
:104A2000CA14DB0480F1A3014A195B096A0182E020
:104A3000C80ED11C1296BC9012971396AC91B5E09B
:104A4000CB16D10440F0B282A38351834083D901B5
:104A50006D937C930AC00E5F1F4FC301800F911F9F
:104A6000F90191838083EB2DFA2FE114F10431F0E9
:104A7000D7011396FC93EE93129741C0F093990AD5
:104A8000E093980A3CC08D919C9111974817590763
:104A900008F4AC017D0112960D90BC91A02DB3CF0E
:104AA0008091960A9091970A88159905E1F4461726
:104AB0005707C8F480910C0290910D02009741F4C1
:104AC0008DB79EB74091100250911102841B950B37
:104AD000E817F907B0F4F093970AE093960AF90102
:104AE000718360830CC0CB010CDE7C01009749F020
:104AF000A801BE011BD0CE0199DEC70104C0CE01C2
:104B000002C080E090E0DF91CF911F910F91FF9064
:104B1000EF90DF90CF90BF90AF909F908F907F905D
:104B20006F90089581E090E0F8941FC0FB01DC01D4
:104B300002C001900D9241505040D8F70895FB01FA
:104B4000DC0101900D920020E1F70895FB01DC01EA
:104B50004150504048F001900D920020C9F701C02B
:104B60001D9241505040E0F7089511E0C3EDD1E0AF
:104B700000E005C0802FFE01A8DD2196011DC43D87
:0C4B8000D10780E00807B1F7F894FFCFE0
:104B8C00CE08C208B6080000FFFFFFFF00009A0A1B
:104B9C00800000CDCCCC3D0AD7233C6F12833A1752
:104BAC00B7D13800000000A102160E1F02E7025018
:104BBC00022E02420200000000CF08160ED112D0C5
:104BCC0012000000008703160ED112D0125253327D
:104BDC0033325F54544C20436F6E66696775726153
:104BEC00646F210052533438352045787465726EE9
:104BFC006F20436F6E666967757261646F21005038
:104C0C006F72746120646520446562756720436F20
:104C1C006E66696775726164612100626B636D64B5
:104C2C003D3100706167652030007878787878784D
:104C3C0078787878000A5469706F20646F2063610B
:104C4C007274C3A36F3A20005344310053443200B2
:104C5C005344484300556E6B6E6F776E004EC3A382
:104C6C006F20666F6920706F7373C3AD76656C20AF
:104C7C00656E636F6E747261722061207061727404
:104C8C0069C3A7C3A36F2046415431362F46415404
:104C9C0033322E0A436572746966697175652D73BA
:104CAC00652064652074657220666F726D61746135
:104CBC00646F206F2063617274C3A36F2E000A545B
:104CCC0069706F20646520766F6C756D6520C3A963
:104CDC002046415400566F6C756D652073697A657A
:104CEC0020286279746573293A2000566F6C756DB3
:104CFC00652073697A6520284B6279746573293A4B
:104D0C002000566F6C756D652073697A6520284D8F
:104D1C006279746573293A20000A4172717569765B
:104D2C006F7320656E636F6E747261646F73206E47
:104D3C006F2063617274C3A36F20286E6F6D652C36
:104D4C00206461746120652074616D616E686F29E7
:104D5C003A2000534F42524500534154555241445E
:104D6C004F002E7478743D22002E7069633D004B09
:104D7C004700743133007033007034006765742061
:0A4D8C00002E706963000D0A00009C
:020000023000CC
:10E000000D9489F10D94B2F10D94B2F10D94B2F129
:10E010000D94B2F10D94B2F10D94B2F10D94B2F1F0
:10E020000D94B2F10D94B2F10D94B2F10D94B2F1E0
:10E030000D94B2F10D94B2F10D94B2F10D94B2F1D0
:10E040000D94B2F10D94B2F10D94B2F10D94B2F1C0
:10E050000D94B2F10D94B2F10D94B2F10D94B2F1B0
:10E060000D94B2F10D94B2F10D94B2F10D94B2F1A0
:10E070000D94B2F10D94B2F10D94B2F10D94B2F190
:10E080000D94B2F10D94B2F10D94B2F10D94B2F180
:10E090000D94B2F10D94B2F10D94B2F10D94B2F170
:10E0A0000D94B2F10D94B2F10D94B2F10D94B2F160
:10E0B0000D94B2F10D94B2F10D94B2F10D94B2F150
:10E0C0000D94B2F10D94B2F10D94B2F10D94B2F140
:10E0D0000D94B2F10D94B2F10D94B2F10D94B2F130
:10E0E0000D94B2F141546D656761323536300041AF
:10E0F000726475696E6F206578706C6F72657220DE
:10E1000073746B3530305632206279204D4C530099
:10E11000426F6F746C6F616465723E004875683F52
:10E1200000436F6D70696C6564206F6E203D200048
:10E130004350552054797065202020203D20005FF9
:10E140005F4156525F415243485F5F3D2000415658
:10E1500052204C696243205665723D20004743437C
:10E160002056657273696F6E203D20004350552024
:10E1700049442020202020203D20004C6F7720663D
:10E18000757365202020203D20004869676820665F
:10E190007573652020203D200045787420667573D6
:10E1A00065202020203D20004C6F636B2066757336
:10E1B000652020203D20004D617220203720323024
:10E1C000313300312E362E3800342E332E350056A2
:10E1D00023202020414444522020206F7020636F70
:10E1E00064652020202020696E73747275637469E1
:10E1F0006F6E2061646472202020496E74657272B3
:10E20000757074006E6F20766563746F7200726A49
:10E210006D702020006A6D70200057686174207056
:10E220006F72743A00506F7274206E6F7420737541
:10E2300070706F72746564004D7573742062652030
:10E2400061206C6574746572002000577269747483
:10E25000696E672045450052656164696E672045B7
:10E26000450045452065727220636E743D00504F35
:10E27000525400303D5A65726F2061646472003FF1
:10E280003D43505520737461747300403D454550C3
:10E29000524F4D207465737400423D426C696E6B41
:10E2A000204C454400453D44756D70204545505215
:10E2B0004F4D00463D44756D7020464C415348001B
:10E2C000483D48656C70004C3D4C69737420492F83
:10E2D0004F20506F72747300513D51756974005234
:10E2E0003D44756D702052414D00563D73686F7707
:10E2F00020696E7465727275707420566563746FF0
:10E30000727300593D506F727420626C696E6B00BD
:10E310002A0011241FBECFEFD1E2DEBFCDBF01E046
:10E320000CBF12E0A0E0B2E0EEE1FDEF03E00BBFB6
:10E3300002C007900D92A030B107D9F712E0A0E01B
:10E34000B2E001C01D92AE30B107E1F70F9460F367
:10E350000D948DFE01E20EBF0FEF0DBF11241FBE05
:10E360000D9460F30D9400F020E030E040ED57E0B4
:10E3700005C0FA013197F1F72F5F3F4F2817390792
:10E38000C0F308959C01260F311DC901A0E0B0E043
:10E390002F5F3F4FABBFFC018791882361F08093D3
:10E3A000C6008091C00086FFFCCF8091C0008064D1
:10E3B0008093C000EACF08958DE08093C6008091DD
:10E3C000C00086FFFCCF8091C00080648093C000B5
:10E3D0008AE08093C6008091C00086FFFCCF8091C8
:10E3E000C00080648093C00008950F94C2F10F9420
:10E3F000DCF10895FC019081992359F09093C600B7
:10E400008091C00086FFFCCF8091C0008064809323
:10E41000C0003196992379F70895282F982F929567
:10E420009F70892F805D8A3308F0895F8093C600D2
:10E430008091C00086FFFCCF8091C00080648093F3
:10E44000C000822F8F70982F905D9A3308F0995FEB
:10E450009093C6008091C00086FFFCCF8091C000E1
:10E4600080648093C00008959C01FB01853691056E
:10E470001CF46330710594F0C90164E670E00F94F8
:10E480002EFE605D7F4F6093C6008091C00086FFC6
:10E49000FCCF8091C00080648093C0002B30310598
:10E4A00014F43297B4F0C90164E670E00F942EFEC4
:10E4B0006AE070E00F942EFE605D7F4F6093C600AF
:10E4C0008091C00086FFFCCF8091C0008064809363
:10E4D000C000C9016AE070E00F942EFEC0968093E0
:10E4E000C6008091C00086FFFCCF8091C000806490
:10E4F0008093C00008951F93182F8EE692EE60E07F
:10E500000F94C2F11093C6008091C00086FFFCCF2B
:10E510008091C00080648093C0000F94DCF11F9153
:10E5200008952F923F924F925F926F927F928F92B7
:10E530009F92AF92BF92CF92DF92EF92FF920F9392
:10E540001F93DF93CF93CDB7DEB762970FB6F894E2
:10E55000DEBF0FBECDBF382E622ECA01DB015C01CB
:10E560006D01772420E2222E2E010894411C511CBB
:10E570008BC081E0A81680E0B80681E0C80680E084
:10E58000D80628F0C601AA27BB270F940DF2BB2797
:10E59000AD2D9C2D8B2D0F940DF28A2D0F940DF225
:10E5A0002092C6008091C00086FFFCCF8091C00001
:10E5B00080648093C0009DE29093C6008091C0006B
:10E5C00086FFFCCF8091C00080648093C0002092C1
:10E5D000C6008091C00086FFFCCF8091C00080649F
:10E5E0008093C00019828601750188249924A1E0D6
:10E5F0003A1651F03A1620F0B2E03B1661F409C029
:10E600000BBFF701779007C0C7010F9477FE782EF4
:10E6100002C0F7017080872D0F940DF22092C60082
:10E620008091C00086FFFCCF8091C0008064809301
:10E63000C000872D8052F401EF70F0708F3520F408
:10E64000E40DF51D708204C0E40DF51D8EE280839B
:10E650000894E11CF11C011D111D0894811C911CE2
:10E6600090E18916910409F0C2CF80E190E0A0E02A
:10E67000B0E0A80EB91ECA1EDB1E198AC2010F9493
:10E68000FAF10F94DCF16A94662009F072CF629679
:10E690000FB6F894DEBF0FBECDBFCF91DF911F91B3
:10E6A0000F91FF90EF90DF90CF90BF90AF909F9031
:10E6B0008F907F906F905F904F903F902F90089534
:10E6C0002F923F924F925F926F927F928F929F9282
:10E6D000AF92BF92CF92DF92EF92FF920F931F9370
:10E6E000DF93CF93CDB7DEB7CD53D1400FB6F894BB
:10E6F000DEBF0FBECDBF01E20EBF0FEF0DBF94B75F
:10E70000F894A89514BE80916000886180936000A1
:10E7100010926000789493FF05C0E0910002F091A0
:10E7200001021995279A2F9A8091C00082608093E8
:10E73000C00080E18093C40088E18093C1000000A4
:10E74000EE24FF24870144E0A42EB12CCC24DD2448
:10E7500024C0C5010197F1F70894E11CF11C011DCB
:10E76000111D21E2E2162EE4F20620E0020720E06D
:10E77000120718F031E0C32ED12CC801B70127ECE5
:10E780003BE140E050E00F9441FE611571058105C9
:10E79000910519F485B1805885B98091C00087FD35
:10E7A00003C0C114D104A9F2A6014F5F5F4FC25E3E
:10E7B000DE4F59834883CE51D140C25EDE4F8881FF
:10E7C0009981CE51D140019711F00D9410FEC05D9A
:10E7D000DE4F19821882C053D14060E0C15DDE4F28
:10E7E0001882CF52D14088249924C35DDE4F19820C
:10E7F0001882CD52D140C05EDE4F188219821A8233
:10E800001B82C052D140CE5CDE4F188219821A8220
:10E810001B82C253D140EE24FF2487010BBFF701B6
:10E8200007911691C45CDE4F19830883CC53D14005
:10E830000D940BFEC25EDE4F28813981CE51D1404E
:10E840002130310509F52091C600C25EDE4F1982E4
:10E850001882CE51D14022C02F5F3F4F4F4F5F4FA4
:10E86000213082E138078AE7480780E0580780F0C6
:10E87000C45CDE4FE881F981CC53D140EF5FFF4F9C
:10E8800019F0EE27FF27099420E030E040E050E047
:10E890008091C00087FFE0CF2091C600C35DDE4FAE
:10E8A00048815981CD52D1404F5F5F4FC35DDE4FEC
:10E8B00059834883CD52D140213209F063C64A3092
:10E8C000510508F05FC60894811C911C53E0851621
:10E8D000910409F059C600E010E018C081E280936D
:10E8E000C6008091C00086FFFCCF8091C00080648C
:10E8F0008093C0002F5F3F4F2931310579F70F9486
:10E90000DCF10F5F1F4F0530110519F020E030E0FA
:10E91000E5CF10920A0210920B0210920C02109294
:10E920000D02109206021092070210920802109235
:10E930000902109202021092030210920402109235
:10E9400005028FEE90EE60E00F94F5F180E191EE1C
:10E9500060E00F94C2F18091C00087FFFCCF9091DE
:10E96000C600903608F09F759032B8F09093C600BC
:10E970008091C00086FFFCCF8091C00080648093AE
:10E98000C000A0E2A093C6008091C00086FFFCCF2B
:10E990008091C00080648093C000983409F4D7C18E
:10E9A0009934B8F4923409F459C1933458F490333B
:10E9B00019F1903308F4E3C59F33A1F1903409F0C5
:10E9C000DEC5BDC0953409F470C1963409F0D7C5D1
:10E9D00098C1923509F42BC2933538F49C3409F46C
:10E9E000F5C1913509F0CBC518C2963509F445C279
:10E9F000993509F0C4C567C483E792EE62E00F94CD
:10EA0000F5F110920602109207021092080210927D
:10EA1000090210920A0210920B0210920C0210923C
:10EA20000D0213C18FE792EE62E00F94F5F18FEEC5
:10EA300090EE60E00F94F5F181E291EE60E00F94CA
:10EA4000C2F187EB91EE60E00F94F5F180E391EE77
:10EA500060E00F94C2F184EE90EE60E00F94F5F167
:10EA60008FE391EE60E00F94C2F186E090E061E008
:10EA700070E00F9434F20F94DCF18DE591EE60E0DC
:10EA80000F94C2F189EC91EE60E00F94F5F18EE401
:10EA900091EE60E00F94C2F183EC91EE60E00F9490
:10EAA000F5F18CE691EE60E00F94C2F18EE10F94E7
:10EAB0000DF288E90F940DF281E00F940DF20F949E
:10EAC000DCF18BE791EE60E00F94C2F119E0E0E039
:10EAD000F0E010935700E4918E2F0F940DF20F94F5
:10EAE000DCF18AE891EE60E00F94C2F1E3E0F0E03F
:10EAF00010935700E4918E2F0F940DF20F94DCF1D8
:10EB000089E991EE60E00F94C2F1E2E0F0E0109349
:10EB10005700E4918E2F0F940DF20F94DCF188EAE8
:10EB200091EE60E00F94C2F1E1E0F0E01093570045
:10EB30001491812F0F940DF20F94DCF107CF8BE825
:10EB400092EE62E00F94F5F18BE492EE60E00F94A8
:10EB5000F5F10F94DCF100E010E019C0C8016F2D51
:10EB60000F947FFEFF2031F489E492EE60E00F9471
:10EB7000C2F10BC0F092C6008091C00086FFFCCFAE
:10EB80008091C00080648093C0000F5F1F4FC80158
:10EB900081519F41A0E0B0E0ABBFFC01F790BAE229
:10EBA000FB1621F0E2E000301E07C1F60F94DCF105
:10EBB0000F94DCF187E592EE60E00F94F5F10F948D
:10EBC000DCF1CC24DD2400E010E01EC0C8010F946D
:10EBD00077FEF82E882331F489E492EE60E00F94FA
:10EBE000C2F10BC08093C6008091C00086FFFCCFAD
:10EBF0008091C00080648093C000FE1419F00894D6
:10EC0000C11CD11C0F5F1F4FC80181519F41A0E063
:10EC1000B0E0ABBFFC01E790FAE2EF1621F022E092
:10EC20000030120799F60F94DCF10F94DCF182E6C4
:10EC300092EE60E00F94C2F1C60161E070E00F94C3
:10EC400034F20F94DCF10F94DCF110920202109276
:10EC50000302109204021092050278CE89E992EE26
:10EC600062E00F94F5F1279A2F9A16C02F9880E052
:10EC700090E0E0EDF7E03197F1F7019684369105E9
:10EC8000C1F72F9A80E090E0E0EDF7E03197F1F7DF
:10EC9000019684369105C1F78091C00087FFE6CFC9
:10ECA0008091C00087FFFCCF64C485EA92EE62E0E9
:10ECB0000F94F5F140910202509103026091040219
:10ECC0007091050281E020E10F9491F2809102029F
:10ECD00090910302A0910402B091050280509F4FD1
:10ECE000AF4FBF4F8093020290930302A0930402A0
:10ECF000B093050280509041A040B04008F426CE69
:10ED0000A4CF83EB92EE62E00F94F5F140910602FE
:10ED100050910702609108027091090280E020E1A1
:10ED20000F9491F28091060290910702A09108023F
:10ED3000B091090280509F4FAF4FBF4F80930602A2
