:100000003FC100006EC100006CC100006AC1000069
:1000100068C1000066C1000064C1000062C1000048
:1000200060C100004CC200004AC2000048C200008B
:1000300058C1000056C1000054C1000052C1000068
:1000400050C100004EC100004CC100004AC1000078
:1000500048C1000046C1000044C10000E6C10000E4
:1000600040C100000C94750F0C944C0F3AC1000075
:1000700038C1000036C1000034C1000032C10000A8
:1000800030C100002EC100002CC100002AC10000B8
:100090000C94230F0C94FA0E24C1000022C100001E
:1000A00020C100001EC100001CC100001AC10000D8
:1000B00018C1000016C1000014C1000012C10000E8
:1000C00010C100000EC100000CC100000C94D10E44
:1000D0000C94A80E06C100000C947F0E0C94560ED2
:1000E00000C1000092019501840188018E01CC01BC
:1000F00099019D01A301A701AB01B101B501B901AE
:10010000CC01BF01C301C701000022002500280067
:100110002B002E003100340002010000050108010F
:100120000B01000020002300260029002C002F00D6
:1001300032000001000003010601090100000A0B62
:1001400002090C0D0E080703040100000000000066
:10015000000000000000000000000000000000009F
:10016000000000000000000012111000000000005C
:10017000000000000000000000000000000000007F
:10018000000043617274C3A36F20534420696E69F9
:10019000636961646F20636F6D207375636573734A
:1001A0006F210046616C686120616F206162726935
:1001B000722063617274C3A36F20534400496E6957
:1001C0006369616C697A616E646F20534420436196
:1001D00072642E2E2E0000002100240027002A0029
:1001E0002D003000330001010000040107010A0165
:1001F0000102102020080810204010204080020139
:10020000020108040201010204081020408080401D
:10021000201008040201800402018040201008041C
:1002200002010804020101020408102040800102BA
:100230000408102040800505050507050808080882
:10024000020202020A0A080804040404010101016E
:100250000101010103030303030303030407070769
:100260000C0C0C0C0C0C0C0C02020202060606060E
:10027000060606060B0B0B0B0B0B0B0B3319931619
:1002800011241FBECFEFD1E2DEBFCDBF00E00CBF17
:1002900013E0A0E0B2E0E0E5FAE300E00BBF02C04B
:1002A00007900D92AC3DB107D9F72AE0ACEDB3E071
:1002B00001C01D92A735B207E1F711E0CFE3D1E00D
:1002C00000E006C021970109802FFE010E94D61A86
:1002D000CE33D10780E00807A9F70E949D160C9441
:1002E000171D8ECE0895089580E090E0089590E067
:1002F000FC013197E231F10508F04EC08827EE5835
:10030000FF4F8F4F0C94D61A809180008F7703C0D7
:10031000809180008F7D809380000895809180007F
:10032000877FF9CF84B58F7702C084B58F7D84BD78
:1003300008958091B0008F7703C08091B0008F7DC9
:100340008093B0000895809190008F7707C08091CE
:1003500090008F7D03C080919000877F80939000F4
:1003600008958091A0008F7707C08091A0008F7DB5
:1003700003C08091A000877F8093A00008958091A2
:1003800020018F7707C0809120018F7D03C080916D
:100390002001877F809320010895CF93DF9390E021
:1003A000FC01E051FE4F2491FC01EA5CFD4F849179
:1003B000882361F190E0880F991FFC01EA52FE4FFB
:1003C000C591D491FC01E85FFE4FA591B4916111F4
:1003D00009C09FB7F8948881209582238883EC9187
:1003E0002E230BC0623061F49FB7F8943881822FBE
:1003F000809583238883EC912E2B2C939FBF06C07E
:100400008FB7F894E8812E2B28838FBFDF91CF918F
:1004100008952FB7F8946091EC037091ED038091EB
:10042000EE039091EF032FBF08951F920F920FB626
:100430000F9211242F933F938F939F93AF93BF936A
:100440008091EC039091ED03A091EE03B091EF0346
:100450003091EB0323E0230F2D3720F40196A11DEB
:10046000B11D05C026E8230F0296A11DB11D2093E2
:10047000EB038093EC039093ED03A093EE03B09312
:10048000EF038091E7039091E803A091E903B09115
:10049000EA030196A11DB11D8093E7039093E80341
:1004A000A093E903B093EA03BF91AF919F918F911D
:1004B0003F912F910F900FBE0F901F9018951F9294
:1004C0000F920FB60F9211240F900FBE0F901F9036
:1004D0001895CF93DF93EC0188EF95E00E940E0D05
:1004E000892B29F088EF95E00E94EC0CF5CFBE0136
:1004F00088EF95E00E9478126FEF88EF95E00E94F8
:10050000C40D6FEF88EF95E00E94C40D6FEF88EF88
:1005100095E0DF91CF910C94C40D8F929F92AF9292
:10052000BF92EF92FF920F931F93CF93DF93CDB7BC
:10053000DEB760970FB6F894DEBF0FBECDBF7C016B
:100540004A015B018E010F5F1F4F8AE0F801119293
:100550008A95E9F763EC73E0CE010B960E9439129D
:100560004AE0B801C4010E94531AF7016281738105
:10057000CE010B960E94051265E372E0CE010B9648
:100580000E940512B801CE010B960E9405128B85C0
:100590009C859FDF0E945614182F8B859C850E9496
:1005A000871B812F60960FB6F894DEBF0FBECDBFBC
:1005B000DF91CF911F910F91FF90EF90BF90AF907F
:1005C0009F908F900895CF93DF9300D01F92CDB767
:1005D000DEB719821A821B821C82BE016F5F7F4FB9
:1005E0008DEB98E00E949B1489819A81AB81BC813C
:1005F0004797A105B10529F488E190E0A0E0B0E0BB
:1006000004C087E190E0A0E0B0E089839A83AB83E7
:10061000BC8349815A816B817C818DEB98E07DDFC1
:100620000F900F900F900F90DF91CF910895CF937F
:10063000DF9300D01F92CDB7DEB719821A821B82DA
:100640001C82BE016F5F7F4F89EC98E00E949B1473
:1006500089819A81AB81BC814797A105B10529F4B5
:1006600088E190E0A0E0B0E004C087E190E0A0E085
:10067000B0E089839A83AB83BC8349815A816B81C3
:100680007C8189EC98E049DF0F900F900F900F90DC
:10069000DF91CF910895CF93DF9300D0CDB7DEB730
:1006A0006AE00E94B71A805D8983905D9A831B82FD
:1006B000BE016F5F7F4F8FEC97E00E9478120F9022
:1006C0000F900F90DF91CF9108958FB7F89480919C
:1006D000DD038FBF089561E0FC0184810E94C70F94
:1006E0008091DC0381111092DC0308958EBD00001F
:1006F0000DB407FEFDCF8EB508958FEFF7CF0F93A2
:100700001F93CF93DF93EB0184DE8B01F6DF8F3FE6
:1007100041F07FDE601B710B6C177D07B8F380E042
:1007200001C081E0DF91CF911F910F910895CF9388
:10073000DF93EC018E81882379F08F8198859C016D
:100740002F5F3F4F38872F838230924010F4D5DFE0
:10075000F4CFCE01C0DF1E82DF91CF9108958CBD12
:100760009DBD0895CF93DF93EC018091DC0381114F
:1007700008C081E08093DC0380916C0890916D0843
:10078000EEDF60E08C81DF91CF910C94C70FCF92A8
:10079000DF92FF920F931F93CF93DF9300D01F92AE
:1007A000CDB7DEB76C01F62E29833A834B835C8389
:1007B000BEDFC601D7DF6CE271E0C601A0DF8F2D7E
:1007C000806494DF08E110E05C814B813A812981EB
:1007D000DA01C901002E04C0B695A79597958795B3
:1007E0000A94D2F729833A834B835C837FDF0850D6
:1007F000110929813A814B815C81083F8FEF1807ED
:1008000039F7FF2029F0E8E0FE1204C087E803C0B2
:1008100085E901C08FEF6ADF10E06FDFF6018287A4
:1008200087FF04C01F3F11F01F5FF7CF0F900F909D
:100830000F900F90DF91CF911F910F91FF90DF905C
:10084000CF900895AF92BF92CF92DF92EF92FF9236
:100850000F931F93CF93DF93EC016901C801820FBF
:10086000931F8130924008F068C08E81882371F018
:1008700088819981AA81BB81481759076A077B073C
:1008800029F48F819885C816D90688F5488359833D
:100890006A837B838B85833039F089E0440F551F51
:1008A000661F771F8A95D1F79A01AB0161E1CE01EE
:1008B0006EDF882319F083E08D833FC0AADD5B01E2
:1008C0001CDF8A878F3F41F4A4DD6A197B096D32F2
:1008D0007140B0F38FE003C08E3F29F08DE08D832F
:1008E000CE01F9DE2AC018861F8281E08E838F81B7
:1008F00098858C159D0538F400DF8F8198850196C9
:1009000098878F83F4CF6701E00EF11ECE14DF04C9
:1009100029F0F3DEF60181936F01F8CF8F8198857E
:10092000080F191F18870F838985882319F001156F
:10093000124038F0CE01FBDE04C0CE01CCDE80E0F8
:1009400001C081E0DF91CF911F910F91FF90EF9057
:10095000DF90CF90BF90AF900895EF92FF920F93EA
:100960001F93CF93DF93EC01790141155105610588
:10097000710511F482E134C08B85833039F089E050
:10098000440F551F661F771F8A95D1F79A01AB0157
:1009900068E1CE01FCDE882311F084E021C08EEFF7
:1009A000A5DE87018EEFF81AF80181918F019EDE96
:1009B0000E151F05C9F78FEF99DE8FEF97DE9DDECD
:1009C0008A878F71853029F081E18D83CE0183DEA6
:1009D00008C068E572E0CE0192DE811106C085E1B3
:1009E0008D83CE0178DE80E010C020E030E0A901E8
:1009F0006DE0CE01CCDE811103C07FDE882311F0D3
:100A000084E1EECFCE0167DE81E0DF91CF911F91CF
:100A10000F91FF90EF900895CF93DF938091DE03C5
:100A2000882389F1C091E303D091E403409100024F
:100A300050910102609102027091030228EF33E0AD
:100A4000CE018BDF811102C080E01EC04091DF0328
:100A50005091E0036091E1037091E203411551056B
:100A60006105710571F028EF33E0CE0176DF882350
:100A700059F31092DF031092E0031092E1031092F9
:100A8000E2031092DE0381E0DF91CF9108958F920F
:100A90009F92AF92BF92EF92FF920F931F93CF93CB
:100AA0004B015C01C42F8091000290910102A09142
:100AB0000202B091030288159905AA05BB05F1F061
:100AC000ABDF811102C080E01FC088EFE82E83E019
:100AD000F82E00E012E020E030E0B501A4018091A2
:100AE000E3039091E403AEDE882369F38092000271
:100AF00090920102A0920202B09203028091DE0362
:100B0000C82BC093DE0381E0CF911F910F91FF901E
:100B1000EF90BF90AF909F908F9008958F929F928B
:100B2000AF92BF92CF92DF92EF92FF920F931F93FB
:100B3000CF93DF93EC01142F7093E4036093E303EE
:100B4000442361F1453010F080E0F0C040E060E007
:100B500070E0CB019CDF8823B9F320E1129FA00154
:100B6000112448515C4FFA01E254FE4F80818F7787
:100B700059F73C9680819181A281B3818436910599
:100B8000A105B10508F33497C080D180E280F380DD
:100B9000C114D104E104F10421F4D6CFC12CD12C2D
:100BA000760140E0C701B60172DF882369F28091C7
:100BB0000304909104048115924031F69091080449
:100BC000992309F4C1CF2091060430910704232B07
:100BD00009F4BACF80910504882309F4B5CF9A8B24
:100BE0008C831D8690E061E070E02D85E22FAB01E3
:100BF000022E02C0440F551F0A94E2F7841795078E
:100C000031F031E0320F3D87283078F39DCF2091CD
:100C10000E0430910F042115310519F040E050E029
:100C200008C020911C0430911D0440911E04509175
:100C30001F042D833E834F83588780910604909133
:100C4000070446015701880E991EA11CB11C8B8A0E
:100C50009C8AAD8ABE8A0091090410910A04198FFA
:100C6000088FA0910804B0E00E947C1A860E971E9F
:100C7000A81EB91E8A8E9B8EAC8EBD8E85E0000F9D
:100C8000111F8A95E1F701501E4F012F112706957C
:100C9000800E911EA11CB11C8E869F86A88AB98ADF
:100CA00020910B0430910C042115310521F0A9018C
:100CB00060E070E008C04091180450911904609100
:100CC0001A0470911B04D701C60188199909AA0951
:100CD000BB09840F951FA61FB71F04C0B695A79523
:100CE00097958795EA95D2F789879A87AB87BC87CE
:100CF000853F2FE09207A105B10510F48CE014C0E8
:100D0000853F9F4FA105B10510F480E10DC0809192
:100D1000240490912504A0912604B09127048A8F81
:100D20009B8FAC8FBD8F80E28F8B81E0DF91CF9165
:100D30001F910F91FF90EF90DF90CF90BF90AF90F9
:100D40009F908F9008954F925F926F927F928F92B3
:100D50009F92AF92BF92CF92DF92EF92FF920F934A
:100D60001F93CF93DF93EC016A017B0128013901C6
:100D7000423051056105710510F480E072C089852B
:100D80009A85AB85BC850196A11DB11D8417950779
:100D9000A607B70790F38B889C88AD88BE888F899B
:100DA000803129F4BB27AF2D9E2D8D2D09C0DB018D
:100DB000CA0147E0B695A795979587954A95D1F7CB
:100DC000880E991EAA1EBB1E8091000290910102FE
:100DD000A0910202B091030288169906AA06BB06EA
:100DE00079F48F89803199F4DD24EE24FF24C60143
:100DF000880F991FFC01E850FC4F5182408218C0B7
:100E000040E0C501B40143DE8111EBCFB6CFE894D9
:100E1000C7F8DD24EE24FF24C601880F991F880F30
:100E2000991FFC01E850FC4F40825182628273821C
:100E30008091DE0381608093DE038A89823080F0B6
:100E40008D819E81AF81B885880E991EAA1EBB1E1A
:100E50008092DF039092E003A092E103B092E2035C
:100E600081E0DF91CF911F910F91FF90EF90DF9084
:100E7000CF90BF90AF909F908F907F906F905F903A
:100E80004F9008958F929F92AF92BF92CF92DF9230
:100E9000EF92FF920F931F93CF93DF93FC01818515
:100EA0009285A385B4850196A11DB11D8417950770
:100EB000A607B70710F480E05BC083899489A589F1
:100EC000B689C789C03129F4852E962EA72EBB245A
:100ED00009C04A015B01C7E0B694A7949794879430
:100EE000CA95D1F7E9016A017B018F01BC01CD01EF
:100EF000680D791D8A1D9B1D809000029090010253
:100F0000A0900202B0900302681579058A059B053E
:100F100099F4F80187898031A1F4B701A60155271A
:100F200066277727440F551FFA01E850FC4F808150
:100F30009181A0E0B0E017C040E0A9DD8111E9CFC8
:100F4000BACFB701A6014F77552766277727440FF9
:100F5000551F440F551FFA01E850FC4F80819181C5
:100F6000A281B381BF7088839983AA83BB8381E008
:100F7000DF91CF911F910F91FF90EF90DF90CF9075
:100F8000BF90AF909F908F9008954F925F926F9215
:100F90007F92AF92BF92CF92DF92EF92FF920F9328
:100FA0001F93CF93DF9300D01F92CDB7DEB78C0194
:100FB00049835A836B837C835901C12CD12C7601E0
:100FC000412C82E0582E612C712C49815A816B8111
:100FD0007C819E012F5F3F4FC80154DF882351F170
:100FE000D301C201F801058404C0880F991FAA1F0C
:100FF000BB1F0A94D2F7C80ED91EEA1EFB1E4981F8
:101000005A816B817C818789803129F088EF9FEF3D
:10101000AFEFBFE004C088EF9FEFA0E0B0E048175B
:1010200059076A077B0788F2F501C082D182E28204
:10103000F38281E00F900F900F900F90DF91CF918E
:101040001F910F91FF90EF90DF90CF90BF90AF90E6
:101050007F906F905F904F9008950F931F93CF9361
:10106000DF93FC012581222311F080E041C08B0138
:10107000EC01FB0187898031B1F482E08D831F8A06
:10108000188E198E1A8E808D918DA0E0B0E025E02B
:10109000880F991FAA1FBB1F2A95D1F78B8B9C8B9A
:1010A000AD8BBE8B14C0803201F783E08D83FB01D2
:1010B000428D538D648D758D4F8B588F698F7A8FCC
:1010C0009E012D5E3F4FC80160DF882371F21C8FA7
:1010D0000B8F81E08C831E821F82188619861A86E8
:1010E0001B861C861D861E861F86188A198A1A8AE8
:1010F000DF91CF911F910F9108958F929F92AF92A0
:10110000BF92CF92DF92EF92FF920F931F93CF93F4
:10111000DF93EC018D81811102C080E076C00B89E4
:101120001C892D893E890417150726073707A8F360
:101130006A017B01823029F4CA86DB86EC86FD8653
:101140000DC0C114D104E104F10451F41E821F82C8
:10115000188619861A861B861C861D8681E055C056
:101160008A849B84AC84BD84EB8DFC8D258530E026
:10117000275F3F4FB501A401415051096109710931
:10118000022E04C076956795579547950A94D2F735
:10119000D701C6010197A109B10904C0B695A79569
:1011A000979587952A95D2F784179507A607B707CD
:1011B00020F089288A288B2849F44F89588D698D19
:1011C0007A8D4E835F836887798704C0841B950B73
:1011D000A60BB70B4C015D018E010A5F1F4F8114F6
:1011E0009104A104B10409F4A7CF4E815F81688501
:1011F000798598018B8D9C8D45DE91E0891A910847
:10120000A108B1088111EBCF88CFDF91CF911F9159
:101210000F91FF90EF90DF90CF90BF90AF909F9095
:101220008F9008953F924F925F926F927F928F922C
:101230009F92AF92BF92CF92DF92EF92FF920F9365
:101240001F93CF93DF93CDB7DEB72C970FB6F894EB
:10125000DEBF0FBECDBF5C01DC015B968D909C9024
:101260005C971696CD90DD90ED90FC901997C11487
:10127000D104E104F10439F0BFEFCB1ADB0AEB0A29
:10128000FB0A312C07C0F401C080D180E280F380DA
:1012900033243394F40181859285A385B4859C0120
:1012A000AD012F5F3F4F4F4F5F4F29873A874B87E5
:1012B0005C87260137011D821E821F821886F40179
:1012C00081859285A385B4852D813E814F81588586
:1012D000281739074A075B0708F060C089859A8597
:1012E000AB85BC858C159D05AE05BF0550F482E02D
:1012F000C82ED12CE12CF12C92E0492E512C612CDE
:10130000712C9E012F5F3F4FB701A601C401BADDCA
:10131000882309F443C089819A81AB81BC81892BE0
:101320008A2B8B2B41F0260137019FEF491A590A6E
:10133000690A790A05C0C414D504E604F70491F0DB
:101340002D813E814F8158852F5F3F4F4F4F5F4F1B
:101350002D833E834F8358873FEFC31AD30AE30A96
:10136000F30AADCF0FEF1FEF2FEF3FE0B301A20164
:10137000C401E9DC882391F0D50116964D915D9169
:101380006D917C911997411551056105710541F0E9
:1013900093018201C401D7DC811102C080E02AC020
:1013A000D50116964D925D926D927C9219973320DD
:1013B00051F0D301C2010196A11DB11DF40180833A
:1013C0009183A283B383F5018789908DA18DB28D1E
:1013D000892B8A2B8B2B69F4D50157964D925D9200
:1013E0006D927C925A9714968C91149780681496FB
:1013F0008C9381E02C960FB6F894DEBF0FBECDBF64
:10140000DF91CF911F910F91FF90EF90DF90CF90E0
:10141000BF90AF909F908F907F906F905F904F9014
:101420003F9008954F925F926F927F928F929F921A
:10143000AF92BF92CF92DF92EF92FF920F931F93E2
:10144000CF93DF931F92CDB7DEB7DC0115962C91B9
:10145000223018F480E090E005C16C01FC01428567
:10146000538564857585DB01CA0125E0B695A7958E
:10147000979587952A95D1F7F82FFF705F2ED601A3
:1014800014968C9180FFEBC044244394F601838929
:101490009489A589B68984179507A607B70709F423
:1014A000412C842D90E09E012F5F3F4F4901360172
:1014B00036E0630E711C892B09F483C0F601428566
:1014C0005385648575855A01F1E0BF22D6011596D2
:1014D0002C9115977A018B0189E016950795F79461
:1014E000E7948A95D1F75B968D919C915C97223019
:1014F00061F4FC01828D938DA48DB58DBC01CD016D
:101500006E0D7F1D801F911F48C0DC0114962C9129
:101510002150122F1E21A114B104E1F411111AC09F
:10152000452B462B472B51F4F6018789908DA18DD1
:10153000B28D86839783A087B1870CC0D60116969B
:101540004D915D916D917C91199793019BDC88235E
:1015500009F485C0F601238D348D86819781A0859D
:10156000B1850297A109B109AC01BD01F90105845A
:1015700004C0440F551F661F771F0A94D2F7868553
:101580009785A089B189840F951FA61FB71FBC013D
:10159000CD01610F711D811D911DD60114962C91F5
:1015A00026FF2AC000910002109101022091020240
:1015B00030910302601771078207930709F03EC05C
:1015C0001BC0442009F44BC0898190E0019609F4C6
:1015D00041CFF60182859385A485B5854F96A11DDF
:1015E000B11D82879387A487B587F0E25F9EC00113
:1015F000112488509C4F36C040E049DA882379F1A5
:10160000F501E850FC4FD401CF010196E817F90726
:1016100019F021912D93FACFEFEF8E1A9E0AF60161
:1016200082859385A485B5850196A11DB11D82870C
:101630009387A487B58780E090E03DCF740101E0F7
:1016400010E09501AB01BC018091E3039091E403AC
:10165000F9D8882321F0BFEF8B1A9B0AE0CF8FEFD8
:101660009FEFB4CF0F90DF91CF911F910F91FF901B
:10167000EF90DF90CF90BF90AF909F908F907F9032
:101680006F905F904F900895CF93DF93FC0124817A
:1016900027FF2DC0EC01668577858089918941E01F
:1016A000F6D9882339F1EA8980E2E89FF001112414
:1016B000DF01A850BC4F1097E9F08D81823050F4C3
:1016C0004B895C896D897E895C964D935D936D93A2
:1016D0007C935F978F89988DA98DBA8DE850FC4FC8
:1016E000938F828FB58BA48B8C818F778C83DF91C6
:1016F000CF9192C980E0DF91CF9108958F929F9210
:10170000AF92BF92DF92EF92FF920F931F93CF930E
:10171000DF9300D01F921F92CDB7DEB78C016D838F
:10172000DC0115968C9115978130C1F414968C913B
:1017300081FF14C082FF1CC0F80143895489658968
:10174000768982859385A485B58584179507A60734
:10175000B70771F0C801D1DC81110AC081E090E0C7
:10176000D80113969C938E93129780E090E0E3C08B
:10177000D8011A964D915D916D917C911D975B9664
:101780008D919C915C97FC01D480DA944A015B01B5
:1017900029E0B694A794979487942A95D1F7D820F6
:1017A0007A01F1E0FF22D11045C0E114F10409F003
:1017B00041C0D80116964D915D916D917C9119971C
:1017C000411551056105710559F457968D919D910B
:1017D0000D90BC91A02D0097A105B10531F520C059
:1017E0009E012F5F3F4F4EDB882309F4BECF8981D6
:1017F0009A81AB81BC81F801238D348DF901278951
:10180000203129F048EF5FEF6FEF7FE004C048EF31
:101810005FEF60E070E084179507A607B70728F030
:10182000C80100DD811106C099CFF8018683978336
:10183000A087B187D8015B96ED91FC915C971696D5
:101840008D909D90AD90BC901997B2E08B1A910845
:10185000A108B108058404C0880C991CAA1CBB1CF3
:101860000A94D2F786859785A089B189880E991E3A
:10187000AA1EBB1E8D0C911CA11CB11CE114F1040D
:1018800001F5F801428553856485758583899489BE
:10189000A589B689481759076A077B0790F0BCD815
:1018A000882309F45BCF8092000290920102A092FB
:1018B0000202B09203028091DE0381608093DE0316
:1018C00007C041E0C501B401E2D8882309F446CF3E
:1018D000F701E850FC4F8D818083F8018285938564
:1018E000A485B5850196A11DB11D82879387A48724
:1018F000B5874389548965897689481759076A07E6
:101900007B0738F4838B948BA58BB68B848180689E
:101910008483D80114968C9183FD03C081E090E00C
:101920000AC0F8018581882309F418CFC801ACDE0C
:101930008111F4CF13CF0F900F900F900F900F9055
:10194000DF91CF911F910F91FF90EF90DF90BF90AB
:10195000AF909F908F9008950F931F93CF93DF9335
:10196000EC018B0141E0DAD8811108C040E0B801F8
:10197000CE01DF91CF911F910F91D0C881E0DF910F
:10198000CF911F910F910895FC01A089B1898C918D
:10199000A689B78982FD0FC09C91818D8F5F8F735F
:1019A000228D821749F0218DDF01A20FB11D5D96B6
:1019B0009C93818F08958C910895FC01538D448DE3
:1019C000252F30E0842F90E0821B930B541710F0EA
:1019D000CF96089501970895FC01918D828D9817F7
:1019E00061F0828DDF01A80FB11D5D968C91928D03
:1019F0009F5F9F73928F90E008958FEF9FEF089500
:101A0000FC01918D828D981731F0828DE80FF11DC8
:101A1000858D90E008958FEF9FEF0895FC01918DE3
:101A2000228D892F90E0805C9F4F821B91098F73DC
:101A30009927089588EF95E0F1DF21E0892B09F4DB
:101A400020E0822F089585E996E0E8DF21E0892BE8
:101A500009F420E0822F089582E397E0DFDF21E0A0
:101A6000892B09F420E0822F08958FEC97E0D6DFD0
:101A700021E0892B09F420E0822F0895CF92DF9294
:101A8000EF92FF921F93CF93DF93EC016A017B01EA
:101A9000122FE889F98982E080834115514E610552
:101AA0007105B1F060E079E08DE390E0A701960167
:101AB0000E94861ADA01C9010197A109B109B695F8
:101AC000A79597958795AC01411580E15807A8F037
:101AD000E889F989108260E874E88EE190E0A70156
:101AE00096010E94861ABA01A90141505109610963
:101AF00071097695679557954795EC85FD855083D7
:101B0000EE85FF854083188EEC89FD891083EA8974
:101B1000FB89808180618083EA89FB89808188607C
:101B20008083EA89FB89808180688083EA89FB89D8
:101B300080818F7D8083DF91CF911F91FF90EF9007
:101B4000DF90CF900895FC01848DDF01A80FB11DB7
:101B5000A35ABF4F2C91848D90E001968F739927E3
:101B6000848FA689B7892C93A089B1898C918064D0
:101B70008C93938D848D981306C00288F389E02D91
:101B800080818F7D80830895EF92FF920F931F9342
:101B9000CF93DF93EC0181E0888F9B8D8C8D981320
:101BA00005C0E889F989808185FD23C0F62E0B8D5B
:101BB00010E00F5F1F4F0F731127E02E8C8DE8127E
:101BC0000BC00FB607FCFACFE889F989808185FF41
:101BD000F5CFCE01B8DFF2CF8B8DFE01E80FF11DFE
:101BE000E35AFF4FF0820B8FEA89FB898081806284
:101BF00007C0EE89FF896083E889F9898081806464
:101C0000808381E090E0DF91CF911F910F91FF9051
:101C1000EF900895CF93DF93EC01888D8823C1F076
:101C2000EA89FB89808185FD05C0A889B9898C91E5
:101C300086FD0EC00FB607FCF5CF808185FFF2CF81
:101C4000A889B9898C9185FFEDCFCE017CDFE8CFE3
:101C5000DF91CF91089580E090E0892B19F005DFA6
:101C6000811116C080E090E0892B19F0F5DE81111A
:101C700012C080E090E0892B19F0E5DE81110EC0E2
:101C800080E090E0892B79F0D5DE81110AC00895BB
:101C90000E940000E7CF0E940000EBCF0E940000EE
:101CA000EFCF0C94000008950E94031D1F920F9225
:101CB0000FB60F9211240BB60F922F933F934F93B1
:101CC0005F936F937F938F939F93AF93BF93EF93A4
:101CD000FF9388EF95E037DFFF91EF91BF91AF91D0
:101CE0009F918F917F916F915F914F913F912F9134
:101CF0000F900BBE0F900FBE0F901F9018951F9264
:101D00000F920FB60F9211240BB60F922F933F93A1
:101D10004F935F936F937F938F939F93AF93BF93F3
:101D2000EF93FF9388EF95E02FDEFF91EF91BF9146
:101D3000AF919F918F917F916F915F914F913F9163
:101D40002F910F900BBE0F900FBE0F901F90189504
:101D50001F920F920FB60F9211240BB60F922F9372
:101D60003F934F935F936F937F938F939F93AF9323
:101D7000BF93EF93FF9385E996E0E5DEFF91EF9146
:101D8000BF91AF919F918F917F916F915F914F9193
:101D90003F912F910F900BBE0F900FBE0F901F9091
:101DA00018951F920F920FB60F9211240BB60F9237
:101DB0002F933F934F935F936F937F938F939F9353
:101DC000AF93BF93EF93FF9385E996E0DDDDFF913D
:101DD000EF91BF91AF919F918F917F916F915F91A3
:101DE0004F913F912F910F900BBE0F900FBE0F9010
:101DF0001F9018951F920F920FB60F9211240BB6D9
:101E00000F922F933F934F935F936F937F938F9393
:101E10009F93AF93BF93EF93FF9382E397E093DE9B
:101E2000FF91EF91BF91AF919F918F917F916F91B2
:101E30005F914F913F912F910F900BBE0F900FBE6E
:101E40000F901F9018951F920F920FB60F921124AA
:101E50000BB60F922F933F934F935F936F937F93A4
:101E60008F939F93AF93BF93EF93FF9382E397E09A
:101E70008BDDFF91EF91BF91AF919F918F917F91FA
:101E80006F915F914F913F912F910F900BBE0F90EB
:101E90000FBE0F901F9018951F920F920FB60F92C2
:101EA00011240BB60F922F933F934F935F936F9331
:101EB0007F938F939F93AF93BF93EF93FF938FEC99
:101EC00097E041DEFF91EF91BF91AF919F918F918C
:101ED0007F916F915F914F913F912F910F900BBE2A
:101EE0000F900FBE0F901F9018951F920F920FB674
:101EF0000F9211240BB60F922F933F934F935F9342
:101F00006F937F938F939F93AF93BF93EF93FF93C1
:101F10008FEC97E039DDFF91EF91BF91AF919F91E9
:101F20008F917F916F915F914F913F912F910F9082
:101F30000BBE0F900FBE0F901F901895CF93DF939D
:101F4000282F30E0F901E45CFE4F8491F901E05163
:101F5000FE4FD491F901EA5CFD4FC491CC2391F07E
:101F600081110E947701EC2FF0E0EE0FFF1FEE5D74
:101F7000FE4FA591B491EC91ED2381E090E021F426
:101F800080E002C080E090E0DF91CF9108951F9340
:101F9000CF93DF93282F30E0F901E45CFE4F84916A
:101FA000F901E051FE4FD491F901EA5CFD4FC49173
:101FB000CC23C9F0162F81110E947701EC2FF0E09D
:101FC000EE0FFF1FE85FFE4FA591B4918FB7F89415
:101FD000111105C09C91ED2FE095E92302C0EC9111
:101FE000ED2BEC938FBFDF91CF911F910895E0917E
:101FF000CF07F091D0070190F081E02D682F8FEC92
:1020000097E01994CF92DF92EF92FF920F931F9374
:10201000CF93DF936C017A018B01C0E0D0E0CE1545
:10202000DF0589F0D8016D918D01D601ED91FC910C
:102030000190F081E02DC6011995892B11F47E01E4
:1020400002C02196ECCFC701DF91CF911F910F9174
:10205000FF90EF90DF90CF900895CF93DF93C1EE84
:10206000D8E061E089810E94CD0160E089818FDF45
:1020700061E088818CDF61E0898189DF60E08981AE
:10208000DF91CF910C94CD01CF93DF93C1EED8E0D7
:1020900061E089810E94CD0160E0888178DF61E0A4
:1020A000898175DF61E0888172DF60E088816FDFA0
:1020B00060E08981DF91CF910C94CD0160E0809147
:1020C000E2080E94CD0161E08091E10860DF80912B
:1020D000E208811101C0FFCF60E08091E10857CF95
:1020E000EF92FF920F931F93CF93DF93E82EF62E7C
:1020F000C7E0D0E0042F10E098010C2E02C0359507
:1021000027950A94E2F7B901617077278E2D3FDF9A
:1021100061E08F2D3CDF60E08F2D39DF219760F784
:10212000DF91CF911F910F91FF90EF9008950F9342
:102130001F93CF93DF931F92CDB7DEB7482F01EEE9
:1021400018E061E0F801818149830E94CD01498155
:10215000F801608181810F90DF91CF911F910F91E4
:10216000BFCF0F931F93CF93DF931F92CDB7DEB7EF
:10217000482F01EE18E061E0F801818149830E9457
:10218000CD0161E0F801818102DF61E0F801808129
:10219000FEDE60E0F8018181FADE60E0F801808116
:1021A000F6DE4981F801608181810F90DF91CF9146
:1021B0001F910F9195CF1F93CF93DF9360E0809194
:1021C000E2080E94CD01C7E0D0E010E061E080911C
:1021D000E108DDDE8091E208B1DE9C0133270C2EA0
:1021E00001C0220F0A94EAF7122B60E08091E10807
:1021F000CEDE219758F7812FDF91CF911F9108955F
:102200000F931F93CF93DF93EC01888199810097FF
:1022100029F02A813B812617370788F48B016F5FED
:102220007F4F0E941F1C009761F0998388831B8356
:102230000A832C813D81232B11F4FC01108281E063
:1022400001C080E0DF91CF911F910F9108950F930E
:102250001F93CF93DF93CDB7DEB728970FB6F894CF
:10226000DEBF0FBECDBF80ED7CDF28DF80E05FDF0B
:1022700025DFF3DE81ED75DF21DF00E010E09BDF7D
:10228000F801EF51F74F828307301105D9F061E073
:102290008091E2080E94CD0160E08091E10877DE44
:1022A00060E08091E20873DE61E08091E1086FDE1A
:1022B00060E08091E1086BDE60E08091E2080E94BE
:1022C000CD0101C0E1DE0F5F1F4F08301105B9F6E7
:1022D000C4DE8091E308482F4695469546954E709A
:1022E000942F990F990F490F8F70480F8091E40830
:1022F000382F3695369536953E70932F990F990F56
:10230000390F8F70380F8091E508282F2F7087FFC5
:1023100008C085FB992790F97CE0979F200D112438
:1023200009C08073869586958695982F990F990F89
:10233000890F280FE091E6086091E7087091E8089E
:102340008091E908562F5695569556955E70952FB3
:10235000990F990F590F6F70560F672F66956695F5
:1023600066956E70962F990F990F690F7F70670FA2
:10237000982F92959F708F707AE0979F800D11240F
:1023800090E08053984F9F838E83782F8F819E2F6C
:1023900028960FB6F894DEBF0FBECDBFDF91CF9168
:1023A0001F910F9108951F93CF93DF931F92CDB785
:1023B000DEB7182F80ED6983D4DE80DE812FB7DE93
:1023C0007DDE6981862FB3DE79DE0F90DF91CF91BC
:1023D0001F9143CE1F93CF93DF931F92CDB7DEB7EC
:1023E000182F80EDBEDE6ADE812FA1DE67DE35DECE
:1023F00081EDB7DE63DEDFDE898346DE2EDE898196
:102400000F90DF91CF911F910895EF92FF920F935C
:102410001F93CF93DF936115710511F480E022C003
:10242000FB0101900020E9F73197E61BF70BDC0177
:1024300014960D911C911597309799F07B01EC0142
:102440000E0F1F1FB801DCDE882341F3288139817C
:102450008C819D81B701820F931F0E94101D1D83E7
:102460000C8381E0DF91CF911F910F91FF90EF904E
:102470000895EF92FF920F931F93CF93DF93EC0198
:10248000198218821B821A821D821C8261157105B5
:1024900041F18B01FB0101900020E9F731977F01A9
:1024A000E61AF70AB701ACDE2881398181110DC027
:1024B0002115310519F0C9010E94871B1982188264
:1024C0001D821C821B821A820CC0FD82EC82B80124
:1024D000C901DF91CF911F910F91FF90EF900C9464
:1024E000101DDF91CF911F910F91FF90EF900895F4
:1024F0006115710579F0FB0101900020E9F7319732
:10250000AF01461B570BDC01ED91FC910280F3817A
:10251000E02D199480E090E0089561EC73E0E8CF3D
:10252000CF93DF934AE0BED3EC018FEC97E0F5DF69
:102530008C0F9D1FDF91CF9108953F924F925F9234
:102540006F927F928F929F92AF92BF92CF92DF92C3
:10255000EF92FF920F931F93CF93DF93CDB7DEB728
:102560006D970FB6F894DEBF0FBECDBF7C01FC01A6
:102570001682178210861186128613861486158697
:10258000C62ED12C71E2A72E72E0B72E7724739459
:10259000E2E05E2E560EF4E06F2EC7010E94120A92
:1025A0008C01892B09F420C1F8018081882309F46A
:1025B0001BC1853E91F38E3281F3838583FDEDCF80
:1025C000912C892D092C000C990B8C159D0524F458
:1025D00080E20DDD9394F5CF4801412C312CF401BC
:1025E0008081803261F0F8E03F1203C08EE2FFDCB0
:1025F0004394F40160818FEC97E0C6DA43943394FE
:10260000FFEF8F1A9F0A8BE03812E9CFF80183851C
:102610008871803119F48FE2EADC4394FDE0F4150F
:1026200010F080E2F9CFF801808C918CB401672F13
:10263000772766956454784F80E090E04AE032D383
:102640008DE2D5DCC40145E0969587954A95E1F782
:102650008F700E944B038DE2CADC882D8F710E941F
:102660004B0380E2C4DCF80186889788892D869523
:10267000869586950E944B038AE3B9DCC40155E038
:10268000969587955A95E1F78F730E944B038AE3DD
:10269000AEDC882D8F71880F0E944B03F801838573
:1026A0008871803151F48FEC97E037DFF801838532
:1026B0008871803109F071CF0AC080E298DCF8019E
:1026C000648D758D868D978D4AE0ECD2ECCFF70145
:1026D000028513852485358585E0369527951795E0
:1026E00007958A95D1F7015011091C821B82BA8285
:1026F000A9821E82838D948D9D8F8C8F480195E0D9
:10270000880C991C9A95E1F7A40160E070E0C7017C
:102710000E947D08882309F45EC0C7010E94120A46
:10272000009709F458C0FC018081882309F453C044
:10273000853E09F450C08E3209F44DC00F700B8BEA
:102740008091000290910102A0910202B0910302D7
:102750008F87988BA98BBA8B80E2089FF001112498
:10276000E850FC4F4489558960E070E0BA01552774
:102770004427828D938DA0E0B0E0482B592B6A2B23
:102780007B2B488F598F6A8F7B8F8385887151F49B
:10279000848D958DA68DB78D8C8B9D8BAE8BBF8BCD
:1027A0007E820CC08031B9F49E012C5E3F4F8C8D2F
:1027B0009D8D0E94C507882371F06E827D821F82E5
:1027C000188619861A861B861C861D861E86652D10
:1027D000CE010196B2DEA401405E5F4F60E070E082
:1027E000C7010E947D08D9CE6D960FB6F894DEBF62
:1027F0000FBECDBFDF91CF911F910F91FF90EF9052
:10280000DF90CF90BF90AF909F908F907F906F9010
:102810005F904F903F9008950F931F93CF93DF9356
:10282000EC0166DE8C01CE0178DE800F911FDF9116
:10283000CF911F910F9108950F931F930E9409024A
:10284000609300067093010680930206909303063E
:10285000E091F805F091F9050284F385E02D88EF09
:1028600095E0199597FF1FC00E940902009100068C
:10287000109101062091020630910306DC01CB0184
:10288000801B910BA20BB30B0091FC051091FD0571
:102890002091FE053091FF0580179107A207B3072D
:1028A000B8F28FEF9FEF1F910F910895EF92FF9273
:1028B0000F931F93CF93DF9300D01F92CDB7DEB756
:1028C00019821A821B821C8281E090E0A0E0B0E0B5
:1028D0008093FC059093FD05A093FE05B093FF0542
:1028E0008E010F5F1F4F7E0185E0E80EF11CA4DF13
:1028F00097FF04C08981813091F407C0F80181936A
:102900008F01EE15FF0599F7F5CF8A818F3F39F4D6
:102910008B818F3F21F481E09C819F3F09F080E013
:102920000F900F900F900F90DF91CF911F910F910B
:10293000FF90EF900895CF92DF92EF92FF920F9366
:102940001F93CF93DF93CDB7DEB72E970FB6F894D2
:10295000DEBF0FBECDBF7C018B0161ED73E0CE0108
:10296000099687DDD70112966D917C911397CE0160
:1029700009964BDD66ED73E0CE01099646DD89854B
:102980009A850E946902FE01319688E0DF011D925E
:102990008A95E9F70115110511F410E045C081E0B1
:1029A00090E0A0E0B0E08093FC059093FD05A0933B
:1029B000FE05B093FF057F01C12CD12C3DDF97FDB3
:1029C000ECCFF70181937F01FFEFCF1ADF0A88E098
:1029D000C816D10499F789818137F9F68E818F3F26
:1029E000E1F68F818F3FC9F688858F3FB1F62D8143
:1029F0008C8190E0A0E0B0E0DC0199278827B22B21
:102A00002A81822B4B8150E0542F4427052E000C45
:102A1000660B770B842B952BA62BB72BF8018083A5
:102A20009183A283B38311E089859A8570D6812F23
:102A30002E960FB6F894DEBF0FBECDBFDF91CF91BB
:102A40001F910F91FF90EF90DF90CF9008950F931B
:102A50001F93CF93DF938C01C0E0D0E0F801EC0F1F
:102A6000FD1F6491662371F0E091CF07F091D007CC
:102A70000190F081E02D8FEC97E01995892B11F0F2
:102A80002196ECCF8FEC97E048DD8C0F9D1FDF91F6
:102A9000CF911F910F9108958F929F92AF92BF9205
:102AA000CF92DF92EF92FF920F931F93CF93DF931A
:102AB000EC011B8619861E821D8285E38C830E9491
:102AC00009026B017C0161E08C810E94CD0161E013
:102AD0008C815DDA1FB7F8948091520A811126C06B
:102AE000EBE6F2E08491E5E2F2E09491E82FF0E089
:102AF000EE0FFF1FEA52FE4FA591B491EC91E9232E
:102B000019F461E085E343DA61E085E30E94CD01D9
:102B10008CB580618CBD8CB580648CBD61E084E334
:102B20000E94CD0161E083E30E94CD018091520AB1
:102B30008F5F8093520A1FBF82E580936C081092CA
:102B40006D0880916C0890916D080E94AF031AE0A7
:102B50008FEF0E9476031150D9F7CE010E94B20385
:102B600020E030E0A90160E0CE010E94C703182FE9
:102B70008A87813049F00E9409026C197D09613D04
:102B8000774070F381E065C02AEA31E040E050E030
:102B900068E0CE010E94C70382FF02C01B870CC001
:102BA00004E00E947D038A870150D9F78A3A11F028
:102BB00082E04FC082E08B878B85823021F0812CB0
:102BC000912C540105C0812C912CA12C80E4B82EAD
:102BD00000E020E030E0A90167E3CE010E94C703D6
:102BE000A501940169E2CE010E94C7038A87882368
:102BF00019F10E9409026C197D09613D774010F0BE
:102C000088E027C08A8520E030E0A90182FD0DC060
:102C100001110BC067E3CE010E94C703A501940117
:102C200069E2CE010E94C70305C061E0CE010E94A7
:102C3000C70301E08A87CDCF8B858230E9F420E09D
:102C400030E0A9016AE3CE010E94C703882339F06E
:102C500086E08D83CE010E946B0310E015C00E94B8
:102C60007D03807C803C11F483E08B870E947D0390
:102C70000E947D030E947D03CE010E946B0380E5CC
:102C800080936C0810926D08812FDF91CF911F9176
:102C90000F91FF90EF90DF90CF90BF90AF909F90FB
:102CA0008F9008958F929F92AF92BF920F931F9330
:102CB000CF93DF93CDB7DEB7A1970FB6F894DEBF01
:102CC0000FBECDBF19A2423008F44AE08E010F5D5D
:102CD0001F4F842E912CA12CB12CA501940116D448
:102CE000E62FB901CA0101501109EA3014F4E05D80
:102CF00001C0E95CD801EC93232B242B252B69F729
:102D0000B8018FEC97E0F4DBA1960FB6F894DEBF24
:102D10000FBECDBFDF91CF911F910F91BF90AF90AC
:102D20009F908F9008958091B7089091B808EFD444
:102D30008091EB089091EC08EAC4CF93DF93CDB774
:102D4000DEB728970FB6F894DEBF0FBECDBF7894DC
:102D500084B5826084BD84B5816084BD85B58260A0
:102D600085BD85B5816085BD80916E008160809351
:102D70006E001092810080918100826080938100BA
:102D800080918100816080938100809180008160CA
:102D9000809380008091B10084608093B100809125
:102DA000B00081608093B000809191008260809338
:102DB00091008091910081608093910080919000BA
:102DC0008160809390008091A10082608093A10037
:102DD0008091A10081608093A1008091A00081601A
:102DE0008093A000809121018260809321018091D5
:102DF0002101816080932101809120018160809375
:102E0000200180917A00846080937A0080917A001A
:102E1000826080937A0080917A00816080937A004A
:102E200080917A00806880937A001092C10026E039
:102E300040E855E260E070E088EF95E00E943E0DCA
:102E40006BE372E088EF95E0E7DC2EE040E05BE4C6
:102E500060E070E085E996E00E943E0D61E088E266
:102E60000E94CD0161E088E292D862E572E085E9D6
:102E700096E0D2DC60E088E28AD826E040E051EEBD
:102E800060E070E08FEC97E00E943E0D6DE672E02E
:102E90008FEC97E0C1DC26E040E855E260E070E0AE
:102EA00088EF95E00E943E0D83EC93E00E9469025A
:102EB00089E892E00E946902F9DC81E992E00E94CF
:102EC0006902F4DC82E791E09093DE088093DD08EC
:102ED0001092E0081092DF0887E193E09093D20807
:102EE0008093D1081092D4081092D30883EE92E018
:102EF0009093C6088093C5081092C8081092C7081E
:102F000080E068DA682F6F7780E04DDA62E083E076
:102F10004ADA62E182E047DA60E081E044DA60E0C8
:102F200080E041DA68E186E03EDA66E085E03BDA9F
:102F300066E284E038DA87E04DDA682F6C7F87E05C
:102F400032DA87E047DA682F606187E02CDA7FD9D0
:102F50006D837E838F835A3010F480E304C0852F05
:102F60006AE005D3805D809398023AE0852F632F55
:102F7000FED2905D909399028EE280939A022D8109
:102F80002A3010F480E304C0822F632FF0D2805DDA
:102F900080939B021AE0822F612FE9D2905D90937B
:102FA0009C028EE280939D022E813F81C90168EED2
:102FB00073E0E9D240E3460F40939E02E4E6F0E07E
:102FC000BF01E1D280E3860F80939F02C901BF0158
:102FD000DAD2EAE0F0E0BF01D6D280E3860F809338
:102FE000A002C901BF01CFD2805D8093A1021092DF
:102FF000A20268E972E08FEC97E00EDC28D93A83F0
:103000004B832A3010F480E304C0822F612FAFD2AB
:10301000805D80939A023AE0822F632FA8D2905D60
:1030200090939B028AE380939C022A812A3010F4B9
:1030300080E304C0822F632F9AD2805D80939D022B
:103040003AE0822F632F93D2905D90939E028AE3A1
:1030500080939F022B812A3010F480E304C0822FDA
:10306000632F85D2805D8093A002822F6AE07FD299
:10307000905D9093A1021092A2026AE972E08FEC37
:1030800097E0CADB8DEB91E0E2DC86E49AE004DDB8
:10309000811104C083EA91E0DADCA7C082E891E004
:1030A000D6DC8EE698E0F8DC882371F06EE678E0F6
:1030B0008AE798E00E94AC0C882331F06AE778E058
:1030C00088E998E00E942D0863EA72E08FEC97E0AF
:1030D0000FDA6091510A70E080E090E04AE0E2DDB2
:1030E0008FEC97E01ADA8091510A823039F0833000
:1030F00041F0813049F466EB72E008C06AEB72E09F
:1031000005C06EEB72E002C063EC72E08FEC97E0FA
:1031100083DB66E47AE088E29AE00E94AC0C8111DD
:1031200006C06BEC72E08FEC97E076DB5EC06CE281
:1031300073E08FEC97E0DCD960913F0A70E080E0AB
:1031400090E04AE0AFDD8FEC97E0E7D98FEC97E0B5
:10315000E4D9A0912C0A4091310A5091320A609131
:10316000330A7091340A9A01AB0189E0220F331FB0
:10317000441F551F8A95D1F7B0E0BED16B017C0189
:1031800063E473E08FEC97E0B3D9C701B601C8D907
:1031900069E573E08FEC97E0ABD9C701B6012AE08F
:1031A00096958795779567952A95D1F7B9D960E770
:1031B00073E08FEC97E09CD9C701B60134E1969596
:1031C0008795779567953A95D1F7AAD967E873E01F
:1031D0008FEC97E021DB68E27AE08BE09AE00E94D6
:1031E0002D0860E08BE09AE0A8D961E086E10E94BA
:1031F000CD0160E086E10E94C70F0E940902609342
:10320000F4037093F5038093F6039093F703C09053
:10321000F003D090F103E090F203F090F3039B01F0
:10322000AC012C193D094E095F0969017A0134EF9F
:10323000C31631E0D306E104F10490F06093F0038B
:103240007093F1038093F2039093F30386E10E945D
:103250009E0F61E0892B09F060E086E10E94C70FB4
:103260000E942B0ECACFE8EFF5E01382128248EEDF
:1032700053E060E070E044835583668377838FE09A
:1032800092E09183808325E331E03587248724E32E
:1032900031E03787268720E331E0318B208B21E333
:1032A00031E0338B228B22E331E0358B248B26E314
:1032B00031E0378B268B118E128E138E148EE5E93A
:1032C000F6E0138212824483558366837783918369
:1032D000808325ED30E03587248724ED30E0378783
:1032E000268720ED30E0318B208B21ED30E0338BD1
:1032F000228B22ED30E0358B248B26ED30E0378BAE
:10330000268B118E128E138E148EE2E3F7E0138259
:1033100012824483558366837783918380832DEC67
:1033200030E0358724872CEC30E03787268728EC7F
:1033300030E0318B208B29EC30E0338B228B2AEC70
:1033400030E0358B248B2EEC30E0378B268B118EC2
:10335000128E138E148EEFECF7E0138212824483E8
:103360005583668377839183808385EC90E095878E
:10337000848784EC90E09787868780EC90E0918B3F
:10338000808B81EC90E0938B828B82EC90E0958B2C
:10339000848B86EC90E0978B868B118E128E138E29
:1033A000148EECE6F8E080E580831182EEE6F8E02A
:1033B000158216821186138642E050E060E070E0CC
:1033C000448755876687778713A215A614A681E2DE
:1033D00092E093A782A717A6E6E4FAE01582168288
:1033E00011861386E8E2FAE0408351836283738397
:1033F000178AEBE0FAE013821282918380831582B0
:103400001092060A1092050A1092080A1092070AF2
:1034100010920A0A1092090A64EC73E08BEE98E0AD
:1034200028D8E1EEF8E084E1818385E1808361E0E2
:103430000E94CD01E5EDF8E010828DE0818387ECFC
:1034400093E09383828315821482118610861386FB
:10345000128617821682E9ECF8E010828EE18183F1
:103460008BEC93E0938382831582148211861086FD
:103470001386128617821682EDEBF8E0108281E245
:1034800081838EEC93E0938382831582148211866C
:103490001086138612861782168263EC73E087EB20
:1034A00098E00C943912BB27FB015527AA27880FF7
:1034B000991FAA1FA41710F0A41B83955051B9F7A8
:1034C000A05DAA3308F0A95DA193009779F7B11127
:1034D000B1931192CB0100C0DC01FC01672F719107
:1034E0007723E1F7329704C07C916D9370836291EA
:1034F000AE17BF07C8F308952BD0A59F900DB49FBA
:10350000900DA49F800D911D11240895A1E21A2E03
:10351000AA1BBB1BFD010DC0AA1FBB1FEE1FFF1F77
:10352000A217B307E407F50720F0A21BB30BE40BC7
:10353000F50B661F771F881F991F1A9469F760950E
:103540007095809590959B01AC01BD01CF010895C8
:10355000A29FB001B39FC001A39F700D811D1124D4
:10356000911DB29F700D811D1124911D0895991B0D
:1035700079E004C0991F961708F0961B881F7A956A
:10358000C9F78095089597FB072E16F4009406D08E
:1035900077FD08D013D007FC05D03EF490958195B7
:1035A0009F4F0895709561957F4F0895EE0FFF1F0F
:1035B000881F8BBF0790F691E02D1994AA1BBB1BA7
:1035C00051E107C0AA1FBB1FA617B70710F0A61B23
:1035D000B70B881F991F5A95A9F780959095BC0144
:1035E000CD010895CF93DF938230910510F482E0EE
:1035F00090E0E091550AF091560A20E030E0C0E0FA
:10360000D0E0309711F14081518148175907C0F03F
:103610004817590761F482819381209719F09B83A1
:103620008A832BC09093560A8093550A26C0211591
:10363000310519F04217530718F49A01BE01DF0152
:10364000EF010280F381E02DDCCF2115310509F176
:10365000281B390B2430310590F412968D919C91E2
:1036600013976115710521F0FB019383828304C0D8
:103670009093560A8093550AFD01329644C0FD018D
:10368000E20FF31F81939193225031092D933C93C4
:103690003AC02091530A3091540A232B41F42091CF
:1036A0000602309107023093540A2093530A209166
:1036B0000402309105022115310541F42DB73EB7C2
:1036C0004091080250910902241B350BE091530AE6
:1036D000F091540AE217F307A0F42E1B3F0B2817B2
:1036E000390778F0AC014E5F5F4F2417350748F07B
:1036F0004E0F5F1F5093540A4093530A8193919346
:1037000002C0E0E0F0E0CF01DF91CF9108950F9388
:103710001F93CF93DF93009709F48CC0FC0132977D
:10372000138212820091550A1091560A0115110553
:1037300081F420813181820F931F2091530A3091AF
:10374000540A2817390779F5F093540AE093530A7D
:1037500071C0D80140E050E0AE17BF0750F4129698
:103760002D913C911397AD012115310509F1D90136
:10377000F3CF9D01DA013383228360817181860F4B
:10378000971F8217930769F4EC0128813981260F6E
:10379000371F2E5F3F4F318320838A819B81938324
:1037A0008283452B29F4F093560AE093550A42C0D0
:1037B0001396FC93EE931297ED01499159919E0156
:1037C000240F351FE217F30771F480819181840F74
:1037D000951F029611969C938E93828193811396E6
:1037E0009C938E931297E0E0F0E0D80112968D91B1
:1037F0009C911397009719F0F8018C01F6CF8D91E9
:103800009C9198012E5F3F4F820F931F2091530A86
:103810003091540A2817390769F4309729F4109227
:10382000560A1092550A02C0138212821093540A4B
:103830000093530ADF91CF911F910F9108956F92DA
:103840007F928F929F92AF92BF92CF92DF92EF9230
:10385000FF920F931F93CF93DF93EC01009781F4B6
:10386000CB01DF91CF911F910F91FF90EF90DF90EF
:10387000CF90BF90AF909F908F907F906F90B2CE7F
:10388000FC01E60FF71F9C0122503109E217F307F4
:1038900008F4A8C0D9010D911C91119706171707BC
:1038A000A8F00530110508F49BC0C80104978617DD
:1038B000970708F495C002501109061B170B0193D6
:1038C00011936D937C93CF0122DF8AC05B01A01A14
:1038D000B10A4C01800E911EA091550AB091560A72
:1038E00040E050E0E12CF12C109709F44AC0A815F3
:1038F000B905D1F56D907C901197630182E0C80EF7
:10390000D11CCA14DB0480F1A3014A195B096A01C6
:1039100082E0C80ED11C1296BC9012971396AC91FF
:10392000B5E0CB16D10440F0B282A383518340832B
:10393000D9016D937C930AC00E5F1F4FC301800FA6
:10394000911FF90191838083EB2DFA2FE114F1048B
:1039500031F0D7011396FC93EE93129741C0F09388
:10396000560AE093550A3CC08D919C9111974817D7
:10397000590708F4AC017D0112960D90BC91A02D61
:10398000B3CF8091530A9091540A88159905E1F4B8
:1039900046175707C8F480910402909105020097DA
:1039A00041F48DB79EB74091080250910902841BE3
:1039B000950BE817F907B0F4F093540AE093530A13
:1039C000F901718360830CC0CB010CDE7C01009790
:1039D00049F0A801BE011BD0CE0199DEC70104C089
:1039E000CE0102C080E090E0DF91CF911F910F9156
:1039F000FF90EF90DF90CF90BF90AF909F908F900F
:103A00007F906F90089581E090E0F89410C0FB01E2
:103A1000DC0102C001900D9241505040D8F708954A
:103A2000FB01DC0101900D920020E1F7089511E007
:103A3000CFE3D1E000E005C0802FFE01B7DD219685
:103A4000011DC034D10780E00807B1F7F894FFCF1B
:103A5000FFFFFFFF0000570A80000000000000C4C5
:103A60000D0210DD0C0A0E0E0DEC0C000D00000016
:103A7000007E0B02107401730100000000540E025E
:103A800010740173012E7069633D0052533233325A
:103A90005F54544C20436F6E666967757261646F42
:103AA000210052533438352045787465726E6F208A
:103AB000436F6E666967757261646F2100506F7243
:103AC000746120646520446562756720436F6E668B
:103AD000696775726164612100626B636D643D3179
:103AE0000070616765203000787878787878787829
:103AF0007878000A5469706F20646F206361727473
:103B0000C3A36F3A2000534431005344320053445E
:103B1000484300556E6B6E6F776E004EC3A36F20E7
:103B2000666F6920706F7373C3AD76656C20656EC8
:103B3000636F6E747261722061207061727469C308
:103B4000A7C3A36F2046415431362F464154333228
:103B50002E0A436572746966697175652D736520F7
:103B600064652074657220666F726D617461646F44
:103B7000206F2063617274C3A36F2E000A546970B2
:103B80006F20646520766F6C756D6520C3A9204633
:103B9000415400566F6C756D652073697A652028F5
:103BA0006279746573293A2000566F6C756D6520D3
:103BB00073697A6520284B6279746573293A20000D
:103BC000566F6C756D652073697A6520284D627932
:103BD000746573293A20000A4172717569766F73B2
:103BE00020656E636F6E747261646F73206E6F20F8
:103BF00063617274C3A36F20286E6F6D652C20649F
:103C000061746120652074616D616E686F293A206E
:103C1000000D0A004B4700743133007033007034DC
:0C3C20000067657420002E7069630000CE
:00000001FF
